:020000040800F2
:1000000060400020D1010008D9010008DB01000890
:10001000DD010008DF010008E10100080000000028
:10002000000000000000000000000000E3010008E4
:10003000E501000800000000E7010008E9010008F0
:10004000EB010008EB010008EB010008EB010008E0
:10005000EB010008EB010008EB010008EB010008D0
:10006000EB010008EB010008EB010008EB010008C0
:10007000EB010008EB010008EB010008EB010008B0
:10008000EB010008EB010008EB010008EB010008A0
:10009000EB010008EB010008EB010008EB01000890
:1000A000EB010008EB010008EB010008EB01000880
:1000B000EB010008EB010008EB010008EB01000870
:1000C000EB010008EB010008EB010008EB01000860
:1000D000EB010008EB010008EB010008EB01000850
:1000E000EB010008EB010008EB010008EB01000840
:1000F000EB010008EB010008EB0100080000000024
:10010000EB01000800000000EB010008EB01000813
:10011000EB010008EB010008EB010008EB0100080F
:10012000EB010008EB010008EB010008EB010008FF
:10013000EB010008EB010008EB010008EB010008EF
:10014000EB010008EB010008EB010008EB010008DF
:1001500000F002F800F02CF80AA090E8000C8244AD
:100160008344AAF10107DA4501D100F021F8AFF28A
:10017000090EBAE80F0013F0010F18BFFB1A43F085
:1001800001031847740300008403000000230024C7
:1001900000250026103A28BF78C1FBD8520728BF97
:1001A00030C148BF0B6070471FB51FBD10B510BDF3
:1001B00000F031F81146FFF7F7FF00F0F7F800F014
:1001C0004FF803B4FFF7F2FF03BC00F057F800004C
:1001D0000948804709480047FEE7FEE7FEE7FEE7DB
:1001E000FEE7FEE7FEE7FEE7FEE7FEE70448054917
:1001F000054A064B704700008D02000851010008B7
:10020000600000206040002060200020602000206E
:10021000704770477047754600F02CF8AE460500F1
:100220006946534620F00700854618B020B5FFF711
:10023000DDFFBDE820404FF000064FF000074FF013
:1002400000084FF0000BAC46ACE8C009ACE8C009B0
:10025000ACE8C009ACE8C00921F007018D46704741
:1002600010B50446AFF300802046BDE81040FFF70C
:10027000A8BF000000487047000000200149182076
:10028000ABBEFEE7260002007047000080B541F2D9
:100290000000C4F2020001680C2241F0010101607B
:1002A0004168CEF2FF02114041604FF6FF720168D3
:1002B000CEF6F62202F1A0531940016001684FF614
:1002C000FF7321F4802101604168CDF6007319406D
:1002D00041600021C1620168114001604FF47F015B
:1002E000816000F005F980BD1023002A08BF1423A7
:1002F000195070472DE9F047CF0601F00F0C00F1BF
:10030000100E00F1140A4FF000044FF001094FF0F5
:100310000F084FF0000748BF4CEA020C0EE000BF88
:10032000166008FA04F225EA02020CFA04F52A43E0
:1003300002600137082F04F104040CD009FA07F217
:1003400012EA0306F5D0056828295246E8D0482964
:10035000E7D17246E4E7082400254FF001094FF089
:100360000F080FE0176008FA05F226EA02020CFAFD
:1003700005F6324342600134102C05F1040508BF34
:10038000BDE8F08709FA04F212EA0307F3D04668E1
:1003900028295246E6D04829E5D17246E2E7000016
:1003A0008068084018BF01207047000040F6000434
:1003B00040F20260C4F2010400F030F82046282127
:1003C000032201230126FFF795FF40F2046000F0AD
:1003D00025F804F500652846102103224023FFF785
:1003E00089FF002708E000BF20460121FFF7D8FF62
:1003F000B0FA80F04009064320460121FFF7D0FF04
:10040000F107F1D00128EFD187F0010707F00102D1
:1004100028464021FFF768FF0026EDE741F2000380
:1004200000F01F018009C4F202034FF0010CC25812
:100430000CFA01F11143C1507047000041F2040071
:10044000C4F2020050F8041C41F4803140F8041C4E
:100450004FF6FE7150F8043C4A1E8A4203D213F450
:1004600000311146F6D050F8041C890301D400BFB6
:10047000FEE701684FF6FF7201600168CDF6C372B6
:100480000160016841F48061016001681140016010
:1004900001684FF2000241F0005141F42411016063
:1004A000816ACFF6FE7211408162816A41F4833124
:1004B00041F04901816250F8041C41F0806140F82C
:1004C000041C50F8041C41F0807140F8041C00BF6B
:1004D00050F8041C8901FBD5016821F0030101607B
:1004E000016841F00201016001680907FCD570470D
:1004F00080B5FFF7A3FF80BD0805000800000020BD
:08050000604000008C010008BE
:04000005080001519D
:00000001FF
