:020000040800F2
:100000000820002049010008D5010008CD010008A2
:10001000D10100089101000855020008000000000D
:10002000000000000000000000000000D9010008EE
:100030009501000800000000D7010008DB0100085E
:100040006301000863010008630100086301000800
:1000500063010008630100086301000863010008F0
:1000600063010008630100086301000863010008E0
:1000700063010008630100086301000863010008D0
:1000800063010008630100086301000863010008C0
:1000900063010008630100086301000863010008B0
:1000A00063010008630100086301000863010008A0
:1000B0006301000863010008630100086301000890
:1000C0006301000863010008630100086301000880
:1000D0006301000863010008630100086301000870
:1000E000990100086301000863010008630100082A
:1000F0006301000863010008630100086301000850
:10010000630100086301000863010008630100083F
:10011000630100086301000863010008630100082F
:10012000630100086301000863010008630100081F
:10013000DFF810D000F01AF8004800475505000815
:10014000AFF300800820002006488047064800479B
:10015000FEE7FEE7FEE7FEE7FEE7FEE7FEE7FEE777
:10016000FEE7FEE7E501000831010008064C074DF7
:1001700006E0E06840F0010394E807009847103477
:10018000AC42F6D3FFF7D8FFCC070008EC07000815
:1001900000BFFEE77047000010B54FF4005000F0BC
:1001A000F7F878B10121084800F0B0F9C0F101007A
:1001B000C4B222460121044800F000F94FF4005077
:1001C00000F0E0F810BD00000010014000BFFEE7A5
:1001D00000BFFEE770477047704710B500F06AF83F
:1001E00010BD000010B51748006840F00100154927
:1001F00008600846406814490840124948600846AB
:100200000068124908400F4908600846006820F459
:1002100080200860084640680D4908400949486048
:100220000846006809490840064908604FF41F0065
:10023000886000F09FFA00214FF0006000F01EFA85
:1002400010BD0000001002400C00FFE8FFFFF6FEAA
:10025000FFFF00F700BFFEE710B5002804DB0A0728
:10026000130E054A135406E00A07140E034A00F061
:100270000F031B1FD45410BD00E400E018ED00E094
:1002800002E008C8121F08C1002AFAD1704770475F
:10029000002001E001C1121F002AFBD170470000BD
:1002A0000349086000BF024909680029FBD1704773
:1002B000000000200448006820B103480068401E88
:1002C00001490860704700000000002010B52C4B69
:1002D0001B6883432A4C2360231D1B688343241D12
:1002E0002360231D1B688343241D2360231D1B687B
:1002F0008343241D236011B101290ED105E0204B59
:100300001B6803431E4C236008E01D4B1B1D1B682C
:1003100003431B4C241D236000E000BF00BF22B13B
:10032000012A0FD0022A27D119E0154B08331B6888
:100330000343134C08342360231D1B688343241D8F
:1003400023601AE00E4B08331B6883430C4C0834BF
:100350002360231D1B680343241D23600DE0084B0D
:1003600008331B680343064C08342360231D1B68B5
:100370000343241D236000E000BF00BF10BD000048
:100380000004014001490860704700001404014066
:1003900001460748006800EA010205481438006871
:1003A00000EA010312B10BB1012070470020FCE705
:1003B0001404014041617047016170470AB1016155
:1003C00000E041617047000010B500228B071C0F50
:1003D0000F2303FA04F204290EDA204B9B6893439F
:1003E0001E4CA36023469B688C07240F00FA04F47C
:1003F00023431A4CA3602FE008290EDA174BDB6861
:100400009343164CE3602346DB688C07240F00FA05
:1004100004F42343114CE3601EE00C290EDA0F4B69
:100420001B6993430D4C236123461B698C07240FE2
:1004300000FA04F42343094C23610DE0074B5B6988
:100440009343064C636123465B698C07240F00FAD3
:1004500004F42343014C636110BD0000000001401F
:10046000F0B5044616460025002201F00F0501F004
:10047000100707B1354300201EE0012787401F40C9
:10048000C7B122684FEA800C0F2707FA0CF7BA436E
:10049000870005FA07F73A43282904D10127874046
:1004A0001F40676105E0482903D1012787401F40AD
:1004B00027612260471CB8B20828DED3082022E05A
:1004C000012787401F40E7B16268A0F108074FEAA3
:1004D000870C0F2707FA0CF7BA43A0F10807BF00F3
:1004E00005FA07F73A43282904D1012787401F401E
:1004F000676105E0482903D1012787401F40276134
:100500006260471CB8B21028DAD3F0BD024690688A
:10051000084008B1012070470020FCE770B5044690
:10052000002511E04FF4FA70FFF7BAFE01210848E8
:10053000FFF742FF4FF4FA70FFF7B2FE01210448C3
:10054000FFF738FF681CC5B2A542EBDB70BD0000A9
:100550000010014000F012F940F2046000F098F839
:100560000123032210211448FFF77AFF01211248CA
:10057000FFF720FF0120FFF7D1FF4FF4C06000F02C
:1005800087F84FF40053032204210B48FFF768FF5C
:1005900000220221282000F011F80D210220FFF78F
:1005A00013FF012200215003FFF790FE4FF400508B
:1005B000FFF7E8FE00BFFEE7001001402DE9F04123
:1005C00003460D46164600240027A046244800682E
:1005D00000F4E060B0F5A06F15D006DCB0F5407F08
:1005E00018D0B0F5806F19D110E0B0F5C06F06D00B
:1005F000B0F5E06F12D100274FF0040815E0012795
:100600004FF0030811E00227B8460EE003274FF031
:1006100001080AE004274FF0000806E04FF4A0604C
:1006200000F022F80227B84600BF00BFC7F104005F
:1006300005FA00F4C8F104010F20C840304004431B
:1006400024010848C45403F01F01012088405911B7
:10065000890001F1E021C1F80001BDE8F08100004E
:100660000CED00E000E400E002490143024A1160A1
:10067000704700000000FA050CED00E0024A0A4055
:100680000243024B1A60704780FFFF1F08ED00E035
:10069000064A02EB9011096800F01F0301229A40FC
:1006A0001143024B03EB901211607047001002409F
:1006B000002000212C4A126842F480322A4B1A6032
:1006C00000BF401C284A126802F4003119B94FF6E5
:1006D000FF729042F5D1244A126802F400320AB93E
:1006E00000BFFEE7204A52681F4B5A601A46526804
:1006F0005A601A46526842F480625A601A4652683A
:1007000022F440325A601A46526842F440325A602B
:100710001A465268154B1A40134B5A601A465268D3
:10072000134B1A43104B5A601A46126842F08072FB
:100730001A6000BF0C4A126802F00072002AF9D059
:10074000094A526822F00302074B5A601A4652685F
:1007500042F002025A6000BF034A526802F00802E7
:10076000002AF9D07047000000100240FFFFC3F7D5
:100770000000280810B5FFF79BFF10BD10B5124808
:1007800000684FF47A71B0FBF1F4601EB0F1807F25
:1007900001D301200FE0601E4FF0E02148610F21DE
:1007A0004FF0FF30FFF758FD00204FF0E021886147
:1007B00007200861002008B100BFFEE70021481EA5
:1007C000FFF74AFD10BD000004000020EC07000800
:1007D000000000200800000080020008F407000864
:1007E0000800002000200000900200080000000027
:0407F00000F36F069D
:0400000508000131BD
:00000001FF
