:020000040800F2
:10000000C00A0020D9010008A5360008B531000853
:10001000A1360008BD0D0008C93D00080000000021
:10002000000000000000000000000000AD360008E5
:10003000CD0D000800000000A9360008B136000808
:10004000F3010008F3010008F3010008F3010008C0
:10005000F3010008F3010008F3010008F3010008B0
:10006000F3010008F3010008F3010008F3010008A0
:10007000F3010008F3010008F3010008F301000890
:10008000C10D0008F3010008F3010008F3010008A6
:10009000F3010008F3010008F3010008F301000870
:1000A000F3010008F3010008F3010008F301000860
:1000B000F3010008F3010008F3010008F301000850
:1000C000F3010008F3010008F3010008F301000840
:1000D000F3010008F3010008BD3D0008F30100082A
:1000E000F3010008F3010008F3010008F301000820
:1000F000F3010008F3010008F3010008F301000810
:10010000F3010008F3010008F3010008F3010008FF
:10011000F3010008F3010008F3010008F3010008EF
:10012000F3010008F3010008F3010008F3010008DF
:10013000F30100080000000000000000F3010008C7
:10014000F3010008F3010008F3010008F3010008BF
:10015000F3010008F3010008F3010008F3010008AF
:10016000F3010008F3010008F3010008F30100089F
:10017000F3010008F3010008F3010008000000008B
:1001800000000000F3010008000000000000000073
:10019000F30100080000000000000000F301000867
:1001A000000000000000000000000000F301000853
:1001B000F3010008F3010008F3010008F30100084F
:1001C000F3010008DFF80CD000F096FD004800476E
:1001D000AD430008C00A0020064880470648004793
:1001E000FEE7FEE7FEE7FEE7FEE7FEE7FEE7FEE7E7
:1001F000FEE7FEE76D370008C50100082DE9F05F56
:100200000546002092469B46884606468146402485
:100210001BE0284641464746224600F0B2FB5346C3
:100220005A46C01A914110D311461846224600F092
:1002300099FB2D1A67EB01084F4622460120002149
:1002400000F090FB17EB00094E41201EA4F10104C1
:10025000DFDC484631462A464346BDE8F09FA0F120
:100260004101192900D82030704740EA01039B075B
:1002700003D009E008C9121F08C0042AFAD203E01B
:1002800011F8013B00F8013B521EF9D27047D2B27F
:1002900001E000F8012B491EFBD270470022F6E76F
:1002A00010B513460A4604461946FFF7F0FF2046EC
:1002B00010BD421C10F8011B0029FBD1801A7047A9
:1002C00010B5002200E0521C835C8C5CA34201D17B
:1002D000002BF8D1D8B2E1B2401A10BD30B50546B6
:1002E0000020034600E05B1C934205D2EC5CC85C36
:1002F000201A01D1002CF6D130BD00002DE9FF4FAE
:10030000087883B09946FF2805D0491C2D2804D0D1
:100310000024002008E000200BE00124F9E700EBB6
:10032000800003EB4000491C0B78FF2BF7D104B190
:10033000404200230293147819461D462D2C01D00B
:100340002B2C04D1521C2D2C13D000240294AA462D
:100350001478FF2C0FD00A25A3FB057801FB05813B
:100360004FF0000C03FB0C11521CE3194AEB010186
:10037000EEE70124EAE7814453EA010002D019F5CF
:10038000C87F06DA03980021C0E9001107B0BDE874
:10039000F08F0025AE4E2F46DFF8B882184600F0E9
:1003A00053FCCDE90001B9F1000002DAC9F1000403
:1003B00000E004460023A74A1AEB030B42EB045A61
:1003C00012E0E00707D02A4633463846414600F09F
:1003D000ECF9074688462A4633461046194600F08F
:1003E000E4F905460E466410002CEAD1DDE900016F
:1003F000B9F1000F5A46534606DA00F0B6FB3A460A
:10040000434600F0B2FB05E000F0CFF93A46434620
:1004100000F0CBF9029A0AB181F00041039AC2E9D7
:100420000001B3E72DE9FF4F1F468DB0D7E9014624
:100430004FF0FF382E2045464FF000090B90B96968
:100440006D1C0E988847396A824688470028F6D185
:10045000BAF1FF3F0AD024F4D064002E11DDBAF1C6
:100460002B0F08D0BAF12D0F0BD102E0404611B08E
:100470008DE744F48064B9696D1C0E988847824604
:10048000761E6946600501D52D2000E02B208DF8F1
:10049000000001F1010B0DF1200809E0B9696D1CA4
:1004A0000E98884782460F9844F40074761E0560C3
:1004B000002E02DDBAF1300FF0D00B998A453ED103
:1004C00044F0800406E00F99681CA9F1010944F486
:1004D00000740860B9696D1C761E0E9888478246C4
:1004E0003028F0D02BE00B998A4505D1200603D4A3
:1004F00044F08004761E18E0504604F03FFE08B336
:100500000DF11302761EAAF1300044F400749345F5
:1005100006D20BF8010B200607D5A9F1010003E074
:10052000200602D409F101008146A00502D50F99E9
:10053000681C0860B9696D1C0E9888478246002EB9
:10054000D1DC53E0002E51DDBAF1650F02D0BAF1D3
:10055000450F4BD1A00549D5B9696D1C24F44074F1
:10056000761E0E9888478246002E0CDD2B2804D07C
:10057000BAF12D0F07D144F48074B9696D1C0E983F
:1005800088478246761EE00501D52D2100E02B210B
:1005900008F8011BCDF82C8021E00DF12901761E11
:1005A00044F4007488450CD2AAF1300010F0FF002A
:1005B00088F8000002D10B99884509D908F1010893
:1005C00006E0E00501D5244801E042F20F708146C3
:1005D000B9696D1C0E98884782460F980560002EF9
:1005E00004DD504604F0CAFD0028D6D1F9690E9802
:1005F0008847FF208BF8000088F800000020069054
:1006000007904B466A4608A906A8FFF777FEA005A3
:1006100002D46FF001002AE714F0240F0AD0E0079B
:1006200014D1DDE906123868031D3B600068C0E99B
:1006300000120BE0DDE9060100F042FB0146E00795
:1006400004D13868021D3A600068016028460EE750
:10065000000014400000F03FF1D8FFFF2DE9FE4FED
:10066000804681EA0300C00F0C46009021F0004153
:1006700023F00045B8EB0200A94105D240462146CF
:1006800090461C460B46024623F00040104347D0DC
:10069000270DC7F30A00C3F30A510290401A0190D4
:1006A00040286BDAC3F3130040F4801B0098924695
:1006B00020B10023D2EB030A63EB0B0B01985946E0
:1006C000C0F14002504600F04DF906460D46504636
:1006D0005946019A00F065F910EB080061410024C9
:1006E00087EA115284EAE7731A4340D0009A62B352
:1006F000019A012A4FEA075215DC001B61EB020147
:100700004FF0004202EA0752CDE90042001C41F5D9
:10071000801132462B4600F0DAF903B0BDE8F08FC5
:1007200040462146F9E7001B61EB0201001C41F540
:10073000801300185B412018A2F5001747EB030156
:1007400040EAD570B6196D4111E06D084FEA3606E2
:1007500045EAC0754FEA0752001B61EB0201001C1D
:1007600041F5801149084FEA3000001951413246E5
:100770002B4603B0BDE8F04F00F09AB90098012273
:1007800040000023D0EB020263EBE07300982146A7
:100790004FEAE074B8EB000061EB0401E9E783F095
:1007A00000435BE781F0004158E72DE9FE4F81EA05
:1007B000030404F0004421F0004100944FF0000BCA
:1007C00023F0004350EA01045ED052EA03045BD0F8
:1007D000C3F30A54C1F30A552C44A4F2F334019430
:1007E000A0FB0254C1F3130141F48011C3F31303BE
:1007F00043F4801301FB024400FB034E840A970A72
:1008000044EA815447EA8357A4FB076802958D0A9E
:1008100005FB07854FEA932C04FB0C542705029D2A
:100820004FEA065847EA1637B5EB08056EEB070C9A
:10083000870E920E47EA811742EA8312A7FB020154
:10084000B6EB0B0164EB00042B0D43EA0C335E188E
:1008500044EB1C50DA465146E7FB0201C5F3130492
:100860004FEA0B3343EA14534FEA0432019C43EA44
:100870000603A4F10C040294009CCDE900B400F03E
:1008800026F903B0BDE8F08F00200146F9E730B546
:10089000041E71F1000404DB4FF00044404264EB9D
:1008A0000101141E73F1000405DB1C464FF00043E8
:1008B000524263EB0403801A994101D3012030BDF9
:1008C000002030BD30B5041E71F1000404DB4FF090
:1008D0000044404264EB0101141E73F1000405DB87
:1008E0001C464FF00043524263EB0403101A8B4145
:1008F00001D3012030BD002030BD70B5C1F30A52D4
:1009000001F000450024C1F3130140F2FF3341F42C
:1009100080119A4201DA002070BD40F233439A42BE
:10092000A2F2334203DC524200F02BF800E0904088
:100930002C43F1D0404270BD30B50B46014600203B
:100940002022012409E021FA02F59D4205D303FA91
:1009500002F5491B04FA02F52844151EA2F1010212
:10096000F1DC30BD202A04DB203A00FA02F100203D
:1009700070479140C2F1200320FA03F319439040DD
:100980007047202A04DB203A21FA02F00021704748
:1009900021FA02F3D040C2F12002914008431946E7
:1009A0007047202A06DBCB17203A41FA02F043EACF
:1009B000E07306E041FA02F3D040C2F12002914018
:1009C000084319467047426842B1016811F8013B7B
:1009D00023B1521EC0E90012184670470121C160C0
:1009E000881E704742685AB1C368016843B983687A
:1009F0008B4205D0491E521CC0E9001200207047EE
:100A00004FF0FF30704700000FB40B0010B58AB0F4
:100A10000FA900910E994FF00004234ACC60214C9D
:100A2000CDE9064200D004236FF00042CDE9013247
:100A30001E4A089202466B460020FFF7F3FC0AB0FC
:100A400010BC5DF814FBF0B585B007464FF0FF30E1
:100A50000091CDE901011E46002015460C46049088
:100A60003B466A46314604A8FFF7CEFF0499034689
:100A7000601825B109B1024600E022462A6000292B
:100A80000ED0002B02DD0099814209D00094001B9A
:100A9000CDE901043B466A46314604A8FFF7B4FF9E
:100AA00005B0F0BDC7090008E50900081D0D0008E4
:100AB00010B5141E73F1000408DA401C41F1000166
:100AC00092185B411A4301D120F0010010BD2DE9BD
:100AD000F04D92469B4611B1B1FA81F202E0B0FAB4
:100AE00080F220329046FFF73DFF04460F4640EA71
:100AF0000A0041EA0B0153465A46084313D01146F7
:100B000053EA010019D0C8F140025046FFF739FFFF
:100B100005460E46504659464246FFF723FF084316
:100B200005D0012004E020463946BDE8F08D0020C4
:100B3000054346EAE0762C4337430A986305E40A06
:100B4000A0EB08000022FD0A44EA47540A3002D50F
:100B500000200146E9E7010510196941DDE9084572
:100B600000196941BDE8F04DA2E72DE9F04D81EA99
:100B7000030404F0004B21F0004514464FF0000A36
:100B800023F0004150EA050220D054EA01021DD0B2
:100B9000C5F30A570246C5F31303C1F31300C1F3AB
:100BA0000A5640F4801543F48013A7EB0608101B87
:100BB000D64608F2FD3873EB050002D308F10108B0
:100BC00001E092185B41B8F1000F03DA0020014602
:100BD000BDE8F08D00204FF48011064684460EE0FB
:100BE000171B73EB050705D3121B63EB05030643C5
:100BF0004CEA010C49084FEA300092185B4150EA78
:100C00000107EDD152EA030012D082EA040083EA20
:100C10000501084305D0101BAB4106D20122002379
:100C200006E000224FF0004302E06FF00102531093
:100C30001AEB06004CEB085110EB0A0041EB0B01DC
:100C4000BDE8F04DFFF734BF0EB540F233420292DB
:100C50000022CDE900221346FFF739FF03B000BDA3
:100C6000C1F30A52C1F3130140F2FF3341F4801182
:100C70009A4202DA00200146704740F233439A421A
:100C8000A2F2334202DC5242FFF77BBEFFF76ABE9C
:100C900030B5041E71F1000404DB4FF00044404203
:100CA00064EB0101141E73F1000405DB1C464FF0D8
:100CB0000043524263EB0403994208BF904230BDA7
:100CC00001F0004330B421F0004150EA010206D0A7
:100CD0000A0DA2F56072C1F31301002A02DC30BCD8
:100CE00000207047440F44EAC104C100E01830BC42
:100CF00000EBC25000F017B8064C074D06E0E06864
:100D000040F0010394E8070098471034AC42F6D352
:100D1000FFF75CFA145A0008345A0008C0B24FF4C6
:100D2000F05100F037B80029A8BF7047401C4900B7
:100D300008BF20F00100704710B4B0FA80FC00FA40
:100D40000CF050EA010404BF10BC704749B1CCF16B
:100D5000200421FA04F411FA0CF118BF01212143F7
:100D60000843A3EB0C01CB1D4FEA00614FEA1020B2
:100D700042BF002010BC704700EBC3501044002954
:100D8000A4BF10BC7047401C490008BF20F0010000
:100D900010BC70477F2801D9002208E0064A02EB08
:100DA0005002C007127800D1120902F00F02012090
:100DB00090400840704700009C590008FEE7000082
:100DC00040F2F020C2F2000000F060B8704700006E
:100DD00072B600BFFEE7000070B5866D044600F0F5
:100DE00011FB94F83510022928D105462068216CA2
:100DF000026822F016020260426922F0800242611B
:100E000009B9A16C19B1016821F0080101600168FC
:100E100021F00101016000BF20680068C00715D003
:100E200000F0F0FA401B0628F6D32020606503206E
:100E300084F83500002184F8341070BD802060658E
:100E40000120002184F8341070BD00BFE06D3F2107
:100E500001FA00F0B060012084F835000020002184
:100E600084F8341070BD000090F83510022909D1C3
:100E7000052180F835100068016821F0010101604A
:100E8000002070478021416501207047F0B581B096
:100E900004460020009040F21400C2F200000268F4
:100EA000D4E9166048F2B51337680821C1F64E330D
:100EB00081403942A2FB03250CD0226813685B07EE
:100EC00008D5136823F004031360B160616D41F02D
:100ED0000101616501218140394208D022685269CF
:100EE000120604D5B160616D41F002016165042113
:100EF0008140394208D022681268920704D5B16057
:100F0000616D41F00401616510218140394217D0C3
:100F100020680268120713D5B160026801685203A5
:100F200008D4C90508D4016821F008010160216CCA
:100F300021B905E008033FD4216C09B12046884758
:100F4000E16D202000FA01F23A4241D020680368A6
:100F5000DB063DD5B26094F835300268052B1BD115
:100F600022F016020260426922F080024261226C85
:100F70000AB9A26C1AB1026822F0080202603F208E
:100F80008840B060012084F83500216D00200029E0
:100F900084F8340052D157E00168520310D4C905D7
:100FA00012D4016821F010010160012084F835009D
:100FB000002084F8340007E0A16C0029BED1BFE70F
:100FC000080301D4616C00E0E16B09B12046884759
:100FD000606DC8B3606DC0072ED0052084F8350061
:100FE0002068A90A026822F001020260009A013218
:100FF0008A4200921AD80268D20717D0009A0132AA
:101000008A42009212D80268D2070FD0009A0132A9
:101010008A4200920AD80268D20707D0009A0132A9
:101020008A42009202D80268D207DFD1012084F8F8
:101030003500002084F83400E16C29B1204601B06D
:10104000BDE8F040084700BF01B0F0BD2DE9F04118
:10105000044600F0D7F9ECB10546022084F83500CB
:101060000020216884F83400086820F0010008603E
:1010700021680868C00711D000F0C4F9401B05289A
:10108000F6D9032520230320636584F83550BDE895
:10109000F08100BF0120BDE8F08100BF086848F280
:1010A0003F02CFF21002D4E9013500EA020C04F14C
:1010B0000C0898E8C10143EA0C032B431843D4E918
:1010C000072E304338431043626A40EA0E00042A78
:1010D00040EA08031CD1206BD4E90A2E40EA0E0036
:1010E000184308604869BEF1000F20F0030040EA91
:1010F000020040F0040C11D0B8F5005F36D0B8F112
:10110000000F45D1022A46D0012A3BD032B942E035
:101110000B60486920F0070040EA020C01F0F8007B
:101120004AF6AB221038CAF6AA22A0FB02231A09FB
:1011300045F6F413C0F600039A5C40F2FF335F28D3
:101140004FF03F00C1F814C021EA030100FA02F099
:1011500088BF0431C4E916128860002301250020ED
:10116000636584F83550BDE8F08100BF032AD5D807
:10117000012540230120DFE802F0030E030500BF34
:1011800082E700BFAEF1C070B0FA80F0400904E021
:10119000032A04D3C2D1CEF300600028BED00125BB
:1011A00040230120636584F83550BDE8F0810000DC
:1011B00070B590F834C0BCF1010F46D04FF0010C6F
:1011C00080F834C0D0F858E090F835C0BCF1010F79
:1011D00038D14FF0020C80F835C04FF0000CC0F849
:1011E00054C0D0F800C08468056CC06DDCF80060A5
:1011F000402C26F48026CCF80060CCF804300B4656
:1012000004BF13460A463F2101FA00F0CCF808302B
:10121000CCF80C20CEF80800DCF8000040F01600F6
:10122000CCF800002DB1DCF8000040F00800CCF84C
:101230000000DCF8000040F00100CCF800000020C5
:1012400070BD00BF002180F83410022070BD000086
:101250002DE9F04F82B000F13E4241F6000502F167
:10126000FF77C4F20205072243F6004E4FEAB72685
:10127000A84208BF0622C4F2010E062E38BF4FEA6C
:10128000B7220125002600274FF00008009208E051
:1012900008F101080437B8F1100F06F1020600F05A
:1012A000A7800C6805FA08F914EA090FF0D0D1F804
:1012B00004B003220BF0030CACF10104B240012C8A
:1012C0006FEA020A10D88268CC6802EA0A02B440C7
:1012D000224382604268CBF3001422EA090204FA36
:1012E00008F42243426005E0BCF1030F02D14FF045
:1012F000030C20E0C2688C6802EA0A02B440224370
:10130000BCF1020FC26016D16FF0030202EA58026C
:101310000244D2F820C007F01C050F230C69AB4033
:101320002CEA030304FA05F52B431362D1F804B049
:1013300001250BF0030C02680CFA06F302EA0A021C
:101340001A431BF4403F0260A2D0002243F644033C
:101350000192C4F202031A684FF6084C42F480422C
:101360001A601A68CFF6FF7C02F480420192019A5B
:1013700028F00302724452F80C3007F00C050F24D9
:10138000AC40A343009C04FA05F52B4342F80C3013
:10139000DEF808204B6842EA090543F60C4CDC02F3
:1013A00058BF22EA0905CEF80850C4F2010CDCF857
:1013B00000209C0242EA090558BF22EA0905CCF840
:1013C0000050DEF804209C0342EA090558BF22EAD7
:1013D0000905CEF80450DEF80020DB0342EA0905D7
:1013E00058BF22EA0905CEF80050012550E700BF9A
:1013F00002B0BDE8F08F0000002A08BF0904816137
:101400007047000040F2B840C2F200000068704728
:1014100040F20C0040F2B841C2F20000C2F20001FA
:1014200000780A68104408607047000080B543F6F1
:101430000040C4F20200016841F4007101600168DB
:1014400041F480610160016841F480710160032012
:1014500000F08AF8002000F005F800F027F80020DE
:1014600080BD000070B540F20C06C2F2000640F2EA
:1014700014013278C2F200014FF47A730968B3FBA9
:10148000F2F20446B1FBF2F1084600F0BBFB0F2C70
:101490004FF0010508D838B94FF0FF30214600223F
:1014A000002500F035F87460284670BD82B0002039
:1014B00043F640010190C4F202014A6842F48042BE
:1014C0004A604A6802F480420192019A00900868DA
:1014D00040F080500860086800F08050009000984C
:1014E000072002B000F040B8002848BF7047C1B2E2
:1014F00000F01F00012202FA00F04EF20012CEF2BC
:10150000000242EAD10121F00301086070470000A7
:1015100010B54EF60C5CCEF2000CDCF80030C3F3D4
:10152000022E8EF00704042C28BF0424BEF103030E
:101530004FF0FF3E0EFA04F438BF0023A143994058
:101540000EFA03F39A43114300F00F0200F16043D7
:101550000901043A03F564436244002848BF02F1DC
:101560000C03197010BD00004EF60C51CEF20001B4
:101570000A684FF6FF031A4060F30A2242F08060C7
:1015800040F0FD700860704770B582B00020019097
:1015900043F64000C4F202000168402641F0805149
:1015A00001600068C4F20E2600F08050019001989E
:1015B00047F204050120C4F200053060FFF722FF66
:1015C000044600BF2868C00306D4FFF71BFF001BBA
:1015D000B0F57A7FF6D90EE001207060FFF712FFB8
:1015E000044600BF2868800308D4FFF70BFF001BE8
:1015F000B0F57A7FF6D9032002B070BD002002B0AA
:1016000070BD00002DE9F041002800F08B8043F60A
:101610000808C4F202080446D8F8F8030D4600F0A2
:101620000F00884207D288F8F853D8F8F80300F082
:101630000F00A84276D12068810717D5410705D54C
:10164000D8F8001041F4E051C8F80010010705D5A2
:10165000D8F8001041F46041C8F80010D8F8001024
:10166000A26821F0F0011143C8F80010C0073FD173
:10167000D8F8F80300F00F00A84207D988F8F8530B
:10168000D8F8F80300F00F00A8424BD120684107BA
:1016900007D5D8F80010E26821F4E0511143C8F8EA
:1016A0000010000708D5D8F80000216920F4604038
:1016B00040EAC100C8F8000000F07CF8D8F800103B
:1016C00045F6DC12C1F30311C0F60002515C40F292
:1016D000140220FA01F140F21000C2F2000000688A
:1016E000C2F200021160FFF7BDFE0020BDE8F081EC
:1016F0006068811E022907D258F8081C89015CBF66
:101700000120BDE8F08111E0012807D158F8081C3C
:1017100089035CBF0120BDE8F08107E058F8081C90
:10172000890703D40120BDE8F08100BFD8F800107C
:1017300021F003010843C8F80000FFF763FE0646E6
:1017400041F28837D8F80000616800F00C00B0EB77
:10175000810F8DD0FFF756FE801BB842F2D90320CF
:10176000BDE8F08140F2140043F60801C2F2000027
:10177000C4F202010068096845F6EC12C1F3822147
:10178000C0F60002515CC8407047000040F21400EF
:1017900043F60801C2F20000C4F2020100680968C1
:1017A00045F6EC12C1F34231C0F60002515CC8406C
:1017B0007047000010B543F60404C4F202046068E8
:1017C000C0F3810142F20040C0F2F400DFE801F012
:1017D0004402081841F20020C0F27A0010BD00BF98
:1017E000216801F03F02216823684902C3F3881190
:1017F00016D4A1FB00010023FEF700FD17E000BF97
:10180000216801F03F02216823684902C3F388116F
:1018100016D4A1FB00010023FEF7F0FC17E000BF87
:1018200041F20020C0F27A004843B0FBF2F0216898
:101830000222C1F3014102EB4101B0FBF1F010BD06
:1018400041F20020C0F27A004843B0FBF2F0216878
:10185000C1F30271B0FBF1F010BD00002DE9F041C1
:1018600082B0002800F096800446007843F6000617
:10187000C007C4F202062BD0B06800F00C000428A8
:1018800020D0B06800F00C00082802D17068400237
:1018900018D4B06800F00C000C2802D17068400227
:1018A00010D46068B0F5803F07D0B0F5A02F40F0AD
:1018B0003B81306840F480203060306840F48030F4
:1018C00030603BE13068800302D56068002861D059
:1018D0002078800722D5B06810F00C0F11D0B068C6
:1018E00000F00C00082802D17068400209D5B068E9
:1018F00000F00C000C2840F09F807068400200F15E
:101900009B803068800702D5E068012842D13068AA
:10191000216920F0F80040EAC1003060207800071B
:101920003CD42078400751D4A56985B3B06800F055
:101930000C00082840F0A880012D2BD07068E169C8
:1019400000F480028A4225D1216A00F03F028A42D7
:1019500020D147F6C071626A0140B1EB821F19D1F4
:10196000A16A4FF6FF73C903994300F44032A1F511
:1019700080318A420ED1E16A00F07062B2EB016FF1
:1019800008D1216B00F0E040B0EB017F02D10020D4
:1019900034E100BF012002B0BDE8F0816069002899
:1019A00040F20000C4F247205ED00121C0F8801E42
:1019B000FFF728FD054600BF706F8007B1D4FFF721
:1019C00021FD401B0228F7D9C5E000BF306C10F0A4
:1019D00080580AD100200190306C40F08050306473
:1019E000306C00F080500190019847F20007C4F27B
:1019F00000073868C00511D4386840F4807038603A
:101A0000FFF700FD054600BF3868C00506D4FFF7A4
:101A1000F9FC401B0228F7D99DE000BFA06801280F
:101A200005D0052852D1306F40F004003067306F88
:101A300040F00100306753E0E068002860D00020EB
:101A4000C4F2472001210160FFF7DCFC054600BF1E
:101A5000306880073FF55BAFFFF7D4FC401B0228DE
:101A60004FF00300F4D9C9E00021C0F8801EFFF751
:101A7000C9FC0546706F80077FF553AFFFF7C2FCC6
:101A8000401B0228F6D966E00027C4F24727002051
:101A90003866FFF7B7FC022D05460BD13068800190
:101AA0005ED5FFF7AFFC401B02284FF00300F5D9CD
:101AB000A4E000BF306880017FF569AFFFF7A2FCAA
:101AC000401B02284FF00300F4D997E0316F002843
:101AD00021F001013167316F21F00401316763D0DA
:101AE000FFF790FC054641F2883700BF306F800752
:101AF0006CD4FFF787FC401BB842F7D92BE000BF3E
:101B00000020C4F2472000210160FFF77BFC05465E
:101B1000306880077FF502AFFFF774FC401B022896
:101B20004FF00300F4D969E03168002821F48031D6
:101B30003160316821F48021316051D0FFF762FCBF
:101B4000054600BF306880033FF5C2AEFFF75AFC80
:101B5000401B6428F6D9032002B0BDE8F08100BF25
:101B600004F11C052FCD246B084340EA8210D903F1
:101B70004FF6FF729143A1F5803140EA05600843BA
:101B800040EA0470706001203866FFF73BFC0446B1
:101B9000306880013FF5FBAEFFF734FC001B0228E4
:101BA0004FF00300F4D929E0FFF72CFC054641F281
:101BB000883700BF306F800708D5FFF723FC401B34
:101BC000B8424FF00300F5D918E000BFB8F1000F9C
:101BD0007FF4AAAE306C20F080503064A4E600BFE1
:101BE000FFF710FC0546306880037FF571AEFFF704
:101BF00009FC401B64284FF00300F4D902B0BDE893
:101C0000F0810000411E0020B0EB116F1CBF0120CD
:101C100070474EF21002CEF2000251604EF6235190
:101C2000CEF20001F0230B70072190601160704725
:101C3000B0B590F83C20012A04BF0220B0BD01F1EC
:101C400008053CCDD1E900CE23F47C5322F4705238
:101C50001A432EF4F0431A432CF4E0431A4324F4BD
:101C6000C0431A432A43C96922F4804203681143DE
:101C70005964002180F83C100846B0BD10B590F8BA
:101C80003C20012A4FF0020251D080F83D2002682A
:101C9000D2F804E0D2F808C00C682EF07003234399
:101CA00041F2FF74C4F20004A24253600EDC40F221
:101CB000FF73C4F200039A4216DCB2F1804F2BD0BE
:101CC00040F20043C4F2000324E000BF40F2FF33BF
:101CD000C4F201039A4213DC41F60003C4F200038C
:101CE0009A4219D0002313E040F60003C4F2000327
:101CF0009A4211D040F60043C4F200030AE000BF4C
:101D000044F20003C4F201039A4205D040F20043BA
:101D1000C4F201039A4204D149682CF080031943AC
:101D200091600121002280F83D1080F83C2010468F
:101D300010BD000041B1082910D0042914BF00F1E2
:101D4000450200F143020BE090F84220012A1CBF3B
:101D500001207047022280F8422013E000F1440283
:101D60001278012A1CBF012070470222082907D0DF
:101D7000042914BF80F8452080F8432002E000BF0A
:101D800080F84420006801F00F010422036A02FA7F
:101D900001F123EA01020262026A11430162416C0D
:101DA00041F2FF72C4F2000241F4004190424164EA
:101DB0000EDC40F2FF71C4F20001884216DCB0F183
:101DC000804F2BD040F20041C4F2000124E000BF5C
:101DD00040F2FF31C4F20101884213DC41F60001F8
:101DE000C4F20001884219D0002113E040F600013E
:101DF000C4F20001884211D040F60041C4F2000153
:101E00000AE000BF44F20001C4F20101884205D09B
:101E100040F20041C4F20101884206D1816801F01C
:101E20000701062904BF00207047016841F0010145
:101E30000160002070470000002804BF01207047A7
:101E400010B5044690F83D0028B9002084F83C0005
:101E5000204600F01FF8022084F83D002068211D74
:101E600001F08EFC012084F8460084F83E0084F8DE
:101E70003F0084F8400084F8410084F8420084F870
:101E8000430084F8440084F8450084F83D000020B5
:101E900010BD000081B0006840F2FF71C4F2000183
:101EA000884215DCB0F1804F30D040F20041C4F2DE
:101EB000000188424BD10020009043F64000C4F25C
:101EC0000200016841F002010160006817E000BFF4
:101ED00040F60001C4F20001884229D040F20041DE
:101EE000C4F20101884232D10020009043F6400044
:101EF000C4F20200416841F002014160406800F014
:101F000002000090009801B0704700BF00200090D0
:101F100043F64000C4F20200016841F00101016093
:101F2000006800F001000090009801B0704700BF09
:101F30000020009043F64000C4F20200016841F026
:101F400004010160006800F004000090009801B0F6
:101F50007047000080B590F83C20012A4FF0020243
:101F600000F0C28080F83D20D0F800C04FF67772B4
:101F7000DCF8083023EA0202CCF808200B684F2B6B
:101F800028DC1F2B44DD202B45D0302B43D0402BA9
:101F900040F0AC80D1F804E0C968DCF82030DCF80F
:101FA000202022F00102CCF82020DCF8182022F0BA
:101FB000F00242EA011123F00A0242EA0E02CCF8D2
:101FC0001810CCF82020DCF8081041F0470121F06F
:101FD000300180E06F2B27DDB3F5005F48D0B3F50B
:101FE000805F7AD0702B40F08180D1E901E3C9682D
:101FF000DCF8082043EA0E0322F47F4243EA012181
:102000001143CCF80810DCF8081041F0770162E0C9
:102010000BB1102B6AD1DCF8081021F070011943C4
:1020200041F0070157E000BF502B35D0602B5DD148
:10203000D1F804E0C968DCF82030DCF8202022F078
:102040001002CCF82020DCF8182022F4704242EA7A
:10205000013123F0A00242EA0E12CCF81810CCF89D
:102060002020DCF8081041F0670121F0100132E077
:10207000D1E901E3C968DCF8082043EA0E0322F441
:102080007F4243EA01211143CCF80810DCF8081024
:1020900041F480411FE000BFD1F804E0C968DCF8DA
:1020A0002030DCF8202022F00102CCF82020DCF8DF
:1020B000182022F0F00242EA011123F00A0242EA5B
:1020C0000E02CCF81810CCF82020DCF8081041F0F3
:1020D000570121F02001CCF808100022012180F8DE
:1020E0003D10002180F83C10104680BD0122F5E72C
:1020F00070B586B0006840F2FF71C4F200018842FA
:102100004FF000010591CDE90311CDE9011139DC52
:10211000B0F1804F60D040F20041C4F2000188422B
:1021200040F09280002543F630000095C4F2020092
:10213000016840F2004441F0010101600168C4F20D
:10214000020401F001010091009900950168022646
:1021500041F002010160006801A900F00200009056
:10216000009880200190A4F58060CDE90265CDE95A
:102170000456FFF76DF81020CDE90106CDE90355AF
:1021800005965DE040F60001C4F2000188423DD0B2
:1021900040F20041C4F20101884255D1002043F6CB
:1021A00030010090C4F202010A6842F004020A60A1
:1021B000096801F004010091009980210191022138
:1021C000CDE9021004900320059040F20040C4F2D3
:1021D000020000F5806433E0002043F630010090F7
:1021E000C4F202010A6842F002020A60096801F0C2
:1021F0000201009100994FF4816101910221CDE922
:10220000021004900120059016E000BF002043F664
:1022100030010090C4F202010A6842F002020A6032
:10222000096801F002010091009940210191022109
:10223000CDE90210CDE9040140F20044C4F20204E9
:1022400001A92046FFF704F806B070BD2DE9F04360
:1022500090F83C30012B04BF0220BDE8F0834FEA28
:10226000B202032A00F2FC80DFE802F0023E7EBEEA
:10227000036840F200471C6A1A6A24F0020422F044
:1022800001021A621A46D3F804E052F818CF8E6899
:1022900043F48065C4F20107BD4244EA060405D157
:1022A000CE6824F00C0426F0040634430E68BD42C8
:1022B00007D1D1E905572EF4407E45EA0E0545EADF
:1022C000070E2CF073073743C3F804E09F614F6893
:1022D00009695F631C629F6947F008079F619F69F6
:1022E00027F004079F61B1E0036840F200481C6AD0
:1022F0001A6A24F0200422F010021A621A46D3F857
:1023000004C052F818EF8F6843F48065C4F20108E6
:10231000454544EA071407D1CF686FF0400624F022
:10232000C00406EA07163443D1F80090454506D1AB
:10233000D1E905562CF440672E4347EA860C2EF46B
:10234000E64747EA0927C3F804C09F614F68096957
:102350009F631C629F6947F400679F619F6927F430
:1023600080679F6171E000BF036840F200481C6A0B
:102370001A6A24F4007422F480721A621A46D3F89E
:1023800004C052F81CEF8F6843F48065C4F2010862
:10239000454544EA072408D1CF6840F2FF463F0292
:1023A00024F4406427EA06063443D1F800904545FA
:1023B00006D1D1E905562CF440572E4347EA061CB6
:1023C0002EF0730747EA0907C3F804C0DF614F68BE
:1023D0000969DF631C62DF6947F00807DF61DF69B5
:1023E00027F00407DF6131E0036840F20045D3F8CD
:1023F00020C01A6A43F4806722F480521A621A4697
:102400005C6852F81CEFD1F800808E68C4F20105B8
:10241000AF4204D14D6924F4804444EA85142CF47D
:10242000005747EA06372EF4E64646EA08265C607F
:10243000DE614E6809691E641F62DF6947F4006748
:10244000DF61DF6927F48067DF61090213681943E0
:1024500011600021002280F83C200846BDE8F0838E
:102460000121002280F83C200846BDE8F0830000EE
:10247000002804BF0120704710B5044690F83D00C5
:1024800028B9002084F83C00204600F01FF8022004
:1024900084F83D002068211D01F072F9012084F8C4
:1024A000460084F83E0084F83F0084F8400084F839
:1024B000410084F8420084F8430084F8440084F822
:1024C000450084F83D00002010BD0000704700006A
:1024D00041B1082910D0042914BF00F1410200F1D4
:1024E0003F020BE090F83E20012A1CBF01207047FC
:1024F000022280F83E2013E000F140021278012A07
:102500001CBF012070470222082907D0042914BFEC
:1025100080F8412080F83F2002E000BF80F8402092
:10252000006801F01F010122036A02FA01F123EAA7
:1025300001020262026A114341F2FF72C4F2000218
:10254000904201620CDC40F2FF71C4F2000188424B
:1025500014DCB0F1804F37D040F2004116E000BFEC
:1025600040F2FF31C4F20101884215DC41F600015E
:10257000C4F20001884227D0002115E040F6000196
:10258000C4F2000188421FD040F60041C4F20001AD
:10259000884219D01FE000BF44F20001C4F20101DB
:1025A000884211D040F20041C4F20101884212D1A8
:1025B000416C40F2004340F48062C4F2010341F4F4
:1025C00000419A42416406D1816801F00701062961
:1025D00004BF00207047016841F001010160002044
:1025E0007047000070B582B0044690F84200202881
:1025F0000AD113460A4600294FF0010018BF002BEC
:1026000006D102B070BD00BF022002B070BD00BF95
:1026100001202063002622206663A262A3856664EF
:1026200084F842002168E06B43F6552C43F6B53E32
:1026300043F6D905C0F6000CC0F6000EC0F6000542
:102640000431C0E90FCEC0E91356FEF7B1FD019683
:10265000206801680191406801900198206928B3C1
:10266000206850E8030F216840F4807041E80302BD
:10267000E2B1206850E8030F216840F4807041E81F
:1026800003029AB1206850E8030F216840F480707B
:1026900041E8030252B1206850E8030F216840F47A
:1026A000807041E80302002ADAD100BF206850E8B8
:1026B000050F216840F0010041E80502BAB3206827
:1026C00050E8050F216840F0010041E8050272B3AF
:1026D000206850E8050F216840F0010041E805023C
:1026E0002AB3206850E8050F216840F0010041E856
:1026F0000502002ADAD11AE0206850E8050F2168A7
:1027000040F0400041E80502DAB1206850E8050FCA
:10271000216840F0400041E8050292B1206850E88D
:10272000050F216840F0400041E805024AB12068E9
:1027300050E8050F216840F0400041E80502002AFA
:10274000DAD1206B01282FD1002000902068016889
:102750000091406800900098206850E8030F2168BD
:1027600040F0100041E80302DAB1206850E8030F9E
:10277000216840F0100041E8030292B1206850E85F
:10278000030F216840F0100041E803024AB12068BD
:1027900050E8030F216840F0100041E80302002ACE
:1027A000DAD1002002B070BD012002B070BD00007F
:1027B00070B5006844F20041C4F20001884218BFBD
:1027C00070BD40F2F014C2F200042046FDF771FD26
:1027D00040F2F00586B2C2F20005C6F5807115FA26
:1027E00080F0FF2E88BF0021FDF758FD28462146C6
:1027F0003246FDF73AFD20463146FDF74FFD40F2E7
:102800007040C2F2000021464FF48072FFF7EAFEEA
:1028100040F2F020C2F2000002684FF480711068AC
:1028200020F0080328461360BDE8704001F0E2BCC8
:1028300070470000B0B582B0044600680168C36804
:10284000426901F02F05202D03F0200506D12DB19E
:10285000204602B0BDE8B04001F0B8B95FEA017CA3
:102860001EBF02F0010E03F4907212EB0E0253D160
:10287000226B012A05D111F0100218BF13F01002CB
:1028800036D10A0622D513F080021FD094F84110E9
:1028900021293FD1A168B1F5805F03D121690029C9
:1028A00000F07282216A4A1C226209784160E18C40
:1028B00001390A04E1842DD1C16821F08001C16091
:1028C000C16841F04001C16002B0B0BD490621D5E8
:1028D00013F040011ED0C16821F04001C1602021E9
:1028E000204684F8411002B0BDE8B04000F0A0BB23
:1028F00000210191016801914168019101994069AC
:10290000400613D4A08DE18DE28D002A18BF8842C5
:1029100040F0BC8102B0B0BDCA0718BF13F480728A
:1029200040F0B8804A0700F1BB80C0E0E06B01686E
:1029300049688AB2002AEDD0A38D9A42EAD2E18595
:10294000C069B0F5807F00F09C80206850E8030FDC
:10295000216820F4807041E80302DAB1206850E871
:10296000030F216820F4807041E8030292B12068CF
:1029700050E8030F216820F4807041E803024AB157
:10298000206850E8030F216820F4807041E80302BA
:10299000002ADAD1206850E8050F216820F00100F4
:1029A00041E80502DAB1206850E8050F216820F0FF
:1029B000010041E8050292B1206850E8050F216846
:1029C00020F0010041E805024AB1206850E8050FF7
:1029D000216820F0010041E80502002ADAD12068D0
:1029E00050E8050F216820F0400041E80502DAB107
:1029F000206850E8050F216820F0400041E80502FA
:102A000092B1206850E8050F216820F0400041E8AD
:102A100005024AB1206850E8050F216820F0400007
:102A200041E80502002ADAD1202084F84200002083
:102A30002063206850E8030F216820F0100041E86F
:102A40000302DAB1206850E8030F216820F010007B
:102A500041E8030292B1206850E8030F216820F09A
:102A6000100041E803024AB1206850E8030F2168D2
:102A700020F0100041E80302002ADAD1E06BFEF7F3
:102A8000ABF902206063A08DE18D401A81B220462F
:102A900075E100BF626C42F0010262644A0706D52C
:102AA000BEF1000F03D0626C42F0020262648A073A
:102AB00006D5BEF1000F03D0626C42F004026264DE
:102AC000BCF1000F09D545EA0E02B2FA82F25209B2
:102AD00003D1626C42F008026264626C002A3FF427
:102AE00019AF11F0200118BF002D03D0204601F0CE
:102AF0006DF820684069616C00F0400001F0080149
:102B0000401800F0B58000BF206850E8030F21682E
:102B100020F4907041E80302BAB3206850E8030F34
:102B2000216820F4907041E8030272B3206850E8F5
:102B3000030F216820F4907041E803022AB3206853
:102B400050E8030F216820F4907041E80302002A46
:102B5000DAD11AE0206850E8050F216820F0010062
:102B600041E80502DAB1206850E8050F216820F03D
:102B7000010041E8050292B1206850E8050F216884
:102B800020F0010041E805024AB1206850E8050F35
:102B9000216820F0010041E80502002ADAD1206B0B
:102BA000012824D1206850E8030F216820F010008C
:102BB00041E80302DAB1206850E8030F216820F0F1
:102BC000100041E8030292B1206850E8030F216829
:102BD00020F0100041E803024AB1206850E8030FDA
:102BE000216820F0100041E80302002ADAD12020F9
:102BF00084F84200002020632068406940063FD5E9
:102C0000206850E8050F216820F0400041E80502E7
:102C1000DAB1206850E8050F216820F0400041E853
:102C2000050292B1206850E8050F216820F04000AD
:102C300041E805024AB1206850E8050F216820F0FC
:102C4000400041E80502002ADAD1E06BC0B143F64A
:102C5000CD01C0F600010165FEF706F900283FF43A
:102C600059AEE06B016D02B0BDE8B040084700BF4F
:102C70002046FFF7DDFD0020606402B0B0BD00BF5C
:102C8000204602B0BDE8B040FFF7D2BD401A21682F
:102C900051E8031F226821F4907142E80313DBB16D
:102CA000216851E8031F226821F4907142E8031360
:102CB00093B1216851E8031F226821F4907142E822
:102CC00003134BB1216851E8031F226821F490716E
:102CD00042E80313002BDAD1216851E8051F22686E
:102CE00021F0010142E80513DBB1216851E8051F1D
:102CF000226821F0010142E8051393B1216851E8EF
:102D0000051F226821F0010142E805134BB121683B
:102D100051E8051F226821F0010142E80513002B4C
:102D2000DAD1202184F8421000212163216851E882
:102D3000031F226821F0100142E80313DBB1216870
:102D400051E8031F226821F0100142E8031393B1F8
:102D5000216851E8031F226821F0100142E80313A3
:102D60004BB1216851E8031F226821F0100142E8AD
:102D70000313002BDAD1022281B22046626302B033
:102D8000BDE8B040FFF714BD216A31F8022B6FF3A4
:102D90005F22426021628AE5002804BF012070475B
:102DA00010B5044690F8410028B9002084F840008E
:102DB000204600F021F8242084F841002068C168F2
:102DC00021F40051C160204600F080FF20680169B5
:102DD00021F490410161416921F02A014161C168FA
:102DE00041F40051C16000202021606484F841104A
:102DF00084F84210606310BD70B586B00446016867
:102E000044F20040C4F20000814201D006B070BD1F
:102E1000002643F630010196C4F202010A6900F56A
:102E2000DE3042F400320A610A6902F40032019293
:102E3000019A01960A6842F001020A60096801F0ED
:102E40000101019101990C2101910221CDE90216A4
:102E5000032104910721059101A9FEF7F9F940F238
:102E6000F02546F28800C2F20005C4F202004FF0DD
:102E700000614FF4806285E843002846C5E903629B
:102E8000C5E90566C5E907666E62FEF7DFF800284A
:102E900018BFFDF79DFF262000210022E563AC63EB
:102EA000FEF736FB2620FEF71FFB06B070BD0000C4
:102EB00070470000704700002DE9F041044690F88B
:102EC000410020281CBF0220BDE8F0810D460029EA
:102ED0004FF0010000F0AA801646002A08BFBDE8A6
:102EE000F081002060642120984684F84100FEF7BC
:102EF00089FAA684E684A1680646B1F5805F02D10E
:102F00002069002862D02F460025E08C002861D07F
:102F100018F1010018D0B8F1000F37D1216808E08E
:102F200017F8010B4860E08C0138E084E08C002841
:102F300051D00868000673D5002FF1D135F8020B87
:102F400000276FF35F20EDE7216802E008680006C4
:102F500009D40868000606D4086800065CBF086843
:102F60005FEA0060F2D51FB117F8010B05E000BF62
:102F700035F8020B00276FF35F204860E08C0138C2
:102F8000E084E08C0028E4D125E000BF216800BF88
:102F90000868000608D4FEF735FA801B404541D882
:102FA0002168C868F4E700BF17B117F8010B04E007
:102FB00035F8020B00276FF35F204860E08C013882
:102FC000E084E08C0028E3D105E000BF0027E08C1E
:102FD00000289DD12168086840061FD4B8F1000F71
:102FE0001ED018F101000FD10868400616D40868F9
:102FF000400613D40868400610D4086840064FF015
:103000000000F1D50FE000BFFEF7FCF9801B404542
:1030100008D82068C16800684006F5D5002002E0A5
:10302000FEF7F0F90320202184F84110BDE8F0817B
:103030007047000070B50446A28800680D4611462E
:103040000022FEF7D9F9A068A1890022FEF7D4F981
:103050002069A18A05F080063246FEF7CDF9A06806
:10306000A1890122FEF7C8F92069A18A3246FEF73C
:10307000C3F9A068A1890022FEF7BEF92069A18AE0
:1030800005F040063246FEF7B7F9A068A189012293
:10309000FEF7B2F92069A18A3246FEF7ADF9A068C1
:1030A000A1890022FEF7A8F92069A18A05F020066F
:1030B0003246FEF7A1F9A068A1890122FEF79CF92A
:1030C0002069A18A3246FEF797F9A068A1890022FB
:1030D000FEF792F92069A18A05F010063246FEF744
:1030E0008BF9A068A1890122FEF786F92069A18ADF
:1030F0003246FEF781F9A068A1890022FEF77CF92B
:103100002069A18A05F008063246FEF775F9A06825
:10311000A1890122FEF770F92069A18A3246FEF7E3
:103120006BF9A068A1890022FEF766F92069A18ADF
:1031300005F004063246FEF75FF9A068A189012276
:10314000FEF75AF92069A18A3246FEF755F9A068C0
:10315000A1890022FEF750F92069A18A05F0020634
:103160003246FEF749F9A068A1890122FEF744F929
:103170002069A18A3246FEF73FF9A068A1890022A2
:10318000FEF73AF92069A18A05F001052A46FEF703
:1031900033F9A068A1890122FEF72EF92069A18ADE
:1031A0002A46FEF729F92068A1880122BDE870406F
:1031B000FEF722B9FEE7000080B582B00020019042
:1031C00043F63000C4F202000168002241F400110D
:1031D00001600068002100F40010019001981020A7
:1031E000FEF796F9102002B0BDE88040FEF77CB9EA
:1031F0002DE9F04387B0002743F63000CDE905778D
:103200000197C4F202000168002541F00401016049
:103210000168C4F2020501F00401019101990197CE
:103220000168002241F08001016001684FF4587884
:1032300001F08001019101990197016841F00101BC
:103240000160016801F00101019101990197016894
:1032500041F00201016000684FF4587100F0020073
:10326000019001982846FEF7C7F805F580642046CE
:10327000202100224FF02009FEF7BEF84FF4005045
:1032800002904FF4041002AECDE9030705F500608B
:103290003146FDF7DDFFCDF808804FF001082846E4
:1032A0003146CDE903870597FDF7D2FF2046314629
:1032B000CDE90298CDE90477FDF7CAFF07B0BDE874
:1032C000F083000010B58EB040F250300021C2F201
:1032D00000004FF0804240F2833340F2E7340D911A
:1032E000CDE90B110991CDE90711CDE90511CDE922
:1032F0000311CDE90111C0E90023C0E90214016105
:103300008161FEF799FD002818BFFDF761FD4FF4BC
:1033100080500A9040F25030C2F200000AA9FEF735
:1033200019FE002818BFFDF753FD40F25030C2F2DD
:103330000000FFF79DF8002818BFFDF749FD40F297
:1033400050300024C2F2000008A9CDE90844FEF77D
:1033500095FC002818BFFDF73BFD6020CDE9010476
:1033600040F25030C2F2000001A9042203940594F7
:10337000FEF76CFF002818BFFDF72AFD40F2503021
:10338000C2F2000001A90822FEF760FF002818BF62
:10339000FDF71EFD40F25030C2F20000FEF7A8FE1D
:1033A0000EB010BD10B58EB040F2983040F2004221
:1033B0000021C2F20000C4F2000240F2833340F266
:1033C000E7340D91CDE90B110991CDE90711CDE954
:1033D0000511CDE90311CDE90111C0E90023C0E9D0
:1033E000021401618161FEF727FD002818BFFDF777
:1033F000EFFC4FF480500A9040F29830C2F2000087
:103400000AA9FEF7A7FD002818BFFDF7E1FC40F26E
:103410009830C2F20000FFF72BF8002818BFFDF724
:10342000D7FC40F298300024C2F2000008A9CDE990
:103430000844FEF723FC002818BFFDF7C9FC6020F4
:10344000CDE9010440F29830C2F2000001A9002247
:1034500003940594FEF7FAFE002818BFFDF7B8FCA8
:1034600040F29830C2F2000001A90422FEF7EEFEFD
:10347000002818BFFDF7ACFC40F29830C2F2000003
:10348000FEF736FE0EB010BD10B58EB040F2E03043
:1034900040F600020021C2F20000C4F2000240F235
:1034A000833340F2E7340D91CDE90B110991CDE959
:1034B0000711CDE90511CDE90311CDE90111C0E9ED
:1034C0000023C0E9021401618161FEF7B5FC002808
:1034D00018BFFDF77DFC4FF480500A9040F2E030B9
:1034E000C2F200000AA9FEF735FD002818BFFDF75B
:1034F0006FFC40F2E030C2F20000FEF7B9FF002896
:1035000018BFFDF765FC40F2E0300024C2F2000075
:1035100008A9CDE90844FEF7B1FB002818BFFDF764
:1035200057FC6020CDE9010440F2E030C2F2000017
:1035300001A9002203940594FEF788FE002818BF15
:10354000FDF746FC40F2E030C2F20000FEF7D0FD8D
:103550000EB010BD10B596B040F2284040F20042C7
:103560000021C2F20000C4F2010240F2833340F2B3
:10357000E7341591CDE913111191CDE90F11CDE982
:103580000D11CDE90B11CDE90911CDE90711CDE9F7
:103590000511CDE90311CDE90111C0E90023C0E90E
:1035A0000214C0E904118161FEF746FC002818BF2F
:1035B000FDF70EFC4FF48050129040F22840C2F20A
:1035C000000012A9FEF7C6FC002818BFFDF700FC9A
:1035D00040F22840C2F20000FEF74AFF002818BF60
:1035E000FDF7F6FB40F228400024C2F2000010A9CB
:1035F000CDE91044FEF742FB002818BFFDF7E8FBB9
:103600006020CDE9090440F22840C2F2000009A977
:103610000422CDE90B44CDE90D440F94FEF716FECC
:10362000002818BFFDF7D4FB00200590CDE903006A
:10363000CDE901004FF40051089040F22840069176
:10364000C2F2000001A9FEF7F3FA002818BFFDF747
:10365000BFFB40F22840C2F20000FEF749FD16B061
:1036600010BD000080B540F2704044F20041C2F24B
:103670000000C4F2000100234FF00C0C4FF4E132C3
:1036800080E80E00C0E90333C0E905C3C361FFF75A
:1036900083FB002808BF80BDBDE88040FDF798BBD4
:1036A000FEE70000FEE700007047000070470000E2
:1036B000FDF7AEBE80B594B0002043F64001CDE9E1
:1036C0000B00CDE909000690CDE90400CDE9020028
:1036D0000190C4F202010A6842F080520A6009684F
:1036E00001F0805101910199019047F20000C4F26C
:1036F0000000016841F44041016000684FF480011E
:1037000000F4404001900198012007904FF4803070
:103710000E910421089002200F91B4210D90CDE963
:103720001010CDE9120007A8FEF798F810B172B694
:10373000FEE700BFFDF728FF10B172B6FEE700BF3D
:103740000F20029002200390002004904FF4C050FC
:1037500005904FF48050069002A80521FDF752FF16
:1037600010B172B6FEE700BF14B080BD4EF68850AF
:10377000CEF20000016841F4700101607047000062
:1037800010B540F6FF3E0368C4F2000E40F2004C54
:103790007045C4F2010C27DCB0F1804F31D040F20B
:1037A0000042C4F2000290422BD040F60002C4F264
:1037B0000002904225D041F6FF72C4F2000290420E
:1037C00029DC70453CDCB0F1804F5FD040F2004214
:1037D000C4F20002904259D040F60002C4F2000246
:1037E000904253D056E000BF40F60042C4F20002BF
:1037F000904206D0604504D00022C4F201029042FB
:10380000D9D14A6823F07003134341F6FF72C4F222
:1038100000029042D5DD43F6FF72C4F201029042ED
:1038200022DC42F20002C4F2000290422ED00022BA
:10383000C4F20102904229D0604527D02AE000BF9F
:1038400040F60042C4F2000290421FD041F600024E
:10385000C4F20002904219D041F60042C4F20002C4
:10386000904213D016E000BF44F20002C4F20102FD
:1038700090420BD044F60002C4F20102904205D0FF
:1038800044F20042C4F20102904203D1CA6823F418
:103890004073134323F080024B69D1F800E08C6839
:1038A0001A430260C46240F48062C0F828E06245B6
:1038B00004BF09690163012141610169C90708BFAA
:1038C00010BD016921F00101016110BD806B002173
:1038D000C185C184FEF7ACBF806B01684A6990F86E
:1038E0004130212B2DD112F080022AD00021C18439
:1038F000016851E8031F026821F0C00142E8031388
:10390000DBB1016851E8031F026821F0C00142E801
:10391000031393B1016851E8031F026821F0C0014D
:1039200042E803134BB1016851E8031F026821F01C
:10393000C00142E80313002BDAD1202180F84110A6
:103940000168496990F84220222A40F07D8011F0F8
:10395000400179D00021C185016851E8031F026848
:1039600021F4907142E80313BBB3016851E8031FCF
:10397000026821F4907142E8031373B3016851E8BF
:10398000031F026821F4907142E803132BB301680E
:1039900051E8031F026821F4907142E80313002BE1
:1039A000DAD11AE0016851E8051F026821F001012F
:1039B00042E80513DBB1016851E8051F026821F0F8
:1039C000010142E8051393B1016851E8051F02683F
:1039D00021F0010142E805134BB1016851E8051FD0
:1039E000026821F0010142E80513002BDAD1016BD6
:1039F000012924D1016851E8031F026821F0100158
:103A000042E80313DBB1016851E8031F026821F0AB
:103A1000100142E8031393B1016851E8031F0268E3
:103A200021F0100142E803134BB1016851E8031F74
:103A3000026821F0100142E80313002BDAD12021A3
:103A400080F8421000210163416C41F01001416493
:103A5000FEF7EEBE0168806B0968C90500F19F8022
:103A60000021C185016851E8031F026821F48071BB
:103A700042E80313E3B1016851E8031F026821F42F
:103A8000807142E803139BB1016851E8031F02688B
:103A900021F4807142E8031353B1016851E8031F18
:103AA000026821F4807142E80313002BDAD100BFD1
:103AB000016851E8051F026821F0010142E8051381
:103AC000BBB3016851E8051F026821F0010142E81B
:103AD000051373B3016851E8051F026821F0010165
:103AE00042E805132BB3016851E8051F026821F075
:103AF000010142E80513002BDAD11AE0016851E810
:103B0000051F026821F0400142E80513DBB101689E
:103B100051E8051F026821F0400142E8051393B106
:103B2000016851E8051F026821F0400142E80513D1
:103B30004BB1016851E8051F026821F0400142E8DD
:103B40000513002BDAD1202180F84210016B0129E6
:103B500025D100BF016851E8031F026821F0100160
:103B600042E80313DBB1016851E8031F026821F04A
:103B7000100142E8031393B1016851E8031F026882
:103B800021F0100142E803134BB1016851E8031F13
:103B9000026821F0100142E80313002BDAD1002162
:103BA0004163016B012918BFFFF782B9818DFEF7D0
:103BB000FFBD0000806B01214163016B012918BF2B
:103BC000FFF778B9818D4908FEF7F2BD81B090F812
:103BD0004210222921D183680246B3F5805F09D1C2
:103BE00052F8281F52F8183C002B63D003685B681A
:103BF0000AE000BF52F8281F13B90369002BF5D063
:103C000003685B6803F07F030B701168013111607A
:103C1000C18D01390A04C18502D001B0704700BFCF
:103C20000168CA6822F02002CA60CA6822F4807261
:103C3000CA604A6922F001024A61202180F84210DC
:103C400000214163026B012A3CD10163016851E804
:103C5000031F026821F0100142E80313DBB1016881
:103C600051E8031F026821F0100142E8031393B1E9
:103C7000016851E8031F026821F0100142E80313B4
:103C80004BB1016851E8031F026821F0100142E8BE
:103C90000313002BDAD101680A68D20606D5002288
:103CA00000920A680092496800910099818D01B0E4
:103CB000FEF77EBD026852686FF35F2221F8022B87
:103CC0008162A5E701B0FFF7F3B8000010B5044624
:103CD0000068D4E902C22369016921F4405111430B
:103CE0000161626943EA0C01E3691143C268194347
:103CF00049F20C639A431143C1604169A26921F4FE
:103D0000407141F20043114340F48062C4F2010368
:103D10009A42416102D1FDF739FD01E0FDF722FD34
:103D2000E16963681922B1F5004FA0FB020123D1BC
:103D30005A00DB0FFCF762FA48F21F51C5F2EB1193
:103D4000A0FB01235A094FF69C73C0F6FF7303F1E1
:103D5000805302FB0300322303EBC000A0FB0101F0
:103D60004FF4F87000EA111000EB0210C1F3421199
:103D700008442168886010BD9A009B0FFCF73EFA4A
:103D800048F21F51C5F2EB11A0FB01235A094FF66F
:103D90009C73C0F6FF7302FB0300322303EB001099
:103DA000A0FB0101F02000EA511000EB0210C1F36A
:103DB000431108442168886010BD000040F2704043
:103DC000C2F20000FEF736BDFEE7000070B578B322
:103DD00002686AB3D0E901C1614532D2CCF1000E6C
:103DE0000B1DD41814F8041C202923D80EEB03054E
:103DF000D91E032D816021D014F8036C202E1AD80F
:103E0000991E022D816019D014F8026C202E12D850
:103E1000591E012D816011D014F8014C202C0AD8B4
:103E2000836004330EEB03010429DAD106E000BFFE
:103E3000002070BD191F614518BF70BDACF10101B4
:103E4000816070BD70B5002808BF70BD40F21806D3
:103E50000446C2F2000603E0716828468847CCB1E8
:103E6000E16825462468C80504D4A86810B1FFF7A6
:103E7000E9FFE968C80504D4286910B1716888476A
:103E8000E9688805E8D4286A0028E5D07168884781
:103E9000E2E700BF70BD0000024600284FF00000BE
:103EA0001AD0002918D402F108000068002818BFB1
:103EB000002911D00068002818BF01290CD0006823
:103EC000002818BF022907D00068002808BF7047E3
:103ED0000329A1F10401E8D170470000002804BFC4
:103EE0000020704700F10801002000BF0968002988
:103EF00008BF7047096859B10968002904BF02303A
:103F0000704709680430002904BF01387047EDE7A5
:103F100001307047002200F00FB9000000280FBFE9
:103F20000020007B1038B0FA80F018BF40097047BD
:103F300000220023AFF300802DE9F04788B005464A
:103F400040F2E80A91460020C2F2000A002D0790D4
:103F5000CDE90500CDE90300CDE90100CAF8000074
:103F6000CAF8040000F0AC800F46002900F0A880D9
:103F700040F21800C2F20000D0E9001280689846B2
:103F800007902820CDE90157CDE90512884798B15F
:103F900028210646FCF782F9052F0FD35DA128469C
:103FA00003220324FCF79AF900280CBF0394002491
:103FB000BC4206D33CE000BF002084E00024BC42A9
:103FC00036D2285D202823D8C7F1000C20460CEB00
:103FD0000002511C00F1010427D02B185978202928
:103FE0001CD8911C00F102041FD09978202915D803
:103FF000D11C00F1030418D0D97820290ED8111D46
:1040000012D01979043020290446E0D901E000BF1C
:104010000398BC42039009D00AE000BF2046BC428E
:10402000039003D004E000BF041D0394781E0390A6
:1040300001A9304600F070FC00283ED0B8F1000F16
:104040005CD0DDE901EC039ABEF1000F30D062458F
:104050002ED2CCF10007131D0EEB030414F8041C40
:1040600020291FD8F918DA1E032903921DD014F84D
:10407000030C202817D89A1E0229039215D014F891
:10408000020C20280FD85A1E012903920DD014F8D3
:10409000010C202807D803930433F8180428DBD137
:1040A00003E000BF1A1F624502D1ACF10102039286
:1040B000624502D21EF8020000B33046FFF7C2FE8E
:1040C000B5B1DDE90270002F394618BF0139B84299
:1040D0004FF0000638BF0146B9F1000F1CBF681849
:1040E000C9F80000CAE90051304608B0BDE8F087C1
:1040F0000026304608B0BDE8F08700BFB9F1000FD8
:10410000F2D0019803990844C9F80000304608B07D
:10411000BDE8F087EFBBBF0080B582B0019040F2F0
:104120007040C2F2000001A901224FF6FF73FEF7B2
:10413000C3FE019802B080BD2DE9F04381B08846EE
:10414000014600284FF0000018BFB8F1000F03D15E
:1041500001B0BDE8F08300BF8C687AB17CB1D4F8BF
:104160002090B9F1000F3DD040464946FCF7A8F831
:10417000C0B32468002CF2D101E000BF54B9002084
:1041800001B0BDE8F08300BF87422BD02468002037
:10419000002CDDD0D4F82090B9F1000FF6D0C14545
:1041A00020D098F800603046FCF759F899F80010D4
:1041B00007460846FCF753F88742E5D1012500BFC2
:1041C00086B118F805603046FCF749F819F8051073
:1041D00007460846FCF743F8874205F10105EFD092
:1041E000D2E700BFB9F1000F08BF4C46204601B02E
:1041F000BDE8F0832DE9F04F81B02DED088BFFF77E
:1042000097FE0446002800F09B80A568002D00F072
:10421000938045F60C269FED53BA9FED539A9FED80
:1042200053AAC0F600060FF2301A4FF00108B7EE9D
:10423000008A0EE00020C7B240F22400C2F2000063
:104240003946FEF7F7FE384600F04AFD2D68002D8E
:1042500072D02F6A31463846FCF732F840B3384600
:104260005146FCF72DF8002840D038463CA1FCF719
:1042700027F80028EAD1FDF7C5F800EE100AB8EEDD
:10428000400A3BEE400A80EE0B0AF0EE490AB0EE1F
:10429000481AF0EE491AB0EE4A2A00F0E1F8BDEEF5
:1042A000C00A10EE101A32A000F01AFECEE700BFCE
:1042B00020463146FFF72EFEFFF730FE0028C5D01E
:1042C0002F692DA13846FBF7FBFF68B338462CA1B8
:1042D000FBF7F6FF60B338462BA1FBF7F1FF002890
:1042E000B4D12BA001F012FBB0E700BF2846FFF7C6
:1042F000F5FD01289EDB814600274FF0000B00BF33
:1043000028463946FFF7C8FD416908FA07F22BEA4B
:104310000200012907F1010708BF4BEA0200B94575
:104320008346EDD187E700BF1BA001F0EFFA8DE7D0
:1043300018A001F0EBFA89E72046FFF783FD02E0C1
:1043400016A001F0E3FA002C18BF01242046BDECB2
:10435000088B01B0BDE8F08F37344843353935005C
:104360006164630080CB244B000000000000A54284
:1043700025640D0A000000006E65737400000000E3
:104380006772616200000000636F6C6C65637400AB
:10439000430D0000420D0000410D0000696E766182
:1043A0006C6964204A534F4E0D00000092B0FDF737
:1043B0003DF8FFF77FF9FEF71BFFFEF7FDFEFFF765
:1043C00051F9FFF761F8FEF7EDFFFFF7C3F8FEF7CD
:1043D00079FF40F2704040F2F011C2F20000C2F2E8
:1043E00000014FF48072FEF7FDF840F2F020C2F2B7
:1043F000000000681A2501680BAC21F0080101607B
:1044000040F2E031C0F27B050026B427C2F2000181
:10441000204600222B46CDE900670296039600F065
:10442000B9FC9FED0B0A204600F0D6FC40F2284173
:10443000C2F2000104A804222B46CDE900670296CF
:10444000039600F0A7FC03A001F060FAFEE700BFAE
:1044500000003443546573742073746172740D00EA
:1044600030EE600A32EE612A20EE020A31EE601A66
:1044700080EE010A30EE210A70470000B0B50178E5
:10448000A1F130020A2A07D26FF02F0C4378A3F172
:1044900030020A2A0BD31EE0A1F14102062A0FD2F4
:1044A0006FF0360C4378A3F130020A2A13D26FF072
:1044B0002F0E8278A2F130040A2C17D329E000BF16
:1044C000A1F16102052A57D86FF0560C4378A3F189
:1044D00030020A2AEBD3A3F14102062A0ED26FF072
:1044E000360E8278A2F130040A2C12D26FF02F041B
:1044F000C078A0F130050A2D16D324E0A3F16102A3
:10450000052A39D86FF0560E8278A2F130040A2CB1
:10451000ECD3A2F14104062C0AD26FF03604C07825
:10452000A0F130050A2D0ED26FF02F0518E000BF64
:10453000A2F16104052C1FD86FF05604C078A0F1D9
:1045400030050A2DF0D3A0F14105062D02D26FF0FF
:10455000360505E0A0F16105052D0DD86FF0560573
:1045600061440901734419440901224411440901B9
:1045700028440844B0BD00BF0020B0BD2DE9F04F75
:1045800081B00C460A68896811440F4617F8013B50
:10459000222B40F0BA8180466068BB1A834280F0CB
:1045A000B4810126002307E0222D11D001368D1998
:1045B000AD1A854280F0A9818D5D5C2DF4D1013664
:1045C0008D19AD1A854280F0A0810133EEE700BF5E
:1045D00001EB060B58182269ABEB00000130904745
:1045E000002800F092818146022E0646C0F27A81B0
:1045F0004FF0080E4E4605E0013706F8010B5F4507
:1046000080F0708138785C28F6D1ABEB0700012888
:10461000C0F278817978A1F12202532A00F27281E6
:10462000DFE812F054007001700170017001700138
:10463000700170017001700170017001700154000F
:1046400070017001700170017001700170017001E2
:1046500070017001700170017001700170017001D2
:1046600070017001700170017001700170017001C2
:1046700070017001700170017001700170017001B2
:1046800070017001700170017001700170017001A2
:1046900070017001700170015400700170017001AF
:1046A000700170015C0070017001700164007001A4
:1046B000700170017001700170017001660070017D
:1046C00070017001680070016A00740006F8011B37
:1046D000022007445F45FFF495AF03E106F801EBC4
:1046E000022007445F45FFF48DAFFBE00C2004E09F
:1046F0000A2002E00D2000E0092006F8010B02204C
:1047000007445F45FFF47EAFECE000BF0628C0F031
:10471000F980B878A0F130010A2903D26FF02F0C8C
:104720000EE000BFA0F14101062903D26FF0360C64
:1047300006E000BFA0F16101052927D86FF0560CF3
:10474000FA78A2F130010A2902D26FF02F0E0DE0A3
:10475000A2F14101062903D26FF0360E06E000BF38
:10476000A2F16101052911D86FF0560E3979A1F136
:1047700030030A2B02D26FF02F0A13E0A1F141039C
:10478000062B09D26FF0360A0CE000BF012106208B
:104790004FF0000A9FE000BFA1F16103052B5FD835
:1047A0006FF0560A7B79A3F130050A2D04D24D46ED
:1047B0006FF02F090FE000BFA3F14105062D03D2D2
:1047C0004D466FF0360906E0A3F16105052D47D887
:1047D0004D466FF0560960440001104470440001DA
:1047E000084450440001184400EB090A40F2FF302D
:1047F0002AEA0000B0F5584F0ED0B0F55C4FA9463C
:104800004FF0080E4FF002057CD0BAF1800F2FD286
:10481000012106205FE000BFB81DABEB00010629B7
:10482000A9466FDB00785C286CD1F879752869D1CE
:1048300007F10800FFF722FEA0F560414FF0080ED7
:10484000022511F5806F5DD36FF39F206AF39320EB
:1048500000F5803A4FF0F00C04210C2020E000BF5E
:10486000012106204FF0000A4FF0080E33E000BF90
:10487000BAF5006F04D24FF0C00C02210FE000BF68
:10488000BAF5803F04D24FF0E00C032107E000BFEF
:104890004FEA1A40102835D84FF0F00C04210620BA
:1048A0004A1E5346D2B265F39F13B35402294FEA0E
:1048B0009A130ED0324465F39F1302F8013C4FEA7D
:1048C0001A3303291EBF65F39F1302F8023C4FEA17
:1048D0009A4343EA0C0A86F800A00E4407445F4559
:1048E000FFF490AE002030701020C8F80C00206853
:1048F000C8F81090ABEB0000411C0120A16001B092
:10490000BDE8F08F6169484688472068391A002061
:10491000A16001B0BDE8F08F2DE9F04F91B0D9B39F
:104920000D688B46002D00F0CD81DBE901768246D3
:1049300006F10408B84509D845F60721A819C0F6BC
:10494000000104220424FBF7C9FC58B3741DBC42C7
:1049500008D845F6FC11A819C0F600010522FBF79E
:10496000BDFC48B3B84509D845F60221A819C0F6E0
:1049700000010422FBF7B2FC00285FD0BE4280F0A9
:10498000A181A95D222921D15046594611B0BDE827
:10499000F04FFFF7F3BD00BF0027384611B0BDE868
:1049A000F08F00BFCAF80C40CBF8088001273846CA
:1049B00011B0BDE8F08F00BF0127CAF80C70CBF82A
:1049C0000840384611B0BDE8F08F00BF2D2905EB37
:1049D00006003FD0A1F13002092A3BD97B2900F023
:1049E00085805B2940F06E81DBF80C10CA087C2AB8
:1049F00000F268810131CBF80C1000785B2840F0A0
:104A00006181701CCBF808005846FFF7DFF9DBE93D
:104A10000110884280F0A880DBF80010095C5D2955
:104A200040F0AA80DBF80C1000240139CBF80C1000
:104A300020210130CAE902418FE000BF0220012796
:104A4000CAF80C00CAF81470CBF80880384611B0C8
:104A5000BDE8F08FBA1B40F20D074FF000016E4623
:104A60004FF00103C0F20047109138BF0A4607E03B
:104A700003FA04F43C420ED0755401313F290FD0A3
:104A80008A420BD0455CA5F130040A2CF4D3A5F181
:104A90002B041A2CECD9652DEED002E0114600E073
:104AA0003F210027775410A9304600F059FA109C96
:104AB000A6423FF472AF9FED861B58EC107B53EC7F
:104AC000112B384641468AED060BFBF7FBFEA8BBCF
:104AD0009FED810B384653EC102B4146FBF7D7FE78
:104AE00080BB38464146FBF708FF2DE0DBF80C1091
:104AF000CA087C2A00F2E6800131CBF80C1000785D
:104B00007B2840F0DF80701CCBF808005846FFF788
:104B10005DF9DBE90110884226D2DBF80010095C60
:104B20007D2965D1DBF80C104FF000090139CBF875
:104B30000C1040210130CAE902910EE06FF00040F4
:104B400002E000BF4FF00040CAF814000820CAF885
:104B50000C00DBF80800A11B0844CBF80800012773
:104B6000384611B0BDE8F08F0138CBF808000027B7
:104B7000384611B0BDE8F08F013800270025CBF88A
:104B80000800DBF8101028208847002800F09480E7
:104B900028210646FBF782FB3446002F1EBF2E60FD
:104BA00075603C46DBF808000130CBF80800584639
:104BB000FFF70CF930465946FFF7AEFE002871D0DA
:104BC0005846FFF703F9DBE9011088426AD2DBF8A7
:104BD00000102746095C35462C29D2D05D2961D1C9
:104BE000DBF80C100139CBF80C10666020E700BF31
:104BF00001384FF0000800270024CBF80800DBF84C
:104C000010102820884700285AD028210646FBF794
:104C100045FBB146002F1EBF26607460B946DBF825
:104C200008000130CBF808005846FFF7CFF83046AF
:104C30005946FFF7A3FC98B35846FFF7C7F8306909
:104C4000C6F810803062DBE90110884228D2DBF818
:104C50000010095C3A2923D10130CBF808005846EE
:104C6000FFF7B4F830465946FFF756FEC0B1584634
:104C7000FFF7ACF8DBE90110884211D2DBF8001035
:104C80004F46095C34462C29B9D07D2908D1DBF880
:104C90000C100139CBF80C10C9F8046049E700BFCB
:104CA0004F4600E027463846FFF7CCF80027384645
:104CB00011B0BDE8F08F00BF002FF4D102E000BFBB
:104CC000002FF0D10027384611B0BDE8F08F00BFAB
:104CD0000000C0FFFFFFDF41000000000000E0C156
:104CE0002DE9F04184B005464FFA80F800200DF11F
:104CF00007048DF807002046FBF7DBFAE9074FF0C1
:104D0000310108BF30212152A8074FF0310620465B
:104D10004FF0310758BF3026FBF7CBFA2652680711
:104D20004FF03106204658BF3026FBF7C2FA265214
:104D300028074FF03106204658BF3026FBF7B9FA56
:104D40002652E8064FF03106204658BF3026FBF7C2
:104D5000B0FA2652A8064FF03106204658BF30263A
:104D6000FBF7A7FA265268064FF03105204658BFD8
:104D70003025FBF79EFA25522046B8F1FF3FC8BF09
:104D80003027FBF796FA2752204600F0BFFD04B00B
:104D9000BDE8F0812DE9F04F81B0DDE90C980E46B9
:104DA000DDE90ABA5FEAC9511C4615460746304696
:104DB000114603D4FDF78CFB02E000BFFCF7BAFFFD
:104DC000C7E90065C7E9024BC7E904A9C7F818801D
:104DD00001B0BDE8F08F0000B0F90E10B0F910205E
:104DE00001EE101A0189B8EEC11A03EE101A4189BA
:104DF00002EE102A04EE101AB8EE433AB8EE444A16
:104E0000B8EEC22A30EE410A34EE434A20EE040ADC
:104E100032EE411A80EE010A30EE030ABDEEC00AFE
:104E200010EE101AAFF3008083B070B581B08446E5
:104E300005A80EC005A800F1080150F8042FBDF820
:104E40001400009132B1BCF80810884206D208461E
:104E500009E000BFBCF8081005E000BFBCF80A205C
:104E6000904288BF1046DCE900359CF81460BCF81D
:104E70000A20BCF812E04FEAB505032DACF80C008F
:104E800008D8DFE805F0030B0F1300BF1B683433AD
:104E90000EE000BF1B6834330AE000BF1B683833E4
:104EA00006E000BF1B683C3302E000BF1B684033D4
:104EB000002E0646A1EB000518BFAE187644B6B228
:104EC0008E4288BF3146914228BF1146142998BFAF
:104ED0001421196001B0BDE8704003B070470000B4
:104EE0000FB4054B10B503A9044A029800F04EF91F
:104EF00010BC5DF814FB0000194100080000002000
:104F000030B528B1144C031F002021680A4605E083
:104F1000084630BD9A4203D810465268002AF9D19B
:104F2000002800D041680BD00468A3EB0005A5421F
:104F300004D11B681C440346046002E0436000E0A7
:104F400023603AB11C68D51AA54203D115682C44D8
:104F50001C6052685A6030BD040000200000000050
:104F600000B583B09FED060B0A4601468DED000BA0
:104F700001236846FBF767FD9DED000B03B000BD04
:104F800000000000000000002DE9F04782460F4CB1
:104F900010480D4E0E4F001B4FF0000820F0070583
:104FA0004FF0010900221146504600F087FC00280E
:104FB00002D1306810B10020BDE8F0873C60C4E940
:104FC0000058C6F80090EDE708000020C404002057
:104FD00004000020C006002002E008C8121F08C11B
:104FE000002AFAD170477047002001E001C1121F6A
:104FF000002AFBD1704700002DE9FF5F82B000213D
:10500000DDE90430020DDDF840B0034318D044F66A
:105010001050A2F2FF3242431514119801281FD0FC
:10502000A5EB0B00401C5FEA000A4FF000064E4F54
:10503000DFF83891B046504615D5CAF1000413E0A8
:10504000119801244AA3012801D16FEA0B010298AB
:10505000119AC0E90031C0E9024206B0BDE8F09FF4
:10506000CBF10000DFE704460021404A491842EB3B
:105070000450CDE9001012E0E00707D032463B466D
:1050800040464946FBF791FB8046894632463B46FF
:1050900010461946FBF789FB06460F466410002CA4
:1050A000EAD1DDE90401DDE90023BAF1000F06DAF7
:1050B000FBF77BFB42464B46FBF777FB05E0FBF734
:1050C00054FD42464B46FBF750FD04460E46002277
:1050D000284BFBF7DDFD03D84FF0FF30014607E01A
:1050E0000022254B20463146FBF7B8FAFBF7B8FD06
:1050F000102409E0002C0ADB0A220023FBF77EF8CB
:10510000039B30321A55641E50EA0102F2D1641C2E
:10511000039AC4F111031444119A012A03D0012205
:1051200008430DD10AE0084304D000204FF0110BD2
:10513000119072E7A3EB0B056D1E0DE05B4504DDDE
:105140004FF0000205F1010504E003DA4FF0000220
:10515000A5F10105002AECD002981199C0E90231AD
:10516000C0E9004579E70000000014400000F03F6E
:10517000300000000000F0430000E03F30380A2813
:1051800001D2012070470020704700002DE9FF4F39
:1051900095B09B468946064600250FE2252877D123
:1051A00000242746F84A0121059400E0044316F83C
:1051B000013F203B01FA03F01042F7D130782A2852
:1051C00011D06FF02F033078A0F13002092A16D8E1
:1051D000059A44F0020402EB820203EB42021044FF
:1051E000761C0590EFE759F8042B0592002A03DAA4
:1051F000504244F40054059044F00204761C307888
:105200002E2816D116F8010F44F004042A280DD0D8
:105210006FF02F023078A0F13003092B09D807EB8B
:10522000870302EB4303C718761CF3E759F8047BA6
:10523000761C30786C280FD006DC4C2817D06828F4
:105240000DD06A2814D104E0742810D07A280FD128
:105250000DE044F400140AE044F4801401E044F446
:1052600040147278824202D104F58014761C761CB8
:10527000307866280BD013DC582877D009DC00285A
:1052800075D04528F6D04628F4D047281AD19DE19C
:1052900018E0632835D0642879D0652812D195E1CB
:1052A000702873D008DC6728F1D069286FD06E2889
:1052B0000DD06F2806D1B5E073282CD0752875D095
:1052C000782874D05A46179990476D1C75E1C4F33D
:1052D0000250022809D003280DD0D9F80010042864
:1052E0000DD00D6009F1040967E1D9F80010EA1743
:1052F000C1E90052F6E7D9F800100D80F2E70D7011
:10530000F0E719F8041B8DF8001000208DF801005B
:10531000EA46012003E059F804AB4FF0FF30610783
:105320004FF0000102D40DE008F101018846B942B6
:105330000FDA8045F8DB1AF808100029F4D108E0EC
:1053400008F1010188468142FADB1AF808100029A9
:10535000F6D105985B46A0EB080721463846179A18
:1053600000F094FA284400EB080507E04DE029E13D
:105370000DE01AF8010B5A4617999047B8F1010849
:10538000F7D25B4621463846179A13E142E00A22DB
:105390000092C4F302524FF0000A022A08D059F8D2
:1053A00004CB032A4FEAEC710AD00DE029E02AE091
:1053B00009F1070121F00702F2E802C1914609E074
:1053C0000FFA8CFC4FEAEC71042A03D14FFA8CFCE3
:1053D0004FEAEC71002907DA0A460021DCF1000CE3
:1053E00061EB02012D2202E0220504D52B228DF86B
:1053F0000420012203E0E20701D02022F7E79046D3
:1054000059E00A2102E010220DE010214FF0000ABD
:1054100000910BE010224FF0000A44F0040408272A
:10542000009203E008224FF0000A0092C4F30252F7
:10543000022A05D059F804CB0021032A08D009E03C
:1054400009F1070121F00702F2E802C1914605E0E7
:105450001FFA8CFC042A01D10CF0FF0C4FF000085D
:10546000220728D5702806D0009B83F0100353EA4A
:105470000A0305D00EE040228DF80420012208E046
:105480005CEA010206D030228DF804208DF8050078
:1054900002229046009B83F0080353EA0A030AD1D4
:1054A0005CEA010201D1620705D530228DF80420A3
:1054B0004FF001087F1E582804D034A003900EA896
:1054C00002900DE036A0F9E753466046009AFAF7DD
:1054D00095FE84460398825C0298401E02900270FA
:1054E0005CEA0100F0D1029806A9081A00F1200A2E
:1054F000600702D524F4803400E00127574502DD1F
:10550000A7EB0A0000E0002000EB0A0100900598DC
:105510004144401A0590E00306D45B462146179AA1
:10552000059800F0B3F90544002706E001A85A46A3
:10553000C05D179990476D1C7F1C4745F6DBE00363
:105540000CD55B462146179A059800F09FF9054453
:1055500004E030205A46179990476D1C0099481E68
:1055600000900029F5DC08E0029802995A4600787C
:10557000491C0291179990476D1CBAF10001AAF1DC
:10558000010AF1DC65E10000092801003031323305
:10559000343536373839616263646566000000006F
:1055A0003031323334353637383941424344454659
:1055B0000000000000F058F90544761C30780028FF
:1055C0007FF4ECAD19B02846BDE8F08F620700D437
:1055D000062709F1070222F0070CFCE80223E14646
:1055E00003F000485FEA080C02D00FF2702C0DE0C7
:1055F0005FEA045C02D50FF2682C07E05FEAC47C26
:1056000002D00FF2602C01E0AFF2700C4FF0FF38C7
:1056100023F00043CDF850C065280CD006DC4528A7
:1056200009D046281DD047283DD13DE0662818D036
:1056300067287ED138E00021112F01DB112000E026
:10564000781CCDE9000106A90EA8FFF7D5FCDDE91D
:105650000F010E9A03910021009207F1010A0491B3
:105660004DE04FF000400097CDE9011006A90EA8CB
:10567000FFF7C2FCDDE90F0203920E9B1199002295
:10568000DDF80CA00093049211B9791C00EB010A1B
:10569000B7EB0A0004D4C0F1FF3007F1010A04900F
:1056A000AAEB0700019044E0012F00DA0127002156
:1056B000112F01DD112000E03846CDE9000106A9D7
:1056C0000EA8FFF799FCDDE90F010E9A0391002166
:1056D00004910092BA4621070CD40399514500DA8F
:1056E0008A46BAF1010F05DD009AAAF10101515C69
:1056F000302908D0B84202DA10F1040F06DA01218D
:10570000CDE9011015E0AAF10101E9E7002805DC67
:10571000049901440491AAEB000102E0411C5145A7
:1057200000DD8A460499401A401C01904FF0004069
:105730000290200704D40198504501DBCDF8048085
:1057400000208DF84F0002980DF14F07B0F1004F87
:1057500025D02B200E9002984FF0020800280CDA7A
:10576000404202902D200E9007E00A210298FBF79C
:10577000E3F83031029007F8011DB8F10001A8F1FB
:105780000108F2DC02980028EFD1791E0E9808700B
:10579000307800F0200040F0450007F8020D12A814
:1057A000C01B00F107081498007800B1012000EB3D
:1057B0000A01019801EBE07105984144401A401E2E
:1057C0000590E00306D45B462146179A059800F041
:1057D0005DF805441498007818B15A461799904717
:1057E0006D1CE00324D55B462146179A059800F00E
:1057F0004DF805441CE00498002807DBDDE90301AF
:10580000884203DD0098405C179901E01799302029
:105810005A469047049805F10105401C04900198F0
:10582000401E019004D12E205A46179990476D1CB6
:10583000BAF10001AAF1010ADDDC05E017F8010B5D
:105840005A46179990476D1CB8F10001A8F101085C
:10585000F4DC5B462146179A0598ABE62D00000064
:105860002B000000200000002DE9F0410446002537
:105870001E461746880404D405E039462020B04768
:105880006D1C641EF9D52846BDE8F0812DE9F04174
:10589000044600251E469046C80301D5302700E087
:1058A0002027880404D505E041463846B0476D1CE2
:1058B000641EF9D52846BDE8F08100002DE9F041CD
:1058C0000B3020F00706104D19E02068B04215D3C8
:1058D000B0420AD9871B201DD4F80480FAF7C5FC12
:1058E000A019C0E90078286004E060682860201DE5
:1058F000FAF7BBFC201D2660BDE8F081251D2C6851
:10590000002CE2D10020F7E70400002010B5044687
:1059100001E0FEF701FC14F8010B04490028F8D15E
:10592000BDE810400A20FEF7F7BB00000000002091
:105930002DE9F04704008A4616D054F8047CD4F8C8
:1059400000903E1F564500D956462046FFF7D8FA2C
:1059500005468846324621465046FFF7AFFF40B124
:10596000C0F80090BDE8F087BDE8F0470846FFF7B3
:105970000BBB44E9017955B129686A18211F8A4295
:1059800002D9611B091F2960C5F80480EAE7024AB1
:10599000C2F80080E6E7000004000020DDDDDDDD68
:1059A000DCBBBBDDDDDDDDDDDDDDDDDD98888888B0
:1059B0008888888877777777778888888555555657
:1059C00066666666666666666668888883333332AE
:1059D00022222222222222222228888D0000000058
:1059E000000000000102030406070809000000008F
:1059F00001020304000610160006101666616C739F
:105A0000650074727565006E756C6C006D6F646511
:105A100000000000385A000800000020E8000000E4
:105A2000D84F0008205B0008E8000020D8090000DB
:105A3000E84F000800000000000000000000000027
:105A40000000000001000000100000000024F4002D
:105A5000894F0008014F000831590008000002403A
:105A6000400000000004024020000000000002404E
:105A70000002000000000000000000000000000024
:105A80000000000000000000000000000000000016
:105A90000000000000000000000000000000000006
:105AA00000000000000000000000000000000000F6
:105AB00000000000000000000000000000000000E6
:105AC00000000000000000000000000000000000D6
:105AD00000000000000000000000000000000000C6
