:020000040800F2
:10000000680B0020D9000008352C00089D27000847
:1000100000000000000000000000000000000000E0
:10002000000000000000000000000000392C000863
:100030000000000000000000372C00083B2C0008E6
:100040000901000809010008090100080901000868
:1000500009010008410F00084B0F0008550F000868
:10006000090100080901000809010008E50E00085F
:100070000901000809010008090100080901000838
:10008000090100080000000000000000090100084C
:10009000000000000901000809010008090100082A
:1000A000000000000901000809010008090100081A
:1000B000A13400080000000009010008090100083F
:1000C0000448854600F08CFE00480047C143000804
:1000D000C046C046680B00200C4880F308880C48D6
:1000E0000168090E0B4A914205D10B480B4901608A
:1000F0000B480C4901600C4880470C480047FEE75C
:10010000FEE7FEE7FEE7FEE7FEE70000680B0020E3
:10011000040000001F000000181002400100000051
:100120000000014000000000C32C0008C1000008CE
:1001300030B50B46014600202022012409E00D467F
:10014000D5409D4205D31D469540491B2546954007
:1001500040191546521E002DF1DC30BDF0B51FB41C
:100160000646002082B005464024019100901BE025
:10017000019922460F46304600F020F8049A059B6C
:10018000801A994110D310461946224600F0ABFB65
:10019000361A8F410197224601200021009F00F06E
:1001A000A2FB38184D4100902046641E0028DFDC79
:1001B000019B00982946324607B0F0BD10B5202AB1
:1001C00004DB0846203AD040002110BD0B46D34046
:1001D000D0402024A21A91400843194610BD014680
:1001E0004139192900D82030704703460B439B073B
:1001F00003D009E008C9121F08C0042AFAD203E09C
:100200000B780370401C491C521EF9D27047D2B2C1
:1002100001E00270401C491EFBD270470022F6E745
:1002200010B513460A4604461946FFF7F0FF20466C
:1002300010BD421C0178401C0029FBD1801A704778
:1002400010B5002200E0521C835C8C5CA34201D1FB
:10025000002BF8D1D8B2E1B2401A10BD30B5054636
:100260000020034600E05B1C934205D2EC5CC85CB6
:10027000201A01D1002CF6D130BD0000FFB508785E
:1002800089B01546FF2805D0491C2D2804D000222E
:10029000002407E000240BE00122F9E70A235C4375
:1002A0000419491C0878FF28F8D1002A00D06442BC
:1002B000002004902A7801462D2A01D02B2A0FD144
:1002C0006D1C2D2A02D00022049209E00122FBE7D6
:1002D00000260A2233466D1C00F0C8FA3818714116
:1002E0002F78FF2FF4D10C9AA218069202460A43E7
:1002F00004D0FF23069A9133DA4205DA00210998E7
:100300000A4606C00DB0F0BD0024B74AB54D2646DA
:10031000079200F037FD029006980391002801DA59
:10032000474200E0074639050020AF4A001C514112
:100330000191009012E0F80707D022462B46304684
:10034000079900F03FFC0646079122462B461046CF
:10035000194600F037FC04460D467F10002FEAD105
:100360000698019B0028009A0399029806DA00F08B
:1003700091FC3246079B00F08DFC05E000F022FC6A
:100380003246079B00F01EFC049A002A02D001228C
:10039000D2075140099A03C2B4E7FFB591B00020DB
:1003A00009900025ED432E209E685C681F46019051
:1003B000B9696D1C129888470090396A88470028EF
:1003C000F6D10098401C0AD00D20C0018443002EB5
:1003D00012DD00982B2809D02D280DD103E0002034
:1003E000C04315B0F0BD012080020443B9696D1C03
:1003F00012988847761E009003A9600501D52D202C
:1004000000E02B206A461073491C0CA80F91029043
:100410000AE0B9696D1C12988847009001204002DB
:1004200004431398761E0560002E02DD00983028E4
:10043000EFD001990098884246D18020044308E01B
:100440000998401E09900120400204431399681C3A
:100450000860B9696D1C761E129888470090302894
:10046000EED031E00199884205D1200603D48020E6
:100470000443761E1EE0009803F0ACF9002826D055
:1004800001204002044307A90F980331761E8842D9
:100490000BD200980F99303808700F98401C0F90BD
:1004A000200607D50998401E03E0200602D40998CB
:1004B000401C0990A00502D51399681C0860B96911
:1004C0006D1C129888470090002ECBDC59E0002E5E
:1004D00057DD0098652801D0452852D1A00550D598
:1004E000032000028443B9696D1C761E1298884768
:1004F0000090002E0CDD2B2804D02D2808D1FF20E1
:1005000001300443B9696D1C12988847761E00902B
:10051000E00501D52D2100E02B2102980170029801
:10052000401C0290019025E00120400204430EA9E6
:1005300002980131761E88420ED200980299303816
:100540000006000E087003D10299019881420AD971
:100550000298401C029006E0E00501D5234801E026
:10056000224840420990B9696D1C12988847009052
:1005700013980560002E04DD009803F02BF9002885
:10058000D2D1F969129888470F99FF200870029913
:1005900003AA087000200A900B900CA90AA8099BD6
:1005A000FFF76CFEA00502D40120C04319E7242008
:1005B000044209D0E00713D138680B9A0A99031D49
:1005C0003B60006806C00BE00B990A9800F032F916
:1005D0000146E00704D13868021D3A6000680160F6
:1005E0002846FEE6000014400000F03FF1D8FFFF6F
:1005F00070B5064602F0CAFF046805460A220021CB
:10060000304600F007FA2C6070BD0000F0B50746D8
:100610000846584087B0C00F049048000E46590065
:1006200040084908BC1A884105D2384631461E4662
:1006300017460B4602465800400810434DD0300D77
:10064000039040055900400D490D0590401A029055
:10065000402873DA18030121000B090508430190B3
:1006600004980092002806D01146019A49420020C1
:10067000904100910190029840210A1A0199009836
:1006800000F031F905460C466B4607CB00F03BF90C
:10069000C0197141039A0E0D0023D71756401A4610
:1006A0007A40164344D0049A002A2DD0029A012A97
:1006B000039A15DC1205C01A914101263605001C6B
:1006C0007141D20F059ED2070093019202962A46ED
:1006D000234600F025FA07B0F0BD38463146FAE768
:1006E0001605234A0F46B218C01AB7410121090561
:1006F000001C4F4100187F41114618187941E20F44
:1007000010436D19644113E0E2076D081543640856
:10071000C2071443039A01261205C01A91413605F7
:10072000001C7141CE07400830434908C0185141B0
:100730002A46234600F0E7F9CDE7FFE704980122B7
:100740004000C117121A00238B4104983146C41788
:10075000381AA141EEE730B40124E407634030BC0D
:1007600054E730B40124E407614030BC4EE7000098
:100770000000E0FF70B5CD0F4A0009030123090B0B
:100780001B0519430B4BED070024520D9A4201DA69
:10079000002070BD074B34339A4203DC9A1AFFF7EE
:1007A0000DFD02E00449511888402C43F1D040422D
:1007B00070BD0000FF030000CDFBFFFFC20FD2079A
:1007C000400040080BD0C10D0723DB01C9184002CF
:1007D0000905400A1143C208400711437047002031
:1007E0000146704710B5002904DB0124E4074042AC
:1007F0008C412146002B04DB1C460123DB075242BF
:10080000A3418B4200D1824210BD000010B50029E7
:1008100004DB0124E40740428C412146002B04DB29
:100820001C460123DB075242A341994200D190426A
:1008300010BD0000CB0FDB07490010B54908024688
:100840000A4307D00A0D07240903E401090B121B10
:10085000002A01DC002010BDC900440F0C43C10078
:10086000E018D205801800F00DF910BDF0B51FB4E6
:1008700086B000200090019002900698069980B200
:1008800004900798090C02040014114307900027F4
:10089000089D099806913E463C4603900398A9B2EC
:1008A0000204000C039004982D0C154348430021CA
:1008B000224600F018F8C719714110340E46402C3A
:1008C000ECDB3846029A00F00EF8009A019B801883
:1008D0000090594102980191103002904028CCDBE1
:1008E00000980BB0F0BD10B5202A04DB0146203A79
:1008F0009140002010BD914020239C1A0346E34004
:100900001943904010BD10B5202A06DBCB170846CE
:10091000203A1041C1170B4306E00B461341D0406B
:100920002024A21A91400843194610BD4268002AAB
:1009300008D001680B78491C002B03D0521E06C05A
:10094000184670470121C160881E70474268002A1E
:100950000BD0C3680168002B07D183688B4204D099
:10096000491E521C06C0002070470020C04370473B
:100970000FB400B589B00CA900910B990023CB608E
:10098000204B214A06930792042201921F4A0292A9
:100990001F4A089202466B460020FFF7FEFC09B092
:1009A00008BC04B0184770B586B006460020C043A6
:1009B0000190002015460C460091029104903246A9
:1009C000694604A8FFF7D4FF024604982118002DB9
:1009D00005D0002801D0084600E020462860049891
:1009E00000280DD0002A02DD0098884208D0081B9C
:1009F0000190009432466946029404A8FFF7B8FFBC
:100A000006B070BD2D0900084D090008FFFFFF7FEB
:100A10000D0E0008F7B5009C0F4600262578641CD3
:100A2000002D05D000F0EEF90068405DC007F5D15B
:100A30002B2D02D02D2D18D0641E39462046029A47
:100A400000F0EDF9002F04D03968A14201D10099DE
:100A500039607105022400290BDA4042002803DDC9
:100A600002F094FD0460A007FEBD01208002064351
:100A7000E3E70028F8DA02F089FD04600048FEBDD3
:100A8000FFFFFF7F002904DA401C490001D1400824
:100A90004000704770B40024050C05D110240004F8
:100AA00002D1002921D01124050E01D10002083401
:100AB000050F01D10001241D850F01D18000A41C68
:100AC000002801DB4000641C002908D020252E1BD3
:100AD0000D46F540A14000D00121294308430106FD
:100AE0001B1B000ADB1D02D5002070BC7047DB0514
:100AF000181880180029F8DA401C4900F5D170BC9C
:100B000040084000704710B5002B08DA0024401C54
:100B1000614192185B411A4301D14008400010BD69
:100B2000F0B51FB482B005460C0003D0084602F0B1
:100B3000CFFC02E002F0CCFC2030024600902146BF
:100B40002846FFF7D0FE049B059A04460F4618433B
:100B50001143084314D0184610431BD0009840217D
:100B60000A1A18460599FFF729FB05460E46009A12
:100B700005990498FFF7B7FE084305D0012004E06B
:100B80002046394607B0F0BD0020C11705430E438B
:100B90002C43374300990E986305401A7905E40AFF
:100BA00000220C43FD0A0A3002D500200146E9E785
:100BB0000105101969410C9C0D9D00196941FFF751
:100BC000A2FFDFE7F0B51FB488B00B9909980024A5
:100BD00048400999C00F490049080991C0070B997D
:100BE0000090490049080B9109990898A6460843C6
:100BF0001CD00B990A98084318D00998012440008A
:100C0000420D4800410D099824050003000B2043C4
:100C100009900B980003000B20430B9050181C49BF
:100C20004018002201901446104605E000200146BD
:100C30000DB0F0BD032801DA034600E003239C4613
:100C4000C11A0AAE0AE05F0008ADED5B4F00F75B2A
:100C50007D430027AA187C41491C5B1E6145F2DDDB
:100C6000410004AB5A522104120C0A43240C401CCC
:100C70000828DFDB019802900099704601910090EE
:100C8000059B049A07990698FFF74AFFD0E70000F2
:100C90000DFCFFFFF0B50C465C4085B0E40FE407A7
:100CA00003944C0000266408590094464908024603
:100CB0000296224321D062460A431ED06200570D9D
:100CC0004A000E032303550D012402462C49240536
:100CD000781B1B0B360B40182343264361460090BC
:100CE0001C46501AB44103D30098401C009002E007
:100CF000921800985B41002803DA0020014605B0F5
:100D0000F0BD0020012109050746864611E0644632
:100D10001D46141BB54106D36546521BB3417446AC
:100D200007430C43A646CD074008490828439218BC
:100D30005B4105460D43EAD11046184313D0604687
:100D4000194650407140084306D06046101AB3411E
:100D500006D20122002306E000220123DB0702E085
:100D60000122D2435310009874460105381C61419A
:100D7000029C039D00196941FFF7C5FEBFE7000013
:100D8000FD0300000EB5054A0292002200921346B0
:100D90000192FFF7C5FE03B000BD00003304000060
:100DA0004A0009030123090B1B0519430A4B10B51F
:100DB000520D9A4202DA0020014610BD064B343330
:100DC0009A4203DC9A1AFFF7F9F910BD034BD218C7
:100DD000FFF789FD10BD0000FF030000CDFBFFFF02
:100DE000064C0125064E05E0E36807CC2B430C3C7E
:100DF00098471034B442F7D3FFF766F98C4D0008DA
:100E0000AC4D000800487047884D000810B50446F6
:100E1000FFF7F8FF0068005DC007C00F10BDF7B511
:100E200082B0029C00272078641C15460197302868
:100E300002D0002D15D015E020780127641C7828F9
:100E400004D0582802D0002D09D00BE0002D01D08D
:100E5000102D07D1002710252078641C02E00825FA
:100E600000E00A250026009610E00099012769435A
:100E70000818020C294680B2714300908E1838047D
:100E8000864201D3012001902078641C294600F09D
:100E900019F80028E9DA0398002805D0002F01D0BE
:100EA000641E00E0029C04600198002806D002F055
:100EB0006DFB02210160C81E05B0F0BD0099300431
:100EC0000843F9E73A2800D23038202302469A43F3
:100ED000412A01D310463738884201D30020C0434D
:100EE0007047000010B5024800F08CF810BD0000FB
:100EF0002005002010B5044600680549401814215B
:100F0000FFF716F9800020640248E06310BD00007E
:100F1000F8FFFDBF0000024030B5056C0124AC4075
:100F2000C56B6C60046863604368102B036803D072
:100F300099600068C26030BD9A600068C16030BDD1
:100F400010B5012000F09CF910BD10B5082000F08C
:100F500097F910BD10B5FF20013000F091F9012084
:100F6000400200F08DF90120800200F089F9012093
:100F7000C00200F085F910BD72B6FEE730B501463B
:100F800020314B780022022B04D0042383630A70A3
:100F9000012030BD03681C680E25AC431C6003684B
:100FA0001C68640864001C600123056C1C46C06B4F
:100FB000AC4044604B700A70002030BD70B5002416
:100FC000014620314A78022A03D00421816301249A
:100FD00016E0026813680E25AB43136002681368BD
:100FE0005B085B0013600122056C1346AB40C56BC8
:100FF0006B604A7000220A70416B002900D088475C
:10100000204670BDF0B4C16B0D6801680C68042205
:10101000066C1346B3402B420DD063070BD50B680B
:101020009B0602D40B6893430B60016C8A40C16B32
:101030004A60C16A19E00227B74002462F400123E7
:101040002032002F15D0A70713D50C68A40604D4AE
:101050000C680A25AC430C605370036C0221994064
:10106000C36B596000211170816A002916D0F0BC51
:1010700008470827B7402F4210D024070ED50C6828
:101080000E25AC430C60046C1946A140C46B616032
:101090008363537000211170016BE6E7F0BC704769
:1010A00070B5040021D00221204620300546417051
:1010B000226811680E48A3680140606826691843D9
:1010C000E3683343184363691843A3691843E3692A
:1010D0001843084310602046FFF70CFF0021A1636E
:1010E000012068702970084670BD012070BD0000A5
:1010F0000FC0FFFFF8B504468C462030017800256C
:10110000012909D00126067041780027012905D060
:10111000077002252846F8BD0220F8BD0221417063
:10112000A7632068016849084900016061462046BC
:10113000FFF7F2FEE06A00282068016802D00E2264
:10114000114306E00A22114301602068016804226D
:10115000914301602068016831430160DAE70000D3
:10116000F8B5FF2601363A4D3A4C082809D07100EF
:101170004A008B00012855D0B0424BD1022121708A
:101180004DE000F061F9344F3968401A64284FD3BC
:1011900000F05AF9386000F057F93049304E0968CC
:1011A000401AFF212D31884218D300F04DF93860E4
:1011B00000F04AF929492B4F08601021384600F009
:1011C00037F9002806D01021384600F031F90128FF
:1011D00002D003E0012000E00020307021781C20C4
:1011E0004843337840195B0002695B1E8668D31858
:1011F000B34207D3002A05D0C668B34202D81A4FBB
:10120000BA4201D1066100E00361026917A002F051
:101210004FF90DE0884202D10321217004E0904291
:1012200002D10420207003E0984201D10520F9E7A3
:10123000124E21783078814208D01C204843401952
:1012400002690AA002F034F920783070F8BD00007D
:10125000400000200A0000200000002004000020C0
:101260000900002000040048FFFF0000736572764B
:101270006F5B25645D3D2025640D0A000800002099
:1012800010B504494A69024202D04861FFF768FF7D
:1012900010BD000000040140F8B50023032401251F
:1012A000B5E02E469E40B44632407CD00E79B6075B
:1012B000B60F012E01D0022E17D186682746B646FA
:1012C0005E00B74000967646BE43B646CF68009EA5
:1012D000B74076463743876046686746BE430F7916
:1012E000FF06FF0F9F40374347600E79F643B6076E
:1012F0000ED0C6682746B4465E00B646B74066467E
:10130000BE43B4468F687646B74066463743C760EB
:101310000E79B607B60F022E14D1DE08B6003618C5
:101320000096366A5F07B446FE0E0F27B646B740F2
:101330006646BE43B4460F697646B74066463743B5
:10134000009E376206682746B4465E00B646B74040
:101350006646BE430F79B446BF07BF0F7646B74017
:101360006646374307604E68B603B60F4ED02B4F24
:10137000BE692E43BE61BE699F08F607F60F284E70
:10138000BF00BE190096B6680F27B4469E07360FF9
:10139000B646B7406646BE430927FF06B446B84284
:1013A00002D100270BE031E01E4FB84201D10127E6
:1013B00005E01D4FB84201D1022700E0052776461F
:1013C000B74066463743009EB760184E36684F6890
:1013D0009643FF0300D51643144F3E607E684F6866
:1013E0009643BF0300D51643104F7E60BE684F681A
:1013F0009643FF0200D516430C4FBE60FE684F684F
:101400009643BF0200D51643084AD6605B1C0A68A3
:101410001646DE4000D044E7F8BD00000010024050
:10142000000001400004004800080048000401409A
:101430000069084000D001207047002A01D0816176
:101440007047816270470000014880687047000063
:101450002000002070B5024640325378202B1CD16A
:101460001378012B19D001231370242454700468BD
:1014700025689D432560046825681E03B5432560E3
:10148000046825680D432560006801681943016000
:10149000202050700020107070BD022070BD70B50B
:1014A000024640325378202B1BD11378012B18D0E1
:1014B000012414702423537003681D68A5431D6024
:1014C00005682B680F263602B343090219432960C9
:1014D00000680168214301602020507000201070D6
:1014E00070BD022070BD000070B5040006D0254616
:1014F000403568780026002802D005E0012070BD44
:101500002E70204600F04AF8242068702068016898
:101510004908490001600F21606809068843216875
:10152000086121688A680120C00382438A60E168FB
:101530000129A16808D021229202114322689160FA
:10154000E168022902D005E00143F7E701212268A2
:10155000C902516021684A680F4B1A434A602168EA
:10156000CA688243CA60616920690843A1690902A7
:1015700008432168C860216AE0690843216808605F
:1015800020680168012211430160666420206870B0
:101590002663AE70002070BD00800002F0B587B0F9
:1015A000044614216846FEF739FE1949206888422E
:1015B0002BD1184C6169012080050143616161698B
:1015C0000140059161694011014361616169122522
:1015D00001400220002603276A46E1C2012003C21F
:1015E00069460D48FFF758FEA0146946E1C1052081
:1015F00004906946A806FFF74FFEE1690120400507
:101600000143E161E1690140059107B0F0BD0000CF
:101610000054004000100240001400480248816855
:1016200002788918816070472000002010B50648B4
:101630000168102211430160002000F007F800F05B
:1016400027F8002010BD00000020024070B50446BD
:101650000D4D7D202978C000FEF76AFD01460B483C
:101660000068FEF765FD00F0A3FB002809D1042CFB
:1016700007D200222146401E00F02AF800206C60AC
:1016800070BD012070BD0000200000202C00002053
:1016900008B50848816901221143816181691140BF
:1016A0000091C26901040A43C261C0690840009008
:1016B00008BD000000100240002805DBC106C90E6D
:1016C00001208840014908607047000000E100E007
:1016D00010B501F039FF10BDF8B5044600683E4D65
:1016E000C00352D5E8690026C00007D4E969280480
:1016F0000143E961E9690140012600913748016829
:10170000C90510D40168821511430160FFF79CFEE2
:10171000074604E0FFF798FEC01B642824D82F4832
:101720000068C005F6D5286A03273F02384020D05C
:101730006168394081421CD0286A2A6AB843012175
:1017400009040A432A622A6A8A432A622862C00775
:101750000FD0FFF779FE009008E0FFF775FE0099C3
:10176000411A1F48814201D90320F8BD286A800729
:10177000F3D5286A6168B84308432862002E04D074
:10178000E969012000078143E9612078C00705D09D
:10179000286BA168800880000843286320788006B1
:1017A00005D5286B10218843E16808432863206829
:1017B000800305D5286B802188436169084328632D
:1017C0002088400505D5286B4021884321690843BE
:1017D00028630020F8BD00000010024000700040A7
:1017E00088130000F8B50F4606005FD03D4D28680D
:1017F000C007C00FB84209D22868400840003843EB
:1018000028602868C007C00FB8424FD13068364CF6
:1018100081070CD5400704D56068072109020843F9
:1018200060606068F0218843B16808436060307888
:10183000C0072CD07068012810D0022811D00328CE
:1018400012D021688907002930DA61688908890087
:1018500001436160FFF7F8FD009011E02168890302
:10186000F1E721688901EEE7616BC903EBE7FFF758
:10187000EBFD0099411A1D48814201D90320F8BDB2
:1018800060680C210840716889008842EFD128689F
:10189000C007C00FB8420BD9286840084000384341
:1018A00028602868C007C00FB84201D00120F8BDE9
:1018B0003078400706D56068072109028843F1683F
:1018C0000843606000F028F86168094A0906090FBA
:1018D000515CC840074908600020FFF7B7FE0020B0
:1018E000F8BD0000002002400010024088130000F4
:1018F000EC4C00082C0000200448054900684968A9
:10190000044A4905490F515CC84070472C0000202B
:1019100000100240FC4C000830B519A30FCB89B071
:101920006C460FC41AA30FCB0FC41D4A51680C207C
:101930000B4603401B48042B05D01B4D082B04D03D
:101940000C2B00D1284609B030BD8B021B0F6C4612
:10195000E45CD26A04AB1207120FC9039A5C890FC8
:10196000022901D0032901D0002301E000232846E9
:101970000021FEF7F3FB214601F0C1FDE3E7000083
:1019800002030405060708090A0B0C0D0E0F1010C0
:101990000102030405060708090A0B0C0D0E0F10BF
:1019A0000010024000127A00006CDC02FEB5040058
:1019B00070D02078F94EFA4DC00748D0686800070B
:1019C000800F01281FD068680007800F022804D10B
:1019D0006868C003800F022815D06168012919D0FA
:1019E00001208004002901D0052917D02968B143BE
:1019F0002960296881432960606800281BD0FFF7AF
:101A000023FD074613E02868800320D5606800287E
:101A1000CED01CE0286830432860EDE729680143F8
:101A20002960F7E7FFF710FDC01B642870D828680D
:101A30008003F7D50BE0FFF707FD074604E0FFF74B
:101A400003FDC01B6428F1D828688003F7D42078F0
:101A500080073FD568680007800F14D068680007CA
:101A6000800F022804D16868C003800F01280AD0C3
:101A7000E068002828681ED0012108432860FFF78D
:101A8000E3FC07460CE0286880070CD5E0680128D5
:101A900000D108E080E1FFF7D7FCC01B0228C5D8C1
:101AA00028688007F7D52868F82188432169C9008C
:101AB000084328600EE0400840002860FFF7C4FC9F
:101AC000074604E0FFF7C0FCC01B0228AED8286818
:101AD0008007F7D42078000723D5E0690028686ADA
:101AE0000FD0012108436862FFF7AEFC074604E00F
:101AF000FFF7AAFCC01B022898D8686A8007F7D5B0
:101B00000FE0400840006862FFF79EFC074605E0D2
:101B1000C3E0FFF799FCC01B022887D8686A8007DA
:101B2000F7D4207804274007002861DA00200190CC
:101B3000E869C00008D4E969B8060143E961E969C8
:101B4000014001200091019096480168C90511D417
:101B50000168821511430160FFF776FC009005E0F3
:101B6000FFF772FC0099401A642898D88D480068E5
:101B7000C005F5D5A06801280AD0002801D00528A5
:101B800011D0286A400840002862286AB84302E061
:101B9000286A012108432862A068002812D0FFF7B4
:101BA00053FC00900AE0286A38432862F0E7FFF708
:101BB0004BFC0099411A7C4881426ED8286A800704
:101BC000F5D50DE0FFF740FC009006E0FFF73CFC88
:101BD0000099411A744881425FD8286A8007F5D479
:101BE0000198002804D0E969012000078143E961D8
:101BF0002078C00635D5606901280CD0401D686B7F
:101C000024D038436863686B400840006863FFF77E
:101C10001BFC074622E0686B38436863686B012150
:101C200008436863FFF710FC074604E0FFF70CFC6D
:101C3000C01B022831D8686B8007F7D5686BF82184
:101C40008843A169C900084368630AE0B843686330
:101C5000F4E7FFF7F9FBC01B02281ED8686B80076A
:101C6000F7D42078800637D568680007800F0328EE
:101C700014D068680007800F022804D16868C00388
:101C8000800F03280AD0206A0028686B16D03043E2
:101C90006863FFF7D9FB06460CE062E0686BC0039F
:101CA0001AD5206A012877D116E0FFF7CDFB801BFB
:101CB000022856D8686BC003F7D50DE0B0436863BF
:101CC000FFF7C2FB064604E0FFF7BEFB801B0228BD
:101CD00047D8686BC003F7D4606A002866D069688B
:101CE0000907890F022942D00126360602282868F2
:101CF00005D0B0432860FFF7A7FB044633E0B043AC
:101D00002860FFF7A1FB074604E0FFF79DFBC01B1F
:101D1000022826D828688001F7D4E86A216B0009D8
:101D200000010843E862A16AE06A084369687B220F
:101D3000D203914308436860286830432860FFF766
:101D400083FB044604E0FFF77FFB001B022808D852
:101D500028688001F7D529E0FFF776FB001B0228F1
:101D600001D90320FEBD28688001F5D41EE00128BA
:101D7000F8D06868E96A0322D203A36A02409A4253
:101D80000AD10907226B090F914205D10F2189045D
:101D90000840E16A884209D00120FEBD0000010030
:101DA0000010024000700040881300000020F4E79B
:101DB000094910B5401E884201D9012010BD074CC9
:101DC00060610321081F01F0BFFB0020A061072014
:101DD0002061002010BD0000FFFFFF0000E000E0D8
:101DE00030B5034620331A7F012A26D001221A7704
:101DF0000325CA682D02AA438D6800242A430125C1
:101E0000AD02AA434D6800682A430125ED02AA43AA
:101E10000D682A4301252D03AA430D692A43012594
:101E20006D03AA434D69C9692A430125AD03AA433D
:101E30000A4342641C77002030BD022030BD000000
:101E4000F0B502462032137F012B1ED001251577F5
:101E50000223537706687468B3687027BC430F6821
:101E60002743776000680A4CA04205D0AC07A04227
:101E700002D0084CA04204D180244968A3431943EE
:101E80008160557700201077F0BD0220F0BD000082
:101E9000002C01400004004070B5040005D0254628
:101EA0002035687F002802D006E0012070BD0020A8
:101EB0002877204600F014F802206877211D20685A
:101EC00000F000FF01204034A071A877E87720706F
:101ED0006070A070E070207160716877002070BD44
:101EE00008B50F4A01680F48914205D1C2698115B2
:101EF0000A43C261C06906E00B4A914206D1826979
:101F00000121490408E00840009008BD074A9142B9
:101F1000FBD18269012189040A4382618069F2E769
:101F200000200040001002400044014000480140F1
:101F3000F0B587B0044614216846FEF76FF9012317
:101F40009B0726680920002433495A130225C0063E
:101F50009E420CD14B6913434B6149690294114075
:101F600005912A21019504950394009134E02B4FAB
:101F70003B13BE4220D14E6916434E614E69164056
:101F800005964A691A434A61496901261940059133
:101F9000C021009102940496019503946946FFF7CD
:101FA0007BF90320029404960195039400902FE09E
:101FB000FFF772F907B0F0BD194FBE420ED14B6961
:101FC00013434B614969029411400591102100911E
:101FD00004210195039404916946E9E7114886427A
:101FE00007D1486918434861486918400590402066
:101FF00009E00D488642DDD14869184348614869C7
:102000001840059080200294019504950394009057
:1020100069460648CCE7000000100240000400407A
:1020200000200040004401400048014000040048F6
:10203000F8B5064604462036307F00270D460128B5
:102040000ED001203077002A0CD0042A1BD0082A99
:102050002FD00C2A3ED00127002030773846F8BD1B
:102060000220F8BD206800F07DFE2068816908220A
:10207000114381612068826904218A43826120685A
:1020800081692A6912E0206800F0A8FE2068826950
:102090000121C9020A4382612068816901229202FA
:1020A00091438161206881692A691202114381612B
:1020B000D2E7206800F0CCFE2068C16908221143F5
:1020C000C1612068C26904218A43C2612068C16974
:1020D0002A6912E0206800F0F7FE2068C169012239
:1020E000D2021143C1612068C269012189028A4379
:1020F000C2612068C1692A6912021143C161ABE75C
:1021000070B5040005D025462035687F002802D030
:1021100006E0012070BD00202877204600F014F86A
:1021200002206877211D206800F0CCFD012040349A
:10213000A071A877E87720706070A070E0702071BF
:1021400060716877002070BD08B5012201689207B0
:102150000A48914206D1C16901221143C161C06997
:10216000104008E0064A914206D1C26902210A43A2
:10217000C261C0690840009008BD00000010024024
:102180000004004010B504460222203000290AD085
:1021900004290DD02046403008290ED04378012B69
:1021A00010D0012010BD837F012BFAD182770AE085
:1021B000C37F012BF5D1C27705E00378012BF0D165
:1021C000027000E042700122206800F0BDFD114A5B
:1021D0002068904205D01049884202D00F498842B9
:1021E00004D1416C0123DB031943416420680121C0
:1021F000904205D08A07904202D0094A904204D109
:1022000082685207520F062A02D002680A4302600F
:10221000002010BD002C0140004401400048014056
:102220000004004010B50446C06F202831D10029B9
:102230000BD0002A09D00123A0681B03984206D1C5
:102240002069002803D1C80701D0012010BD234612
:102250006033187D01281CD00120187520662046A7
:1022600001F05CF8010003D1206E012802D00121A9
:10227000084610BD206810230362EFF3108001228E
:1022800082F31088226814681C43146080F310885D
:10229000EEE7022010BD000070B5006815498842C5
:1022A00026D11548FDF7C5FFFF2584B20135294623
:1022B0001248FDF7B3FF104922464819FDF795FF74
:1022C00021460D48FDF7AAFF2A460B490C48FFF7A7
:1022D000A9FF0B4884300068016804229143016023
:1022E000064908A001F0E4F82946044801F072FF0D
:1022F00070BD0000004400409C0200209C030020B0
:102300009C04002025730D0A0000000070477047F0
:10231000F8B502680446D06911689668A24B03407C
:102320001D462023002D75D0F707A04DFF0FBC469A
:102330000D402F436DD02546C7078035002F06D0AE
:10234000CF0504D5012717622A683A432A6082071D
:1023500008D5F20706D0276802223A622A680427C5
:102360003A432A60420708D5F20706D026680422BD
:1023700032622A68022632432A6002070AD50A46D8
:102380001A406646324305D02668082232622E681B
:1023900016432E60020508D54A0106D5012226689B
:1023A000D20232622A681A432A602A68002A39D087
:1023B000800606D5880604D5616E002901D0204626
:1023C0008847286821688968490602D4282108427C
:1023D0002DD0204600F0C8FE21688868400622D52E
:1023E000EFF31080012282F310888B684022934320
:1023F0008B6080F31088206F002814D06C494163F3
:10240000206FFEF7DBFD00280CD0206F416B08E049
:1024100000E012E0850610D58D060ED5616EA8E0AD
:1024200020468847F8BD2046FFF771FFF8BD2046DB
:10243000FFF76DFF00202860F8BD256E012D7DD1CE
:10244000C5067BD5CD0679D5102616622268906820
:10245000254640064035002845DA216F0868406867
:102460000004000CE8D02F8B8742E5D96883886987
:10247000202833D0EFF31080012181F310881168F8
:102480003701B943116080F31088EFF31080012108
:1024900081F3108821688A68520852008A6080F3AC
:1024A0001088EFF31080012181F3108821688A6879
:1024B0004027BA438A6080F31088E36700202066D3
:1024C000EFF31080012181F3108821680A68B2437C
:1024D0000A6080F31088206FFEF750FD288B698B0F
:1024E000401A81B231E0288B698B401A81B2688B27
:1024F0000028A1D000299FD0EFF31080012585F39B
:1025000010881568FF272137BD43156080F31088B8
:10251000EFF31080012282F31088226895686D081D
:102520006D00956080F31088E36700202066606688
:10253000EFF31080012282F3108800E009E02268A6
:102540001368B343136080F310882046FFF7A4FE9E
:10255000F8BDC50208D5750206D501200005106238
:102560002046FFF7D3FEF8BD050606D50D0604D5B7
:10257000A16E002900D053E7F8BD4006FCD54806FF
:10258000FAD52046EFF31081012484F310881568F2
:102590004024A543156081F310888367002181667C
:1025A00000F0FBF8F8BD00000F0800002001000457
:1025B0005930000810B5040003D0A06F002802D0E5
:1025C00007E0012010BD002174200155204600F0D5
:1025D00027F82420A06720680168490849000160A5
:1025E000204600F001FE0128ECD0606A002802D0ED
:1025F000204600F099FC206841680922D2029143EC
:102600004160206881682A229143816020680168C6
:10261000012211430160204600F0ECFC10BD0000D7
:1026200070B586B0064614216846FDF7F7FD2049CF
:102630003068884239D11F49CA69012040040243E9
:10264000CA61CA69024005924A6902434A614969FE
:1026500000250140059118480090022001900320B8
:10266000039001200490092002956946C006FEF7F8
:1026700013FE1248124C21C42560A560E560256157
:102680008020656160600E48083CFEF709FD002867
:1026900001D0FEF771FC3467002211461C206662EF
:1026A000FFF716F81C20FFF707F806B070BD000012
:1026B0000044004000100240048000005800024026
:1026C0002005002070477047FFB50446806F83B037
:1026D00017460D4620285ED1002D0AD0002F08D0C5
:1026E000A168C001814207D12069002804D1E80710
:1026F00002D0012007B0F0BD204660300090007D80
:10270000012848D00098012101750020802108513E
:102710002120A067FEF798FE2646403601903782BA
:1027200077820120A1680003814202D1206900283C
:1027300005D02F46002500990020087511E00027DC
:10274000F9E700228021204600F040FE002815D144
:10275000002F15D02168387808857F1C708A401EAC
:102760007082708A019B002806980090E9D10022AF
:102770004021204600F02AFE002808D00320B9E7B7
:1027800028882168C005C00D0885AD1CE6E720201B
:10279000A0670020AEE70220ACE77047FEE700002C
:1027A00008B5084841690122114341614069104060
:1027B0000022009011460B20FEF78AFF0B20FEF747
:1027C0007BFF08BD0010024030B587B01421684679
:1027D000FDF724FD2F484269012189050A43426122
:1027E00042690A400592426949110A4342614269BD
:1027F0000A400592426949000A4342614069264DF8
:1028000008400590002220212846FEF716FE2348A6
:1028100000901120000401900024092069460294D0
:10282000C006FEF739FD0820009021200004019029
:10283000694602942846FEF72FFD1020009001946F
:10284000694602942846FEF727FD202000900120CB
:1028500001900294694603942846FEF71DFD00226C
:1028600011460520FEF734FF0520FEF725FF002264
:1028700011460620FEF72CFF0620FEF71DFF002262
:1028800011460720FEF724FF0720FEF715FF07B0CB
:1028900030BD00000010024000040048010F00009D
:1028A00010B513481149016012494160002181604F
:1028B0000161416181610122C161C2600162FEF773
:1028C00013FE002801D0FEF757FB00210848FEF751
:1028D000C1FD002801D0FEF74FFB00210448FEF7A0
:1028E000DEFD002801D0FEF747FB10BD005400407C
:1028F000E80000200E09002010B588B01C216846B1
:10290000FDF78CFC164815490160002415498460C8
:1029100041601449046128318461C160FFF7BCFA49
:10292000002801D0FEF728FB0D48FFF7E9FB00283F
:1029300001D0FEF721FB6020009001940294002258
:10294000694604940648FFF773FB002801D0FEF7A0
:1029500013FB0348FFF7ECFA08B010BD002000405D
:10296000C4010020BF03000010B590B01C2108A8CE
:10297000FDF754FC20216846FDF750FC2148204912
:10298000016000242049846041601F490461446162
:1029900028318461C160FFF77FFA002801D0FEF77B
:1029A000EBFA1848FFF7ACFB002801D0FEF7E4FA79
:1029B00060200D94099408900A940B940C940022C2
:1029C00008A90E940F48FFF733FB002801D0FEF74B
:1029D000D3FA0120009440030294059001940394DB
:1029E0000494694607940748FFF7FAF9002801D0D4
:1029F000FEF7C2FA0348FFF79BFA10B010BD0000C3
:102A0000004401400C020020BF03000010B590B04C
:102A10001C2108A8FDF702FC20216846FDF7FEFBFB
:102A200021482049016000242049846041601F49F9
:102A30000461446128318461C160FFF72DFA0028E8
:102A400001D0FEF799FA1848FFF75AFB002801D089
:102A5000FEF792FA60200D94099408900A940B9462
:102A60000C94002208A90E940F48FFF7E1FA002801
:102A700001D0FEF781FA01200094400302940590F2
:102A8000019403940494694607940748FFF7A8F952
:102A9000002801D0FEF770FA0348FFF749FA10B09A
:102AA00010BD00000048014054020020BF03000098
:102AB00010B58AB0002407941C2168460894FDF7DD
:102AC000ADFB01211F48890701601F4984604160F7
:102AD0001D49046128318461C160FFF711FB0028A2
:102AE00001D0FEF749FA079407A916480894FFF7A2
:102AF000A7F9002801D0FEF73FFA6020009001946A
:102B000002940022694604940E48FFF791FA0028C7
:102B100001D0FEF731FA042269460A48FFF788FA25
:102B2000002801D0FEF728FA0C2269460548FFF775
:102B30007FFA002801D0FEF71FFA0248FFF7F8F9E4
:102B40000AB010BD34010020BF03000010B58AB0E8
:102B5000002407941C2168460894FDF75FFB254874
:102B6000234901602449846041602349046128317C
:102B70008461C160FFF7C4FA002801D0FEF7FCF9B8
:102B8000079407A91B480894FFF75AF9002801D0B9
:102B9000FEF7F2F960200090019402940022694649
:102BA00004941448FFF744FA002801D0FEF7E4F932
:102BB000042269460F48FFF73BFA002801D0FEF7D0
:102BC000DBF9082269460B48FFF732FA002801D0EA
:102BD000FEF7D2F90C2269460648FFF729FA0028C9
:102BE00001D0FEF7C9F90348FFF7A2F90AB010BDFA
:102BF000000400407C010020BF03000010B50C4819
:102C00000A490160E1214902416000218160C160FF
:102C100001618161C1610C22016242614162FFF781
:102C2000C9FC002801D0FEF7A7F910BD0044004000
:102C30009C040020FEE77047704710B5FEF7EEFCDD
:102C400010BD30B597B034216846FDF7E7FA00248F
:102C50000D940E940F94182111A81094FDF7DEFA2C
:102C60002220009001200390089002251020099551
:102C700004900320C0030A900720C0040B900F208B
:102C80000C906846FEF792FE002801D072B6FEE76F
:102C900007200D900F9401210E9510940DA8FEF7BA
:102CA000A1FD002801D072B6FEE7202011901494F7
:102CB00011A8FEF711FD002801D072B6FEE717B08B
:102CC00030BD7047F0B502681A4B0124A4071A4DB5
:102CD000984203D0A04201D0A84203D17026B2434B
:102CE0004E683243154E164F98420AD0A04208D083
:102CF000A84206D0134CA04203D0B04201D0B84243
:102D000004D103242402A243CC6822438024A2439A
:102D10004C69224302608A68C2620A6882629842F1
:102D200003D0B04201D0B84201D109690163012149
:102D30004161F0BD002C014000040040004401400E
:102D4000004801400020004010B5CB06DB0E0121F9
:102D5000046A99408C430462016A9A4011430162FB
:102D600010BD0000F0B5026A520852000262056A06
:102D7000436882697024A24392080C68920014434D
:102D8000022295438A68134E2A43114DA84204D06B
:102D9000B04202D0104FB84206D10827BA43CF68DC
:102DA0001743042297433A46A84204D0B04202D0C7
:102DB000094DA84206D103252D02AB434D691D43A1
:102DC0008B692B4343608461496841630262F0BDB3
:102DD000002C0140004401400048014070B5026AE7
:102DE00010239A430262046A4368826973252D02A4
:102DF000AA430D682D021543202294438A681201CC
:102E00002243104CA04208D11446CA688026B4431D
:102E1000120122434024A24305E00B4CA04202D001
:102E20000A4CA04208D10324A402A3434C69A40085
:102E30001C438B699B002343436085614968816320
:102E4000026270BD002C0140004401400048014076
:102E500070B5026AFF2301339A430262046A436831
:102E6000C2697025AA4392080D6892001543012299
:102E7000520294438A6812022243104CA04207D1A6
:102E8000C414A243CC68240222430615B24305E0D1
:102E90000B4CA04202D00B4CA04208D103242403C7
:102EA000A3434C6924011C438B691B0123434360EA
:102EB000C5614968C163026270BD0000002C014019
:102EC000004401400048014030B5026A01231B0361
:102ED0009A430262056A4268C36973242402A343C9
:102EE0000C6824021C4301235B039D438B681B0376
:102EF0002B430A4DA84205D0094DA84202D0094DE6
:102F0000A84205D10125AD03AA434D69AD012A436D
:102F10004260C46149680164036230BD002C014015
:102F2000004401400048014010B5818CC90707D01A
:102F300001684A6801235B049A43836A1A434A6022
:102F4000818C890707D501684A6801231B049A43CD
:102F5000C36A1A434A60818C490707D501684A68E9
:102F600001239B049A43036B1A434A60818C09072F
:102F700007D501684A680123DB039A43436B1A4370
:102F80004A60818CC90607D50268916801231B033A
:102F90009943836B19439160818C890607D5016839
:102FA0008A6801235B039A43C36B1A438A60818C4E
:102FB000490612D503685A6801210905046C8A4341
:102FC00022435A60026C8A4207D102685168032387
:102FD0005B059943436C19435160818C090607D501
:102FE00001684A680123DB04806C9A4302434A600B
:102FF00010BD0000F8B50446002680300660FEF7DC
:1030000023FA054620680068124F000709D5012100
:103010002B46002249052046009700F0D7F90028EA
:103020000DD12068006840070BD501212B460022F6
:1030300089052046009700F0C9F9002801D0032037
:10304000F8BD2020A067E067266660342675002062
:10305000F8BD0000FFFFFF0110B5406A00220146E5
:1030600040314A834A82FFF752F910BD70B5446A75
:10307000A06FE56F2168896800260906002906DA35
:10308000212804D152200653204600F09CF82068E5
:103090008068400606D5222D04D15A2006532046CA
:1030A00000F062F820468030016810221143016070
:1030B0002046FFF72CF970BD10B501468969406ABA
:1030C000202938D000225A210A52EFF31081012220
:1030D00082F3108802681368FF240134A34313604D
:1030E00081F31088EFF31081012282F310880268C7
:1030F00093685B085B00936081F31088EFF31081A5
:10310000012282F31088026893684024A3439360ED
:1031100081F310882021C167016E01290BD1EFF3E3
:103120001081012282F31088026813681024A343DF
:10313000136081F31088016E012902D0FFF7C2FAF3
:1031400010BD5821095AFFF7A7F810BD10B5406A05
:10315000016E012902D0FFF7B6FA10BD5821095AB5
:103160004908FFF799F810BD10B5EFF3108101225F
:1031700082F3108802681368FF242134A34313608C
:1031800081F31088EFF31081012282F31088026826
:1031900093685B085B00936081F31088016E0129DE
:1031A0000BD1EFF31081012282F3108802681368BB
:1031B0001024A343136081F310882021C1670021EC
:1031C0000166416610BD10B5EFF31081012282F354
:1031D000108802681368C024A343136081F3108829
:1031E0002021816710BD000070B504468068216908
:1031F000E2690843616900251143226808431168A8
:10320000404B1940014311602168486803221203B2
:103210009043E26810434860A169206A084321682E
:103220008A680B231B029A4302438A60364920684E
:10323000884210D13548006B8007800F0ED00128DE
:1032400005D0022805D003280AD1022109E0042173
:1032500007E0082105E02E49884201D1002100E065
:1032600010210120E369C0032A4A2B4E834223D157
:10327000002906D0022907D0042907D0082937D110
:1032800008E0FEF739FB03E0104603E0FEF744FBDD
:10329000002831D0616840004A088018FCF748FFD8
:1032A00080B201461039B14222D81B49491C014065
:1032B0000007400F08431DE0002906D0022907D06F
:1032C000042907D0082913D108E0FEF715FB03E015
:1032D000104603E0FEF720FB00280DD061684A0885
:1032E0001018FCF725FF80B201461039B14201D910
:1032F000012501E02168C86000206066A0662846BC
:1033000070BD0000F369FFEF00380140001002407B
:103310000044004000127A00EFFF0000F8B50446B8
:103320004165403000262746028380373E602220D8
:10333000E0672546206F603500281BD02049816258
:10334000216F2048C862216F1F480863206F134611
:103350004663606D2168844662462431206FFDF724
:10336000C9FE002806D0102038602E752020E067A6
:103370000120F8BD2E75EFF31080012181F3108834
:1033800021680A68FF2301331A430A6080F310881A
:10339000EFF31080012181F31088226893680B43BA
:1033A000936080F31088EFF3108081F31088216818
:1033B0008A6840231A438A6080F310880020F8BD91
:1033C000B93000084D3100086D300008FFB581B0FC
:1033D00005461746044660350A9E55E0701C53D0DA
:1033E000FEF732F80499401AB04230D8002E2ED0A1
:1033F00020680168490747D5C069C043000543D428
:1034000001202168C0020862EFF31080012181F3DE
:10341000108821680B68FF22A13293430B6080F370
:103420001088EFF31080012181F3108821688A68E9
:10343000520852008A6080F310882020A067E0675D
:103440008034206000202875032005B0F0BDEFF324
:103450001080012181F3108821680B68FF22A132BE
:1034600093430B6080F31088EFF31080012181F308
:10347000108821688A68520852008A6080F3108898
:103480002020A067E067DDE72068C16902988843D3
:1034900004D00020B842A1D00020D6E70120F9E7EF
:1034A00010B50248FEF734FF10BD00009C04002058
:1034B0000FB410B503A9044B044A029800F092F926
:1034C00010BC08BC04B01847E540000830000020DC
:1034D0002021020C01D010211046020A01D0104612
:1034E0000839020901D01046091F820801D0104690
:1034F000891E420801D0881E7047081A7047F8B527
:10350000040C8BB2264682B25E430D0C1046370C7B
:103510005843360480190021794116466E43370C12
:1035200036048019794126466E438919F8BD30B4B6
:103530007446641E2578641CAB4200D21D46635D50
:103540005B00E31830BC18478307FF22DB0E9A406C
:103550008907090E9940002808DB830809489B0069
:103560001B18186890430843186070470007000F45
:103570000838830804489B001B18D8699043084307
:10358000D861704700E400E000ED00E000487047BB
:103590003C00002030B5002805D0164C021F2068E2
:1035A0000023014605E0084630BD904203D803469B
:1035B00040680028F9D1002B00D05968002B0AD0B0
:1035C0001C68D51AA54204D11268A4181A461C60BA
:1035D00002E05A6000E02260002807D01468851AD3
:1035E000A54203D10568641914604068506018460C
:1035F00030BD000034000020F1B50E4C0F480C4ED9
:10360000001B0D4FC508ED0000221146009800F088
:10361000B9FD002803D13068002801D00020F8BD92
:103620003C6000202560606001203060ECE7000015
:10363000380000206C0500203400002068070020BE
:1036400002E008C8121F08C1002AFAD1704770476B
:10365000002001E001C1121F002AFBD170470000C9
:10366000F0B51FB486B00998089A030D00210243F3
:1036700014D05148514A1818504305141198012884
:1036800010981AD0281A401C00264D4F4D4900961C
:1036900001910490002812DA444211E011980124AB
:1036A00049A3012801D11098C1430698119A84605A
:1036B0000360C26041600BB0F0BD4042E4E70446E5
:1036C000210500203F4A001C51410391029012E065
:1036D000E00707D032463B4601990098FDF772FAA1
:1036E0000191009032463B4610461946FDF76AFAB2
:1036F00006460F466410002CEAD10498039B00286C
:10370000029A0999089806DAFDF75CFA019B009A7B
:10371000FDF758FA05E0FDF7BDFA019B009AFDF7A9
:10372000B9FA04460E460022284BFDF76FF803D87D
:103730000020C043014607E00022254B20463146C9
:10374000FCF764FFFDF72CFB102409E0002C0ADBDA
:103750000A220023FCF702FD079B30321A55641E33
:1037600002460A43F2D11122641C079B121B1C194A
:10377000119B012B03D0012308430ED10AE008431B
:1037800004D0112010900020119077E71098151A9E
:103790006D1E0BE01098824202DD00236D1C03E0D9
:1037A000824201DA00236D1E002BEED0069811999B
:1037B0008260C16030C07EE701FCFFFF104D000059
:1037C000000014400000F03F300000000000F04313
:1037D0000000E03F30380A2801D201207047002065
:1037E00070470000FFB597B0064600251BE225286C
:1037F00076D100242746F749049400E00443761C60
:1038000032780120203A90400842F7D130782A28B7
:103810000ED00222307801463039092916D8049991
:103820000A235943303940181443761C0490F1E7B9
:10383000189802C804911890002904DA0120400366
:1038400004434842049002200443761C30782E281A
:1038500014D1042004437078761C2A2809D11898C2
:10386000761C80C8189009E00A214F43303FC719E1
:10387000761C3078014630390929F5D930786C2822
:1038800010D006DC4C281AD068280ED06A2817D130
:1038900004E0742813D07A2812D110E001204005EA
:1038A00004430CE00121090501E0032109050C4353
:1038B0007178814203D1012000052418761C761C02
:1038C000307866280BD013DC58287DD009DC00281E
:1038D0007BD04528F6D04628F4D047281AD1A9E154
:1038E00018E0632835D0642870D0652812D1A1E192
:1038F00070286CD008DC6728F1D069287DD06E284C
:103900000DD06F2806D1BCE073282ED0752873D057
:10391000782859D01A9A199990476D1C82E1600253
:10392000400F022809D003280DD0042818980168F8
:103930000DD00D60001D189074E11898EA17016809
:103940000D604A60F6E7189801680D80F2E70D7087
:10395000F0E718986A4601781172001D189000204F
:10396000507202A80090012005E0189802C8189033
:1039700000200091C04361070ED5002101E00199AC
:10398000491C0191B94213DA8142F8DB019A00998E
:10399000895C0029F3D10BE0002101E00199491C69
:1039A00001918142FADB019A0099895C0029F5D1E5
:1039B000019904981A9B471A21463846199A00F033
:1039C00099FA4019019903E051E030E115E050E027
:1039D000451807E0009800990078491C00911A9A50
:1039E000199990470198401E0190401CF2D1214640
:1039F00038461A9B199A12E137E00A2000210090FC
:103A000001916002410F022907D0189A01CA189249
:103A1000C2179446032908D00AE01898C01DC108AF
:103A2000C90005C91891944607E000B2C217944630
:103A3000042902D140B2C1178C4600226146944548
:103A400006DA0A460021404291418C462D2102E0CF
:103A5000210504D52B216A461173012103E0E107FA
:103A600001D02021F7E7029156E00A200AE0102059
:103A700008E0102000900021042004430191082751
:103A800003E008200021019100906002410F02290B
:103A900007D0189A01CA189200229446032908D028
:103AA00008E01898C01DC108C90005C918919446BE
:103AB00003E080B2042900D1C0B2002102912107A5
:103AC0002AD531780D91702906D0009A1021019BDA
:103AD0004A401A4305D00EE040216A461173012185
:103AE00008E06146014306D030216A4611730D9902
:103AF000517302210291009A0821019B4A401A4306
:103B00000AD16146014301D1610705D530216A46DA
:103B1000117301217F1E02913178582904D02EA102
:103B20000E910DA90D910DE030A1F9E76146019BC1
:103B3000009AFCF713FB0E9B8C469B5C0D9A521E61
:103B40000D92137061460143F0D10D9805A9081A32
:103B500020300190600703D501200004844300E079
:103B600001270198874201DD381A00E00020019901
:103B700000904118029809180498401A0490E00334
:103B800006D421461A9B199A049800F0B3F94519F6
:103B9000002706E003A81A9AC05D199990476D1C8A
:103BA0007F1C02988742F5DBE0030CD521461A9B67
:103BB000199A049800F09EF9451904E01A9A3020E9
:103BC000199990476D1C0099481E00900029F5DC5A
:103BD0001FE0000009280100303132333435363718
:103BE0003839616263646566000000003031323349
:103BF00034353637383941424344454600000000E9
:103C00000D980D990078491C0D911A9A19999047B1
:103C10006D1C0199481E01900029F1DC4DE100F076
:103C200059F94519761C3078002800D0DFE5284680
:103C30001BB0F0BD600700D406271898C01DC1084E
:103C4000C90048680A680831C30FDB0718911900DA
:103C500001D09CA108E0210501D59BA104E0E1076A
:103C600001D09AA100E09AA14300109130785B083E
:103C700065280CD006DC452809D046281DD04728E9
:103C800041D141E0662818D067283CD13CE00021B2
:103C9000112F01DB112000E0781C0191009008A990
:103CA00011A8FFF7DDFC139905910021119A1592D7
:103CB0007F1C12980197009150E00120C0070390EB
:103CC0000120019008A9009711A8FFF7C9FC139AD9
:103CD000149905920022119B009212981593059A4F
:103CE0000192002901D0104602E0791C4018019091
:103CF000381A01D5019804E04042401E0090781C1B
:103D00000190C01B029043E0012F00DA012700213F
:103D1000112F01DD112000E038460191009008A923
:103D200011A8FFF79DFC13990591119A0021129893
:103D300015920091019721070CD40599B94201DB36
:103D4000019900E00191012904DD159A491E515C99
:103D5000302906D0B84201DA011D05DA01210291AD
:103D600015E00199491EEDE7002805DC009941188E
:103D700000910199091A03E0019A411C914200DD6A
:103D800001910099401A401C02900120C007039045
:103D9000200706D402990198814202DB0020C0432B
:103DA000029000206946C87707AF012103980337C6
:103DB000C907884224D0022011902B20129003982A
:103DC00000280CDA404203902D20129007E00A21CF
:103DD0000398FCF7ADF930317F1E039039701199CB
:103DE000481E11900029F2DC03980028EFD1791EBB
:103DF000129808703078202108404530BF1E387076
:103E000006A8C01BC01D039010980078002800D0A1
:103E10000120019941180298C01709180398091840
:103E20000498401A401E0490E00306D421461A9BD1
:103E3000199A049800F05EF8451910980078002847
:103E400003D01A9A199990476D1CE00324D5214696
:103E50001A9B199A049800F04DF845191CE0009837
:103E6000002807DB00990598884203DD1598405C1F
:103E7000199901E0199930201A9A904700986D1C01
:103E8000401C00900298401E0290002804D11A9A0B
:103E90002E20199990476D1C0199481E0190002908
:103EA000DDDC05E038781A9A7F1C199990476D1C63
:103EB0000399481E03900029F4DC21461A9B199AA5
:103EC0000498ACE62D0000002B000000200000004C
:103ED00000000000F8B5044600251E461746880479
:103EE00004D405E039462020B0476D1C641EF9D586
:103EF0002846F8BDFFB50446002581B01E46C8031C
:103F000001D5302700E02027880404D505E0384695
:103F10000399B0476D1C641EF9D5284605B0F0BD65
:103F200010B5002807D00368002B04D042688168D0
:103F3000914201D205E0002010BD491C816000289B
:103F400004D0914202D25C5C202CF6D99142F3D18C
:103F5000491E816010BD000070B50446104E1CE083
:103F6000A0892568C0050CD4A068002804D0FFF7FC
:103F7000F3FFA089C00504D42069002801D071682E
:103F80008847A089800504D4206A002801D0716880
:103F900088477168204688472C46002CE0D170BDC8
:103FA0001400002010B5002200F0AAF810BD00286F
:103FB00003D0007B082801D0002070470120704703
:103FC000002803D0007B402801D00020704701204A
:103FD0007047002803D0007B102801D000207047D4
:103FE0000120704710B5016828208847040002D0DE
:103FF0002821FCF713F9204610BD10B500231A46FE
:1040000000F002F810BD0000FFB589B00F4604466D
:1040100016461C216846FCF701F900252F48002CA4
:104020000560456058D0002F3ED0083001970295BA
:10403000009407C804AB07C328480830FFF7D2FF35
:104040000790002830D000986F46002802D00298D0
:10405000002801D000270CE00198042809D9032288
:104060001FA10098FCF7FAF8002802D10298C01CA2
:1040700002903846FFF754FF0146079800F086FC8F
:1040800000280ED00C98002814D06846FFF748FF8F
:1040900002990198814204D202990098405C00285C
:1040A00008D00798FFF758FF0199029888420AD272
:1040B00005460BE0002E03D00299009840183060AE
:1040C00007980DB0F0BD081E00D0451E002E01D08F
:1040D00060193060014830C00020F2E70C00002079
:1040E000EFBBBF0013B5044B012269460348FEF73E
:1040F000EBFA00981CBD0000FFFF00009C040020AC
:10410000F7B500283BD00199002938D08468002AEF
:1041100001D10CE02468002C31D0216A00292ED076
:104120000198FCF78DF80028F4D123E02468002CD6
:1041300025D0019D266A002DF8D0002EF6D0B5427C
:104140001BD003E0002813D06D1C761C2878FCF7E8
:1041500046F807463078FCF742F887422878F1D0D5
:10416000FCF73DF805463078FCF739F88542DDD19B
:10417000002C04D0206A002801D02046FEBD00207B
:10418000FEBD0000F8B50B30C608F600104D19E072
:104190002068B04215D3B0420BD96368871B201D3D
:1041A0000093FCF722F8A019009B07604360286089
:1041B00004E060682860201DFCF717F8201D2660C9
:1041C000F8BD251D2C68002CE2D10020F8BD0000B0
:1041D0003400002070B5FFF710FF060001D0B4686E
:1041E0008EE04CA0FFF764F9002070BD4DA0216A5D
:1041F000FFF75EF94DA1206AFCF722F800281ED0D7
:104200004CA1206AFCF71CF800283AD04BA1206A88
:10421000FCF716F8002842D04AA1206AFCF710F8F3
:10422000002845D04AA1206AFCF70AF8002863D08C
:1042300048A1206AFCF704F8002869D05FE03BA1A0
:104240003046FFF7AFFEFFF7C4FE002812D044A1AE
:104250002069FBF7F5FF00280ED043A12069FBF78A
:10426000EFFF002808D042A12069FBF7E9FF0028F2
:1042700002D044E040A040E044A02169FFF718F9D3
:104280003DE02CA10CE0E169A069FCF7D3FAFCF752
:1042900095FA02460B463EA0FFF70AF92FE027A148
:1042A0003046FFF77FFEFFF782FE0028EBD1E1E703
:1042B00024A13046FFF776FE050020D0FFF780FEF0
:1042C0000028D7D033A0FFF7F3F8AD6810E0286AD4
:1042D000FCF78EF9C1B20B2909D82A7D2EA0FFF771
:1042E000E7F82868002802D02DA0FFF7E1F82D6834
:1042F000002DECD12BA000E02BA0FFF7D9F824680B
:10430000002C00D072E73046FFF726FE012070BD7A
:1043100027A0F2E7696E76616C6964204A534F4EBC
:104320000A0000002573203A200000006D6F6465CC
:10433000000000006D6F7665000000007475726EFD
:104340000000000072635F736572766F000000000A
:104350006164630072635F726571756573740000F8
:104360006E657374000000006772616200000000F7
:10437000636F6C6C656374003C76616C7565206E70
:104380006F74206E6565643E0A00000025730A00A4
:1043900025660A007B0000002564203A2025640081
:1043A0002C2000007D0A00003C6164633E0A00008E
:1043B0003C72635F726571756573743E0A0000003C
:1043C000B6B0FDF733F9FEF73CFCFEF7FDF9FEF75A
:1043D000E7F9FEF76DFBFEF7B9FBFEF78DFAFEF786
:1043E000C3FAFEF713FBFEF709FCFEF759FAFF22AA
:1043F00001324C494C48FDF715FF4C4800680168F4
:104400000422914301601C22494904A8FBF7EDFEF8
:1044100007A80FC8009001A80EC00EC82EA800F073
:104420006BFB1C222EA94348FBF7DFFE40491C22F0
:104430001C310BA8FBF7D9FE0EA80FC8009001A8ED
:104440000EC00BA80EC82EA800F056FB39481C223F
:104450002EA91C30FBF7C9FE35491C22383112A8A1
:10446000FBF7C3FE15A80FC8009001A80EC012A844
:104470000EC82EA800F040FB2E481C222EA9383072
:10448000FBF7B3FE2A491C22543119A8FBF7ADFEF5
:104490001CA80FC8009001A80EC019A80EC82EA80D
:1044A00000F02AFB23481C222EA95430FBF79DFE66
:1044B0001F491C22703120A8FBF797FE23A80FC8C4
:1044C000009001A80EC020A80EC82EA800F014FB72
:1044D00018481C222EA97030FBF787FE14491C22B5
:1044E0008C3127A8FBF781FE2AA80FC8009001A8ED
:1044F0000EC027A80EC82EA800F0FEFA0D481C22F8
:104500002EA98C30FBF771FE0BA0FEF7D1FF094CF2
:104510000D4D1C21287848430019016900F0FCFA70
:10452000F7E700009C0200209C04002020050020EA
:10453000444C000840000020636A736F6E2074656D
:1045400073740D0A000000000A000020F8B5074649
:104550000C46C86800257D21C9002E46884262D2DB
:10456000401CE0602168A068095C5B295BD1401CAD
:10457000A0602046FFF7D4FC002C09D06168A06839
:10458000884203D22268125C5D2A39D0884203D364
:10459000A068401EA06046E0401EA060204610308B
:1045A0000090FFF71FFD002838D0002D23D0306089
:1045B00046600646A068401CA0602046FFF7B0FC9D
:1045C0002146304600F0E2F9002829D02046FFF7C6
:1045D000A7FC002C24D06168A068884203D221681F
:1045E000095C2C290AD06268904219D22168085CC3
:1045F0005D2815D104E005462E46DBE70098D0E79C
:10460000E068401EE060002D00D06E602020BD609C
:10461000F860A068401CA0600120F8BD002D02D009
:104620002846FFF799FC0020F8BD034610B500208E
:104630000246995C0C46303C092C01D830380AE01F
:104640000C46413C052C01D8373804E00C46613C4F
:10465000052C08D857380818032A00D20001521C2C
:10466000042AE6D310BD002010BD0000F0B50546B9
:10467000002693B00C462E20314610961190002C47
:104680003AD02068002837D0684626E023689A1878
:104690008A5C342A1BD00ADC17462B3F3B00FEF70E
:1046A00046FF091621162E21161616162100382A45
:1046B0000DD006DC352A0AD0362A08D0372A11D187
:1046C00005E0392A03D0452A01D0652A0AD142548F
:1046D000491C3F2906D2002C04D0A26867685318F1
:1046E000BB42D3D3465410A900F01DFA0F4606462C
:1046F00010996846884204D1002013B0F0BD119A89
:10470000E5E7EF61114A124B30463946AE61FCF7DE
:104710007DF801D80F480DE000220F4B3046394696
:10472000FCF760F802D80120C00703E030463946A4
:10473000FCF720F868610820E860109AA1686846D4
:10474000101A0818A0600120D7E700000000C0FF81
:10475000FFFFDF41FFFFFF7F0000E0C1F8B5074624
:104760000C46C86800267D21C900354688427FD2A4
:10477000401CE060002C7BD06168A068884277D242
:104780002168095C7B2973D1401CA0602046FFF79B
:10479000C7FB6168A068884203D22268125C7D2A48
:1047A00053D0884202D3401EA06061E0401EA0604A
:1047B000204610300090FFF715FC002853D0002E43
:1047C00020D0286045600546A068401CA0602046B7
:1047D000FFF7A6FB2146284600F04CF8002844D0FD
:1047E0002046FFF79DFB2869286200202861002CE5
:1047F0003BD06168A068884237D22168095C3A29B9
:1048000033D102E006463546DEE7401CA060204674
:10481000FFF786FB2146284600F0B8F8002824D090
:104820002046FFF77DFB6168A068884203D22168BB
:10483000095C2C2907D06268904216D22168085C76
:104840007D2812D101E00098B5E7E068401EE060E5
:10485000002E00D075604020BE60F860A068401C4B
:10486000A0600120F8BD002E02D03046FFF774FB97
:104870000020F8BDF3B58F68086881B0C419002026
:10488000009008680E46651CC15D641C222976D123
:104890000022716808E05C2B05D163465B1C8B42EB
:1048A0006DD2521C641C641C231A9C468B4202D29B
:1048B0002378222BEFD1231A8B4260D22178222930
:1048C0005DD1C019201A801A3169401C8847070041
:1048D00055D000973DE029785C2905D000980170FB
:1048E000401C6D1C009034E00221601B012841DB5C
:1048F0006878662814D008DC22281DD02F281BD009
:104900005C2819D0622835D108E06E280ED07228B4
:104910000ED074280ED075282CD112E0082200E0A9
:104920000C2200980270401C009011E00A22F8E767
:104930000D22F6E70922F4E7009A1070521C00924B
:1049400006E06A462146284600F00CF9010011D025
:104950006D18A542BFD3009900200870019810215E
:10496000C160019807613068201A401CB0600120C6
:10497000FEBD04E0002F02D0716938468847002D43
:1049800002D03068281AB0600020F1E770B50C0042
:1049900005465FD0206800285CD0A16863680A1DC6
:1049A0009A4206D84018042230A1FBF757FC002891
:1049B00030D0A0686268411D0126914207D8216865
:1049C000052208182BA1FBF749FC002825D0A06878
:1049D0006268011D914207D821680422081827A1A6
:1049E000FBF73CFC00281CD0A1686068814203D220
:1049F0002268525C222A1CD081421FD22268525C5B
:104A00002D2A02D0303A092A18D821462846FFF725
:104A10002DFE70BD0420E86006E0EE60A068401D39
:104A200004E002206E61E860A068001DA060012023
:104A300070BD21462846FFF71DFF70BD814203D29D
:104A40002268525C5B2A07D0814203D22068405C16
:104A50007B2806D0002070BD21462846FFF776FD52
:104A600070BD21462846FFF779FE70BD6E756C6CEF
:104A70000000000066616C7365000000747275656B
:104A800000000000F3B583B005001AD0286801903B
:104A9000284680380290C76F04983E1F864200D98E
:104AA00006462846FEF776FD044600913246294622
:104AB0000498FFF767FB0199002806D0016005B054
:104AC000F0BD0498FEF798FDF9E729600299002CE3
:104AD000CF670AD021686218291F8A4202D9291B90
:104AE000091F216000996160E9E7024A009911609D
:104AF000E5E70000340000200FB410B50446049927
:104B00000398FDF73FFB1C2203A92046FBF76DFB32
:104B100010BC08BC04B0184700B50A4603C800F032
:104B200010F8026000BD00B50A4683B00021009174
:104B3000019101466846FBF736FF0199009803B0E2
:104B400000BD0068002905D0042905D0082905D03A
:104B50000C2905D034307047383070473C307047EE
:104B600040307047F7B5054601980027401B1646B0
:104B7000062861DBA81CFFF758FD3721890204468F
:104B8000411A2E48814257D91B21C902611A81421C
:104B90001DD8A81D01990C25091A06294CDB01789E
:104BA0005C2949D14178752946D1801CFFF73DFD2C
:104BB000372189020122411A920291423CD2A10579
:104BC0008005090B800D014390010C1800E00625BB
:104BD000802C01D2012012E00120C002844202D2C6
:104BE0000220C0270BE001200004844202D20320EF
:104BF000E02704E0124884421ED80420F027411E1A
:104C000008E0224680231A43BF231A403368A409D0
:104C10005A54491E0906090EF3D1012803D93168F7
:104C20003C430C7003E061063268490E1170316834
:104C3000081830602846FEBD0020FEBDFF030000BE
:104C4000FFFF1000340100200400000019000000E4
:104C50007D00000000000000A6FF5A0000000000D8
:104C6000340100200C000000190000007D0000004D
:104C700000000000A6FF5A0000000000C401002050
:104C800000000000190000007D000000000000008E
:104C9000A6FF5A00000000003401002000000000C0
:104CA000190000007D00000000000000A6FF5A006F
:104CB000000000007C01002000000000190000003E
:104CC0007D00000000000000A6FF5A000000000068
:104CD0007C01002004000000190000007D0000009D
:104CE00000000000A6FF5A000000000000000000C5
:104CF000000000000102030406070809000000008C
:104D000001020304004040404040404040404141D7
:104D10004141414040404040404040404040404090
:104D2000404040404005020202020202020202022A
:104D30000202020202202020202020202020200227
:104D400002020202020290909090909010101010B7
:104D50001010101010101010101010101010101053
:104D600002020202020288888888888808080808E7
:104D700008080808080808080808080808080808B3
:104D80000202020240000000054D0008AC4D000880
:104D9000000000204000000040360008EC4D0008F4
:104DA00040000020280B00005036000800000000E2
:104DB00000000000FF0000000000000000000000F4
:104DC000F935000895350008854A00080100000003
:104DD000040000000000000000127A000000000043
:0C4DE000000000000000000000000000C7
:04000005080000C12E
:00000001FF
