:020000040800F2
:1000000000170020D5000008A9200008BF1F000825
:1000100000000000000000000000000000000000E0
:100020000000000000000000000000007F21000828
:1000300000000000000000007D2100088121000870
:10004000E7000008E7000008E7000008E7000008F4
:10005000E7000008E7000008E7000008E7000008E4
:10006000E7000008E7000008E70000082D09000885
:10007000E7000008E700000800000000E7000008B3
:1000800000000000E7000008000000000000000081
:10009000E700000800000000E7000008E700000893
:1000A000E7000008E7000008E7000008E700000894
:1000B000ED280008E7000008E7000008E700000856
:1000C0000348854600F0CEFB00480047DD2A0008C3
:1000D000001700200448804704480047FEE7FEE779
:1000E000FEE7FEE7FEE7FEE789210008C100000801
:1000F000F0B51FB40646002082B0054640240191A9
:1001000000901BE0019922460F46304600F065FA48
:10011000049A059B801A994110D31046194622462D
:1001200000F04BFA361A8F41019722460120002138
:10013000009F00F042FA38184D4100902046641E9E
:100140000028DFDC019B00982946324607B0F0BD4D
:1001500001464139192900D82030704703460B4326
:100160009B0703D009E008C9121F08C0042AFAD26D
:1001700003E00B780370401C491C521EF9D27047F3
:10018000D2B201E00270401C491EFBD2704700222F
:10019000F6E710B513460A4604461946FFF7F0FF86
:1001A000204610BD421C0178401C0029FBD1801A5A
:1001B0007047C9B203E003788B4203D0401C521E43
:1001C000F9D20020704703460A780270401C491C8F
:1001D000002AF9D11846704730B50546002003467D
:1001E00000E05B1C934205D2EC5CC85C201A01D194
:1001F000002CF6D130BD0000F0B507460846584047
:1002000087B0C00F049048000E46590040084908C6
:10021000BC1A884105D2384631461E4617460B4661
:1002200002465800400810434CD0300D0390400562
:100230005900400D490D0590401A0290402872DA8D
:1002400018030121000B090508430190049800924E
:10025000002805D001995242002088410092019067
:10026000029840210A1A0199009800F0A6F9054663
:100270000C466B4607CB00F0C1F9C0197141039AD7
:100280000E0D0023D71756401A467A40164344D025
:10029000049A002A2DD0029A012A039A15DC12052D
:1002A000C01A914101263605001C7141D20F059EEE
:1002B000D2070093019202962A46234600F0BEF927
:1002C00007B0F0BD38463146FAE71605224A0F4618
:1002D000B218C01AB74101210905001C4F4100188E
:1002E0007F41114618187941E20F10436D1964419E
:1002F00013E0E2076D0815436408C2071443039A2C
:1003000001261205C01A91413605001C7141CE0725
:10031000400830434908C01851412A46234600F09E
:1003200080F9CDE7FFE7049801224000C117121AB7
:1003300000238B4104983146C417381AA141EEE7D7
:1003400030B40124E407634030BC55E730B40124E5
:10035000E407614030BC4FE70000E0FFF0B51FB498
:1003600088B00B990998002448400999C00F4900AA
:1003700049080991C0070B990090490049080B9161
:1003800009990898A64608431CD00B990A98084377
:1003900018D0099801244000420D4800410D0998E9
:1003A00024050003000B204309900B980003000B69
:1003B00020430B9050181C4940180022019014460D
:1003C000104605E0002001460DB0F0BD032801DA1B
:1003D000034600E003239C46C11A0AAE0AE05F0010
:1003E00008ADED5B4F00F75B7D430027AA187C4109
:1003F000491C5B1E6145F2DD410004AB5A522104E9
:10040000120C0A43240C401C0828DFDB01980290E0
:100410000099704601910090059B049A07990698EF
:1004200000F00CF9D0E700000DFCFFFF10B500292B
:1004300004DB0C460121C9074042A141002B04DB2B
:100440001C460123DB075242A341801A994101D384
:10045000012010BD002010BD10B5002904DB0C46A2
:100460000121C9074042A141002B04DB1C460123A6
:10047000DB075242A341101A8B4101D2012010BD6B
:10048000002010BD10B5002904DB0C460121C9076E
:100490004042A141002B04DB1C460123DB075242F2
:1004A000A341101A8B4101D3012010BD002010BDC3
:1004B00010B5002904DB0C460121C9074042A141C7
:1004C000002B04DB1C460123DB075242A341801AA8
:1004D000994101D2012010BD002010BD10B50029A6
:1004E00004DB0C460121C9074042A141002B04DB7B
:1004F0001C460123DB075242A34142404B401A43B2
:1005000001D0002010BD012010BD00000EB5C217A3
:10051000C10F5040CA0740180021054B02930192B9
:1005200000910A460B4600F089F803B000BD0000B8
:100530003304000070B5CD0F4A0009030123090BF5
:100540001B0519430B4BED070024520D9A4201DAAB
:10055000002070BD074B34339A4203DC9A1A00F036
:100560003CF802E00449511888402C43F1D0404245
:1005700070BD0000FF030000CDFBFFFF70B5044617
:10058000002903D000202022012310E0002801D000
:100590000020C043C046C0460DE02546D5408D42F0
:1005A00005D30D469540641B1D46954040191546E0
:1005B000521E002DF1DC214670BD10B5202A04DB4F
:1005C0000146203A9140002010BD914020239C1A02
:1005D0000346E3401943904010BD10B5202A04DBC8
:1005E0000846203AD040002110BD0B46D340D040F1
:1005F0002024A21A91400843194610BD10B5202AA4
:1006000006DBCB170846203A1041C1170B4306E022
:100610000B461341D0402024A21A914008431946AA
:1006200010BD10B5002B08DA0024401C614192185F
:100630005B411A4301D14008400010BDF0B51FB422
:1006400082B005460C0003D0084604F061F902E0D0
:1006500004F05EF920300246009021462846FFF75C
:10066000ACFF049B059A04460F4618431143084308
:1006700014D0184610431BD0009840210A1A18467F
:100680000599FFF7AAFF05460E46009A05990498BA
:10069000FFF793FF084305D0012004E020463946C8
:1006A00007B0F0BD0020C11705430E432C4337436C
:1006B00000990E986305401A7905E40A00220C435C
:1006C000FD0A0A3002D500200146E9E701051019AC
:1006D00069410C9C0D9D00196941FFF7A2FFDFE7FE
:1006E000F0B50C465C4085B0E40FE40703944C0081
:1006F000002664085900944649080246029622439F
:1007000021D062460A431ED06200570D4A000E03F4
:100710002303550D012402462C492405781B1B0B8D
:10072000360B401823432643614600901C46501A5E
:10073000B44103D30098401C009002E09218009846
:100740005B41002803DA0020014605B0F0BD00201F
:10075000012109050746864611E064461D46141B23
:10076000B54106D36546521BB341744607430C435B
:10077000A646CD0740084908284392185B41054624
:100780000D43EAD11046184313D060461946504035
:100790007140084306D06046101AB34106D20122C8
:1007A000002306E000220123DB0702E00122D243FE
:1007B0005310009874460105381C6141029C039D4A
:1007C00000196941FFF72DFFBFE70000FD0300009E
:1007D00070B54B005B0803430BD04B005C0D00264B
:1007E00033466542B341D417AD1AA34102DB002062
:1007F000014670BD12053018514170BD4A00090311
:100800000123090B1B0519430A4B10B5520D9A42DF
:1008100002DA0020014610BD064B34339A4203DC55
:100820009A1AFFF7DAFE10BD034BD218FFF7C5FE88
:1008300010BD0000FF030000CDFBFFFF10B5002935
:1008400004DB0124E40740428C412146002B04DBF9
:100850001C460123DB075242A341994200D190423A
:1008600010BD0000064C0125064E05E0E36807CCEC
:100870002B430C3C98471034B442F7D3FFF724FCC9
:10088000CC5F0008EC5F0008FEB500231A461B1A77
:100890008A4103DB0020014603B0F0BD4A000D038E
:1008A00001212D0B0905520D0D43D10702D100186E
:1008B0006D41521E5110FF31FF31013100270446B6
:1008C0003E46384600970191024601210020090565
:1008D000FFF783FEC3197141F818324684468E46ED
:1008E0004A4161462846611A904104D36046241A61
:1008F000954176461F46241900986D41401C009092
:100900003428E1DDF91930467041091BA84103D2B2
:100910000022D243134601E000221346019801054C
:10092000381C7141FFF77DFEB6E7000080B5024834
:1009300000F04CF880BDC0462C020020EFF3108080
:1009400072B6FEE710B5014624314A78022A14D166
:10095000026813680E24A343136013680124A343A1
:100960001360026C406C1C2303402046984050608A
:100970004C70002000220A7010BD0422C2630120C6
:1009800000220A7010BDB0B5014624314A78022A0F
:1009900018D1026813680E24A3431360136801255D
:1009A000AB431360026C436C1C241C402B46A340D9
:1009B000536000240C704D70816B002900D0884773
:1009C0002046B0BD0421C1630120B0BDF0B585B0A3
:1009D000016C03910C680668316804250191294077
:1009E0004A424A410490416C1C230B402F469F40D1
:1009F0003946029421404C424C4114432FD000967A
:100A000001200227019E314639404D424D419F4011
:100A1000029C27420246014600D02946049805461A
:100A2000243500292AD008210E4077427741DC4046
:100A3000210700D53A46002A1ED1009C22680E21CB
:100A40008A432260012211469940039B5960C26388
:100A5000002129706A70416B00290CD10CE03068CC
:100A6000800602D43068A843306003984760049839
:100A7000016B002900D0884705B0F0BD009B1968C4
:100A8000890605D41A680A218A431A60012169700F
:100A90000021297003994F60C16A0029EBD1EBE76F
:100AA000F0B585B0002841D0044605462435022023
:100AB00068702048206426681F4830181421FFF70A
:100AC0005DFD80000090606431681C4B0B40A268A3
:100AD000E168276960690190A0690290E06903906C
:100AE000206A049019433943019801430298014355
:100AF00003980143049801431143316001218803A5
:100B000082420DD01C20009E06400F20B0400C4AAF
:100B10001368834313606068B04013680343136035
:100B20000020E0632870697005B0F0BD012005B0B9
:100B3000F0BDC04600000240F8FFFDBF0F80FFFF80
:100B4000A8000240F0B582B004462420255C0220B3
:100B5000012D2BD00192264624360122327077785F
:100B6000012F21D1022070700020E06326683768D1
:100B700097433760256C0095676C1C253D401746F0
:100B8000AF40009D6F607360A368102B019F00D081
:100B90000F46B760102B00D00199F1603168236BCC
:100BA000002B05D00E2308E00021317002B0F0BD0B
:100BB00004239943316033680A2119433160316855
:100BC0001143316002B0F0BDB0B5044600F0DCF86E
:100BD0000546601C02D08C480078041900F0D4F857
:100BE000401BA042FAD3B0BDF0B58AB00190099184
:100BF0000A68002A00D1B7E05C48019B834201D01B
:100C0000062000E005200B2109075B180A21CB41D3
:100C10000093042B00D300900026354634460BE0A9
:100C200011433960641C099802681046E040B61C04
:100C30002D1D002800D197E001210846A040024068
:100C4000F0D0029404920591089503252946B140FD
:100C5000CA43099934464E6833462B405F1E012F24
:100C600007920696039410D80F4601998D68154097
:100C7000FF68A7402F438F60F506ED0F029CA5404B
:100C80004F6887432F434F6008E0032B029C05D138
:100C90002B46019F089D049A039E22E0019FF8685D
:100CA0000799084009998D68039EB5400543FD608A
:100CB000022B089D049A14D11C2028400F2181404A
:100CC000E3089B00FB1806931D6A8D43099B196975
:100CD00081402943089D06980162586803230690C5
:100CE0000340B340386807990840184338600698B5
:100CF0008003800F059B95D04A4908681843086017
:100D00000C2028400F218140032325469D43194F85
:100D1000EB598B43009981401943E951144FB9684D
:100D200009984068C30201D5114300E09143089D32
:100D3000B960F96883020AD51143F96079688303C1
:100D40000AD4914379603968C0030BD568E79143B1
:100D5000F96079688303F4D5114379603968C00379
:100D600000D55DE791435CE70AB0F0BD001C005080
:100D70000004014008000140002A02D018228150DE
:100D80007047282281507047054800687047C04668
:100D90001D48007802490A68101808607047C0466C
:100DA000FC02002010B50848016840220A43026096
:100DB0000024204600F00AF8002801D0012010BDD0
:100DC00000F026F8204610BD0020024070B5044611
:100DD0007D20C0000C4E3178FFF7D0FB01460B4858
:100DE0000068FFF7CBFB00F075FD0125032C08D848
:100DF000002806D10025E84321462A4600F020F8C5
:100E00007460284670BDC0461000002020000020FD
:100E100004480168012211430160110742680A4336
:100E20004260704734100240002805D41F2108405A
:100E300001218140014801607047C04600E100E0A7
:100E4000002805D40322034693430A4A9A1803E074
:100E50000C220240064BD2188007C00E8901C9B28D
:100E60008140FF2383401068984308431060704717
:100E700014ED00E000E400E0F0B589B0076801255A
:100E8000EA02114620317C4B0F4272D00792089043
:100E90002907143B18680840069002D118680843D7
:100EA0001860039304912F02744C2068C00511D47C
:100EB000206838432060FFF767FF06462068384205
:100EC00008D1FFF761FF801B6428F7D90325284666
:100ED00009B0F0BD0326340567484C380590016819
:100EE0002140089B586802462240019636049142F0
:100EF00003D19A682240914207D001463140B14265
:100F000003D1059909688903E1D402945A4B5968C1
:100F100031401ED03040814203D0089800788006CE
:100F200009D4089880683040814212D0089800683F
:100F3000079908420DD05868E9045A680A435A6074
:100F40005A688A435A600146B1435960384200D01A
:100F500080E00898076807990F424FD1B906029CB4
:100F600062D40699002904D1039C2168049A914314
:100F70002160F9070BD1B90711D4790717D43907C4
:100F80001ED4790625D400253906A0D52CE0196891
:100F900003229143C2680A431A60B907EDD5196864
:100FA0000C22914302690A431A607907E7D50321AD
:100FB00089021A688A434169114319603907E0D5EB
:100FC000032109031A688A4381691143196079066C
:100FD000D9D5012189061A688A43016A114319602B
:100FE0000025390600D472E703218A041968914369
:100FF000C06908431860284609B0F0BD82681146F0
:101000003140B1420AD10298024003231B05059DDD
:101010002C689C43184B089814432C605A680A4368
:101020005A60B906029C9CD5426811463140B142D3
:1010300009D1224003231B05059D2C689C430E4BC0
:10104000089814432C605A680A435A60069900298C
:101050008AD08EE7FFF798FE0546904C064B5868FD
:10106000800500D575E7FFF78FFE401BA042F5D93C
:10107000019D284609B0F0BD4C10024000700040B0
:10108000F0B583B00290002846D00E468248006832
:10109000012101910840B04216D27F49086801251C
:1010A000A843304308607D4CFFF76EFE07467A4840
:1010B00000682840B04207D0FFF766FEC01BA04280
:1010C000F5D9032003B0F0BD029800688107814D77
:1010D00006D52968F0229143029A92680A432A6051
:1010E000C0071CD16C48006801273840B04225D9A0
:1010F00069490868B8430860684CFFF745FE054633
:1011000065480068C00719D0FFF73EFE401BA042AB
:10111000F6D9032003B0F0BD012003B0F0BD029862
:10112000426829460C39012A32D0032A35D0022AD6
:1011300039D109688903019833D538E002980068ED
:101140004107644C07D50721090222688A430299A6
:10115000C96811432160000708D50720C002216833
:10116000814302980069C000084320602168080795
:10117000820F73487A4412795200974401617F6864
:1011800038042146083909680904490F884075E088
:1011900009684907019804D509E00968890101989F
:1011A00005D403B0F0BD096889050198F9D529680F
:1011B00003200190814311432960FFF7E5FD0746B5
:1011C00002984068354C032811D002281DD0012810
:1011D00029D128680C210140042900D182E7FFF7BA
:1011E000D3FDC01BA042F4D9019803B0F0BD28681C
:1011F0000C2101400C2900D174E7FFF7C5FDC01B8D
:10120000A042F4D9019803B0F0BD28680C21014038
:10121000082900D166E7FFF7B7FDC01BA042F4D94B
:10122000019803B0F0BD28680007800F00D159E78E
:10123000FFF7AAFDC01BA042F5D9019803B0F0BD8D
:1012400020460C380068C00612D53F4816E08A02D6
:10125000120F3C4B9A5C0902890F491C2368DB037F
:1012600009D420460C380068C00603D4374802E091
:10127000364803E034485043FFF780F921680906F7
:10128000090F074A515CC8401149086005480068C9
:10129000FFF79CFD03B0F0BD002002408813000062
:1012A000885F00081400002009480068094909689F
:1012B0004905490F084A515CC84070470448006816
:1012C000044909688904490F034A515CC8407047C2
:1012D000200000200C100240985F000810B5804AE2
:1012E000D1680807830F16487B441B795B009F4435
:1012F0000108070D0120000451680904490F8840C6
:1013000010BD1068C00613D50F4810BD8B021B0F0F
:101310000C4CE35C0902890F491CD468E40303D434
:101320001068C00606D409485843FFF727F910BDD6
:10133000064810BD04485843FFF720F910BDC046C9
:1013400000127A00A05F000800093D000024F400AC
:10135000F0B589B0002856D0614EF1680C220A40E1
:101360000692012105910904F76804910F40079046
:101370000078C00710D00698082806D006980C28D8
:1013800000D0CFE0002F00D1CCE03068800303D53F
:101390000798406800284AD007980078800735D41D
:1013A00007980078C00645D40798007800075FD4F6
:1013B00007990878400700D594E00878800600D5A2
:1013C0001BE10798846A002C1AD006980C2800D0DC
:1013D00067E1012C2BD0F068049A0240079BD96A80
:1013E0008A4224D10F21890401401A6B91421ED1F7
:1013F000032189050840596B8842059800D053E2C3
:10140000002009B0F0BD012009B0F0BD079BD868ED
:101410000699042906D006990C2900D0ADE0002FCA
:1014200000D0AAE03168490739D5002837D105989E
:1014300009B0F0BD0698002800D1B4E030680799E3
:10144000C969002900D108E101210A021043306076
:101450004C02FFF799FC05463068204200D00FE1AE
:10146000FFF792FC401B0228F6D9032009B0F0BD1B
:10147000306D07994969002900D1DDE00121084359
:101480003065FFF781FC0546306D800790D4FFF78B
:101490007BFC401B0228F7D9032009B0F0BD1F21B7
:1014A000090272688A43196909021143716031683F
:1014B0000922914301433160F1680807820FFB481C
:1014C0005200C0467A44928852009744030020019B
:1014D000DE01260170680004410F04988840D4E1C1
:1014E0000010024001221107B06B0840029002D1A7
:1014F000B06B0843B063019103921402F24F386855
:10150000C00525D4386820433860FFF73DFC054608
:10151000386820421CD1FFF737FC411B03206429A7
:10152000F6D9C1E10798406805994C0404998842AE
:1015300009D005210904884200D0C9E0059880043B
:101540003168014331603068049908433060CFE06E
:1015500007988068002800D122E10521090288420D
:10156000039A00D133E1A04200D134E1306DA043B1
:1015700030659102306D88432FE13168002800D139
:10158000DDE00922914301433160FFF7FDFB054691
:101590003068400700D5F9E0FFF7F6FB411B032058
:1015A0000229F5D980E130688005079B03D5D86909
:1015B000002800D13BE70720400371688143586A47
:1015C00001437160FF21090672688A43196A09069E
:1015D00089187160400B04998140F0680006000F83
:1015E000B64A105CC140B6480160B6480068FFF7D3
:1015F000EDFB002800D057E1D6E6B068079989696D
:10160000002900D1ACE001210843B060706B0843B1
:1016100070634803AE490A6802430A60FFF7B4FBEF
:101620000546B068800700D5CBE6FFF7ADFB411B50
:1016300003200229F5D937E1012188433065FFF7FE
:10164000A3FB0546306D800700D4B1E6FFF79CFB95
:10165000411B03200229F5D926E101210A0290430A
:1016600030604C02FFF790FB05463068204200D105
:101670009AE6FFF789FB411B03200229F5D913E104
:101680000720400371688143079A506A08437060DD
:10169000FF20000671688143106A000640187060E0
:1016A00082E601273806316881433160FFF76CFB21
:1016B0000546022C00D0AAE07F063068384200D1EF
:1016C000C1E0FFF761FB411B03200229F5D9EBE0E4
:1016D0003168049A9143316031681140089108994A
:1016E0000599890432688A433260002800D19CE061
:1016F000FFF74AFB05463068204200D04CE6FFF772
:1017000043FB401B6428F6D9032009B0F0BD3068C4
:10171000C00600D487E06748B7E08A02120F644B26
:101720009A5C0902890F491CF368049C234200D08B
:10173000A8E03068C00600D5A3E05F48A2E0012021
:1017400081433160FFF720FB05463068400700D435
:1017500026E6FFF719FB411B03200229F5D9A3E078
:1017600001218843B060480359490A6882430A60EE
:10177000FFF70AFB0546B068800700D421E6FFF7B3
:1017800003FB411B03200229F5D98DE01F20000235
:101790007168814307980069000208437060FFE5A3
:1017A000306DA0433065039A9002316D81433165FD
:1017B0005402464FFFF7E8FA0546306D20421CD030
:1017C000FFF7E2FA411B0320B942F6D96CE0900220
:1017D000316D01433165306D2043306554023B4F1C
:1017E000FFF7D2FA0546306D204206D1FFF7CCFA5A
:1017F000411B0320B942F6D956E002980028079908
:1018000000D0DAE5B06B019A9043B063D5E57C0671
:101810003068204200D1F3E5FFF7B6FA411B032000
:101820000229F5D940E024482FE0FFF7ADFA05463C
:101830003068204200D1AFE5FFF7A6FA411B032034
:101840006429F5D930E0FD200004F1688143079B4D
:101850002C330DCB084310431843F0602748401C3D
:10186000316801433160FFF78FFA0446306838422F
:1018700000D0C5E5FFF788FA011B03200229F5D93E
:1018800012E00C485043FEF779FEF1680906090F93
:101890000A4A515CC8400A4908600A480068FFF7D4
:1018A00095FA002800D17BE509B0F0BD00127A005E
:1018B000A05F000800093D000024F400885F0008D4
:1018C0002000002014000020007000408813000059
:1018D00020000140401E010E01D001207047074941
:1018E000074A5060074803680B40032189075918CD
:1018F000016000209060072111607047FFFFFF002A
:1019000010E000E020ED00E070B504468020205893
:10191000202810D10120002917D0002A15D0012538
:101920002803A368834208D1C80706D0206900288D
:1019300003D1284670BD022070BD2566002666666C
:10194000204600F0ADFE002800D070BD206E0128BA
:101950002846FAD1206810210162EFF3108001229D
:1019600082F31088226813680B43136080F3108899
:10197000304670BDF0B581B000681749884201D08B
:1019800001B0F0BD154C2046FEF70CFC01210D0204
:1019900087B2FF2F01D8E91B00E00021104EF0199B
:1019A000FEF7F5FB304621463A46FEF7D7FB2046C8
:1019B0003946FEF7ECFB0B4821462A46FFF7A4FF09
:1019C000094800680168042291430160304600F034
:1019D0006DFB01B0F0BDC04600440040280100206E
:1019E00028000020740200202C020020704770475D
:1019F000F0B589B00368DE691A6820210892059164
:101A00000A40514251410127FD022C462F340796CE
:101A10003440203C661EB4410C439C6860D002A94F
:101A20008CC106900246583201950F35079F2F4210
:101A3000089807D0E7490140012326461E40711847
:101A400000D09BE01023014619404E424E413D46D6
:101A5000394619404F424F410698016E01290498BA
:101A6000014643D139460029014642D0002943D0DE
:101A70002F46012399050C4066426641E902014662
:101A8000039A00D53146002900D1F5E08021089A5B
:101A900011404C424C4139060146069800D521467A
:101AA000002900D18AE14025089929404C424C4147
:101AB000790600D50494049900290FD1EFF3108121
:101AC00083F3108802681368AB43136081F31088B6
:101AD0000021C1660599C16700F070FA09B0F0BD38
:101AE000816E0029FAD0884709B0F0BD002901466F
:101AF000BCD131460029BBD10398036280684006FF
:101B000000D5C0E05488108808925288002A0699AF
:101B1000E4D0A042E2D00794EFF31084012282F3D4
:101B2000108809256D010E683768AF43376084F36C
:101B30001088EFF3108482F310880D68AE68964326
:101B4000AE6084F31088059C089DAC6200248C660E
:101B50000C66EFF3108482F310880A6815689D43C1
:101B6000156084F3108802224A66079A801A82B2AE
:101B700008461146FFF7FEFE09B0F0BD190201400C
:101B80004C424C41F9070498014600D021460029F7
:101B9000039D03D12B62D16A1943D162744274410F
:101BA000B907014600D52146002905D10221296245
:101BB000D16A04240C43D46274427441790701460B
:101BC00000D52146002905D104212962D16A0224C9
:101BD0000C43D46202990E4374427441390706469D
:101BE00000D52646002E04D108212962D46A0C4370
:101BF000D4629906089E0E407442744101990F42C6
:101C0000069E0CD020463C4600280BD12962D16AA2
:101C100005980143D162D16A002907D15EE73C46AD
:101C20000028F3D0D16A002900D157E7174605985C
:101C3000214601400298444244410029049800D0C2
:101C4000204600283C4608D1B16E002905D0304618
:101C50001C46884723463C463568E16A28220A40EC
:101C6000A9684020014089185ED13046FFF7BFFEC9
:101C70000020E06209B0F0BD190511620698FFF777
:101C8000B5FE09B0F0BD1746069E706F006841684A
:101C90008AB2002A00D121E73C88A24200D31DE786
:101CA0003A4679800068800633D4EFF31081012032
:101CB00080F31088494A2032346825681540256031
:101CC00081F31088EFF3108180F3108832689468F4
:101CD0008443946081F31088EFF3108180F31088BF
:101CE000326894684025AC43946081F3108805996C
:101CF000B96200213166EFF3108180F310883068FB
:101D000002689A43026081F31088706FFEF71AFE32
:101D10003A460220706610885188401A81B23046D7
:101D2000FFF728FE09B0F0BDEFF3108183F31088B0
:101D3000092252011D4633681C6894431C6081F3DC
:101D40001088EFF3108185F3108832689368089546
:101D5000AB43936081F31088316E01290BD1EFF30F
:101D60001081089A82F31088326813681024A34304
:101D7000136081F310880599B96200213166B1665C
:101D800031688968490620D5EFF31081089A82F3FB
:101D90001088326893688343936081F31088706F72
:101DA000002812D00C498163FEF7EDFD002800D118
:101DB00094E6706F816B884709B0F0BDC16E002951
:101DC00000D18BE6884709B0F0BD3046FFF70FFE23
:101DD00009B0F0BD2001000421230008DFFEFFFF51
:101DE000B0B500282FD00446C06F002805D1782058
:101DF00000212154204600F029F82420E0672068C3
:101E000001680125A9430160204600F045FB012837
:101E100017D0606A002802D0204600F0B6F90920E9
:101E2000C00221684A6882434A6088682A22904337
:101E300088600868012202430A60204600F00EFA1A
:101E400005462846B0BD0120B0BD0000F0B587B002
:101E5000044600689349884201D007B0F0BD0120D4
:101E60004104814AD3680B43D36011680143116078
:101E70001168014001910427069703200590002670
:101E80000496022003900C20029001980520000780
:101E900002A9FEF7A9FE104D8020104982C52E60D0
:101EA0006E60A860EE602E616E61AE61083D2846EE
:101EB000FEF7F6FD002801D0FEF740FDAC62656735
:101EC0001C24002120460A46FEF7BAFF2046FEF7F2
:101ED000ABFF07B0F0BDC0462C0200205800024006
:101EE00070477047F0B585B00546C06F202811D106
:101EF000012000290CD01646002A09D00120070332
:101F0000AA68BA4209D1CA0707D02A69002A04D1AF
:101F100005B0F0BD022005B0F0BD019103932C4641
:101F200050340020029060632120E867FEF72CFF08
:101F3000049066802680A868B84202D128690028EB
:101F400001D0019F02E000270198029003990CE064
:101F5000029A10881849084029688862921C0292E7
:101F6000374603996088401E60806088002810D042
:101F700000918021002628463246049B00F0E4FBB5
:101F8000002814D1002FE3D03878296888627F1C9C
:101F9000E7E70091402100222846049B00F0D4FB93
:101FA0002021E9670028B3D0032005B0F0BD202030
:101FB000E867032005B0F0BDFF0100007047FEE7B1
:101FC00010B582B009480168012211430160006820
:101FD0001040019001980B24002120460A46FEF78C
:101FE0002FFF2046FEF720FF02B010BD3010024048
:101FF000F0B587B00024069405941B4801680422BC
:10200000114301600168114001910199016880222A
:102010001143016001681140019101990168012596
:1020200029430160006828400190019805200007BD
:102030000090202631462246FEF79EFE0494212081
:102040000004039068030290084802AF3946FEF787
:10205000CBFD059404940395029600983946FEF74B
:10206000C3FD07B0F0BDC0462C1002400008005070
:1020700010B50B4800210C220A4B01624162E12499
:10208000640218C0016041608160C2600161416109
:102090000838FFF7A5FE002801D0FEF74FFC10BD61
:1020A0007402002000440040FEE7000010B5044622
:1020B00018A0214602F008FC204600F0ABFC0028E6
:1020C00020D0044600F0F4FC014616A002F0FCFB10
:1020D0001BA1204600F040FCC168042903D101691E
:1020E00019A002F0F1FB1BA1204600F035FCC168ED
:1020F000032903D1416918A002F0E6FB204600F055
:10210000FBFB10BD00F024FC014616A002F0DCFB36
:1021100010BDC0467374724172725B5D3A257320C4
:102120000D0A00004A534F4E5F7363726970745F0B
:10213000636F72726563743A2573200D0A000000A4
:102140006E616D65000000006E616D653A2573205B
:102150000D0A000061676500656467653A256420C3
:102160000D0A00004A534F4E5F7363726970745FCB
:102170006572726F723A2573200D0A0070477047BE
:1021800080B5FEF705FE80BD7047B0B5416ACA074D
:102190000CD18A0714D44A071CD40A0724D4CA06CF
:1021A0002CD48A0634D44A063CD44CE00122520492
:1021B00003685C689443826A22435A608A07EAD5BE
:1021C0000122120403685C689443C26A22435A6085
:1021D0004A07E2D50122920403685C689443026BCB
:1021E00022435A600A07DAD50122D20303685C68E9
:1021F0009443426B22435A60CA06D2D5012212038D
:1022000003689C689443826B22439A608A06CAD50D
:102210000122520303689C689443C26B22439A6074
:102220004A0610D501221305026854689C43056CC8
:102230002C4354609D4206D103235B0554689C43A4
:10224000436C23435360090607D50121C904026882
:1022500053688B43806C18435060B0BDF0B583B0B9
:102260000446064678360027F760FEF78DFD0346E4
:102270002068016809071FD52848009001200290B6
:102280004105002220461D4600F05EFA002811D0CC
:10229000EFF31080029981F3108821680A68802387
:1022A0009A430A6080F310882020E067032037708B
:1022B00003B0F0BD20682B460068400725D51748BD
:1022C00000900125A9050022204600F03DFA0028D3
:1022D0001BD0EFF3108085F3108809214901226893
:1022E00013688B43136080F31088EFF3108085F33D
:1022F000108821688A68AA438A6080F310882020A9
:10230000B0600320377003B0F0BD2020E067B060FC
:10231000276667663846377003B0F0BDFFFFFF01E0
:1023200080B5806A0146523100220A815221425210
:10233000FFF75DFB80BDF0B581B0806AC16F802280
:102340008358024652320468A5682D0612D5212909
:1023500010D100211180EFF31081012484F3108843
:1023600004682568C026B543256081F310882021C4
:10237000C167046801468031A46864062CD5222B0D
:102380002AD100231381EFF31084012282F31088F5
:1023900009256D0106683768AF43376084F31088FC
:1023A000EFF3108482F310880568AE689643AE6040
:1023B00084F31088046E012C0AD1EFF3108482F3A9
:1023C0001088026815681026B543156084F31088DC
:1023D00020220A60836603664A68102313434B6019
:1023E000FFF705FB01B0F0BD70B50146806A0246FB
:1023F000583209680968890632D400215180EFF308
:102400001083012181F310880C0205682E68A64311
:102410002E6083F31088EFF3108381F31088046833
:10242000A5688D43A56083F31088EFF3108381F3D3
:1024300010880468A5684026B543A56083F310881A
:1024400020239362036E012B0AD1EFF3108381F3F3
:10245000108801680C681025AC430C6083F3108869
:1024600000214166016E012903D11188FFF782FA2C
:1024700070BDFFF735FD70BD80B5806A01214166F2
:10248000016E012905D15821415A4908FFF772FA16
:1024900080BDFFF726FD80BDF0B581B00446016820
:1024A0000868704A0240A0682369034360691843C2
:1024B0001043E26910430860032630034B688343EE
:1024C000E06818434860A569674B994202D0206ACA
:1024D000284300E028460B252D028F68AF430743B1
:1024E0008F606248814208D099420AD06048814298
:1024F00038D16048C06C61A507E05E48C06C8008B8
:1025000002E05C48C06C800A5B4D8007000F2F58CA
:102510000125E80399422AD0824211D1082F00D91F
:1025200099E0C0467F443F797F00BF44043D479413
:102530004D9494947600FEF7B7FE002848D06CE0E6
:10254000082F00D987E0C0467F443F797F00BF4411
:1025500004304182478282827500FEF7A5FE002882
:102560006CD141E010270125E8039942D4D1082F0E
:1025700071D8C0467F443F797F00BF44046C096C2A
:102580000F6C6C6C3800FEF78FFE00282FD109E02D
:1025900038480068C00629D53D4828E0FEF79EFE71
:1025A000002824D1002556E0FEF788FE002834D10B
:1025B0000EE0FEF783FE002840D115E02D480068AC
:1025C000C00629D5324828E0FEF788FE002824D12D
:1025D000002540E027480068C0062ED52C482DE095
:1025E000FEF77CFE002829D1002534E027486268E8
:1025F0005643B0422FD3110388422CD8010E5608FF
:102600000002002380195941FDF772FD224941184B
:10261000224A91421FD21BE01C48400061684A08D0
:102620001018FDF7ABFF0246103A1A498A4212D23F
:1026300001400007400F08430AE0144861684A0857
:102640001018FDF79BFF01461039124A914202D241
:102650002168C86000250020A066E066284601B019
:10266000F0BDC046F369FFEF004800400044004061
:102670000038014000100240AC5F0008010000007B
:102680000400000002000000080000000024F40024
:1026900000093D00F0FF000000FDFFFF00FD0F00FE
:1026A000F0B581B01346054658202A522E465836BA
:1026B0000024F46269652220B062686F002815D09A
:1026C0000A461F4F1F49C16207631C494163846367
:1026D00029682431FEF736FA002807D01020F0626E
:1026E0002020B0620124204601B0F0BD28690028F6
:1026F0000BD0EFF31080012181F3108809022A68C2
:1027000013680B43136080F31088EFF310800121EE
:1027100081F310882A6893680B43936080F31088D4
:10272000EFF3108081F3108829688A6840231343EF
:102730008B6080F31088204601B0F0BD372300087D
:1027400079240008E9230008F0B587B015460F4644
:102750000668F1693940C91B4A424A410021AA4230
:1027600025D106930C9C002C24D00B46611C26D14D
:10277000F1693940C91B4A424A41AA4214D1F16960
:102780003940C91B4A424A41AA420DD1F169394038
:10279000C91B4A424A41AA4206D1F1693940C91BC4
:1027A0004A424A41AA42E3D0184607B0F0BD084663
:1027B00007B0F0BDFEF7E8FA032007B0F0BD0293C2
:1027C00001467831039101210191C90204910590DC
:1027D00006E0C9693940CA1B51425141A9424BD157
:1027E000FEF7D2FA0699411A0323A142DCD80598D4
:1027F00001680A685207ECD5CA6912073FD4CA6952
:102800002646049C22423446E3D01F4604980862C0
:10281000EFF31082012181F3108809235B010598F1
:10282000046825689D43256082F31088EFF31082C9
:1028300081F31088059803689C688C439C60059818
:1028400082F31088026E012A0BD1EFF3108281F31C
:10285000108801680B681024A3430B60059882F36D
:1028600010882021039B99600022026682661A70FC
:10287000D960384607B0F0BD029807B0F0BD082512
:102880000D62EFF31081019880F310880922520144
:10289000059B1B681C6894431C6081F31088EFF350
:1028A000108180F31088059A1268936883439360BF
:1028B000059B81F31088196E01290CD1EFF310816B
:1028C000012282F310881A6813681024A34313604E
:1028D000059B81F310882021039A916000211966DD
:1028E00099661170D56007B0F0BD000080B5C7488B
:1028F000FFF77EF880BDC046F0B581B0002824D037
:10290000044601200602684F04E07968284688479B
:10291000002C1AD02546E1682468314205D1A86808
:10292000002802D0FFF7E8FFE968314205D12869A5
:10293000002802D079688847E9688805E5D4286AC4
:102940000028E2D079688847DFE701B0F0BDC046D3
:10295000564800687047C046F0B585B00546481E29
:102960000A4682410835002934D00C46481C0090A4
:102970000391029204E0381A039C029A002826D0A0
:102980002D68002D23D02B6A002B1046F6D004931F
:102990001E783046FDF7DCFB07462078FDF7D8FBB4
:1029A0008742E8D101950498451C009C002E0DD06B
:1029B0002E783046FDF7CCFB07462078FDF7C8FBA4
:1029C0006D1C641C8742F1D0019DD4E7019D28460F
:1029D00005B0F0BD2846006800250028F7D0016A40
:1029E000002913D000680028F1D0016A00290DD019
:1029F00000680028EBD0016A002907D00068002891
:102A0000E5D0016A00290546E5D1E0E705462846FC
:102A100005B0F0BDB0B50546F348016828208847E9
:102A2000002821D004462821FDF7B1FBED48002104
:102A30000160002D25D02878401E1F2819D86878FD
:102A4000401E1F281CD8A878401E1F2820D8281DEB
:102A5000E978491E20290546EDD3411E204600F0A5
:102A6000BFFC002812D119E0DE4800240460204693
:102A7000B0BD2946204600F0B3FC002806D10DE089
:102A8000691C204600F0ACFC002807D02046B0BDF1
:102A9000A91C204600F0A4FC0028F7D12046FFF72F
:102AA0002BFF00242046B0BD180000202802002083
:102AB00080B5012200210B4601F0F4FD80BD00002D
:102AC00080B582B00190514801A90122024BFFF765
:102AD00009FA019802B080BDFFFF00009CB0FEF72C
:102AE00061F90EAD281D3421FDF751FB0024089437
:102AF000079406940594049403940294019403208B
:102B0000C00241490A68824301261596F002101856
:102B100008601894052040031790169410200E901A
:102B20002846FEF715FC002803D0EFF3108072B69C
:102B3000FEE70A940F2009900B940C940D9409A8B9
:102B40002146FEF79DFA002803D0EFF3108072B6FD
:102B5000FEE70494022000906846FEF78DF90028F5
:102B600003D0EFF3108072B6FEE7FFF741FAFFF7EC
:102B700027FAFFF77DFA320224482549FEF7C4FE02
:102B8000244800680168042291430160434E05E037
:102B90002846FFF7B1FE3046FEF716F80EAD1EA030
:102BA00029468CC88CC19CC89CC122A0294601F032
:102BB0008BFE2846FFF72EFF00281DD00546FFF7A5
:102BC00077FF01461FA001F07FFE284624A1FFF7F2
:102BD000C3FEC168042903D1016923A001F074FE7A
:102BE000284624A1FFF7B8FEC1680329D0D1416966
:102BF00021A001F069FECBE7FFF7AAFE014621A064
:102C000001F062FEC7E7C046007000407402002079
:102C1000280100202C0200207B226E616D65223A83
:102C200022416E6479222C22616765223A32307D1E
:102C3000000000007374724172725B5D3A2573206C
:102C40000D0A00004A534F4E5F7363726970745FE0
:102C5000636F72726563743A2573200D0A00000079
:102C60006E616D65000000006E616D653A25732030
:102C70000D0A000061676500656467653A25642098
:102C80000D0A00004A534F4E5F7363726970745FA0
:102C90006572726F723A2573200D0A00B80B00003E
:102CA000F0B581B0064608785B282DD10520F0608C
:102CB0004878421E1F2A2DD88C1C8878411E202956
:102CC0002146F5D3611E5D2827D0E1480168282000
:102CD0008847002825D005462821FDF758FAB56019
:102CE0002078401E1F2824D86078401E1F281DD839
:102CF000A078401E1F281BD8201DE178491E2029DE
:102D00000446EDD3441E14E0D04801600024204660
:102D100001B0F0BD4C1C5D28D7D18C1C204601B001
:102D2000F0BD0024B460204601B0F0BD641C00E09A
:102D3000A41C2846214600F053FB00240028E6D0BE
:102D400006463078411E1F2908D8B11C7078421EF3
:102D5000202A0E46F5D34E1E00E03D462C2836D1E3
:102D6000BB480168282088470028D0D00746282182
:102D7000FDF70DFA7D602F60B01C411E0A78521ECF
:102D80001F2A12D80178491E1F290BD84178491EE5
:102D90001F2909D8011D8078401E20280846ECD341
:102DA000891E02E0014600E0411C384600F018FB95
:102DB0000028ACD006463078411E1F29CDD8B11C62
:102DC0007078421E202A0E46F5D34E1EC5E75D28B8
:102DD00003D1741C204601B0F0BD9C48066020461B
:102DE00001B0F0BD2802002018000020F0B581B02D
:102DF000064608787B282DD10620F0604878421ED0
:102E00001F2A2DD88D1C8878411E20292946F5D3EC
:102E1000691E7D2827D08E48016828208847002811
:102E200025D004462821FDF7B2F9B4602878401E69
:102E30001F2824D86878401E1F281DD8A878401E57
:102E40001F281BD8281DE978491E20290546EDD3E7
:102E5000451E14E07D4801600024204601B0F0BD0D
:102E60004D1C7D28D7D18C1C204601B0F0BD00241C
:102E7000B460204601B0F0BD6D1C00E0AD1C2046E2
:102E8000294600F0E7F8002813D00178491E1F29D1
:102E900016D84178491E1F290FD88178491E1F294D
:102EA0000DD8011DC078401E20280846EDD3481ECD
:102EB00006E00024204601B0F0BD401C00E0801C6C
:102EC000216921620027276101783A2915D1801CE8
:102ED000411E0A78521E1F2A18D80178491E1F2940
:102EE00011D84178491E1F290FD8011D8078401E36
:102EF00020280846ECD3891E08E0544908603C4667
:102F0000204601B0F0BD014600E0411C204600F023
:102F100067FA002800D183E006463078411E1F2959
:102F200008D8B11C7078421E202A0E46F5D34E1EDA
:102F300000E02C462C2877D1454801682820884796
:102F400000286DD005462821FDF721F96C60256029
:102F5000B01C411E0A78521E1F2A12D80178491E41
:102F60001F290BD84178491E1F2909D8011D8078D7
:102F7000401E20280846ECD3891E02E0014600E0EE
:102F8000411C284600F066F8002849D00178491E07
:102F90001F2912D84178491E1F290BD88178491E54
:102FA0001F2909D8011DC078401E20280846EDD3EE
:102FB000481E02E0401C00E0801C296929620024B0
:102FC0002C6101783A2935D1801C411E0A78521EA5
:102FD0001F2A12D80178491E1F290BD84178491E93
:102FE0001F2909D8011D8078401E20280846ECD3EF
:102FF000891E02E0014600E0411C284600F0F0F97D
:10300000002800D129E706463078411E1F2990D8B4
:10301000B11C7078421E202A0E46F5D34E1E88E75A
:103020003C46204601B0F0BD7D2808D1741C2046E6
:1030300001B0F0BDE3490860204601B0F0BDE148B1
:1030400006603C46204601B0F0BDC0462802002084
:1030500018000020F0B587B004460878222839D13E
:103060004D1C0020294602E001228918001D0A7823
:10307000002A3AD0222A38D05C2A04D001228B5C64
:10308000002B04D12CE002228B5C002B28D0222BB9
:1030900026D089185C2B04D001228B5C002B04D134
:1030A00020E002228B5C002B1CD0222B1AD0891826
:1030B0005C2B04D001228B5C002B04D114E0022293
:1030C0008B5C002B10D0222B0ED089185C2BCBD11F
:1030D0000222CAE7BB4801600025284607B0F0BDC0
:1030E000401C02E0801C00E0C01CB7490968401C7D
:1030F0008847002800D161E101945621C943069117
:103100000090064628785C2809D0002800D146E1C6
:10311000222800D143E13070761C6D1CF2E7681C58
:1031200069780A46623A132A17D8C0467A44127957
:1031300052009744091212120B121212121212129A
:103140000D1212120F121117082106E00C2104E0D3
:103150000A2102E00D2100E009213170761C0546AC
:103160006D1CCFE7069B2733A878059030380A28D6
:1031700004930ED3059908464138062803D20698D1
:103180002030049005E00846613805280698049030
:103190006AD8EC78204630380A281A460BD32046E5
:1031A0004138062802D2069A203204E020466138CF
:1031B0000528069A58D82879014630390A290393F8
:1031C0000DD301464139062903D2069920310391D6
:1031D00005E00146613905290699039144D86F79C4
:1031E000394630390A290BD339464139062902D2EA
:1031F000069B203304E0394661390629069B33D209
:103200000599029010462246049C6118090189180C
:1032100009180901029808180399401800016A1D4D
:10322000C019C31823D018466849084037218902BD
:1032300088421FD01B21C90288421ED1A8795C2870
:1032400020D1E879752825D1069F27372A7A10469C
:1032500030380A2805972DD310464138062823D246
:1032600006982030059025E06D1D6D1C4AE7154637
:10327000551C47E71546551C44E7802B05D2012015
:10328000154682E01546551C3CE7D80A05D10220B8
:10329000154675E01546551C34E7180C02D103207D
:1032A000154668E0154660E0104661380528069826
:1032B000059071D8687A049030380A2803970ED3A5
:1032C000049908464138062803D206982030039016
:1032D00005E0084661380528069803905CD8A87A6E
:1032E000014630390A2902970DD301464139062992
:1032F00003D206992031029105E001466139052982
:103300000699029148D8EC7A11462246303A0A2AA8
:103310000A460DD32246413A062A03D2069F203799
:103320000A4605E02246613A062A069F0A4633D23B
:1033300005998A181201049952180399521812011A
:1033400010180299401800010B350019C0192049C6
:1033500041181E4A914200D202E71E4908409905D1
:10336000090B08180121090443183F201840803038
:10337000F0709B0904203F2119408031B1709B09F6
:103380003F211940803171709B0913A1095C1943D9
:10339000317036186D1CB5E60B356D1CB2E6002099
:1033A000307028780421019AD16000991161222897
:1033B00000D092E66D1C284607B0F0BD00252846D7
:1033C00007B0F0BD280200201800002000FCFFFF1D
:1033D0000020FFFFFF0300000000C0E0F0F8FC0049
:1033E000F0B587B00025002920D00F460446A74934
:1033F00004223846FCF7F0FE00281AD0A449052222
:103400003846FCF7E9FE002815D0A24904223846C8
:10341000FCF7E2FE002814D039782D291DD022298E
:1034200016D120463946FFF715FE0546284607B057
:10343000F0BD022007E00020E0607D1D284607B0B7
:10344000F0BD01206061E0603D1D284607B0F0BD81
:1034500008463038092800D992E0019402912D39AC
:10346000484248413A5C303A514251413A18565C20
:103470003346313B0024082B039439D80818C0196F
:10348000451C00231F46002218463946834BFCF793
:1034900065FF04460F46303E3046FDF737F80246DA
:1034A0000B4620463946FCF7A7FE03460F462E780A
:1034B0003446303C092C1ED8002218463946774B3A
:1034C000FCF74CFF06460F462046FDF71FF8024664
:1034D0000B4630463946FCF78FFE03460F46A81CC4
:1034E0006E78314630390A290546CCD3451E02E0B4
:1034F0005518234627462E2E30D16E783046303868
:10350000092849D8681C0024214605940691049096
:103510000025184639462A46604BFCF71FFF044633
:103520000F46303E3046FCF7F1FF02460B46204680
:103530003946FCF761FE04460F46059806992A466F
:10354000574BFCF759FE234604460498451C467821
:10355000304630380A282846D7D301E003990C4674
:10356000202030436528049306911CD16A782D2AC7
:10357000019E1BD0012000902B2A1AD06D1C19E04F
:103580007B2946D05B294CD120463946FFF788FB82
:103590000546284607B0F0BD049300240121069497
:1035A0000394019E4BE00121019E48E00020C043AE
:1035B0000090AD1C2B781846303809283ED8059469
:1035C000A91C00200A225043181830384D1E2B78B1
:1035D0001C46303C092C29D85043181830380B7839
:1035E0001C46303C092C23D85043181830384B78EF
:1035F0001C46303C092C1ED84243981830380A1D0E
:103600008B78194630390A291146DBD30390951E71
:1036100013E020463946FFF7E9FB0546284607B088
:10362000F0BD1D480760284607B0F0BD039004E0D8
:1036300003900D4601E003904D1C059C00990398F2
:103640004843FCF763FF02460B4620460699FCF709
:10365000D3FD02460B460020104901F03DFF024613
:103660000B460320F06002982D2802D10120C007EC
:10367000474004983946FCF771FEB061F161FCF7F0
:1036800059FF7061284607B0F0BDC046C75F00080B
:10369000BC5F0008C25F0008280200200000244030
:1036A0000000F0BFF0B587B006920A46074608371B
:1036B00000243846006800280ED0006800280AD090
:1036C0000068002818D0241D00680028F2D1641E6C
:1036D000002C03D113E0641C002C10D0002B3DD033
:1036E000186800210291002853D059689E688E42C4
:1036F00060DA0096801982E0A41C002CEED1002B29
:103700004AD01868002800D18AE05A6899681F4694
:10371000CB1C934200DC80E0881C411001438810E0
:1037200008430111014308120843011401434D1CD1
:10373000E24C216828468847002800D1AEE10646C1
:1037400006CF083FFCF70AFD6168386888473E608D
:103750007D60B8683018002824D161E00592D74810
:103760000168A5002846884706460020002E00D1A3
:1037700088E1029030462946FCF709FD3D68002D9E
:10378000019600D1A9E00698002800D1A7E0032007
:10379000A6E0029807B0F0BDC8480168032088473A
:1037A00000283DD0002181705D2141705B210170B6
:1037B00007B0F0BD05921C467010304381100143E4
:1037C000081108430112014308140843401CBB4977
:1037D000096804908847002800D11FE1054600963B
:1037E00006CC083CFCF7BAFCB4484168206888471E
:1037F0002346256004986060A0682818059A5B211C
:1038000001709868461C9E603F68002F00D111E14E
:103810000698002807D0022006E040180028C1D1F1
:10382000002007B0F0BD01200590501C04900193CA
:103830000CE020214170801C0021017098680599DE
:1038400046189E603F68002F00D1F3E03846049987
:10385000069A1C4600F026FF23462568002D00D15D
:10386000E0E01C469E68A819FCF79CFC86192346DC
:10387000A6603968002900D1DCE0059831184A1C9F
:103880005B689A4220DD481008438110014308110B
:1038900008430112014308140843401C874D29685E
:1038A00003908847002800D100E1064606CC083C7A
:1038B000FCF754FC696820688847266003986060BC
:1038C000A0683018234601E0A819019B2C21017043
:1038D00006990029ADD1401CAEE7052220E0022068
:1038E00003900598401C049005223746059200235A
:1038F00028460499069A00F0D5FE386000286BD05F
:10390000064603980599401805903046FCF74AFC96
:1039100005990A18002E03D03F1D2D68002DE5D112
:103920006648016810468847002855D00021039159
:1039300041705B2102900170012C214600D80121C9
:10394000641E0298471C06980028019E059709D11D
:103950002AE0059701CE594949688847641E0699AF
:10396000491E50D00494069134682046FCF71AFC96
:103970000546059F38462146049C2A46FCF7EEFB87
:103980007F19002CE5D00398B870202078702C2087
:103990003870BF1CDDE7059101CEF54949688847BD
:1039A000641E0699491E2ED0049406913768384645
:1039B000FCF7F8FB0546059C204639462A46FCF7ED
:1039C000CDFB2146049C4919002CE4D00398487093
:1039D0002C200870491CDEE7012C00D80124019E30
:1039E000354602E02D1D641E06D028680028F9D057
:1039F000DF4949688847F5E7DD4841683046884730
:103A0000029807B0F0BDDA484168019888470398EA
:103A1000059F78705D203870029833E02068D449A3
:103A2000496845E000269E603968002902D030468A
:103A300007B0F0BD19680029029823D05A681F46C4
:103A4000B31C934220DD701C4110014388100843D1
:103A50000111014308120843011401434D1CC44CD9
:103A6000216828468847002818D0064606CF083F18
:103A7000FCF774FB6168386888473E607D60B86811
:103A8000301802E007B0F0BD8819009A002141709B
:103A90005D2101703868801807B0F0BD3868616832
:103AA000884700203860786007B0F0BD20686968FA
:103AB000884700202060606007B0F0BD180000203B
:103AC000F0B583B00D4607468469C66900222046DA
:103AD000314602921346FCF701FD002832D0002D3A
:103AE00000D183E02C462868002800D1B6E0626847
:103AF000A1688B1C9342029F00DCB3E0481C41107C
:103B000001438810084301110143081208430114BE
:103B100001434D1C9648016828468847002800D17B
:103B2000BDE0064606CC083CFCF718FB904841680F
:103B30002068884726606560A0683018002800D09B
:103B400093E0E4E001977869FCF7E0FC2246334615
:103B5000FCF7F6FB0122D20791430022804B029230
:103B6000FCF7A6FC002849D17E4A7F4B204631460F
:103B7000FCF79EFC002841D100277C4B20463146B3
:103B80003A46FCF769FC002838D1002D75D0296829
:103B9000002900D1BBE06A68A86803461533934248
:103BA00000DC86E014304110014388100843011105
:103BB000014308120843011401434C1C6C4801687E
:103BC00020468847002800D1B6E0064606CD083DCD
:103BD000FCF7C4FA66484168286888472E606C6024
:103BE000A86834180198002C67D190E060480168FB
:103BF00002208847029F002837D188E00194002DD9
:103C000044D028462968002928D0426880680346A5
:103C1000403393425ADD3F3041100143881008433E
:103C20000111014308120843011401434C1C504880
:103C300001682046884700287ED0074606CD083D0B
:103C4000FCF78CFA4A484168286888472F606C6006
:103C5000A8683C18029F002C3CD158E0029F3846CF
:103C600003B0F0BD4018002851D000214170302130
:103C700001700746384603B0F0BD3D480168152085
:103C8000884704460198002C17D140E03848016865
:103C9000402088470446029F002C1BD137E0206853
:103CA000334949688847002727606760384603B072
:103CB000F0BD0C180198002C29D0426937A120468C
:103CC00000F012FE2746384603B0F0BD0C18029FE4
:103CD000002C1CD0019837460646394601F038FBC7
:103CE00032463B46FCF72CFB224D294000221C4B60
:103CF000FCF7DEFB3D4000280CD11F4A1F4B30462D
:103D00002946FCF7BFFB002804D122A11FE038465A
:103D100003B0F0BD1A4A1B4B30462946FCF79CFB0A
:103D2000002813D10022184B30462946FCF77EFBB1
:103D300000280BD015A10AE028680D49496888477A
:103D400000272F606F60384603B0F0BD10A12046F9
:103D500032463B4600F0C8FD2746384603B0F0BD6A
:103D60000000B03C0000C0FFFFFFDF410000E0C1E9
:103D700018000020FFFFFF7F44F3C2E4E4E9634C36
:103D80008DEDB5A0F7C6B03E65CDCD4125660000EE
:103D900025650000252E3066000000002564000027
:103DA000F0B58BB01E460A920C4605460835002732
:103DB0002846006800280ED0006800280AD0006855
:103DC000002815D03F1D00680028F2D17F1E002F6B
:103DD00003D110E07F1C002F0DD0002E17D00A98C1
:103DE000002838D0022009903068002839D1B0E18D
:103DF000BF1C002FF1D1002E5CD03068002800D10C
:103E0000A7E10A99002900D176E1211D75E102940C
:103E1000F3480168BC002046884700260890002827
:103E200058D00196EE48016820468847002800D106
:103E3000AFE1064608982146FCF7A9F9304621462D
:103E4000FCF7A5F90A98002800D1B5E1029C2046AC
:103E500008300390B3E1012009903068002800D1B8
:103E600077E17268B768099979184B1C93420294FC
:103E7000049725DD481008438110014308110843C9
:103E80000112014308140843441CD5480168204628
:103E90008847002800D1D2E1074606CE083EFCF74D
:103EA0005DF9CF4841683068884737607460B06812
:103EB000381806E00A98002800D14DE1201D4CE199
:103EC000C0197B2101700A99002906D00A2141708E
:103ED000801C03E030460BB0F0BD401C0021019176
:103EE0000170B06809994118B1602C68002C00D1AC
:103EF000E2E00298451C0A9A501E82410592B84F92
:103F0000089508E000210170B0688118B16024684C
:103F1000002C00D1D0E00A980028079438D03068EF
:103F2000002800D100E24A1973689A4225DD029800
:103F30000818411001438810084301110143081279
:103F40000843011401434D1C3968284688473C4604
:103F5000002800D140E1074606CE083EFCF7FEF8F7
:103F600061683068884737607560B1687818079C69
:103F7000089D029A002A04D508E04018029A002AF7
:103F800004D409222946FCF7FBF8B1684819B0604F
:103F9000206A314600F054FA3568002D00D107E15F
:103FA000B768E819FCF7FEF8C019B0600999411824
:103FB0007268914220DD481E411001438810084379
:103FC0000111014308120843011401434D1C844CA4
:103FD000216828468847002800D1FDE0074606CE24
:103FE000083EFCF7BBF86168306888473760756049
:103FF000B0683818079C00E02818089A3A21017028
:104000000A99002901D009214170B0680999401826
:10401000B060204611460A9A334600F043FB3568EB
:10402000002D00D1C4E0B768E819FCF7BBF8C0194F
:10403000B0602168002901D1059A01E0059A521C5F
:1040400006921218531C7768BB4224DD50101043AF
:104050008110014308110843011201430814084369
:10406000451CF64C216828468847002800D1B3E05B
:10407000074606CE083EFCF771F86168306888474D
:1040800037607560B0683818079C21680029089D62
:10409000069A05D107E028180029089D069A02D043
:1040A0002C210170401C0A990029E44F00D129E716
:1040B0000A210170401C25E73468002C019800D1CA
:1040C000B1E10A9A002A00D18CE0029FBA1C8A183A
:1040D00073689A4200DD8CE06418049D0A980028F9
:1040E00000D1AAE0012F00DA9FE1092220463946DB
:1040F000FCF746F8E41999E103217368B268511896
:10410000994223DD0294481E411001438810084360
:104110000111014308120843011401434C1CC74F0D
:10412000396820468847002800D1F5E0054606CECC
:10413000083EFCF713F8796830688847356074608A
:10414000B0682918029C00290DD102E081180029CD
:1041500009D100200BB0F0BD0320B8490968884799
:1041600001460029F5D07B2008700A9800280DD060
:104170000A204870881C022C12DB0D46611E0922A1
:10418000FBF7FEFF2A466019401C0AE00A46481C5D
:1041900007E0AA4841680898884701980BB0F0BD2D
:1041A0000A46002141707D21017010460BB0F0BD20
:1041B0000020B0600BB0F0BD07200390029C601C93
:1041C00004902B68002B079604D00A9800283AD058
:1041D000601D39E0994D72E0306861689EE0C0462C
:1041E000180000200222029F8A1873689A4200DC9D
:1041F00072E7501E4110014388100843011101432A
:1042000008120843011401434C1C8C4801682046E5
:104210008847002813D0054606CE083EFBF79EFFD0
:10422000864841683068884735607460B0682C18EB
:10423000049D0A98002800D054E72F46F6E0306825
:104240007E4949686AE00220009000200190089AA7
:10425000304608E00191079E05982B46121D001D6F
:104260002B68002B26D009920546186A002106917A
:104270001C4600F0E5F806460595286025462046D0
:1042800004990A9A069B00F00DFA099A1060012120
:104290000696002EDED00028DCD00399009A541830
:1042A000FBF780FF24180698FBF77CFF099A20187B
:1042B0000390D0E701980028029CF74D0FD12968A0
:1042C0000398884700280AD001467B2008700A9886
:1042D000002801912BD00A204870881C28E0012F6B
:1042E00000D80127002402E0241D7F1E0BD0305986
:1042F000002801D069688847089800590028F3D041
:1043000069688847F0E769683046884769680898AF
:10431000884700200BB0F0BD3068796888470020DE
:10432000306070600BB0F0BD01980BB0F0BD481C60
:104330000025099005700121002C084600D428466C
:104340000A9A534253410393012F3A4600D80A4632
:104350000399014303917F1E0FE00024099214701A
:104360004859CD4E71688847089840597168884708
:104370002D1D7F1E069A521E3BD0059703980028DC
:10438000069202D00798099F08E00922099F384643
:10439000049C2146FBF7F4FE3F1907984459204638
:1043A000FBF700FF0646384621463246FBF7D6FEAD
:1043B0003A20B855B819441C0A98002802D00920A0
:1043C0002070641C059F089E71592046FBF7FBFE78
:1043D0007059FBF7E7FE2218002F02D02C20107036
:1043E000521C07990A980028B7D00A201070521C56
:1043F000B3E7A94D696807988847696808988847AE
:104400000A9800280AD0029D012D07DB0922099E87
:1044100030462946FBF7B4FE761900E0099E747019
:104420007D20307001980BB0F0BD00270020607037
:104430007D2020703068C0190BB0F0BD180000203E
:10444000F0B583B007460678002E33D000253246FB
:1044500038460CE013465C3B5C425C41223A5342D6
:10446000534123431D434278401C002A03D0202A95
:10447000F0D20123F6E7002D1CD0002E0197029107
:1044800060D07C1C0025009505E0601C2678002E7D
:1044900004463D4657D06F1C00D385E008227CA01F
:1044A0003146FBF786FE202E00D2AF1D0028ECD04F
:1044B000AF1CEAE7C41B00292FD00868002800D1F0
:1044C000D7E04B688D686219D21C9A4200DCC3E0C9
:1044D0000D46501E4110014388100843011101434D
:1044E0000812084301140143481C6B4909680090F5
:1044F0008847002800D1C0E0064606CD083DFBF7FE
:104500002DFE65484168286888472E6000986860DD
:10451000A8683618002E08D1A2E05F480168E01CA8
:1045200088470646002E00D19AE022253570701C7F
:104530003946FBF748FE0555001900214170304609
:1045400003B0F0BD0027029D002D31D0286800285F
:1045500000D18EE06B68A9687A18D21C9A4200DC00
:1045600082E0501E411001438810084301110143AD
:1045700008120843011401434E1C474801683046A5
:1045800088470028019F00D177E0044606CD083D0A
:10459000FBF7E4FD404841682868884750C5286813
:1045A0002618002E0DD164E0009F029D002DCDD174
:1045B00039480168F81C88470646019F002E00D143
:1045C00057E0222002903070751C387803E0687044
:1045D000AD1C671C6078010637D03C46C1B220296B
:1045E00003D3222901D05C291CD15C2028702278B9
:1045F000114608391A2918D87944097949008F4495
:104600000F0D1C161E201616161616161616161642
:104610001616161616161616161622007420D6E74B
:104620006220D4E728706D1CD3E75C2ACFD0681CC9
:104630001AA100F059F9AD1DCBE76E20C7E766203F
:10464000C5E77220C3E70298C1E7002068700298AE
:104650002870304603B0F0BD4619002E00D064E744
:104660000026304603B0F0BD4618019F002E00D052
:10467000A7E70026304603B0F0BD28680649496820
:10468000884700262E606E60304603B0F0BDC046FD
:10469000225C080C0A0D0900180000207525303432
:1046A00078000000F0B581B00025002800D1AAE014
:1046B0001C46C368DBB2002C34D0062B00D9A2E024
:1046C0007B441B795B009F44034B739AA1A4A60013
:1046D0002068002800D196E06268A1688B1D934293
:1046E00000DCD8E0481D4110014388100843011147
:1046F000014308120843011401434D1C6E4F3968F1
:1047000028468847002800D1BCE0064606CC083C75
:10471000FBF724FD79682068884726606560A068FB
:104720003518B9E0062B6ED89B0001A4E3589F46CC
:104730004D4700081B4800082D4800084B4800085A
:104740005948000869480008774800085A48016835
:1047500006208847002856D00446594906226EE0B4
:10476000206800284FD06268A1684B1D934200DC8E
:1047700095E0081D411001438810084301110143D1
:1047800008120843011401434D1C4B4F3968284659
:104790008847002876D0064606CC083CFBF7DEFCAE
:1047A00079682068884726606560A068351877E0DA
:1047B0002068002827D06268A1684B1D934271DDF4
:1047C000081D4110014388100843011101430812DC
:1047D0000843011401434D1C374F39682846884768
:1047E00000284FD0064606CC083CFBF7B7FC79689A
:1047F0002068884726606560A068351853E0214628
:10480000FFF75EF90546284601B0F0BD0069214674
:1048100024E0234629E023462EE0274801680520AE
:1048200088470028EFD00446244907E02248016861
:10483000052088470028E6D0044622490522FBF7D8
:104840008DFC2546284601B0F0BD0021FFF738F960
:104850000546284601B0F0BD00690021FFF7F0FDD4
:104860000546284601B0F0BD0023FEF71BFF0546B4
:10487000284601B0F0BD0023FFF792FA054628460E
:1048800001B0F0BD20687968884700252560656023
:10489000284601B0F0BD45180949062205E0451833
:1048A000064901E04518074905222846FBF756FC52
:1048B000284601B0F0BDC04618000020C25F0008C5
:1048C000BC5F0008C75F00080FB410B503A9044B14
:1048D000044A029800F09AF910BC08BC04B01847CA
:1048E000C12A0008000000200FB410B504A9074B2E
:1048F00002AA039800F08AF9044602A9002000F0F9
:1049000021FD204610BC08BC04B0184745530008E0
:104910002021020C01D010211046020A01D01046BD
:104920000839020901D01046091F820801D010463B
:10493000891E420801D0881E7047081A704700007F
:104940004900CA020243100000D004204A0D01D0E1
:1049500001221043044A490D914201D1022108432A
:10496000012800D105207047FF070000F8B5044674
:104970004F1EC8000838211815461E4608684968A9
:104980003A4606239A4310D02A463346FBF7E6FC04
:104990003A46D200083AA3181A687F1E5B68FBF7F4
:1049A0002BFC06223B469343EED1022F23D0042F4B
:1049B00011D0062F2FD12A463346FBF7CFFCE36AEE
:1049C000A26AFBF719FC2A463346FBF7C7FC636A69
:1049D000226AFBF711FC2A463346FBF7BFFCE3696A
:1049E000A269FBF709FC2A463346FBF7B7FC63696B
:1049F0002269FBF701FC2A463346FBF7AFFCE3686C
:104A0000A268FBF7F9FB2A463346FBF7A7FC63686D
:104A10002268FBF7F1FBF8BD002210B513461046E3
:104A20000149FBF75DFE10BD0000F03F10B5FBF73C
:104A3000E3FB10BD002210B5134610461146FBF7EC
:104A40004FFE10BD10B50721024A00200907FBF7F1
:104A5000BFFE10BD01030000034A10B5002011077E
:104A6000FBF7B6FE10BD000001FDFFFF02E008C825
:104A7000121F08C1002AFAD170477047002001E0D8
:104A800001C1121F002AFBD17047000001490860D4
:104A9000704700000C000020F0B51FB486B00998E4
:104AA000089A030D0021024314D05148514A1818A6
:104AB000504305141198012810981AD0281A401C48
:104AC00000264D4F4D49009601910490002812DABE
:104AD000444211E01198012449A3012801D1109802
:104AE000C1430698119A84600360C26041600BB0B4
:104AF000F0BD4042E4E70446210500203F4A001C87
:104B000051410391029012E0E00707D032463B4644
:104B100001990098FBF722FC0191009032463B4638
:104B200010461946FBF71AFC06460F466410002C87
:104B3000EAD10498039B0028029A0999089806DA9A
:104B4000FBF70CFC019B009AFBF708FC05E0FBF768
:104B5000C7FD019B009AFBF7C3FD04460E460022E9
:104B6000284BFBF76BFE03D80020C043014607E04B
:104B70000022254B20463146FBF73EFBFBF73EFE6D
:104B8000102409E0002C0ADB0A220023FBF7B0FA0C
:104B9000079B30321A55641E02460A43F2D1112295
:104BA000641C079B121B1C19119B012B03D00123B2
:104BB00008430ED10AE0084304D0112010900020D1
:104BC000119077E71098151A6D1E0BE0109882422D
:104BD00002DD00236D1C03E0824201DA00236D1E1A
:104BE000002BEED0069811998260C16030C07EE73C
:104BF00001FCFFFF104D0000000014400000F03FDA
:104C0000300000000000F0430000E03FFFB597B027
:104C10000646002518E2252877D100242746FD49BD
:104C2000049400E00443761C32780120203A90403E
:104C30000842F7D130782A280ED002223078014677
:104C40003039092916D804990A23594330394018B4
:104C50001443761C0490F1E7189802C80491189048
:104C6000002904DA01204003044348420490022052
:104C70000443761C30782E2814D104200443707825
:104C8000761C2A2809D11898761C80C8189009E04B
:104C90000A214F43303FC719761C3078014630391E
:104CA0000929F5D930786C2810D006DC4C281AD0A8
:104CB00068280ED06A2817D104E0742813D07A2807
:104CC00012D110E00120400504430CE00121090548
:104CD00001E0032109050C437178814203D10120D1
:104CE00000052418761C761C3078119066280BD0AD
:104CF00013DC58287DD009DC00287BD04528F6D06D
:104D00004628F4D047281AD1A5E118E0632835D009
:104D1000642870D0652812D19DE170286CD008DC21
:104D20006728F1D069287BD06E280DD06F2806D176
:104D3000BAE073282ED0752871D0782859D01A9AE5
:104D4000199990476D1C7EE16002400F022809D03E
:104D500003280DD00428189801680DD00D60001D9F
:104D6000189070E11898EA1701680D604A60F6E73C
:104D7000189801680D80F2E70D70F0E718986A4600
:104D800001781172001D18900020507202A8009046
:104D9000012005E0189802C8189000200091C04337
:104DA00061070DD5002101E00199491C0191B9422B
:104DB00012DA8142F8DB009A515C0029F4D10BE051
:104DC000002101E00199491C01918142FADB019A1D
:104DD0000099895C0029F5D1019904981A9B471A1A
:104DE00021463846199A00F097FA0199401945185A
:104DF0000BE04FE02CE113E04EE0009800990078C2
:104E0000491C00911A9A199990470198401E0190E7
:104E1000401CF2D1214638461A9B199A10E137E01E
:104E20000A200021009001916002410F022907D061
:104E3000189A01CA1892C2179446032908D00AE0AA
:104E40001898C01DC108C90005C91891944607E00B
:104E500000B2C2179446042902D140B2C1178C4651
:104E600000226146944506DA0A46002140429141FB
:104E70008C462D2102E0210504D52B216A461173B1
:104E8000012103E0E10701D02021F7E7029155E07D
:104E90000A200AE0102008E01020009000210420E1
:104EA00004430191082703E00820002101910090AC
:104EB0006002410F022907D0189A01CA18920022F5
:104EC0009446032908D008E01898C01DC108C900FD
:104ED00005C91891944603E080B2042900D1C0B2FC
:104EE00000210291210729D51199702906D0009A35
:104EF0001021019B4A401A4305D00EE040216A462A
:104F00001173012108E06146014306D030216A4651
:104F100011731199517302210291009A0821019B8A
:104F20004A401A430AD16146014301D1610705D5C0
:104F300030216A46117301217F1E0291119958296F
:104F400004D035A10E910DA90D910DE037A1F9E71F
:104F50006146019B009AFBF7CBF80E9B8C469B5C4D
:104F60000D9A521E0D92137061460143F0D10D98B7
:104F700005A9081A20300190600703D5012000041C
:104F8000844300E001270198874201DD381A00E0E0
:104F90000020019900904118029809180498401ABD
:104FA0000490E00306D421461A9B199A049800F055
:104FB000B3F94519002706E003A81A9AC05D1999AC
:104FC00090476D1C7F1C02988742F5DBE0030CD5EF
:104FD00021461A9B199A049800F09EF9451904E09D
:104FE0001A9A3020199990476D1C0099481E00901C
:104FF0000029F5DC08E00D980D990078491C0D9109
:105000001A9A199990476D1C0199481E0190002920
:10501000F1DC63E1092801003031323334353637B1
:1050200038396162636465660000000030313233F4
:105030003435363738394142434445460000000094
:1050400000F05AF94519761C3078002800D0E2E5C6
:1050500028461BB0F0BD600700D406271898C01D75
:10506000C108C90048680A680831C30FDB071891F6
:10507000190001D09CA108E0210501D59BA104E005
:10508000E10701D09AA100E09AA1430011985B08C2
:10509000109165280CD006DC452809D046281DD083
:1050A000472841D141E0662818D067283CD13CE030
:1050B0000021112F01DB112000E0781C01910090EC
:1050C00008A911A8FFF7E8FC139905910021119A8E
:1050D00015927F1C12980197009150E00120C007A3
:1050E00003900120019008A9009711A8FFF7D4FCB4
:1050F000139A149905920022119B0092129815930D
:10510000059A0192002901D0104602E0791C40184E
:105110000190381A01D5019804E04042401E0090E9
:10512000781C0190C01B029043E0012F00DA012798
:105130000021112F01DD112000E03846019100907F
:1051400008A911A8FFF7A8FC13990591119A00214D
:10515000129815920091019721070CD40599B94234
:1051600001DB019900E00191012904DD159A491E36
:10517000515C302906D0B84201DA011D05DA01215F
:10518000029115E00199491EEDE7002805DC009920
:10519000411800910199091A03E0019A411C9142BA
:1051A00000DD01910099401A401C02900120C007C7
:1051B0000390200706D402990198814202DB002067
:1051C000C043029000206946C87707AF01210398C9
:1051D0000337C907884224D0022011902B20129057
:1051E000039800280CDA404203902D20129007E02B
:1051F0000A210398FBF7C2F930317F1E0390397002
:105200001199481E11900029F2DC03980028EFD173
:10521000791E129808703078202108404530BF1E52
:10522000387006A8C01BC01D039010980078002895
:1052300000D00120019941180298C017091803985D
:1052400009180498401A401E0490E00306D4214631
:105250001A9B199A049800F05FF845191098007885
:10526000002803D01A9A199990476D1CE00324D5A1
:1052700021461A9B199A049800F04EF845191CE033
:105280000098002807DB00990598884203DD1598EF
:10529000405C199901E0199930201A9A90470098BA
:1052A0006D1C401C00900298401E0290002804D102
:1052B0001A9A2E20199990476D1C0199481E019049
:1052C0000029DDDC05E038781A9A7F1C199990478F
:1052D0006D1C0399481E03900029F4DC21461A9B9B
:1052E000199A0498ACE600002D0000002B00000085
:1052F0002000000000000000F8B5044600251E460E
:105300001746880404D405E039462020B0476D1CB8
:10531000641EF9D52846F8BDFFB50446002581B0C6
:105320001E46C80301D5302700E02027880404D595
:1053300005E038460399B0476D1C641EF9D5284630
:1053400005B0F0BD0A68531C0B6010707047000078
:10535000F8B54A002B4B520DD6182B4A0C46054681
:10536000142E2BDA002E12DA284BFAF745FF002212
:105370001346FBF763FA40D2002C02DB00242546DB
:105380003BE060004008284337D0214C14E0214F17
:105390000B46F7403B402B4331D01C4BFAF72CFF18
:1053A00000221346FBF74AFA27D2002C03DA012029
:1053B0000005F0400419BC4300251EE0332E1EDC1E
:1053C00033460027143BFF43DF40384217D00F4BD2
:1053D000FAF7BCFF00221346FBF730FA0DD2002C7F
:1053E0000ADA142E0CD03420811B01208840401989
:1053F000A84200D2641C0546BD4321462846F8BD9C
:10540000641CF9E701FCFFFF9C7500883CE4377ED3
:105410000000F0BFFFFF0F0010B5002823D0124B93
:105420000022001F196803E0814203D80A46496838
:105430000029F9D1002A0AD01368841A9C4204D1A9
:10544000006818181060104602E0506000E0186014
:10545000002907D002680B1A934203D10B68D218B7
:1054600002604968416010BD04000020F0B50B30B7
:10547000C108C900144F0026144A0FE003688B428C
:105480000BD38B4205D95C1A4318456830C3083BDF
:1054900000E04368136002C004E0021D10680028A9
:1054A000ECD13046002803D13868002801D0002014
:1054B000F0BD064A06481060064A121AD208D20009
:1054C00044C001203860D7E7080000200400002015
:1054D0000403002000130020F0B51FB494B08446EC
:1054E0000C460246179D169800904900680063001C
:1054F000490840080393002A01D0012600E0002655
:105500009E19FB4BF6185B109E422BD36E00009F3A
:105510000196002F00D00127F719F54EF54BBE1963
:105520009E421FD3009E0346F34F334309D03B46B0
:105530009C4201D1002A04D0039B002A05D00126F9
:1055400004E00020394619B0F0BD00269E19EB4B4F
:105550009E4207D8009F019E002F00D00127F61918
:105560009E4207D92B4660462146169AFFF75EFAFF
:1055700019B0F0BD0023002C29DAE14EB04226DA42
:10558000E04EB04201DB022321E0DB4EB0421EDBE5
:10559000DD4E070DBE19142E09DD3427BF1B009EFA
:1055A000FE400196BE40009FBE420BD00FE0009F20
:1055B000002F0CD11427BF1B0646FE400196BE40AB
:1055C000864204D1019BDE07F60F02239B1B0E4689
:1055D000164318D1002D16DA002C03D0022B01D06F
:1055E000012B06D00220FFF751FAFFF715FA19B088
:1055F000F0BD0220FFF74AFAFFF70EFA0122D207A8
:10560000514019B0F0BD009E002E61D1BC4EB04299
:1056100020D1BE48844201D1002A08D0B648814238
:1056200009DB002D10DB1698294619B0F0BD0020CB
:10563000B14919B0F0BD002D06DA01222946D20782
:105640001698514019B0F0BDB149794408684968CD
:1056500019B0F0BDA84FB84225D1002D1FDA00299E
:1056600004D0B14212D1002A09D018E0002A72D128
:10567000A349E20F0020D207114319B0F0BD00206A
:10568000E20F0146D207114319B0F0BDB14206DA6C
:10569000234600203946FBF723F819B0F0BD104629
:1056A000214619B0F0BDB14212DA0126B607B54263
:1056B00003D1234610461946EFE3964EB54207D173
:1056C000261E05DB1046314600F0F0FB19B0F0BD98
:1056D00067007F081646002A40D100290AD0884A70
:1056E000914229D1002C0EDD002D1CDB002011463B
:1056F00019B0F0BD022B16D0002C14D0012B12D102
:10570000002C14DB0FE0002C28DA002D09DB012B24
:1057100003D000207A4919B0F0BD00207E4919B0AD
:10572000F0BD012B03D00020014619B0F0BD0020D0
:105730000121C90719B0F0BD6F4A91420ED1002C6A
:1057400001DA002B17D0022B06D00020C043FAF755
:10575000DDFE19B0F0BD7AE20120F8E7E217521C35
:1057600094461A4307D000220692634C62465B1EA1
:105770001A4307D009E00120FFF788F9FFF75AF92B
:1057800019B0F0BD0022614C0692644A90427DDD62
:10579000634B644A98420ADD914202DC002D10DB23
:1057A00025E05548814202DB002D0ADC1FE09142D2
:1057B00002DA002D05DB1AE04F4B994223DD002D64
:1057C00015DD0220FFF762F9FFF73CF905460E46AA
:1057D00000224B4B21460698FAF7C0FD084671009F
:1057E0004908C00FC0070143284619B0F0BD022088
:1057F000FFF74CF9FFF730F949004908E20FD207EB
:10580000114319B0F0BD002230463946FAF798FD31
:10581000012205460E46D243FAF7DAFF424A434BCD
:10582000FAF794FD2A463346FAF798FD0022394BE1
:10583000FAF78CFD07462A46334601911046194671
:10584000FAF78CFD3A46019BFAF788FD07460320DC
:1058500007912A46334640073549FAF77FFD019103
:105860000890344A324B38460799FAF777FD0746D5
:105870000291314A314B28463146FAF76FFD3A46DC
:10588000029BFAF75DFD07460B4600E013E0024677
:10589000079101990898FAF7AFFC00250E462846B3
:1058A000019B089AFAF74CFD3A46079BFAF74EFD22
:1058B00002460B468DE1012500202D05A94207DA9D
:1058C000352230463946FAF783FF06463420C04376
:1058D0000A1512180C48084F101803900803000B03
:1058E000014639430491164988422BDC00202DE003
:1058F000FFFF1F00FFFF0F000000F03F0000E0FF70
:105900000000F07F0000404301FCFFFF0000F0BFFB
:10591000320900000000E03F0000F0FF0000E0411D
:105920000000F043FFFFEF3F555555555555D53F06
:105930004715F73FFE822B6544DF5DF80BAE543E02
:105940008E980300FE49884202DA01200F9007E09A
:1059500000200F900398401C03900498401B049073
:10596000049909910F98F749C00079440D900818DF
:105970004368026830460999FAF7E2FC0191F2495E
:10598000089079440D9808184368026830460999D0
:10599000FAF732FC02460B4600203946FAF7A0FE21
:1059A00007910A90019B089AFAF7D8FC1090E748F3
:1059B0000F4600257844006804990C904810012196
:1059C000490708430F99890440180121C904411867
:1059D0000491DF4979440D980818436802680499D6
:1059E0000C98FAF7ADFC3246099BFAF7AFFC2A4651
:1059F0003B46FAF7B3FC0991064628463946049B14
:105A00000C9AFAF7ABFC019B089AFAF79FFC324616
:105A1000099BFAF795FC079B0A9AFAF79FFC0F91EE
:105A2000109A00903B4610461946FAF797FC064636
:105A30000246C8480B46079106217844FEF796FFB8
:105A4000079B32460191049010461946FAF786FCEE
:105A5000019B049AFAF782FC019106463B462846D0
:105A60001946109AFAF7C8FB0F9B009AFAF776FCD2
:105A70003246019BFAF7C0FB2A463B46019108904B
:105A800010461946FAF76AFC02460B4607910A903F
:105A90000020B149FAF7B0FB019B089AFAF7ACFB7A
:105AA0000E462A46AC4B2846FAF74AFC079B0A9A50
:105AB000FAF746FC019B089AFAF748FC2A46099136
:105AC0001290334610463946FAF748FC0191089087
:105AD0003B46109A09991298FAF740FC074607913D
