:020000040800F2
:10000000180E0020D90000081D340008892E0008B1
:1000100000000000000000000000000000000000E0
:100020000000000000000000000000002134000873
:1000300000000000000000001F3400082334000806
:100040000901000809010008090100080901000868
:100050000901000809010008090100080901000858
:100060000901000809010008090100080901000848
:100070000901000809010008090100080901000838
:10008000090100080000000000000000090100084C
:10009000000000000901000809010008090100082A
:1000A000000000000901000809010008090100081A
:1000B000493E00080000000009010008090100088D
:1000C0000448854600F094FF00480047414E000870
:1000D000C046C046180E00200C4880F308880C4823
:1000E0000168090E0B4A914205D10B480B4901608A
:1000F0000B480C4901600C4880470C480047FEE75C
:10010000FEE7FEE7FEE7FEE7FEE70000180E002030
:10011000040000001F000000181002400100000051
:100120000000014000000000AF340008C1000008DA
:1001300030B50B46014600202022012409E00D467F
:10014000D5409D4205D31D469540491B2546954007
:1001500040191546521E002DF1DC30BDF0B51FB41C
:100160000646002082B005464024019100901BE025
:10017000019922460F46304600F020F8049A059B6C
:10018000801A994110D310461946224600F01BFDF3
:10019000361A8F410197224601200021009F00F06E
:1001A00012FD38184D4100902046641E0028DFDC07
:1001B000019B00982946324607B0F0BD10B5202AB1
:1001C00004DB0846203AD040002110BD0B46D34046
:1001D000D0402024A21A91400843194610BD014680
:1001E0004139192900D82030704703460B439B073B
:1001F00003D009E008C9121F08C0042AFAD203E09C
:100200000B780370401C491C521EF9D27047D2B2C1
:1002100001E00270401C491EFBD270470022F6E745
:1002200010B513460A4604461946FFF7F0FF20466C
:1002300010BD10B5002200E0521C835C8C5CA34210
:1002400001D1002BF8D1D8B2E1B2401A10BD30B5BF
:1002500005460020034600E05B1C934205D2EC5C9F
:10026000C85C201A01D1002CF6D130BDFFB508784A
:1002700089B01546FF2805D0491C2D2804D000223E
:10028000002407E000240BE00122F9E70A235C4385
:100290000419491C0878FF28F8D1002A00D06442CC
:1002A000002004902A7801462D2A01D02B2A0FD154
:1002B0006D1C2D2A02D00022049209E00122FBE7E6
:1002C00000260A2233466D1C00F040FC38187141AC
:1002D0002F78FF2FF4D10C9AA218069202460A43F7
:1002E00004D0FF23069A9133DA4205DA00210998F7
:1002F0000A4606C00DB0F0BD0024B74AB54D2646EB
:10030000079200F047FE029006980391002801DA58
:10031000474200E0074639050020AF4A001C514122
:100320000191009012E0F80707D022462B46304694
:10033000079900F0F7FA0646079122462B46104629
:10034000194600F0EFFA04460D467F10002FEAD15F
:100350000698019B0028009A0399029806DA00F09B
:10036000A1FD3246079B00F09DFD05E000F0DAFAA2
:100370003246079B00F0D6FA049A002A02D00122E6
:10038000D2075140099A03C2B4E7FFB591B00020EB
:1003900009900025ED432E209E685C681F46019061
:1003A000B9696D1C129888470090396A88470028FF
:1003B000F6D10098401C0AD00D20C0018443002EC5
:1003C00012DD00982B2809D02D280DD103E0002044
:1003D000C04315B0F0BD012080020443B9696D1C13
:1003E00012988847761E009003A9600501D52D203C
:1003F00000E02B206A461073491C0CA80F91029054
:100400000AE0B9696D1C12988847009001204002EB
:1004100004431398761E0560002E02DD00983028F4
:10042000EFD001990098884246D18020044308E02B
:100430000998401E09900120400204431399681C4A
:100440000860B9696D1C761E1298884700903028A4
:10045000EED031E00199884205D1200603D48020F6
:100460000443761E1EE0009803F088FE002826D084
:1004700001204002044307A90F980331761E8842E9
:100480000BD200980F99303808700F98401C0F90CD
:10049000200607D50998401E03E0200602D40998DB
:1004A000401C0990A00502D51399681C0860B96921
:1004B0006D1C129888470090002ECBDC59E0002E6E
:1004C00057DD0098652801D0452852D1A00550D5A8
:1004D000032000028443B9696D1C761E1298884778
:1004E0000090002E0CDD2B2804D02D2808D1FF20F1
:1004F00001300443B9696D1C12988847761E00903C
:10050000E00501D52D2100E02B2102980170029811
:10051000401C0290019025E00120400204430EA9F6
:1005200002980131761E88420ED200980299303826
:100530000006000E087003D10299019881420AD981
:100540000298401C029006E0E00501D5234801E036
:10055000224840420990B9696D1C12988847009062
:1005600013980560002E04DD009803F007FE0028B4
:10057000D2D1F969129888470F99FF200870029923
:1005800003AA087000200A900B900CA90AA8099BE6
:10059000FFF76CFEA00502D40120C04319E7242018
:1005A000044209D0E00713D138680B9A0A99031D59
:1005B0003B60006806C00BE00B990A9800F0AAFAAD
:1005C0000146E00704D13868021D3A600068016006
:1005D0002846FEE6000014400000F03FF1D8FFFF7F
:1005E00070B5064603F0A6FC046805460A22002101
:1005F000304600F07FFB2C6070BDF8B502464A40E3
:10060000D40F42004B0052085B089A4202D20246C5
:10061000084611464A0023D0C30D4A00DDB2120E2F
:10062000AD1A202D35DA49020126490AF6058A1944
:10063000002C00D0524220214F1B1146B9402A41C4
:100640001018C20D9A4221D0002C17D0012D08DCC1
:10065000DA05801AD20F8019D207DBB200F08AFBCC
:10066000F8BDDA05801A012340001B06C018801867
:100670005A428018CA0F1043490007E04908C207D0
:100680001143DA05801A80194008801800F06AFBCF
:10069000F8BD61000122511A001BF7E70122D207C1
:1006A0005140AAE70122D2075040A6E7024670B5A2
:1006B0004A40D30FDB0740002DD04A002AD0010E5C
:1006C000140E000212020919400A520A8418E501A8
:1006D00004465443000A120A2E045043A419421936
:1006E000200CC543AA18120C0125AD03521C521947
:1006F00012047F39240400D0521C104301D440005E
:10070000491EC2B20C06C0092018401C4008802AAD
:1007100002D003E0002070BD40084000002900DA4C
:100720000020184370BD70B502464A40D50F400006
:100730004A00ED0740085208002814D0002A12D0C1
:10074000C40DD30D41020120C0055202490A520ACC
:10075000E41A091812187D34914201D3641C00E098
:100760004900002C01DA002070BD0023914201D322
:10077000891A0343400849000028F7D100290AD00C
:10078000914202D10121C90705E0914201D2012124
:1007900001E00121C943E005C018401900F0E2FA68
:1007A00070BD420005D04200120E52428A4201DB67
:1007B00000207047C905081870470000F0B50746CB
:1007C0000846584087B0C00F049048000E465900B4
:1007D00040084908BC1A884105D2384631461E46B1
:1007E00017460B4602465800400810434DD0300DC6
:1007F000039040055900400D490D0590401A0290A4
:10080000402873DA18030121000B09050843019001
:1008100004980092002806D01146019A494200200F
:10082000904100910190029840210A1A0199009884
:1008300000F0C9F905460C466B4607CB00F0D3F92A
:10084000C0197141039A0E0D0023D71756401A465E
:100850007A40164344D0049A002A2DD0029A012AE5
:10086000039A15DC1205C01A914101263605001CB9
:100870007141D20F059ED2070093019202962A463B
:10088000234600F0BDFA07B0F0BD38463146FAE71E
:100890001605234A0F46B218C01AB74101210905AF
:1008A000001C4F4100187F41114618187941E20F92
:1008B00010436D19644113E0E2076D0815436408A5
:1008C000C2071443039A01261205C01A9141360546
:1008D000001C7141CE07400830434908C0185141FF
:1008E0002A46234600F07FFACDE7FFE7049801226D
:1008F0004000C117121A00238B4104983146C417D7
:10090000381AA141EEE730B40124E407634030BC5B
:1009100054E730B40124E407614030BC4EE70000E6
:100920000000E0FFF0B51FB488B00B9909980024CF
:1009300048400999C00F490049080991C0070B991F
:100940000090490049080B9109990898A646084368
:100950001CD00B990A98084318D00998012440002C
:10096000420D4800410D099824050003000B204367
:1009700009900B980003000B20430B9050181C4962
:100980004018002201901446104605E00020014660
:100990000DB0F0BD032801DA034600E003239C46B6
:1009A000C11A0AAE0AE05F0008ADED5B4F00F75BCD
:1009B0007D430027AA187C41491C5B1E6145F2DD7E
:1009C000410004AB5A522104120C0A43240C401C6F
:1009D0000828DFDB01980290009970460191009091
:1009E000059B049A0799069800F00AFAD0E70000E0
:1009F0000DFCFFFF10B500229623114600F0BAF956
:100A000010BD00000EB505490291002100910A4673
:100A10000B46019100F0F4F903B000BD330400006F
:100A2000C20F410040020123400ADB05D207090E34
:100A3000C0187F2901DA00207047962903DC96232D
:100A4000591AC84001E096398840002AF4D0404243
:100A50007047000070B5CD0F4A0009030123090B50
:100A60001B0519430B4BED070024520D9A4201DA86
:100A7000002070BD074B34339A4203DC9A1AFFF70B
:100A80009DFB02E00449511888402C43F1D04042BC
:100A900070BD0000FF030000CDFBFFFFC20FD207B7
:100AA000400040080BD0C10D0723DB01C9184002EC
:100AB0000905400A1143C20840071143704700204E
:100AC0000146704710B5002904DB0124E4074042C9
:100AD0008C412146002B04DB1C460123DB075242DC
:100AE000A3418B4200D1824210BD000010B5002905
:100AF00004DB0124E40740428C412146002B04DB47
:100B00001C460123DB075242A341994200D1904287
:100B100010BD0000CB0FDB07490010B549080246A5
:100B20000A4307D00A0D07240903E401090B121B2D
:100B3000002A01DC002010BDC900440F0C43C10095
:100B4000E018D205801800F00DF910BDF0B51FB403
:100B500086B000200090019002900698069980B21D
:100B600004900798090C0204001411430790002711
:100B7000089D099806913E463C4603900398A9B209
:100B80000204000C039004982D0C154348430021E7
:100B9000224600F018F8C719714110340E46402C57
:100BA000ECDB3846029A00F00EF8009A019B8018A0
:100BB0000090594102980191103002904028CCDBFE
:100BC00000980BB0F0BD10B5202A04DB0146203A96
:100BD0009140002010BD914020239C1A0346E34021
:100BE0001943904010BD10B5202A06DBCB170846EC
:100BF000203A1041C1170B4306E00B461341D04089
:100C00002024A21A91400843194610BD4268002AC8
:100C100008D001680B78491C002B03D0521E06C077
:100C2000184670470121C160881E70474268002A3B
:100C30000BD0C3680168002B07D183688B4204D0B6
:100C4000491E521C06C0002070470020C043704758
:100C50000FB400B589B00CA900910B990023CB60AB
:100C6000204B214A06930792042201921F4A0292C6
:100C70001F4A089202466B460020FFF786FB09B028
:100C800008BC04B0184770B586B006460020C043C3
:100C90000190002015460C460091029104903246C6
:100CA000694604A8FFF7D4FF024604982118002DD6
:100CB00005D0002801D0084600E0204628600498AE
:100CC00000280DD0002A02DD0098884208D0081BB9
:100CD0000190009432466946029404A8FFF7B8FFD9
:100CE00006B070BD0D0C00082D0C0008FFFFFF7F43
:100CF0001D100008F7B5009C0F4600262578641CDF
:100D0000002D05D000F086F90068405DC007F5D1E0
:100D10002B2D02D02D2D18D0641E39462046029A64
:100D200000F085F9002F04D03968A14201D1009963
:100D300039607105022400290BDA4042002803DDE6
:100D400003F0F8F80460A007FEBD0120800206430E
:100D5000E3E70028F8DA03F0EDF804600048FEBD90
:100D6000FFFFFF7F002904DA401C490001D1400841
:100D70004000704770B40024050C05D11024000415
:100D800002D1002921D01124050E01D1000208341E
:100D9000050F01D10001241D850F01D18000A41C85
:100DA000002801DB4000641C002908D020252E1BF0
:100DB0000D46F540A14000D001212943084301061A
:100DC0001B1B000ADB1D02D5002070BC7047DB0531
:100DD000181880180029F8DA401C4900F5D170BCB9
:100DE00040084000704710B5002B08DA0024401C72
:100DF000614192185B411A4301D14008400010BD87
:100E0000F0B51FB482B005460C0003D0084603F0CD
:100E100033F802E003F030F820300246009021461B
:100E20002846FFF7D0FE049B059A04460F46184358
:100E30001143084314D0184610431BD0009840219A
:100E40000A1A18460599FFF7B9F905460E46009AA1
:100E500005990498FFF7B7FE084305D0012004E088
:100E60002046394607B0F0BD0020C11705430E43A8
:100E70002C43374300990E986305401A7905E40A1C
:100E800000220C43FD0A0A3002D500200146E9E7A2
:100E90000105101969410C9C0D9D00196941FFF76E
:100EA000A2FFDFE7F0B50C465C4085B0E40FE40735
:100EB00003944C00002664085900944649080246F1
:100EC0000296224321D062460A431ED06200570D8B
:100ED0004A000E032303550D012402462C49240524
:100EE000781B1B0B360B40182343264361460090AA
:100EF0001C46501AB44103D30098401C009002E0F5
:100F0000921800985B41002803DA0020014605B0E2
:100F1000F0BD0020012109050746864611E0644620
:100F20001D46141BB54106D36546521BB34174469A
:100F300007430C43A646CD074008490828439218AA
:100F40005B4105460D43EAD11046184313D0604675
:100F5000194650407140084306D06046101AB3410C
:100F600006D20122002306E000220123DB0702E073
:100F70000122D2435310009874460105381C614188
:100F8000029C039D00196941FFF72DFFBFE7000098
:100F9000FD0300000EB5054A02920022009213469E
:100FA0000192FFF72DFF03B000BD000033040000E5
:100FB0004A0009030123090B1B0519430A4B10B50D
:100FC000520D9A4202DA0020014610BD064B34331E
:100FD0009A4203DC9A1AFFF7F1F810BD034BD218BE
:100FE000FFF7F1FD10BD0000FF030000CDFBFFFF88
:100FF000064C0125064E05E0E36807CC2B430C3C6C
:1010000098471034B442F7D3FFF75EF8685A0008E7
:10101000885A000800487047645A000810B5044612
:10102000FFF7F8FF0068005DC007C00F10BDF7B5FF
:1010300082B0029C00272078641C15460197302856
:1010400002D0002D15D015E020780127641C7828E7
:1010500004D0582802D0002D09D00BE0002D01D07B
:10106000102D07D1002710252078641C02E00825E8
:1010700000E00A250026009610E000990127694348
:101080000818020C294680B2714300908E1838046B
:10109000864201D3012001902078641C294600F08B
:1010A00019F80028E9DA0398002805D0002F01D0AC
:1010B000641E00E0029C04600198002806D002F043
:1010C00039FF02210160C81E05B0F0BD009930044F
:1010D0000843F9E73A2800D23038202302469A43E1
:1010E000412A01D310463738884201D30020C0433B
:1010F000704770B5044600688168490724D5816847
:1011000010264907002905DA8168890702D4816819
:101110003143816000F0E6FB054611E000F0E2FBA0
:10112000401B02280CD920688068400708D5A06BB6
:101130003043A063E06B01210843E063084670BDC3
:10114000206880684007E9D4002070BDF8B50446E7
:10115000006881688907890F01292CD10168C907B6
:1011600002D1C168090426D58168052211401025E5
:101170000126012913D1816802221143816021686F
:101180000320086000F0AEFB074610E000F0AAFB69
:10119000C01B02280BD920688068C00707D0A06B4D
:1011A0002843A063E06B3043E0630120F8BD206872
:1011B0008068C007EAD10020F8BD0000F8B50446F9
:1011C00000200090206881688907890F012905D1D6
:1011D0000168C90731D1C16809042ED48168184A51
:1011E00010261140012500291AD181682943816008
:1011F000154814490068FEF79BFF00E0401E009070
:101200000028FBD100F06EFB074611E000F06AFBFE
:10121000C01B02280CD920680068C043C00707D053
:10122000A06B3043A063E06B2843E0630120F8BD6E
:1012300020680068C043C007E8D10020F8BD000066
:101240001700008040420F002400002072B6FEE725
:10125000F8B50025044620340095227D012A3BD0B4
:101260000122227503689E68760776D43F4F4E6848
:10127000BE4254D09E6A0F78BA4016439E62012344
:10128000C26A1B079A421FD0012A1DD0022A1BD016
:10129000032A19D0042A17D0052A15D0062A13D0FC
:1012A000072A11D002688B6856697607760FB34219
:1012B0000AD05369DB08DB005361006842690B7A8E
:1012C0005B075B0F1A4342610868102806D011289B
:1012D00004D0122802D045E00220F8BD244A9368C9
:1012E000102809D011280AD001200006034393607A
:1012F0000868102806D035E00120C005F6E7012077
:101300008005F3E71C481B490068FEF711FF0A211E
:10131000484300E0401E00900028FBD122E0986A7C
:101320000E78B240904398620868102803D01128C4
:1013300001D0122816D10E498A68102807D011282A
:1013400008D00120000682438A600BE005E00120FE
:10135000C005F8E701208005F5E7816B20221143E5
:1013600081630125002020752846F8BD011000008A
:101370000027014040420F00240000200068006C5C
:1013800070470000F8B500260446002805D0A06B81
:1013900025462035002802D007E00120F8BD0020B6
:1013A000E0632875204600F0A9F8A06B1022C00663
:1013B000002870DB2068816849076CD4A16B130199
:1013C000994302231943A16381688907890F012981
:1013D00005D10168C9070FD1C16809040CD4C168DF
:1013E00018239943A3681943C160206801696368A1
:1013F00089008908194301612068C1683D4B194083
:10140000C160207E617E8003C9030843A17E4B0337
:101410001843A36A012B02D001231B0300E0002321
:101420001843E36818432369022B09D000231843AB
:101430002B79E57E5B0018430123012D02D00AE0E1
:101440000423F4E7002927D0A16B20252943A163B9
:10145000E16B1943E163E1690D46FF3DC23D02D0F6
:10146000256A294308432168CD680543CD600125DD
:10147000E16A2D07A94213D0012911D002290FD00A
:1014800003290DD004290BD0052909D0062907D03E
:10149000072905D010E028E0012109040843DAE714
:1014A00021684D69ED08ED004D6121684D69A78DFA
:1014B0007F077F0F3D434D612168C9680E4D29406C
:1014C000814207D10020E063A06B80088000401CAF
:1014D000A06308E0A06B022188431043A063E06B87
:1014E0001843E06301263046F8BDA06B1043A063AB
:1014F000F8E700001902FEFFE7FF3F8310B586B052
:10150000044614216846FEF789FE10492068884287
:1015100019D10F48826941150A43826182690A40E4
:101520000592426909020A434261406908400590F8
:1015300001200090032001900020029009206946BC
:10154000C00600F0FDF806B010BD00000024014008
:1015500000100240F8B504464069254620350E4685
:1015600008280BD02068C068C00709D0A06B2021D4
:101570000843A063002028750120F8BD082700E07B
:101580000C2700F0AFF9009015E0701C13D0002E6E
:1015900005D000F0A7F90099401AB0420BD9206895
:1015A0000068384207D1A06B04210843A0630020E3
:1015B00028750320F8BD206800683842E5D0A06B8C
:1015C000012149020843A0632068C16809058A0F08
:1015D0000C21002A1AD1A27E002A17D10268120714
:1015E00014D5826853070122002B08DB43688B4324
:1015F0004360A06B130298431043A06306E0A06B06
:1016000020231843A063E06B1043E063207E002892
:1016100001D1206801600020F8BD000070B50446CB
:10162000216800208968490721D425462035297D75
:1016300001291CD001212975617E012904D0204691
:10164000FFF7BCFD002811D1A16B0A4A1140FF220F
:1016500001321143A1630021E163297522681C2135
:10166000116021688A6804231A438A6070BD0220D1
:1016700070BD0000FEF1FFFF70B505460446203541
:10168000287D012807D001262E752046FFF731FD61
:10169000002802D00CE0022070BD2046FFF756FD66
:1016A000002805D1A16BFF22013291433143A16390
:1016B0000021297570BD30B5014620314B780022DC
:1016C000022B04D0042383630A70012030BD036819
:1016D0001C680E25AC431C6003681C686408640029
:1016E0001C600123056C1C46C06BAC4044604B7011
:1016F0000A70002030BD70B50024014620314A78C0
:10170000022A03D004218163012416E002681368D1
:101710000E25AB431360026813685B085B0013601F
:101720000122056C1346AB40C56B6B604A7000220A
:101730000A70416B002900D08847204670BD000028
:10174000F8B5002303240125B5E02E469E40B4469B
:1017500032407CD00E79B607B60F012E01D0022E92
:1017600017D186682746B6465E00B7400096764693
:10177000BE43B646CF68009EB74076463743876083
:1017800046686746BE430F79FF06FF0F9F40374309
:1017900047600E79F643B6070ED0C6682746B446B2
:1017A0005E00B646B7406646BE43B4468F6876468E
:1017B000B74066463743C7600E79B607B60F022EAC
:1017C00014D1DE08B60036180096366A5F07B446B4
:1017D000FE0E0F27B646B7406646BE43B4460F69B5
:1017E0007646B74066463743009E3762066827460E
:1017F000B4465E00B646B7406646BE430F79B4466F
:10180000BF07BF0F7646B7406646374307604E684E
:10181000B603B60F4ED02B4FBE692E43BE61BE69D4
:101820009F08F607F60F284EBF00BE190096B6684F
:101830000F27B4469E07360FB646B7406646BE43EE
:101840000927FF06B446B84202D100270BE031E079
:101850001E4FB84201D1012705E01D4FB84201D10A
:10186000022700E005277646B74066463743009ECC
:10187000B760184E36684F689643FF0300D516438D
:10188000144F3E607E684F689643BF0300D51643F1
:10189000104F7E60BE684F689643FF0200D5164326
:1018A0000C4FBE60FE684F689643BF0200D51643DA
:1018B000084AD6605B1C0A681646DE4000D044E742
:1018C000F8BD000000100240000001400004004884
:1018D0000008004800040140002A01D081617047DF
:1018E000816270470148806870470000180000203E
:1018F00070B5024640325378202B1CD11378012B4F
:1019000019D00123137024245470046825689D4362
:101910002560046825681E03B543256004682568B2
:101920000D43256000680168194301602020507054
:101930000020107070BD022070BD70B502464032AC
:101940005378202B1BD11378012B18D0012414704D
:101950002423537003681D68A5431D6005682B6828
:101960000F263602B3430902194329600068016853
:1019700021430160202050700020107070BD0220B3
:1019800070BD000070B5040006D02546403568786B
:101990000026002802D005E0012070BD2E702046F0
:1019A00000F04AF82420687020680168490849005E
:1019B00001600F2160680906884321680861216879
:1019C0008A680120C00382438A60E1680129A16816
:1019D00008D021229202114322689160E168022915
:1019E00002D005E00143F7E701212268C9025160F6
:1019F00021684A680F4B1A434A602168CA688243CB
:101A0000CA60616920690843A16909020843216825
:101A1000C860216AE069084321680860206801689D
:101A20000122114301606664202068702663AE7055
:101A3000002070BD00800002F0B587B0044614217C
:101A40006846FEF7EBFB1949206888422BD1184CF9
:101A5000616901208005014361616169014005916F
:101A600061694011014361616169122501400220F1
:101A7000002603276A46E1C2012003C269460D48D9
:101A8000FFF75EFEA0146946E1C105200490694697
:101A9000A806FFF755FEE169012040050143E16119
:101AA000E1690140059107B0F0BD0000005400401D
:101AB000001002400014004802488168027889182A
:101AC000816070471800002010B506480168102298
:101AD00011430160002000F007F800F027F8002013
:101AE00010BD00000020024070B504460D4D7D2061
:101AF0002978C000FEF71CFB01460B480068FEF782
:101B000017FB00F0A3FB002809D1042C07D2002208
:101B10002146401E00F02AF800206C6070BD0120B4
:101B200070BD0000180000202400002008B50848FF
:101B30008169012211438161816911400091C2696B
:101B400001040A43C261C0690840009008BD00005A
:101B500000100240002805DBC106C90E01208840A4
:101B6000014908607047000000E100E010B502F094
:101B7000BFF910BDF8B5044600683E4DC00352D50C
:101B8000E8690026C00007D4E96928040143E96137
:101B9000E96901400126009137480168C90510D460
:101BA0000168821511430160FFF79CFE074604E0BF
:101BB000FFF798FEC01B642824D82F480068C00592
:101BC000F6D5286A03273F02384020D061683940A3
:101BD00081421CD0286A2A6AB843012109040A43B9
:101BE0002A622A6A8A432A622862C0070FD0FFF756
:101BF00079FE009008E0FFF775FE0099411A1F4832
:101C0000814201D90320F8BD286A8007F3D5286AEC
:101C10006168B84308432862002E04D0E9690120B6
:101C200000078143E9612078C00705D0286BA168CF
:101C300080088000084328632078800605D5286B3B
:101C400010218843E168084328632068800305D594
:101C5000286B8021884361690843286320884005F8
:101C600005D5286B4021884321690843286300205B
:101C7000F8BD000000100240007000408813000012
:101C8000F8B50F4606005FD03D4D2868C007C00F6D
:101C9000B84209D2286840084000384328602868C4
:101CA000C007C00FB8424FD13068364C81070CD501
:101CB000400704D560680721090208436060606836
:101CC000F0218843B168084360603078C0072CD0A9
:101CD0007068012810D0022811D0032812D0216882
:101CE0008907002930DA6168890889000143616049
:101CF000FFF7F8FD009011E021688903F1E7216802
:101D00008901EEE7616BC903EBE7FFF7EBFD009993
:101D1000411A1D48814201D90320F8BD60680C2199
:101D20000840716889008842EFD12868C007C00F59
:101D3000B8420BD92868400840003843286028681A
:101D4000C007C00FB84201D00120F8BD307840076D
:101D500006D56068072109028843F168084360607E
:101D600000F028F86168094A0906090F515CC8406B
:101D7000074908600020FFF7B7FE0020F8BD00000B
:101D8000002002400010024088130000C8590008DB
:101D9000240000200448054900684968044A4905B0
:101DA000490F515CC84070472400002000100240D9
:101DB000D859000830B519A30FCB89B06C460FC4B1
:101DC0001AA30FCB0FC41D4A51680C200B460340C9
:101DD0001B48042B05D01B4D082B04D00C2B00D125
:101DE000284609B030BD8B021B0F6C46E45CD26AFA
:101DF00004AB1207120FC9039A5C890F022901D0A4
:101E0000032901D0002301E0002328460021FEF72A
:101E1000A5F9214602F047F8E3E7000002030405B4
:101E2000060708090A0B0C0D0E0F1010010203041F
:101E300005060708090A0B0C0D0E0F1000100240D2
:101E400000127A00006CDC02FEB5040070D020782D
:101E5000F94EFA4DC00748D068680007800F012886
:101E60001FD068680007800F022804D16868C0038B
:101E7000800F022815D06168012919D00120800443
:101E8000002901D0052917D02968B14329602968A4
:101E900081432960606800281BD0FFF723FD0746B7
:101EA00013E02868800320D560680028CED01CE0AD
:101EB000286830432860EDE7296801432960F7E787
:101EC000FFF710FDC01B642870D828688003F7D581
:101ED0000BE0FFF707FD074604E0FFF703FDC01B1B
:101EE0006428F1D828688003F7D4207880073FD58C
:101EF00068680007800F14D068680007800F022808
:101F000004D16868C003800F01280AD0E068002867
:101F100028681ED0012108432860FFF7E3FC07462C
:101F20000CE0286880070CD5E068012800D108E0A3
:101F300080E1FFF7D7FCC01B0228C5D828688007BE
:101F4000F7D52868F82188432169C900084328602B
:101F50000EE0400840002860FFF7C4FC074604E09C
:101F6000FFF7C0FCC01B0228AED828688007F7D452
:101F70002078000723D5E0690028686A0FD0012186
:101F800008436862FFF7AEFC074604E0FFF7AAFCCF
:101F9000C01B022898D8686A8007F7D50FE0400870
:101FA00040006862FFF79EFC074605E0C3E0FFF7CC
:101FB00099FCC01B022887D8686A8007F7D420786C
:101FC00004274007002861DA00200190E869C0007A
:101FD00008D4E969B8060143E961E96901400120D3
:101FE0000091019096480168C90511D401688215D5
:101FF00011430160FFF776FC009005E0FFF772FCEB
:102000000099401A642898D88D480068C005F5D515
:10201000A06801280AD0002801D0052811D0286A1C
:10202000400840002862286AB84302E0286A01217B
:1020300008432862A068002812D0FFF753FC0090E4
:102040000AE0286A38432862F0E7FFF74BFC009962
:10205000411A7C4881426ED8286A8007F5D50DE088
:10206000FFF740FC009006E0FFF73CFC0099411AA6
:10207000744881425FD8286A8007F5D40198002807
:1020800004D0E969012000078143E9612078C00696
:1020900035D5606901280CD0401D686B24D03843C9
:1020A0006863686B400840006863FFF71BFC0746E5
:1020B00022E0686B38436863686B012108436863FA
:1020C000FFF710FC074604E0FFF70CFCC01B0228DA
:1020D00031D8686B8007F7D5686BF8218843A16910
:1020E000C900084368630AE0B8436863F4E7FFF790
:1020F000F9FBC01B02281ED8686B8007F7D4207834
:10210000800637D568680007800F032814D06868F8
:102110000007800F022804D16868C003800F0328DD
:102120000AD0206A0028686B16D030436863FFF736
:10213000D9FB06460CE062E0686BC0031AD5206A42
:10214000012877D116E0FFF7CDFB801B022856D877
:10215000686BC003F7D50DE0B0436863FFF7C2FBBF
:10216000064604E0FFF7BEFB801B022847D8686BD9
:10217000C003F7D4606A002866D069680907890F30
:10218000022942D0012636060228286805D0B0432D
:102190002860FFF7A7FB044633E0B0432860FFF751
:1021A000A1FB074604E0FFF79DFBC01B022826D8D1
:1021B00028688001F7D4E86A216B00090001084310
:1021C000E862A16AE06A084369687B22D20391430E
:1021D00008436860286830432860FFF783FB0446A3
:1021E00004E0FFF77FFB001B022808D82868800165
:1021F000F7D529E0FFF776FB001B022801D9032061
:10220000FEBD28688001F5D41EE00128F8D068687A
:10221000E96A0322D203A36A02409A420AD109075B
:10222000226B090F914205D10F2189040840E16A10
:10223000884209D00120FEBD0000010000100240CC
:1022400000700040881300000020F4E7094910B531
:10225000401E884201D9012010BD074C6061032156
:10226000081F01F045FE0020A0610720206100202A
:1022700010BD0000FFFFFF0000E000E030B50346A6
:1022800020331A7F012A26D001221A770325CA6833
:102290002D02AA438D6800242A430125AD02AA43DA
:1022A0004D6800682A430125ED02AA430D682A43C0
:1022B00001252D03AA430D692A4301256D03AA4375
:1022C0004D69C9692A430125AD03AA430A43426403
:1022D0001C77002030BD022030BD0000F0B5024662
:1022E0002032137F012B1ED001251577022353774F
:1022F00006687468B3687027BC430F68274377602B
:1023000000680A4CA04205D0AC07A04202D0084C9D
:10231000A04204D180244968A343194381605577C2
:1023200000201077F0BD0220F0BD0000002C01401D
:102330000004004070B504460222403405460029DE
:1023400008D004290BD008290ED06079012810D0BC
:10235000012070BDA0780128FAD1A2700AE0E078CF
:102360000128F5D1E27005E020790128F0D1227131
:1023700000E062710422286801F0E9F82868416CE5
:102380000122D203114341640A4A28680121904284
:1023900005D08A07904202D0074A904204D1826851
:1023A0005207520F062A02D002680A430260002038
:1023B00070BD0000002C01400004004070B5040016
:1023C00005D025462035687F002802D006E0012090
:1023D00070BD00202877204600F014F802206877AE
:1023E000211D206801F064F801204034A071A87715
:1023F000E87720706070A070E0702071607168777D
:10240000002070BD08B50F4A01680F48914205D100
:10241000C26981150A43C261C06906E00B4A914254
:1024200006D182690121490408E00840009008BDF6
:10243000074A9142FBD18269012189040A438261E2
:102440008069F2E700200040001002400044014093
:1024500000480140F8B5044600202646203600908A
:10246000307F0D4601280ED001203077002A0CD095
:10247000042A19D0082A2AD00C2A4ED00090002015
:1024800030770098F8BD0220F8BDEB6806CD083D16
:10249000206801F0AFF9206882690C218A438261CB
:1024A00020688169AA680FE0EB6806CD083D2068C6
:1024B00001F0D9F920688169032292029143816178
:1024C00020688169AA68120211438161D7E788CD2B
:1024D000287921688446086AFF2201329043086205
:1024E000C8690A6A800880003843F027B843674605
:1024F0003F073F0E07430520400282430A20034066
:1025000018021043CF6108622068C1690C22914310
:10251000C1612068C1692A682CE02B6820689E464A
:102520006F682B7B016ABC46012212039143016252
:10253000C169026A03273F02B94367463F020F435E
:102540000F2109038F431907090C052339435B0346
:102550009A4373460A273B401B031343C16103623E
:102560002068C269032189028A43C2612068C16967
:10257000AA6812021143C16181E770B5040005D059
:1025800025462035687F002802D006E0012070BD76
:1025900000202877204600F014F802206877211DDB
:1025A000206800F085FF01204034A071A877E8770B
:1025B00020706070A070E0702071607168770020FA
:1025C00070BD7047F0B587B0044614216846FDF72A
:1025D00025FE3B4B2668012209200024394952047C
:1025E0000225C0069E4207D14B6913434B614969DE
:1025F0001140059191110AE001239B079E4210D1E1
:102600004B6913434B614969114005912A2102949A
:1026100001950495039400916946FFF791F807B07E
:10262000F0BD294F3B13BE421CD14E6916434E618B
:102630004E69164005964A691A434A61496901265E
:1026400019400591C02100910294049601950394CC
:102650006946FFF775F803200294049601950394E8
:1026600000902AE0194FBE420DD14B6913434B61D4
:1026700049690294114005911021009104210195AE
:1026800003940491C8E71248864207D14869184369
:102690004861486918400590402009E00D4886428D
:1026A000BDD14869184348614869184005908020A9
:1026B0000294019504950394009069460648ACE79E
:1026C000002C0140001002400004004000200040A7
:1026D000004401400048014000040048F8B50646A7
:1026E00004462036307F00270D4601280ED00120F9
:1026F0003077002A0CD0042A1BD0082A2FD00C2AAD
:102700003ED00127002030773846F8BD0220F8BDC2
:10271000206800F035FF206881690822114381613B
:102720002068826904218A438261206881692A695C
:1027300012E0206800F060FF206882690121C90270
:102740000A4382612068816901229202914381617A
:10275000206881692A69120211438161D2E72068E9
:1027600000F084FF2068C16908221143C16120681C
:10277000C26904218A43C2612068C1692A6912E0E2
:10278000206800F0AFFF2068C1690122D202114326
:10279000C1612068C269012189028A43C26120683F
:1027A000C1692A6912021143C161ABE770B5040027
:1027B00005D025462035687F002802D006E001209C
:1027C00070BD00202877204600F014F802206877BA
:1027D000211D206800F06CFE01204034A071A87714
:1027E000E87720706070A070E07020716071687789
:1027F000002070BD10B586B0044614216846FDF770
:102800000DFD1B4B22681B4802219A421BD1836994
:10281000C2141343836183691340059343690A0417
:10282000134343614069019110400590C801009035
:10283000002002900390049109206946C006FEF72B
:102840007FFF06B010BD01239B079A4206D1C169E4
:1028500001221143C161C069104007E0064B9A4252
:10286000EFD1C2690A43C261C06908400590E8E738
:10287000002C0140001002400004004010B5044646
:102880000222203000290AD004290DD020464030F1
:1028900008290ED04378012B10D0012010BD837F72
:1028A000012BFAD182770AE0C37F012BF5D1C277E1
:1028B00005E00378012BF0D1027000E042700122A4
:1028C000206800F037FE114A2068904205D0104978
:1028D000884202D00F49884204D1416C0123DB03B6
:1028E0001943416420680121904205D08A07904233
:1028F00002D0094A904204D182685207520F062A38
:1029000002D002680A430260002010BD002C014082
:1029100000440140004801400004004070B50446F6
:1029200005462034207F01280ED00126267702207C
:102930006077284600F006FF01460020002905D0F8
:1029400066772077012070BD022070BD2968CA68B3
:1029500040239A43CA602968CA681B029A43CA6026
:1029600066772077002070BD704770477047000081
:10297000F8B502680446D06911689668A24B034016
:102980001D462023002D75D0F707A04DFF0FBC4634
:102990000D402F436DD02546C7078035002F06D048
:1029A000CF0504D5012717622A683A432A608207B7
:1029B00008D5F20706D0276802223A622A6804275F
:1029C0003A432A60420708D5F20706D02668042257
:1029D00032622A68022632432A6002070AD50A4672
:1029E0001A406646324305D02668082232622E68B5
:1029F00016432E60020508D54A0106D50122266835
:102A0000D20232622A681A432A602A68002A39D020
:102A1000800606D5880604D5616E002901D02046BF
:102A20008847286821688968490602D42821084215
:102A30002DD0204600F0D2FF21688868400622D5BC
:102A4000EFF31080012282F310888B6840229343B9
:102A50008B6080F31088206F002814D06C4941638C
:102A6000206FFEF748FE00280CD0206F416B08E075
:102A700000E012E0850610D58D060ED5616EA8E047
:102A800020468847F8BD2046FFF770FFF8BD204676
:102A9000FFF76CFF00202860F8BD256E012D7DD169
:102AA000C5067BD5CD0679D51026166222689068BA
:102AB000254640064035002845DA216F0868406801
:102AC0000004000CE8D02F8B8742E5D96883886921
:102AD000202833D0EFF31080012181F31088116892
:102AE0003701B943116080F31088EFF310800121A2
:102AF00081F3108821688A68520852008A6080F346
:102B00001088EFF31080012181F3108821688A6812
:102B10004027BA438A6080F31088E367002020666C
:102B2000EFF31080012181F3108821680A68B24315
:102B30000A6080F31088206FFEF7BDFD288B698B3B
:102B4000401A81B231E0288B698B401A81B2688BC0
:102B50000028A1D000299FD0EFF31080012585F334
:102B600010881568FF272137BD43156080F3108852
:102B7000EFF31080012282F31088226895686D08B7
:102B80006D00956080F31088E36700202066606622
:102B9000EFF31080012282F3108800E009E0226840
:102BA0001368B343136080F310882046FFF7DCFE00
:102BB000F8BDC50208D5750206D5012000051062D2
:102BC0002046FFF7D2FEF8BD050606D50D0604D552
:102BD000A16E002900D053E7F8BD4006FCD5480699
:102BE000FAD52046EFF31081012484F3108815688C
:102BF0004024A543156081F3108883670021816616
:102C000000F041F9F8BD00000F08000020010004A9
:102C1000C939000810B5040003D0A06F002802D005
:102C200007E0012010BD002174200155204600F06E
:102C300027F82420A067206801684908490001603E
:102C4000204600F0A3FF0128ECD0606A002802D0E3
:102C5000204600F022FE206841680922D2029143FA
:102C60004160206881682A22914381602068016860
:102C7000012211430160204600F074FE10BD0000E7
:102C800010B586B0044614216846FDF7C7FA164908
:102C90002068884225D11548C269012149040A43A8
:102CA000C261C2690A40059242690A4342614069B1
:102CB000084005900E4800900220019000200290EC
:102CC000032003900120049009206946C006FEF706
:102CD00037FD002211461C20FEF748FF1C20FEF79E
:102CE00039FF06B010BD0000004400400010024053
:102CF0000480000070B5C36F202B2BD100290BD0AE
:102D0000002A09D0012483682403A34206D1036961
:102D1000002B03D1CB0701D0012070BD03466033E7
:102D20001C7D012C16D001241C7500230366046849
:102D300063681B020BD5EFF31083012585F3108820
:102D400025680126B6063543256083F3108800F018
:102D5000B7FF70BD022070BD70B5054611488542B1
:102D60001FD1114C114A217860785054491C2170B0
:102D70000A2810D1FF2601360C4932468819FDF782
:102D800034FA31460948FDF749FA002020703146EF
:102D9000074801F017FF04490122491C2846FFF7A4
:102DA000A9FF70BD940500200000002094030020BE
:102DB00094040020FFB50446806F83B017460D468B
:102DC00020285ED1002D0AD0002F08D0A168C001B4
:102DD000814207D12069002804D1E80702D00120F0
:102DE00007B0F0BD204660300090007D012848D03B
:102DF0000098012101750020802108512120A06741
:102E0000FEF770FD2646403601903782778201201A
:102E1000A1680003814202D12069002805D02F4615
:102E2000002500990020087511E00027F9E700222D
:102E30008021204600F09EFF002815D1002F15D0DC
:102E40002168387808857F1C708A401E7082708ADD
:102E5000019B002806980090E9D1002240212046DD
:102E600000F088FF002808D00320B9E728882168EF
:102E7000C005C00D0885AD1CE6E72020A067002036
:102E8000AEE70220ACE77047FEE700003EB5002445
:102E90001649174800940194029412C00460042259
:102EA0004460C26001218160047444748174C474FC
:102EB000FF22C232846142610246183214710162FB
:102EC0000838FEF75FFA002801D0FEF7BFF90120AD
:102ED0000003019000040290009469460448FEF744
:102EE000B7F9002801D0FEF7B1F93EBD002401403A
:102EF0005801002010B586B014216846FDF78EF900
:102F000014484269012189050A43426142690A4025
:102F10000592426949110A43426142690A40059299
:102F2000426949000A43426140690B4C08400590E0
:102F3000002220212046FEF7CFFC20200090002117
:102F4000012002910391019069462046FEF7F8FBAB
:102F500006B010BD001002400004004810B5134830
:102F600011490160124941600021816001614161A4
:102F700081610122C161C2600162FEF703FD002888
:102F800001D0FEF763F900210848FEF7B1FC0028E4
:102F900001D0FEF75BF900210448FEF7CEFC0028C3
:102FA00001D0FEF753F910BD0054004098010020F5
:102FB0000E09002010B588B01C216846FDF72EF9D7
:102FC0001648154901600024154984604160144980
:102FD000046128318461C160FFF7F0F9002801D055
:102FE000FEF734F90D48FFF7E1FB002801D0FEF7AA
:102FF0002DF9602000900194029400226946049407
:103000000648FFF76BFB002801D0FEF71FF90348C5
:10301000FFF7D8FA08B010BD00200040BC02002025
:10302000BF03000010B590B01C2108A8FDF7F6F80A
:1030300020216846FDF7F2F821482049016000246C
:103040002049846041601F490461446128318461E2
:10305000C160FFF7B3F9002801D0FEF7F7F8184870
:10306000FFF7A4FB002801D0FEF7F0F860200D94D4
:10307000099408900A940B940C94002208A90E94C9
:103080000F48FFF72BFB002801D0FEF7DFF80120E7
:1030900000944003029405900194039404946946BB
:1030A00007940748FFF7EAF8002801D0FEF7CEF8AA
:1030B0000348FFF787FA10B010BD0000004401403C
:1030C00004030020BF03000010B590B01C2108A825
:1030D000FDF7A4F820216846FDF7A0F82148204913
:1030E000016000242049846041601F4904614461FB
:1030F00028318461C160FFF761F9002801D0FEF733
:10310000A5F81848FFF752FB002801D0FEF79EF8FB
:1031100060200D94099408900A940B940C9400225A
:1031200008A90E940F48FFF7D9FA002801D0FEF73E
:103130008DF80120009440030294059001940394BB
:103140000494694607940748FFF798F8002801D0CF
:10315000FEF77CF80348FFF735FA10B010BD000009
:10316000004801404C030020BF03000010B59AB096
:10317000142113A8FDF752F8002409940A94089426
:103180000B9418941C210CA81994FDF747F82021E2
:103190006846FDF743F83A48384901603949846088
:1031A000416038490461446128318461C160FFF79E
:1031B000FDFA002801D0FEF749F83148FFF7DDF9A4
:1031C000002801D0FEF742F80420139050201490FC
:1031D0001594169413A917942948FFF79FFB00280C
:1031E00001D0FEF733F80120099008940A940022D8
:1031F00008A90B942248FFF72DF9002801D0FEF70B
:1032000025F8022008900990042208A91C48FFF71D
:1032100021F9002801D0FEF719F8189418A91848C8
:103220001994FFF75BF8002801D0FEF70FF8602033
:1032300011940D940C900E9410940C220CA91294DD
:103240000F48FFF74BFA002801D0FDF7FFFF0120E0
:1032500000944003029405900194039404946946F9
:1032600007940748FFF70AF8002801D0FDF7EEFFA2
:103270000348FFF7A7F91AB010BD0000002C014069
:10328000E4010020BF03000010B58AB000240794B9
:103290001C2168460894FCF7C1FF01211F488907DB
:1032A00001601F49846041601D49046128318461C7
:1032B000C160FFF77BFA002801D0FDF7C7FF079434
:1032C00007A916480894FFF709F8002801D0FDF770
:1032D000BDFF60200090019402940022694604948E
:1032E0000E48FFF7FBF9002801D0FDF7AFFF0422DD
:1032F00069460A48FFF7F2F9002801D0FDF7A6FF5A
:103300000C2269460548FFF7E9F9002801D0FDF7CE
:103310009DFF0248FFF756F90AB010BD2C020020AD
:10332000BF03000010B58AB0002407941C21684632
:103330000894FCF773FF2548234901602449846001
:1033400041602349046128318461C160FFF72EFA8E
:10335000002801D0FDF77AFF079407A91B480894BD
:10336000FEF7BCFF002801D0FDF770FF6020009041
:10337000019402940022694604941448FFF7AEF9C0
:10338000002801D0FDF762FF042269460F48FFF7CD
:10339000A5F9002801D0FDF759FF082269460B481E
:1033A000FFF79CF9002801D0FDF750FF0C22694679
:1033B0000648FFF793F9002801D0FDF747FF0348BF
:1033C000FFF700F90AB010BD0004004074020020AD
:1033D000BF03000010B50F480D490160E12149020B
:1033E000416000218160C16001618161C1610C2285
:1033F000016242614162FFF70DFC002801D0FDF738
:1034000025FF012204490348FFF774FC10BD0000AA
:10341000004400409405002001000020FEE77047B2
:10342000704710B5FEF748FB10BD30B597B034219A
:103430006846FCF7F3FE00240D940E940F941821B7
:1034400011A81094FCF7EAFE3220009001200390AE
:10345000089005901020049006900320C0030A9065
:103460000720C0040B900F2002250C900995684698
:10347000FEF7EAFC002801D072B6FEE707200D90A7
:103480000F9401210E9510940DA8FEF7F9FB00286A
:1034900001D072B6FEE720201190149411A8FEF717
:1034A00069FB002801D072B6FEE717B030BD704747
:1034B000F0B502681A4B0124A4071A4D984203D0B4
:1034C000A04201D0A84203D17026B2434E683243D5
:1034D000154E164F98420AD0A04208D0A84206D0F6
:1034E000134CA04203D0B04201D0B84204D103240F
:1034F0002402A243CC6822438024A2434C69224385
:1035000002608A68C2620A688262984203D0B0424E
:1035100001D0B84201D10969016301214161F0BDC7
:10352000002C0140000400400044014000480140DC
:103530000020004010B5CB06DB0E0121046A994043
:103540008C430462016A9A401143016210BD10B5B8
:10355000CB06DB0E0421046A99408C430462016AA5
:103560009A401143016210BD30B58468FF252D02D9
:103570001B021343AC430B432343836030BD000065
:10358000F0B5026A520852000262056A4368826915
:103590007024A24392080C689200144302229543BF
:1035A0008A68134E2A43114DA84204D0B04202D07B
:1035B000104FB84206D10827BA43CF6817430422F8
:1035C00097433A46A84204D0B04202D0094DA842DF
:1035D00006D103252D02AB434D691D438B692B4357
:1035E00043608461496841630262F0BD002C014080
:1035F000004401400048014070B5026A10239A431C
:103600000262046A4368826973252D02AA430D6829
:103610002D021543202294438A6812012243104C44
:10362000A04208D11446CA688026B443120122433E
:103630004024A24305E00B4CA04202D00A4CA04219
:1036400008D10324A402A3434C69A4001C438B6942
:103650009B0023434360856149688163026270BDBA
:10366000002C0140004401400048014070B5026A4E
:10367000FF2301339A430262046A4368C2697025DA
:10368000AA4392080D689200154301225202944306
:103690008A6812022243104CA04207D1C414A243EC
:1036A000CC68240222430615B24305E00B4CA0422D
:1036B00002D00B4CA04208D103242403A3434C693D
:1036C00024011C438B691B0123434360C561496886
:1036D000C163026270BD0000002C01400044014043
:1036E0000048014030B5026A01231B039A4302627D
:1036F000056A4268C36973242402A3430C68240248
:103700001C4301235B039D438B681B032B430A4D22
:10371000A84205D0094DA84202D0094DA84205D1C2
:103720000125AD03AA434D69AD012A434260C4613E
:1037300049680164036230BD002C0140004401402F
:103740000048014070B505680024AA6870239A43B8
:103750004B681343DB080A68DB001A43AA604A6817
:1037600013071B0F31D11211130000F0B4FB082F07
:103770002F2F2F0C2228052E0B698A68C968006834
:10378000FFF7F2FE22E00A68052A10D00268136AE9
:10379000156A6D086D0015620568AA690969F02649
:1037A000B24309011143A961006803620EE00120E0
:1037B00070BD0A698968006800F00AF806E00A69C5
:1037C0008968006800F03CF800E00124204670BDE4
:1037D00030B5036A046A6408640004628469F025F1
:1037E000AC43120122430A24A3430B4382610362C8
:1037F00030BD000070B5046A640864000462846926
:10380000056A0D4EB04206D00126B607B04202D07E
:103810000A4EB04202D1A408A40000E001221443E1
:10382000F02294431A07120E0A2322439D431940A3
:1038300029438261016270BD002C014000040040F8
:1038400030B5036A1024A34303628469036A0F2519
:103850002D031203AC432243A024A34309011943BF
:103860008261016230BD70B5046A1025AC43046208
:103870008569046A03263602B54312022A430F25DE
:103880002D031B071B0CAA431343A02209019443D9
:10389000114021438361016270BD10B5818CC9075D
:1038A00007D001684A6801235B049A43836A1A437C
:1038B0004A60818C890707D501684A6801231B0487
:1038C0009A43C36A1A434A60818C490707D5016845
:1038D0004A6801239B049A43036B1A434A60818C14
:1038E000090707D501684A680123DB039A43436B44
:1038F0001A434A60818CC90607D502689168012382
:103900001B039943836B19439160818C890607D50A
:1039100001688A6801235B039A43C36B1A438A6078
:10392000818C490612D503685A6801210905046C87
:103930008A4322435A60026C8A4207D10268516866
:1039400003235B059943436C19435160818C09063D
:1039500007D501684A680123DB04806C9A4302435F
:103960004A6010BDF8B50446002680300660FDF7B9
:10397000B9FF054620680068124F000709D50121EC
:103980002B46002249052046009700F0F3F9002855
:103990000DD12068006840070BD501212B4600227D
:1039A00089052046009700F0E5F9002801D00320A2
:1039B000F8BD2020A067E0672666603426750020E9
:1039C000F8BD0000FFFFFF0110B5406A002201466C
:1039D00040314A834A82FEF7C9FF10BD10B5EFF3AC
:1039E0001081012282F3108802681368FF242134B9
:1039F000A343136081F31088EFF31081012282F357
:103A00001088026893685B085B00936081F31088FC
:103A1000016E01290BD1EFF31081012282F310888E
:103A2000026813681024A343136081F310882021D7
:103A3000C16700210166416610BD70B50146403185
:103A40008B8BC46F0268222C04D090690821084334
:103A5000906170BD928C446D1A402280426D921C20
:103A600042654A8B521E4A834A8B002AF1D1EFF3FA
:103A70001082012383F3108803681C68FF25213519
:103A8000AC431C6082F31088EFF31082012383F3B0
:103A9000108803689C68640864009C6082F3108846
:103AA0002022C26700224266036E012B02D0FFF77C
:103AB00053F970BD0266EFF31082012383F310887F
:103AC0000468256810239D43256082F310880268EE
:103AD000D469E443E40600D41362098BFEF744FF83
:103AE00070BD70B5014640318B8BC46F0268222CCB
:103AF00004D0906908210843906170BD928C1A40EF
:103B0000436D1A70426D521C42654A8B521E4A83A5
:103B10004A8B002AF1D1EFF31082012383F310883E
:103B200003681C68FF252135AC431C6082F31088B4
:103B3000EFF31082012383F3108803689C68640804
:103B400064009C6082F310882022C26700224266D3
:103B5000036E012B02D0FFF7FFF870BD0266EFF392
:103B60001082012383F310880468256810239D4385
:103B7000256082F310880268D469E443E40600D427
:103B80001362098BFEF7F0FE70BD000070B50446AD
:103B900080682169E2690843616900251143226850
:103BA00008431168404B194001431160216848687F
:103BB000032212039043E26810434860A169206A1F
:103BC000084321688A680B231B029A4302438A60D8
:103BD00036492068884210D13548006B8007800F35
:103BE0000ED0012805D0022805D003280AD10221D1
:103BF00009E0042107E0082105E02E49884201D1AF
:103C0000002100E010210120E369C0032A4A2B4E65
:103C1000834223D1002906D0022907D0042907D0E6
:103C2000082937D108E0FEF7B5F803E0104603E0B5
:103C3000FEF7C0F8002831D0616840004A088018BB
:103C4000FCF776FA80B201461039B14222D81B49FE
:103C5000491C01400007400F08431DE0002906D021
:103C6000022907D0042907D0082913D108E0FEF75C
:103C700091F803E0104603E0FEF79CF800280DD011
:103C800061684A081018FCF753FA80B201461039EF
:103C9000B14201D9012501E02168C86000206066B9
:103CA000A066284670BD0000F369FFEF00380140B0
:103CB000001002400044004000127A00EFFF0000B4
:103CC00070B54165014640310A834A83002242664D
:103CD000012384681B03FF259C4204D10469002C46
:103CE00013D1214C0AE07F26002C09D001252D0795
:103CF000AC420CD10469002C05D03F248C8307E032
:103D00000469002C01D08E8302E08D8300E08A8359
:103D100080210A502221C167EFF31081012484F32E
:103D200010880468A56801263543A56081F31088D2
:103D30008168994202D10169002912D00B4941667C
:103D400074210A54EFF31081012282F31088006875
:103D50000268FF2321331A43026081F31088002098
:103D600070BD0349EBE70000FF010000E33A0008E3
:103D70003B3A0008FFB581B005461746044660355A
:103D80000A9E55E0701C53D0FDF7ACFD0499401A13
:103D9000B04230D8002E2ED020680168490747D5A0
:103DA000C069C043000543D401202168C0020862F5
:103DB000EFF31080012181F3108821680B68FF2246
:103DC000A13293430B6080F31088EFF31080012140
:103DD00081F3108821688A68520852008A6080F353
:103DE00010882020A067E0678034206000202875BC
:103DF000032005B0F0BDEFF31080012181F310889E
:103E000021680B68FF22A13293430B6080F3108876
:103E1000EFF31080012181F3108821688A6852082D
:103E200052008A6080F310882020A067E067DDE7F9
:103E30002068C1690298884304D00020B842A1D00C
:103E40000020D6E70120F9E710B50248FEF790FD03
:103E500010BD0000940500200FB410B503A9044B59
:103E6000044A029800F092F910BC08BC04B018474C
:103E7000D54A0008280000202021020C01D0102182
:103E80001046020A01D010460839020901D0104636
:103E9000091F820801D01046891E420801D0881EE1
:103EA0007047081A7047F8B5040C8BB2264682B2E8
:103EB0005E430D0C1046370C584336048019002120
:103EC000794116466E43370C3604801979412646EF
:103ED0006E438919F8BD30B47446641E2578641C9D
:103EE000AB4200D21D46635D5B00E31830BC18474F
:103EF0008307FF22DB0E9A408907090E99400028AC
:103F000008DB830809489B001B1818689043084386
:103F1000186070470007000F0838830804489B00AA
:103F20001B18D86990430843D861704700E400E04B
:103F300000ED00E0004870473400002030B5002854
:103F400005D0164C021F20680023014605E00846F4
:103F500030BD904203D8034640680028F9D1002BB9
:103F600000D05968002B0AD01C68D51AA54204D18C
:103F70001268A4181A461C6002E05A6000E0226031
:103F8000002807D01468851AA54203D10568641972
:103F9000146040685060184630BD00002C000020BE
:103FA000F1B50E4C0F480C4E001B0D4FC508ED002F
:103FB00000221146009800F0DDFD002803D1306892
:103FC000002801D00020F8BD3C6000202560606022
:103FD00001203060ECE70000300000201C060020CB
:103FE0002C0000201808002002E008C8121F08C199
:103FF000002AFAD170477047002001E001C1121F6A
:10400000002AFBD170470000F0B51FB486B00998B4
:10401000089A030D0021024314D05148514A181840
:10402000504305141198012810981AD0281A401CE2
:1040300000264D4F4D49009601910490002812DA58
:10404000444211E01198012449A3012801D110989C
:10405000C1430698119A84600360C26041600BB04E
:10406000F0BD4042E4E70446210500203F4A001C21
:1040700051410391029012E0E00707D032463B46DF
:1040800001990098FCF74EFC0191009032463B46A6
:1040900010461946FCF746FC06460F466410002CF5
:1040A000EAD10498039B0028029A0999089806DA35
:1040B000FCF738FC019B009AFCF734FC05E0FCF7A8
:1040C000F1FE019B009AFCF7EDFE04460E4600222D
:1040D000284BFCF70BFD03D80020C043014607E046
:1040E0000022254B20463146FCF768FBFCF760FFB9
:1040F000102409E0002C0ADB0A220023FCF72EF82A
:10410000079B30321A55641E02460A43F2D111222F
:10411000641C079B121B1C19119B012B03D001234C
:1041200008430ED10AE0084304D01120109000206B
:10413000119077E71098151A6D1E0BE010988242C7
:1041400002DD00236D1C03E0824201DA00236D1EB4
:10415000002BEED0069811998260C16030C07EE7D6
:1041600001FCFFFF104D0000000014400000F03F74
:10417000300000000000F0430000E03F30380A2823
:1041800001D201207047002070470000FFB597B0B2
:10419000064600251BE2252876D100242746F7494C
:1041A000049400E00443761C32780120203A9040C9
:1041B0000842F7D130782A280ED002223078014602
:1041C0003039092916D804990A235943303940183F
:1041D0001443761C0490F1E7189802C804911890D3
:1041E000002904DA012040030443484204900220DD
:1041F0000443761C30782E2814D1042004437078B0
:10420000761C2A2809D11898761C80C8189009E0D5
:104210000A214F43303FC719761C307801463039A8
:104220000929F5D930786C2810D006DC4C281AD032
:1042300068280ED06A2817D104E0742813D07A2891
:1042400012D110E00120400504430CE001210905D2
:1042500001E0032109050C437178814203D101205B
:1042600000052418761C761C307866280BD013DCE9
:1042700058287DD009DC00287BD04528F6D0462878
:10428000F4D047281AD1A9E118E0632835D0642872
:1042900070D0652812D1A1E170286CD008DC6728A5
:1042A000F1D069287DD06E280DD06F2806D1BCE0F2
:1042B00073282ED0752873D0782859D01A9A199956
:1042C00090476D1C82E16002400F022809D003284C
:1042D0000DD00428189801680DD00D60001D1890AD
:1042E00074E11898EA1701680D604A60F6E71898BB
:1042F00001680D80F2E70D70F0E718986A460178C2
:104300001172001D18900020507202A80090012028
:1043100005E0189802C8189000200091C04361077A
:104320000ED5002101E00199491C0191B94213DA2F
:104330008142F8DB019A0099895C0029F3D10BE0F6
:10434000002101E00199491C01918142FADB019AA7
:104350000099895C0029F5D1019904981A9B471AA4
:1043600021463846199A00F099FA4019019903E05C
:1043700051E030E115E050E0451807E00098009961
:104380000078491C00911A9A199990470198401E8B
:104390000190401CF2D1214638461A9B199A12E12D
:1043A00037E00A200021009001916002410F0229AC
:1043B00007D0189A01CA1892C2179446032908D048
:1043C0000AE01898C01DC108C90005C91891944693
:1043D00007E000B2C2179446042902D140B2C117C7
:1043E0008C4600226146944506DA0A460021404286
:1043F00091418C462D2102E0210504D52B216A46EE
:104400001173012103E0E10701D02021F7E70291B8
:1044100056E00A200AE0102008E010200090002159
:10442000042004430191082703E0082000210191A2
:1044300000906002410F022907D0189A01CA189211
:1044400000229446032908D008E01898C01DC1082E
:10445000C90005C91891944603E080B2042900D12F
:10446000C0B20021029121072AD531780D9170291F
:1044700006D0009A1021019B4A401A4305D00EE055
:1044800040216A461173012108E06146014306D0CC
:1044900030216A4611730D99517302210291009ADD
:1044A0000821019B4A401A430AD16146014301D1C8
:1044B000610705D530216A46117301217F1E0291E3
:1044C0003178582904D02EA10E910DA90D910DE03F
:1044D00030A1F9E76146019B009AFBF73FFE0E9B76
:1044E0008C469B5C0D9A521E0D92137061460143DF
:1044F000F0D10D9805A9081A20300190600703D566
:1045000001200004844300E001270198874201DD77
:10451000381A00E00020019900904118029809180B
:104520000498401A0490E00306D421461A9B199A75
:10453000049800F0B3F94519002706E003A81A9A79
:10454000C05D199990476D1C7F1C02988742F5DB6E
:10455000E0030CD521461A9B199A049800F09EF9A5
:10456000451904E01A9A3020199990476D1C00995A
:10457000481E00900029F5DC1FE00000092801001A
:1045800030313233343536373839616263646566C9
:10459000000000003031323334353637383941428B
:1045A00043444546000000000D980D990078491CD1
:1045B0000D911A9A199990476D1C0199481E019006
:1045C0000029F1DC4DE100F059F94519761C3078ED
:1045D000002800D0DFE528461BB0F0BD600700D4FE
:1045E00006271898C01DC108C90048680A68083124
:1045F000C30FDB071891190001D09CA108E0210529
:1046000001D59BA104E0E10701D09AA100E09AA1A5
:104610004300109130785B0865280CD006DC4528F3
:1046200009D046281DD0472841D141E0662818D03E
:1046300067283CD13CE00021112F01DB112000E074
:10464000781C0191009008A911A8FFF7DDFC1399CF
:1046500005910021119A15927F1C129801970091E3
:1046600050E00120C00703900120019008A90097A5
:1046700011A8FFF7C9FC139A149905920022119B07
:10468000009212981593059A0192002901D01046C4
:1046900002E0791C40180190381A01D5019804E015
:1046A0004042401E0090781C0190C01B029043E0E5
:1046B000012F00DA01270021112F01DD112000E078
:1046C00038460191009008A911A8FFF79DFC1399A5
:1046D0000591119A002112981592009101972107D6
:1046E0000CD40599B94201DB019900E0019101293F
:1046F00004DD159A491E515C302906D0B84201DA12
:10470000011D05DA0121029115E00199491EEDE72D
:10471000002805DC0099411800910199091A03E06D
:10472000019A411C914200DD01910099401A401C00
:1047300002900120C0070390200706D40299019837
:10474000814202DB0020C043029000206946C87706
:1047500007AF012103980337C907884224D00220FC
:1047600011902B201290039800280CDA40420390FD
:104770002D20129007E00A210398FBF7D9FC303175
:104780007F1E039039701199481E11900029F2DCA8
:1047900003980028EFD1791E1298087030782021F4
:1047A00008404530BF1E387006A8C01BC01D0390CE
:1047B00010980078002800D0012001994118029833
:1047C000C0170918039809180498401A401E04904D
:1047D000E00306D421461A9B199A049800F05EF86B
:1047E000451910980078002803D01A9A1999904713
:1047F0006D1CE00324D521461A9B199A049800F0F9
:104800004DF845191CE00098002807DB0099059831
:10481000884203DD1598405C199901E01999302010
:104820001A9A904700986D1C401C00900298401EF8
:104830000290002804D11A9A2E20199990476D1CD5
:104840000199481E01900029DDDC05E038781A9AAC
:104850007F1C199990476D1C0399481E03900029ED
:10486000F4DC21461A9B199A0498ACE62D0000004E
:104870002B0000002000000000000000F8B50446F6
:1048800000251E461746880404D405E0394620203A
:10489000B0476D1C641EF9D52846F8BDFFB5044627
:1048A000002581B01E46C80301D5302700E020272F
:1048B000880404D505E038460399B0476D1C641E92
:1048C000F9D5284605B0F0BDFEB56C46089D2080A0
:1048D0006180A280E38025810C4F00243D466E4616
:1048E00078356000315A18206043C01900F031FF5C
:1048F000012C03D0641C042CF3DDFEBD6846418806
:10490000284600F026FF0224EBE7000038000020D4
:1049100010B5002807D00368002B04D042688168D6
:10492000914201D205E0002010BD491C81600028A1
:1049300004D0914202D25C5C202CF6D99142F3D192
:10494000491E816010BD000070B50446104E1CE089
:10495000A0892568C0050CD4A068002804D0FFF702
:10496000F3FFA089C00504D42069002801D0716834
:104970008847A089800504D4206A002801D0716886
:1049800088477168204688472C46002CE0D170BDCE
:104990000C00002010B5002200F0AAF810BD00287D
:1049A00003D0007B082801D0002070470120704709
:1049B000002803D0007B402801D000207047012050
:1049C0007047002803D0007B102801D000207047DA
:1049D0000120704710B5016828208847040002D0E4
:1049E0002821FBF71BFC204610BD10B500231A46FA
:1049F00000F002F810BD0000FFB589B00F46044674
:104A000016461C216846FBF709FC00252F48002CA0
:104A10000560456058D0002F3ED0083001970295C0
:104A2000009407C804AB07C328480830FFF7D2FF3B
:104A30000790002830D000986F46002802D00298D6
:104A4000002801D000270CE00198042809D903228E
:104A50001FA10098FBF7FBFB002802D10298C01CA5
:104A600002903846FFF754FF0146079800F080FD9A
:104A700000280ED00C98002814D06846FFF748FF95
:104A800002990198814204D202990098405C002862
:104A900008D00798FFF758FF0199029888420AD278
:104AA00005460BE0002E03D00299009840183060B4
:104AB00007980DB0F0BD081E00D0451E002E01D095
:104AC00060193060014830C00020F2E70400002087
:104AD000EFBBBF0013B5044B012269460348FEF744
:104AE00069F900981CBD0000FFFF0000940500203C
:104AF000F7B500283BD00199002938D08468002AF6
:104B000001D10CE02468002C31D0216A00292ED07C
:104B10000198FBF78EFB0028F4D123E02468002CD9
:104B200025D0019D266A002DF8D0002EF6D0B54282
:104B30001BD003E0002813D06D1C761C2878FBF7EF
:104B40004EFB07463078FBF74AFB87422878F1D0C6
:104B5000FBF745FB05463078FBF741FB8542DDD18D
:104B6000002C04D0206A002801D02046FEBD002081
:104B7000FEBD0000F8B50B30C608F600104D19E078
:104B80002068B04215D3B0420BD96368871B201D43
:104B90000093FBF72AFBA019009B07604360286085
:104BA00004E060682860201DFBF71FFB201D2660C5
:104BB000F8BD251D2C68002CE2D10020F8BD0000B6
:104BC0002C000020FEB5FFF710FF060001D0B468EE
:104BD000A9E071A0FFF740F90020FEBD72A1206A94
:104BE000FBF727FB00281ED071A1206AFBF721FBF1
:104BF000002839D070A1206AFBF71BFB002843D0A6
:104C00006FA1206AFBF715FB002846D06FA1206A30
:104C1000FBF70FFB002876D06DA1206AFBF709FB9C
:104C200000286FD07EE060A13046FFF7B3FEFFF7AB
:104C3000C8FE002876D069A12069FBF7FAFA00289F
:104C40000CD068A12069FBF7F4FA002808D067A10E
:104C50002069FBF7EEFA002804D063E065A04DE080
:104C600065A04BE065A049E051A10EE0E169A069B3
:104C7000FBF750FFFBF712FF256A02460B46294659
:104C80005FA0FFF7E9F84DE04BA13046FFF782FE49
:104C9000FFF785FE002845D0E8E749A13046FFF739
:104CA00079FE05003ED0FFF783FE00283AD056A0DB
:104CB000216AFFF7D1F855A0FFF7CEF8AD681AE0EA
:104CC000286AFBF78DFCC7B20B2F13D8287D009004
:104CD00018204F4978434018009900F03AFD3946B2
:104CE0004CA0009AFFF7B8F82868002802D04BA023
:104CF000FFF7B2F82D68002DE2D149A0FFF7ACF81C
:104D000010E000E017E000F0AFFC464900230091FE
:104D1000454A194600F0F0F9FBF782FE014643A030
:104D2000FFF79AF82468002C00D057E73046FFF7C9
:104D30000BFE0120FEBD3EA0FFF78EF8002502E02D
:104D4000022D00D1032518202946414330480F1871
:104D50007889FBF74FFE02903889FBF74BFE0190F4
:104D6000F88AFBF747FE2F4900910023029A019928
:104D700000F0C2F9FBF754FE01462EA0FFF76CF8D5
:104D8000681C052802DC2CA0FFF766F86D1C052DB9
:104D9000D6DD2AA0B2E70000696E76616C696420F6
:104DA0004A534F4E0A0000006D6F6465000000001A
:104DB0006D6F7665000000007475726E0000000073
:104DC00072635F736572766F000000006164630058
:104DD00072635F7265717565737400006E657374DC
:104DE000000000006772616200000000636F6C6C7D
:104DF00065637400410A0000420A0000430A000093
:104E000025733A25660A000025733A007B000000EE
:104E10003800002025643A25640000002C200000A2
:104E20007D0A00000000C842D7A3504025640A0054
:104E30005B000000256400002C0000005D0A0000FB
:104E4000D2B0FCF741FEFEF7F0FAFEF753F8FEF79A
:104E50001BFAFEF767FAFEF7ADF8FEF7E3F8FEF788
:104E600033F9FEF7B7FAFEF779F8FEF70FF8FEF719
:104E70007DF91822904903A8FBF7B7F906AB07CBD9
:104E80006B4607C303A80EC84BA800F04BFC1822C2
:104E90004BA98A48FBF7A9F987491822183109A8B4
:104EA000FBF7A3F90CAB07CB6B4607C309A80EC8E9
:104EB0004BA800F037FC814818224BA91830FBF7AB
:104EC00094F97D49182230310FA8FBF78EF912AB07
:104ED00007CB6B4607C30FA80EC84BA800F022FCF7
:104EE000764818224BA93030FBF77FF97249182217
:104EF000483115A8FBF779F918AB07CB6B4607C308
:104F000015A80EC84BA800F00DFC6C4818224BA940
:104F10004830FBF76AF96849182260311BA8FBF793
:104F200064F91EAB07CB6B4607C31BA80EC84BA882
:104F300000F0F8FB614818224BA96030FBF755F9E7
:104F40005D491822783121A8FBF74FF924AB07CB34
:104F50006B4607C321A80EC84BA800F0E3FB5748D7
:104F600018224BA97830FBF740F9534918229031A9
:104F700027A8FBF73AF92AAB07CB6B4607C327A84C
:104F80000EC84BA800F0CEFB4C4818224BA990301D
:104F9000FBF72BF948491822A8312DA8FBF725F972
:104FA00030AB07CB6B4607C32DA80EC84BA800F04B
:104FB000B9FB424818224BA9A830FBF716F93E4925
:104FC0001822C03133A8FBF710F936AB07CB6B467C
:104FD00007C333A80EC84BA800F0A4FB374818221B
:104FE0004BA9C030FBF701F933491822D83139A851
:104FF000FBF7FBF83CAB07CB6B4607C339A80EC8E1
:105000004BA800F08FFB2D4818224BA9D830FBF796
:10501000ECF829491822F0313FA8FBF7E6F842AB3B
:1050200007CB6B4607C33FA80EC84BA800F07AFB1E
:10503000224818224BA9F030FBF7D7F81822204954
:1050400045A8FBF7D2F848AB07CB6B4607C345A88A
:105050000EC84BA800F066FB18224BA91948FBF7B5
:10506000C4F81924FCF73EFC012507462E46FCF740
:1050700039FCC11BA800884209D8001D884206D906
:10508000A0B20346024601460090FFF71DFC3346DE
:105090002A4621460CA0FEF7DFFE70000419641EAC
:1050A0006D1C7D2C01D0192CE1D1FCF71BFC0746AF
:1050B000012046400546DAE7A858000838000020DD
:1050C000B05900084001002070776D5F636F756E06
:1050D000743D2025642C207469636B5F636F756E6B
:1050E000743D2025642C20636F756E745F7374614A
:1050F00074653D2025640A00FFB581B007460E4661
:1051000010460A9CFBF7CAFA054620460499FBF7AD
:10511000C5FA044631463846FBF7C0FA2146FBF78C
:10512000C5FA2946FBF7FFFA0499FBF766FA05B0C2
:10513000F0BDF8B507460C46C86800257D21C900BA
:105140002E46884262D2401CE0602168A068095C5B
:105150005B295BD1401CA0602046FFF7D9FB002CE7
:1051600009D06168A068884203D22268125C5D2A77
:1051700039D0884203D3A068401EA06046E0401E9C
:10518000A060204610300090FFF724FC002838D0A3
:10519000002D23D0306046600646A068401CA06009
:1051A0002046FFF7B5FB2146304600F0E1F9002824
:1051B00029D02046FFF7ACFB002C24D06168A06802
:1051C000884203D22168095C2C290AD06268904287
:1051D00019D22168085C5D2815D104E005462E46E9
:1051E000DBE70098D0E7E068401EE060002D00D0CB
:1051F0006E602020BD60F860A068401CA0600120A7
:10520000F8BD002D02D02846FFF79EFB0020F8BD18
:10521000034610B500200246995C0C46303C092C30
:1052200001D830380AE00C46413C052C01D837380B
:1052300004E00C46613C052C08D857380818032AAE
:1052400000D20001521C042AE6D310BD002010BD7C
:10525000F0B50546002693B00C462E203146109638
:105260001190002C3AD02068002837D0684626E0FC
:1052700023689A188A5C342A1BD00ADC17462B3F15
:105280003B00FEF728FE091621162E2116161616CB
:105290002100382A0DD006DC352A0AD0362A08D05B
:1052A000372A11D105E0392A03D0452A01D0652AD1
:1052B0000AD14254491C3F2906D2002C04D0A268CE
:1052C00067685318BB42D3D3465410A900F05CFA68
:1052D0000F46064610996846884204D1002013B054
:1052E000F0BD119AE5E7EF61114A124B304639469D
:1052F000AE61FBF7FBFB01D80F480DE000220F4B1E
:1053000030463946FBF7DEFB02D80120C00703E038
:1053100030463946FBF79EFB68610820E860109A2A
:10532000A1686846101A0818A0600120D7E700009D
:105330000000C0FFFFFFDF41FFFFFF7F0000E0C173
:10534000F8B507460C46C86800267D21C9003546D9
:1053500088427FD2401CE060002C7BD06168A0684E
:10536000884277D22168095C7B2973D1401CA060F8
:105370002046FFF7CDFA6168A068884203D2226810
:10538000125C7D2A53D0884202D3401EA06061E0A7
:10539000401EA060204610300090FFF71BFB002845
:1053A00053D0002E20D0286045600546A068401CE0
:1053B000A0602046FFF7ACFA2146284600F04CF8E2
:1053C000002844D02046FFF7A3FA2869286200206D
:1053D0002861002C3BD06168A068884237D22168E0
:1053E000095C3A2933D102E006463546DEE7401C27
:1053F000A0602046FFF78CFA2146284600F0B8F856
:10540000002824D02046FFF783FA6168A06888420C
:1054100003D22168095C2C2907D06268904216D219
:105420002168085C7D2812D101E00098B5E7E068AA
:10543000401EE060002E00D075604020BE60F86025
:10544000A068401CA0600120F8BD002E02D03046AC
:10545000FFF77AFA0020F8BDF3B58F68086881B0CD
:10546000C4190020009008680E46651CC15D641CCC
:10547000222976D10022716808E05C2B05D16346B1
:105480005B1C8B426DD2521C641C641C231A9C460C
:105490008B4202D22378222BEFD1231A8B4260D287
:1054A000217822295DD1C019201A801A3169401C47
:1054B0008847070055D000973DE029785C2905D042
:1054C00000980170401C6D1C009034E00221601BAC
:1054D000012841DB6878662814D008DC22281DD01A
:1054E0002F281BD05C2819D0622835D108E06E28FF
:1054F0000ED072280ED074280ED075282CD112E050
:10550000082200E00C2200980270401C009011E07C
:105510000A22F8E70D22F6E70922F4E7009A107054
:10552000521C009206E06A462146284600F04CF9DB
:10553000010011D06D18A542BFD30099002008705A
:1055400001981021C160019807613068201A401C41
:10555000B0600120FEBD04E0002F02D07169384622
:105560008847002D02D03068281AB0600020F1E78B
:1055700070B50C0005465FD0206800285CD0A1689B
:1055800063680A1D9A4206D84018042230A1FAF72F
:105590005EFE002830D0A0686268411D012691425D
:1055A00007D82168052208182BA1FAF750FE002819
:1055B00025D0A0686268011D914207D821680422A5
:1055C000081827A1FAF743FE00281CD0A1686068DC
:1055D000814203D22268525C222A1CD081421FD20F
:1055E0002268525C2D2A02D0303A092A18D8214666
:1055F0002846FFF72DFE70BD0420E86006E0EE604F
:10560000A068401D04E002206E61E860A068001DF3
:10561000A060012070BD21462846FFF71DFF70BD28
:10562000814203D22268525C5B2A07D0814203D2B6
:105630002068405C7B2806D0002070BD21462846AB
:10564000FFF777FD70BD21462846FFF779FE70BD54
:105650006E756C6C0000000066616C736500000084
:10566000747275650000000010B50E48FBF7D6FF98
:105670000A210C48FBF76EFF0A48FBF77FFE84B255
:105680000848FBF7F9FF2046FBF7BCF9064A074B31
:10569000FBF748F9FBF73EFA0B21C943FBF781F80A
:1056A00010BD000058010020CDCCCCCCCCCC0A40A1
:1056B000F3B583B005001AD02868019028468038D9
:1056C0000290C76F04983E1F864200D906462846BE
:1056D000FEF734FC04460091324629460498FFF751
:1056E00049FA0199002806D0016005B0F0BD049880
:1056F000FEF756FCF9E729600299002CCF670AD023
:1057000021686218291F8A4202D9291B091F2160BA
:1057100000996160E9E7024A00991160E5E700003D
:105720002C0000200FB410B504466846C07F0499D1
:105730000028039802D0FCF7FDFD01E0FDF79EF87C
:10574000182203A92046FAF750FD10BC08BC04B08B
:10575000184700B5034600890A46904201D902461F
:1057600003E05989914200D20A46997C012903D16C
:105770005989101A081A82B203CB083B00F012F8BC
:1057800002609A81DA8200BD00B50A4683B000212A
:105790000091019101466846FBF775FA019900985E
:1057A00003B000BD0068002905D0042905D00829F0
:1057B00005D00C2905D034307047383070473C3064
:1057C0007047403070470000F7B505460198002744
:1057D000401B1646062861DBA81CFFF719FD372180
:1057E00089020446411A2E48814257D91B21C90219
:1057F000611A81421DD8A81D01990C25091A062994
:105800004CDB01785C2949D14178752946D1801C4F
:10581000FFF7FEFC372189020122411A92029142D0
:105820003CD2A1058005090B800D014390010C18A5
:1058300000E00625802C01D2012012E00120C002E8
:10584000844202D20220C0270BE0012000048442DF
:1058500002D20320E02704E0124884421ED804202C
:10586000F027411E08E0224680231A43BF231A4036
:105870003368A4095A54491E0906090EF3D10128B8
:1058800003D931683C430C7003E061063268490E6D
:1058900011703168081830602846FEBD0020FEBD3A
:1058A000FF030000FFFF10002C0200200400000096
:1058B00019007D000000A6FF5A00000000004B0008
:1058C0002C0200200C00000019007D000000A6FF43
:1058D0005A00010000004B002C02002000000000D4
:1058E00019007D000000A6FF5A00000001004B00D7
:1058F000740200200000000019007D000000A6FFD7
:105900005A00000000004B00740200200400000058
:1059100019007D000000A6FF5A00000000004B00A7
:10592000BC0200200000000019007D000000A6FF5E
:105930005A00000000004B00740200200800000024
:1059400019007D000000A6FF5A00000000004B0077
:105950004C0300200000000019007D000000A6FF9D
:105960005A00000100004B0004030020000000006A
:1059700019007D000000A6FF5A00000100004B0046
:10598000740200200C00000019007D000000A6FF3A
:105990005A00000000004B00E4010020000000005D
:1059A00019007D000000A6FF5A00000000004B0017
:1059B000E40100200C00000019007D000000A6FF9B
:1059C0005A00000000004B00000000000000000032
:1059D0000102030406070809000000000102030495
:1059E00000404040404040404040414141414140F2
:1059F00040404040404040404040404040404040A7
:105A00004005020202020202020202020202020235
:105A1000022020202020202020202002020202023A
:105A20000202909090909090101010101010101092
:105A3000101010101010101010101010020202029E
:105A400002028888888888880808080808080808E2
:105A500008080808080808080808080802020202DE
:105A600040000000E1590008885A000800000020AA
:105A700038000000E83F0008C05A00083800002045
:105A8000E00D0000F83F00080000000000000000EA
:105A900000000000A13F00083D3F0008B15600088B
:105AA00001000000040000000000000000127A0065
:105AB00000000000000000000000000000000000E6
:04000005080000C12E
:00000001FF
