:020000040800F2
:1000000058080020D9000008C51D00086D19000817
:1000100000000000000000000000000000000000E0
:10002000000000000000000000000000C91D0008E2
:100030000000000000000000C71D0008CB1D0008E4
:100040000901000809010008090100080901000868
:100050000901000809010008090100080901000858
:100060000901000809010008090100086D020008E3
:100070000901000809010008090100080901000838
:10008000090100080000000000000000090100084C
:10009000000000000901000809010008090100082A
:1000A000000000000901000809010008090100081A
:1000B000F5250008000000000901000809010008FA
:1000C0000448854600F0C0F800480047AD27000806
:1000D000C046C046580800200C4880F308880C48E9
:1000E0000168090E0B4A914205D10B480B4901608A
:1000F0000B480C4901600C4880470C480047FEE75C
:10010000FEE7FEE7FEE7FEE7FEE7000058080020F6
:10011000040000001F000000181002400100000051
:100120000000014000000000331E0008C10000086C
:1001300030B50B46014600202022012409E00D467F
:10014000D5409D4205D31D469540491B2546954007
:1001500040191546521E002DF1DC30BDF0B51FB41C
:100160000646002082B005464024019100901BE025
:10017000019922460F46304600F020F8049A059B6C
:10018000801A994110D310461946224600F04BF8C8
:10019000361A8F410197224601200021009F00F06E
:1001A00042F838184D4100902046641E0028DFDCDC
:1001B000019B00982946324607B0F0BD10B5202AB1
:1001C00004DB0846203AD040002110BD0B46D34046
:1001D000D0402024A21A91400843194610BD03467E
:1001E0000B439B0703D009E008C9121F08C0042A6B
:1001F000FAD203E00B780370401C491C521EF9D25E
:100200007047D2B201E00270401C491EFBD2704719
:100210000022F6E710B513460A4604461946FFF7D2
:10022000F0FF204610BD10B5202A04DB0146203A1D
:100230009140002010BD914020239C1A0346E340CA
:100240001943904010BD0000064C0125064E05E004
:10025000E36807CC2B430C3C98471034B442F7D3E7
:10026000FFF732FF98280008B828000810B50248A8
:1002700000F0EEF910BD00009002002010B5044619
:100280000068054940181421FFF752FF80002064E0
:100290000248E06310BD0000F8FFFDBF000002400F
:1002A00030B5056C0124AC40C56B6C6004686360BC
:1002B0004368102B036803D099600068C26030BDAA
:1002C0009A600068C16030BD72B6FEE7F8B50025DF
:1002D000044620340095227D012A3BD0012222755C
:1002E00003689E68760776D43F4F4E68BE4254D06E
:1002F0009E6A0F78BA4016439E620123C26A1B07AA
:100300009A421FD0012A1DD0022A1BD0032A19D0DD
:10031000042A17D0052A15D0062A13D0072A11D08F
:1003200002688B6856697607760FB3420AD0536924
:10033000DB08DB005361006842690B7A5B075B0FE7
:100340001A4342610868102806D0112804D01228E8
:1003500002D045E00220F8BD244A9368102809D055
:1003600011280AD001200006034393600868102872
:1003700006D035E00120C005F6E701208005F3E74F
:100380001C481B490068FFF7D3FE0A21484300E0E0
:10039000401E00900028FBD122E0986A0E78B240FF
:1003A000904398620868102803D0112801D01228C1
:1003B00016D10E498A68102807D0112808D00120CC
:1003C000000682438A600BE005E00120C005F8E7E3
:1003D00001208005F5E7816B20221143816301250F
:1003E000002020752846F8BD0110000000270140BC
:1003F00040420F0014000020F8B5002604460028F3
:1004000005D0A06B25462035002802D007E001204A
:10041000F8BD0020E0632875204600F0A9F8A06B25
:100420001022C006002870DB2068816849076CD460
:10043000A16B1301994302231943A16381688907C2
:10044000890F012905D10168C9070FD1C1680904C5
:100450000CD4C16818239943A3681943C16020686C
:100460000169636889008908194301612068C168CE
:100470003D4B1940C160207E617E8003C903084363
:10048000A17E4B031843A36A012B02D001231B0357
:1004900000E000231843E36818432369022B09D0C6
:1004A000002318432B79E57E5B0018430123012DBF
:1004B00002D00AE00423F4E7002927D0A16B20250D
:1004C0002943A163E16B1943E163E1690D46FF3DF7
:1004D000C23D02D0256A294308432168CD680543FF
:1004E000CD600125E16A2D07A94213D0012911D061
:1004F00002290FD003290DD004290BD0052909D0DA
:10050000062907D0072905D010E028E001210904B9
:100510000843DAE721684D69ED08ED004D61216877
:100520004D69A78D7F077F0F3D434D612168C968E5
:100530000E4D2940814207D10020E063A06B800866
:100540008000401CA06308E0A06B02218843104398
:10055000A063E06B1843E06301263046F8BDA06B52
:100560001043A063F8E700001902FEFFE7FF3F8396
:1005700010B586B0044614216846FFF749FE1049BD
:100580002068884219D10F48826941150A43826167
:1005900082690A400592426909020A434261406940
:1005A0000840059020200090032001900020029038
:1005B00009206946C00600F0F9F806B010BD000039
:1005C000002401400010024030B5014620314B7834
:1005D0000022022B04D0042383630A70012030BD63
:1005E00003681C680E25AC431C6003681C68640823
:1005F00064001C600123056C1C46C06BAC40446069
:100600004B700A70002030BD70B5002401462031C7
:100610004A78022A03D004218163012416E002688B
:1006200013680E25AB431360026813685B085B0018
:1006300013600122056C1346AB40C56B6B604A70BA
:1006400000220A70416B002900D08847204670BD07
:10065000F0B4C16B0D6801680C680422066C134687
:10066000B3402B420DD063070BD50B689B0602D419
:100670000B6893430B60016C8A40C16B4A60C16A8E
:1006800019E00227B74002462F4001232032002FF5
:1006900015D0A70713D50C68A40604D40C680A2546
:1006A000AC430C605370036C02219940C36B5960DA
:1006B00000211170816A002916D0F0BC0847082774
:1006C000B7402F4210D024070ED50C680E25AC433E
:1006D0000C60046C1946A140C46B61608363537065
:1006E00000211170016BE6E7F0BC704770B50400A3
:1006F00021D0022120462030054641702268116831
:100700000E48A3680140606826691843E3683343D4
:10071000184363691843A3691843E36918430843FE
:1007200010602046FFF7AAFD0021A1630120687038
:100730002970084670BD012070BD00000FC0FFFF8A
:10074000F8B504468C46203001780025012909D0EF
:100750000126067041780027012905D0077002257F
:100760002846F8BD0220F8BD02214170A763206829
:10077000016849084900016061462046FFF790FD85
:10078000E06A00282068016802D00E22114306E0CA
:100790000A2211430160206801680422914301602C
:1007A0002068016831430160DAE70000F8B50023F2
:1007B00003240125B5E02E469E40B44632407CD04D
:1007C0000E79B607B60F012E01D0022E17D186681A
:1007D0002746B6465E00B74000967646BE43B6460C
:1007E000CF68009EB74076463743876046686746C5
:1007F000BE430F79FF06FF0F9F40374347600E79D6
:10080000F643B6070ED0C6682746B4465E00B64625
:10081000B7406646BE43B4468F687646B7406646E4
:100820003743C7600E79B607B60F022E14D1DE0823
:10083000B60036180096366A5F07B446FE0E0F27DC
:10084000B646B7406646BE43B4460F697646B740E3
:1008500066463743009E376206682746B4465E0008
:10086000B646B7406646BE430F79B446BF07BF0FD2
:100870007646B7406646374307604E68B603B60F04
:100880004ED02B4FBE692E43BE61BE699F08F6074E
:10089000F60F284EBF00BE190096B6680F27B44663
:1008A0009E07360FB646B7406646BE430927FF0689
:1008B000B446B84202D100270BE031E01E4FB842E7
:1008C00001D1012705E01D4FB84201D1022700E008
:1008D00005277646B74066463743009EB760184EF8
:1008E00036684F689643FF0300D51643144F3E60A9
:1008F0007E684F689643BF0300D51643104F7E6055
:10090000BE684F689643FF0200D516430C4FBE6089
:10091000FE684F689643BF0200D51643084AD6606A
:100920005B1C0A681646DE4000D044E7F8BD0000B4
:100930000010024000000140000400480008004888
:100940000004014001488068704700000800002052
:100950000248816802788918816070470800002089
:1009600010B506480168102211430160002000F014
:1009700007F800F027F8002010BD0000002002401A
:1009800070B504460D4D7D202978C000FFF7D0FBDF
:1009900001460B480068FFF7CBFB00F01DFB002869
:1009A00009D1042C07D200222146401E00F02AF86B
:1009B00000206C6070BD012070BD000008000020A8
:1009C0001400002008B508488169012211438161A3
:1009D000816911400091C26901040A43C261C06982
:1009E0000840009008BD000000100240002805DB10
:1009F000C106C90E01208840014908607047000007
:100A000000E100E010B501F029FE10BDF8B50F4679
:100A100006005FD03D4D2868C007C00FB84209D21C
:100A2000286840084000384328602868C007C00F85
:100A3000B8424FD13068364C81070CD5400704D5F9
:100A4000606807210902084360606068F0218843FC
:100A5000B168084360603078C0072CD07068012806
:100A600010D0022811D0032812D02168890700294C
:100A700030DA61688908890001436160FFF762FF2D
:100A8000009011E021688903F1E721688901EEE710
:100A9000616BC903EBE7FFF755FF0099411A1D4849
:100AA000814201D90320F8BD60680C2108407168BB
:100AB00089008842EFD12868C007C00FB8420BD91F
:100AC000286840084000384328602868C007C00FE5
:100AD000B84201D00120F8BD3078400706D56068E3
:100AE000072109028843F1680843606000F028F894
:100AF0006168094A0906090F515CC8400749086046
:100B00000020FFF73DFF0020F8BD0000002002405C
:100B10000010024088130000802800081400002004
:100B20000448054900684968044A4905490F515C71
:100B3000C8407047140000200010024090280008B0
:100B400030B519A30FCB89B06C460FC41AA30FCBD5
:100B50000FC41D4A51680C200B4603401B48042B50
:100B600005D01B4D082B04D00C2B00D1284609B012
:100B700030BD8B021B0F6C46E45CD26A04AB1207DB
:100B8000120FC9039A5C890F022901D0032901D0F1
:100B9000002301E0002328460021FFF7DFFA214669
:100BA00001F044FDE3E7000002030405060708091D
:100BB0000A0B0C0D0E0F10100102030405060708A6
:100BC000090A0B0C0D0E0F100010024000127A00E3
:100BD000006CDC02FEB5040070D02078F94EFA4DAE
:100BE000C00748D068680007800F01281FD06868D8
:100BF0000007800F022804D16868C003800F022814
:100C000015D06168012919D001208004002901D084
:100C1000052917D02968B1432960296881432960D3
:100C2000606800281BD0FFF78DFE074613E0286898
:100C3000800320D560680028CED01CE028683043AF
:100C40002860EDE7296801432960F7E7FFF77AFE9E
:100C5000C01B642870D828688003F7D50BE0FFF725
:100C600071FE074604E0FFF76DFEC01B6428F1D853
:100C700028688003F7D4207880073FD5686800078C
:100C8000800F14D068680007800F022804D16868BC
:100C9000C003800F01280AD0E068002828681ED011
:100CA000012108432860FFF74DFE07460CE0286845
:100CB00080070CD5E068012800D108E080E1FFF74B
:100CC00041FEC01B0228C5D828688007F7D52868D0
:100CD000F82188432169C900084328600EE04008D4
:100CE00040002860FFF72EFE074604E0FFF72AFECB
:100CF000C01B0228AED828688007F7D420780007E8
:100D000023D5E0690028686A0FD001210843686292
:100D1000FFF718FE074604E0FFF714FEC01B022889
:100D200098D8686A8007F7D50FE0400840006862ED
:100D3000FFF708FE074605E0C3E0FFF703FEC01B10
:100D4000022887D8686A8007F7D4207804274007EC
:100D5000002861DA00200190E869C00008D4E96940
:100D6000B8060143E961E969014001200091019061
:100D700096480168C90511D40168821511430160C4
:100D8000FFF7E0FD009005E0FFF7DCFD0099401A59
:100D9000642898D88D480068C005F5D5A06801285A
:100DA0000AD0002801D0052811D0286A4008400048
:100DB0002862286AB84302E0286A012108432862B1
:100DC000A068002812D0FFF7BDFD00900AE0286A55
:100DD00038432862F0E7FFF7B5FD0099411A7C48D7
:100DE00081426ED8286A8007F5D50DE0FFF7AAFD8D
:100DF000009006E0FFF7A6FD0099411A7448814271
:100E00005FD8286A8007F5D40198002804D0E969E2
:100E1000012000078143E9612078C00635D560696B
:100E200001280CD0401D686B24D038436863686B80
:100E3000400840006863FFF785FD074622E0686BC5
:100E400038436863686B012108436863FFF77AFDE4
:100E5000074604E0FFF776FDC01B022831D8686B17
:100E60008007F7D5686BF8218843A169C90008435A
:100E700068630AE0B8436863F4E7FFF763FDC01BEB
:100E800002281ED8686B8007F7D42078800637D5F3
:100E900068680007800F032814D068680007800F77
:100EA000022804D16868C003800F03280AD0206A92
:100EB0000028686B16D030436863FFF743FD064691
:100EC0000CE062E0686BC0031AD5206A012877D174
:100ED00016E0FFF737FD801B022856D8686BC00369
:100EE000F7D50DE0B0436863FFF72CFD064604E03C
:100EF000FFF728FD801B022847D8686BC003F7D492
:100F0000606A002866D069680907890F022942D003
:100F1000012636060228286805D0B0432860FFF76E
:100F200011FD044633E0B0432860FFF70BFD074690
:100F300004E0FFF707FDC01B022826D828688001BF
:100F4000F7D4E86A216B000900010843E862A16A4E
:100F5000E06A084369687B22D203914308436860D2
:100F6000286830432860FFF7EDFC044604E0FFF7F3
:100F7000E9FC001B022808D828688001F7D529E081
:100F8000FFF7E0FC001B022801D90320FEBD286802
:100F90008001F5D41EE00128F8D06868E96A0322D0
:100FA000D203A36A02409A420AD10907226B090FB1
:100FB000914205D10F2189040840E16A884209D095
:100FC0000120FEBD00000100001002400070004042
:100FD000881300000020F4E7094910B5401E88423C
:100FE00001D9012010BD074C60610321081F01F0E9
:100FF00035FB0020A06107202061002010BD00000B
:10100000FFFFFF0000E000E030B5034620331A7F09
:10101000012A26D001221A770325CA682D02AA4385
:101020008D6800242A430125AD02AA434D6800685B
:101030002A430125ED02AA430D682A4301252D0309
:10104000AA430D692A4301256D03AA434D69C96965
:101050002A430125AD03AA430A4342641C770020BA
:1010600030BD022030BD0000F0B502462032137FB3
:10107000012B1ED00125157702235377066874686B
:10108000B3687027BC430F682743776000680A4C39
:10109000A04205D0AC07A04202D0084CA04204D127
:1010A00080244968A3431943816055770020107755
:1010B000F0BD0220F0BD0000002C01400004004003
:1010C00070B5040005D025462035687F002802D081
:1010D00006E0012070BD00202877204600F014F8BB
:1010E00002206877211D206800F0A4FE0120403412
:1010F000A071A877E87720706070A070E070207110
:1011000060716877002070BD08B50F4A01680F480C
:10111000914205D1C26981150A43C261C06906E0E6
:101120000B4A914206D182690121490408E0084036
:10113000009008BD074A9142FBD1826901218904D0
:101140000A4382618069F2E70020004000100240FB
:101150000044014000480140F0B587B00446142126
:101160006846FFF755F83E4B266801220920002407
:101170003C4952040225C0069E4207D14B691343E5
:101180004B6149691140059191110AE001239B07C8
:101190009E4210D14B6913434B614969114005913F
:1011A0000B210294019504950394009156E0FFF7FA
:1011B000FDFA07B0F0BD2C4F3B13BE421CD14E6967
:1011C00016434E614E69164005964A691A434A61B4
:1011D0004969012619400591402100910294049625
:1011E000019503946946FFF7E1FA232002940496DF
:1011F0000195039400901EE01C4FBE420CD14B6938
:1012000013434B61496902941140059110210091EB
:1012100001950394042120E0154FBE420ED1486988
:10122000184348614869029418400590B01501952B
:1012300004950394009069460E48B8E70E4B9E4211
:10124000B7D14B6913434B61496902941140059131
:101250008021009101950394052104916946A6E738
:10126000002C01400010024000040040002000401B
:10127000004401400004004800480140F8B506461B
:1012800004462036307F00270D4601280ED001206D
:101290003077002A0CD0042A1BD0082A2FD00C2A21
:1012A0003ED00127002030773846F8BD0220F8BD37
:1012B000206800F001FE20688169082211438161E5
:1012C0002068826904218A438261206881692A69D1
:1012D00012E0206800F02CFE206882690121C9021A
:1012E0000A438261206881690122920291438161EF
:1012F000206881692A69120211438161D2E720685E
:1013000000F050FE2068C16908221143C1612068C5
:10131000C26904218A43C2612068C1692A6912E056
:10132000206800F07BFE2068C1690122D2021143CF
:10133000C1612068C269012189028A43C2612068B3
:10134000C1692A6912021143C161ABE770B504009B
:1013500005D025462035687F002802D006E0012010
:1013600070BD00202877204600F014F8022068772E
:10137000211D206800F05EFD01204034A071A87797
:10138000E87720706070A070E070207160716877FD
:10139000002070BD08B5104A01681048914205D17F
:1013A0008269C1140A438261806913E001229207B5
:1013B000914207D1C16901221143C161C069104046
:1013C000009008BD064A9142FBD1C26902210A433E
:1013D000C261C0690840F3E7002C014000100240E0
:1013E0000004004010B50446C06F202831D1002908
:1013F0000BD0002A09D00123A0681B03984206D114
:101400002069002803D1C80701D0012010BD234660
:101410006033187D01281CD00120187520662046F5
:1014200001F026F8010003D1206E012802D001212D
:10143000084610BD206810230362EFF310800122DC
:1014400082F31088226814681C43146080F31088AB
:10145000EEE7022010BD000070B50D4600681C4983
:10146000884233D11B4C8215A188618026461A48D8
:10147000B6884B198019934212D9511A8EB2164967
:1014800032468039FEF7ABFE002060801248AD1B6B
:10149000803881192A468030FEF7A1FEA58007E03A
:1014A0000D492A468039FEF79AFE60882818A080E8
:1014B0000949802280390846C838FFF793FF06485B
:1014C000C4380068016804229143016070BD0000C7
:1014D0000044004000000020540300207047704783
:1014E000F8B502680446D06911689668A24B0340BB
:1014F0001D462023002D75D0F707A04DFF0FBC46D9
:101500000D402F436DD02546C7078035002F06D0EC
:10151000CF0504D5012717622A683A432A6082075B
:1015200008D5F20706D0276802223A622A68042703
:101530003A432A60420708D5F20706D026680422FB
:1015400032622A68022632432A6002070AD50A4616
:101550001A406646324305D02668082232622E6859
:1015600016432E60020508D54A0106D501222668D9
:10157000D20232622A681A432A602A68002A39D0C5
:10158000800606D5880604D5616E002901D0204664
:101590008847286821688968490602D428210842BA
:1015A0002DD0204600F08AFE21688868400622D5AA
:1015B000EFF31080012282F310888B68402293435E
:1015C0008B6080F31088206F002814D06C49416331
:1015D000206FFFF719F800280CD0206F416B08E04E
:1015E00000E012E0850610D58D060ED5616EA8E0EC
:1015F00020468847F8BD2046FFF771FFF8BD20461A
:10160000FFF76DFF00202860F8BD256E012D7DD10C
:10161000C5067BD5CD0679D510261662226890685E
:10162000254640064035002845DA216F08684068A5
:101630000004000CE8D02F8B8742E5D968838869C5
:10164000202833D0EFF31080012181F31088116836
:101650003701B943116080F31088EFF31080012146
:1016600081F3108821688A68520852008A6080F3EA
:101670001088EFF31080012181F3108821688A68B7
:101680004027BA438A6080F31088E3670020206611
:10169000EFF31080012181F3108821680A68B243BA
:1016A0000A6080F31088206FFEF78EFF288B698B0D
:1016B000401A81B231E0288B698B401A81B2688B65
:1016C0000028A1D000299FD0EFF31080012585F3D9
:1016D00010881568FF272137BD43156080F31088F7
:1016E000EFF31080012282F31088226895686D085C
:1016F0006D00956080F31088E367002020666066C7
:10170000EFF31080012282F3108800E009E02268E4
:101710001368B343136080F310882046FFF79CFEE4
:10172000F8BDC50208D5750206D501200005106276
:101730002046FFF7D3FEF8BD050606D50D0604D5F5
:10174000A16E002900D053E7F8BD4006FCD548063D
:10175000FAD52046EFF31081012484F31088156830
:101760004024A543156081F31088836700218166BA
:1017700000F0FBF8F8BD00000F0800002001000495
:10178000AD21000810B5040003D0A06F002802D0DE
:1017900007E0012010BD002174200155204600F013
:1017A00027F82420A06720680168490849000160E3
:1017B000204600F0C3FD0128ECD0606A002802D06A
:1017C000204600F05BFC206841680922D202914368
:1017D0004160206881682A22914381602068016805
:1017E000012211430160204600F0AEFC10BD000054
:1017F00070B586B0064614216846FEF709FD2049FB
:101800003068884239D11F49CA6901204004024327
:10181000CA61CA69024005924A6902434A6149693C
:1018200000250140059118480090022001900320F6
:10183000039001200490092002956946C006FEF736
:10184000B5FF1248124C21C42560A560E5602561F2
:101850008020656160600E48083CFEF747FF002865
:1018600001D0FEF731FD3467002211461C2066626C
:10187000FFF7C8F81C20FFF7B9F806B070BD0000EC
:101880000044004000100240048000005800024064
:101890009002002070477047FFB50446806F83B008
:1018A00017460D4620285ED1002D0AD0002F08D003
:1018B000A168C001814207D12069002804D1E8074E
:1018C00002D0012007B0F0BD204660300090007DBE
:1018D000012848D00098012101750020802108517D
:1018E0002120A067FFF72EF8264640360190378268
:1018F00077820120A1680003814202D1206900287B
:1019000005D02F46002500990020087511E000271A
:10191000F9E700228021204600F002FE002815D1C0
:10192000002F15D02168387808857F1C708A401EEA
:101930007082708A019B002806980090E9D10022ED
:101940004021204600F0ECFD002808D00320B9E734
:1019500028882168C005C00D0885AD1CE6E7202059
:10196000A0670020AEE70220ACE77047FEE700006A
:101970000EB500211848009101910291154A41606D
:1019800002608160012204230C300EC0017041709E
:101990008170FF23C170C233436003468160083306
:1019A000197102611838FEF727FD002801D072B6C0
:1019B000FEE7052000900120000301900004029042
:1019C00069460548FEF782FC002801D072B6FEE7A2
:1019D0000EBD0000002401401C00002010B588B09E
:1019E0001C216846FEF714FC1648154901600024C6
:1019F0001549846041601449046128318461C160E3
:101A0000FFF75EFB002801D072B6FEE70D48FFF736
:101A10009DFC002801D072B6FEE760200090019482
:101A200002940022694604940648FFF727FC002828
:101A300001D072B6FEE70348FFF78EFB08B010BD79
:101A40000020004034010020BF03000010B590B01A
:101A50001C2108A8FEF7DCFB20216846FEF7D8FB16
:101A600021482049016000242049846041601F49C9
:101A70000461446128318461C160FFF721FB0028C3
:101A800001D072B6FEE71848FFF760FC002801D0CD
:101A900072B6FEE760200D94099408900A940B94A6
:101AA0000C94002208A90E940F48FFF7E7FB0028CA
:101AB00001D072B6FEE70120009440030294059025
:101AC000019403940494694607940748FFF79CFA2D
:101AD000002801D072B6FEE70348FFF73DFB10B0C7
:101AE00010BD0000004401407C010020BF03000045
:101AF00010B590B01C2108A8FEF78AFB202168468B
:101B0000FEF786FB214820490160002420498460BB
:101B100041601F490461446128318461C160FFF75D
:101B2000CFFA002801D072B6FEE71848FFF70EFC86
:101B3000002801D072B6FEE760200D940994089049
:101B40000A940B940C94002208A90E940F48FFF7F6
:101B500095FB002801D072B6FEE7012000944003F7
:101B600002940590019403940494694607940748ED
:101B7000FFF74AFA002801D072B6FEE70348FFF7E4
:101B8000EBFA10B010BD000000480140C401002075
:101B9000BF03000010B592B000240F941C2108A8C8
:101BA0001094FEF735FB20216846FEF731FB2248F2
:101BB00020490160214984604160204904614461F9
:101BC00028318461C160FFF7C1FB002801D072B6E3
:101BD000FEE70F940FA918481094FFF745FA002864
:101BE00001D072B6FEE760200D94099408900A9423
:101BF0000C940C2208A90E940F48FFF73FFB002815
:101C000001D072B6FEE701200094400302940590D3
:101C1000019403940494694607940748FFF7F4F984
:101C2000002801D072B6FEE70348FFF795FA12B01C
:101C300010BD0000002C01405C000020BF0300002C
:101C400010B58AB0002407941C2168460894FEF75A
:101C5000DFFA01211F48890701601F498460416044
:101C60001D49046128318461C160FFF76FFB0028C2
:101C700001D072B6FEE7079407A916480894FFF74B
:101C8000F3F9002801D072B6FEE7602000900194BD
:101C900002940022694604940E48FFF7EFFA0028E8
:101CA00001D072B6FEE7042269460A48FFF7E6FA59
:101CB000002801D072B6FEE70C2269460548FFF7FE
:101CC000DDFA002801D072B6FEE70248FFF744FAB9
:101CD0000AB010BDA4000020BF03000010B58AB0F8
:101CE000002407941C2168460894FEF791FA2548C1
:101CF00023490160244984604160234904612831FB
:101D00008461C160FFF722FB002801D072B6FEE7B4
:101D1000079407A91B480894FFF7A6F9002801D0EB
:101D200072B6FEE76020009001940294002269469A
:101D300004941448FFF7A2FA002801D072B6FEE717
:101D4000042269460F48FFF799FA002801D072B6BD
:101D5000FEE7082269460B48FFF790FA002801D0F9
:101D600072B6FEE70C2269460648FFF787FA00289C
:101D700001D072B6FEE70348FFF7EEF90AB010BDD6
:101D800000040040EC000020BF03000010B50C4828
:101D90000A490160E1214902416000218160C1607E
:101DA00001618161C1610C22016242614162FFF700
:101DB000E9FC002801D072B6FEE710BD00440040E7
:101DC0000C020020FEE77047704710B5FEF7C0FD1B
:101DD00010BD30B591B034216846FEF719FA0024E1
:101DE0000F9411200090109405200190012005907F
:101DF0001020069000030A9000010E9402250B901B
:101E00000D9409950C946846FEF7E4FE002801D075
:101E100072B6FEE707200D900F9401210E951094E5
:101E20000DA8FEF7F3FD002801D072B6FEE711B051
:101E300030BD7047F0B502681A4B0124A4071A4D53
:101E4000984203D0A04201D0A84203D17026B243E9
:101E50004E683243154E164F98420AD0A04208D021
:101E6000A84206D0134CA04203D0B04201D0B842E1
:101E700004D103242402A243CC6822438024A24339
:101E80004C69224302608A68C2620A688262984290
:101E900003D0B04201D0B84201D1096901630121E8
:101EA0004161F0BD002C01400004004000440140AD
:101EB0000048014000200040F0B5026A520852007C
:101EC0000262056A436882697024A24392080C6822
:101ED00092001443022295438A68134E2A43114DFF
:101EE000A84204D0B04202D0104FB84206D1082711
:101EF000BA43CF681743042297433A46A84204D016
:101F0000B04202D0094DA84206D103252D02AB43B1
:101F10004D691D438B692B4343608461496841636C
:101F20000262F0BD002C0140004401400048014025
:101F300070B5026A10239A430262046A4368826998
:101F400073252D02AA430D682D02154320229443C8
:101F50008A6812012243104CA04208D11446CA6874
:101F60008026B443120122434024A24305E00B4CD7
:101F7000A04202D00A4CA04208D10324A402A343E9
:101F80004C69A4001C438B699B002343436085611B
:101F900049688163026270BD002C01400044014029
:101FA0000048014070B5026AFF2301339A43026280
:101FB000046A4368C2697025AA4392080D689200BA
:101FC00015430122520294438A6812022243104CA4
:101FD000A04207D1C414A243CC68240222430615B0
:101FE000B24305E00B4CA04202D00B4CA04208D1FA
:101FF00003242403A3434C6924011C438B691B0164
:1020000023434360C5614968C163026270BD00003B
:10201000002C0140004401400048014030B5026AF4
:1020200001231B039A430262056A4268C369732451
:102030002402A3430C6824021C4301235B039D4339
:102040008B681B032B430A4DA84205D0094DA842BB
:1020500002D0094DA84205D10125AD03AA434D691F
:10206000AD012A434260C46149680164036230BD26
:10207000002C0140004401400048014010B5818C13
:10208000C90707D001684A6801235B049A43836A41
:102090001A434A60818C890707D501684A68012381
:1020A0001B049A43C36A1A434A60818C490707D5C7
:1020B00001684A6801239B049A43036B1A434A60F0
:1020C000818C090707D501684A680123DB039A431D
:1020D000436B1A434A60818CC90607D50268916830
:1020E00001231B039943836B19439160818C8906FB
:1020F00007D501688A6801235B039A43C36B1A43BF
:102100008A60818C490612D503685A680121090545
:10211000046C8A4322435A60026C8A4207D10268E7
:10212000516803235B059943436C19435160818CCB
:10213000090607D501684A680123DB04806C9A43CD
:1021400002434A6010BD0000F8B504460026803006
:102150000660FEF7F7FB054620680068124F00078F
:1021600009D501212B46002249052046009700F0A1
:10217000D7F900280DD12068006840070BD5012150
:102180002B46002289052046009700F0C9F9002857
:1021900001D00320F8BD2020A067E06726666034E8
:1021A00026750020F8BD0000FFFFFF0110B5406A52
:1021B0000022014640314A834A82FFF790F910BD60
:1021C00070B5446AA06FE56F21688968002609062A
:1021D000002906DA212804D152200653204600F0B7
:1021E0009CF820688068400606D5222D04D15A202C
:1021F0000653204600F062F8204680300168102225
:10220000114301602046FFF76AF970BD10B5014621
:102210008969406A202938D000225A210A52EFF3F6
:102220001081012282F3108802681368FF240134B0
:10223000A343136081F31088EFF31081012282F32E
:102240001088026893685B085B00936081F31088D4
:10225000EFF31081012282F3108802689368402412
:10226000A343936081F310882021C167016E012987
:102270000BD1EFF31081012282F3108802681368FA
:102280001024A343136081F31088016E012902D04A
:10229000FFF700FB10BD5821095AFFF7DDF810BD0C
:1022A00010B5406A016E012902D0FFF7F4FA10BDA3
:1022B0005821095A4908FFF7CFF810BD10B5EFF3C0
:1022C0001081012282F3108802681368FF242134F0
:1022D000A343136081F31088EFF31081012282F38E
:1022E0001088026893685B085B00936081F3108834
:1022F000016E01290BD1EFF31081012282F31088C6
:10230000026813681024A343136081F3108820210E
:10231000C16700210166416610BD10B5EFF3108161
:10232000012282F3108802681368C024A34313605B
:1023300081F310882021816710BD000070B504462C
:1023400080682169E26908436169002511432268B8
:1023500008431168404B19400143116021684868E7
:10236000032212039043E26810434860A169206A87
:10237000084321688A680B231B029A4302438A6040
:1023800036492068884210D13548006B8007800F9D
:102390000ED0012805D0022805D003280AD1022139
:1023A00009E0042107E0082105E02E49884201D117
:1023B000002100E010210120E369C0032A4A2B4ECE
:1023C000834223D1002906D0022907D0042907D04F
:1023D000082937D108E0FEF7A3FB03E0104603E02D
:1023E000FEF7AEFB002831D0616840004A08801833
:1023F000FDF79EFE80B201461039B14222D81B493A
:10240000491C01400007400F08431DE0002906D089
:10241000022907D0042907D0082913D108E0FEF7C4
:102420007FFB03E0104603E0FEF78AFB00280DD097
:1024300061684A081018FDF77BFE80B2014610392A
:10244000B14201D9012501E02168C8600020606621
:10245000A066284670BD0000F369FFEF0038014018
:10246000001002400044004000127A00EFFF00001C
:10247000F8B5044641654030002627460283803780
:102480003E602220E0672546206F603500281BD083
:1024900020498162216F2048C862216F1F4808636C
:1024A000206F13464663606D21688446624624317E
:1024B000206FFEF745F9002806D0102038602E75F1
:1024C0002020E0670120F8BD2E75EFF31080012178
:1024D00081F3108821680A68FF2301331A430A60D8
:1024E00080F31088EFF31080012181F310882268B7
:1024F00093680B43936080F31088EFF3108081F3AF
:10250000108821688A6840231A438A6080F3108803
:102510000020F8BD0D220008A1220008C1210008FA
:10252000FFB581B005461746044660350A9E55E062
:10253000701C53D0FEF706FA0499401AB04230D806
:10254000002E2ED020680168490747D5C069C043D6
:10255000000543D401202168C0020862EFF3108017
:10256000012181F3108821680B68FF22A132934377
:102570000B6080F31088EFF31080012181F3108845
:1025800021688A68520852008A6080F310882020EF
:10259000A067E0678034206000202875032005B024
:1025A000F0BDEFF31080012181F3108821680B68E2
:1025B000FF22A13293430B6080F31088EFF3108069
:1025C000012181F3108821688A68520852008A60CC
:1025D00080F310882020A067E067DDE72068C169EC
:1025E0000298884304D00020B842A1D00020D6E74A
:1025F0000120F9E710B50349012008700248FEF7F1
:102600006FFF10BD000000200C0200200FB410B5B9
:1026100003A9044B044A029800F051F810BC08BC0E
:1026200004B018479127000818000020F8B5040CE2
:102630008BB2264682B25E430D0C1046370C5843CF
:10264000360480190021794116466E43370C360452
:102650008019794126466E438919F8BD8307FF2208
:10266000DB0E9A408907090E9940002808DB830891
:1026700009489B001B18186890430843186070476E
:102680000007000F0838830804489B001B18D8690E
:1026900090430843D861704700E400E000ED00E09B
:1026A00002E008C8121F08C1002AFAD1704770471B
:1026B000002001E001C1121F002AFBD17047FFB5C5
:1026C00081B00546002706E025280AD0049A039920
:1026D00090476D1C7F1C28780028F5D1384605B03E
:1026E000F0BD002269786D1C10462E2913D169783F
:1026F00004226D1C2A2909D102996D1C01C902917D
:1027000009E00A235843303808186D1C29780B4615
:10271000303B092BF5D92B78002BDFD0632B07D06A
:10272000732B10D0049A1846039990477F1C2DE014
:1027300002996C460B782370091D0291002161708B
:102740006E46012104E0029940C902910021C9436B
:1027500052070AD5002400E0641C84420DDA8C4242
:10276000FADB325D002AF7D107E0002400E0641CA8
:102770008C42FCDB305D0028F9D13F1904E0307851
:10278000049A761C03999047641EF8D26D1CA2E748
:1027900013B5044B012269460348FFF77DF8009802
:1027A0001CBD0000FFFF00000C02002008B5FEF772
:1027B000D7F8FFF70EFB28484269012189050A4333
:1027C000426142690A400092426949110A434261EA
:1027D00042690A400092426949000A4342614269E3
:1027E0000A40009241690122114341614069104051
:1027F0000022009011460B20FEF704F90B20FEF793
:10280000F5F8FFF7B5F8FFF7C5F9FFF719FAFFF785
:1028100065FAFFF7E3F8FFF719F9FFF769F9FFF732
:10282000B5FA0E4980220846C838FEF7DBFD0B4892
:1028300044380068016804229143016008A0FFF752
:10284000E5FE0C4C002520780028FCD025700349BB
:1028500009A0FFF7DBFEF6E700100240D4020020DB
:102860007561727420736572766F20746573740D70
:102870000A0000000000002025730D0A000000007F
:102880000000000000000000010203040607080920
:102890000000000001020304B82800080000002026
:1028A0001C000000A0260008D42800081C000020FE
:1028B0003C080000B02600080000000000000000F6
:1028C00001000000040000000000000000127A0077
:0428D0000000000004
:04000005080000C12E
:00000001FF
