:020000040800F2
:1000000050190020D50000081538000859330008A1
:1000100000000000000000000000000000000000E0
:100020000000000000000000000000001D38000873
:1000300000000000000000001B3800081F38000806
:10004000E7000008E7000008E7000008E7000008F4
:10005000E700000861110008711100088111000813
:10006000E7000008E7000008E70000085111000859
:10007000E7000008E700000800000000E7000008B3
:1000800000000000D138000800000000000000005F
:10009000E700000800000000E7000008E700000893
:1000A000E7000008E7000008E7000008E700000894
:1000B0003D400008E7000008E7000008E7000008EE
:1000C0000348854600F06EFF00480047BD49000820
:1000D000501900200448804704480047FEE7FEE727
:1000E000FEE7FEE7FEE7FEE7CD380008C1000008A6
:1000F000F0B51FB40646002082B0054640240191A9
:1001000000901BE0019922460F46304600F049FD61
:10011000049A059B801A994110D31046194622462D
:1001200000F02FFD361A8F41019722460120002151
:10013000009F00F026FD38184D4100902046641EB7
:100140000028DFDC019B00982946324607B0F0BD4D
:1001500003460B439B0703D009E008C9121F08C0E0
:10016000042AFAD203E00B780370401C491C521E8B
:10017000F9D27047D2B201E00270401C491EFBD296
:1001800070470022F6E710B513460A4604461946A2
:10019000FFF7F0FF204610BD421C0178401C0029EB
:1001A000FBD1801A704710B5002200E0521C835C1E
:1001B0008C5CA34201D1002BF8D1D8B2E1B2401A35
:1001C00010BD30B505460020034600E05B1C93429D
:1001D00005D2EC5CC85C201A01D1002CF6D130BDF0
:1001E000FFB5087889B01546FF2805D0491C2D2891
:1001F00004D00022002407E000240BE00122F9E7EC
:100200000A235C430419491C0878FF28F8D1002A06
:1002100000D06442002004902A7801462D2A01D0A3
:100220002B2A0FD16D1C2D2A02D00022049209E046
:100230000122FBE700260A2233466D1C00F089FCF0
:10024000381871412F78FF2FF4D10C9AA21806921A
:1002500002460A4304D0FF23069A9133DA4205DAB4
:10026000002109980A4606C00DB0F0BD0024B74A27
:10027000B54D2646079200F053FE02900698039172
:10028000002801DA474200E0074639050020AF4A5E
:10029000001C51410191009012E0F80707D022465E
:1002A0002B463046079900F0DBFA064607912246B6
:1002B0002B461046194600F0D3FA04460D467F102F
:1002C000002FEAD10698019B0028009A0399029812
:1002D00006DA00F0ADFD3246079B00F0A9FD05E00F
:1002E00000F0BEFA3246079B00F0BAFA049A002AE0
:1002F00002D00122D2075140099A03C2B4E7FFB5E8
:1003000091B0002009900025ED432E209E685C6886
:100310001F460190B9696D1C129888470090396A90
:1003200088470028F6D10098401C0AD00D20C00153
:100330008443002E12DD00982B2809D02D280DD1E2
:1003400003E00020C04315B0F0BD0120800204434B
:10035000B9696D1C12988847761E009003A9600544
:1003600001D52D2000E02B206A461073491C0CA8F3
:100370000F9102900AE0B9696D1C129888470090AD
:100380000120400204431398761E0560002E02DD12
:1003900000983028EFD001990098884245D18020FC
:1003A000044308E00998401E0990012040020443DC
:1003B0001399681C0860B9696D1C761E12988847ED
:1003C00000903028EED030E00199884205D1200617
:1003D00003D480200443761E1DE0009805F090FCB5
:1003E000002825D0012149020C43009807AA0F9943
:1003F00003323038761E914208D208700F98401CA4
:100400000F90200607D50998401E03E0200602D46D
:100410000998401C0990A00502D51399681C086032
:10042000B9696D1C129888470090002ECCDC59E009
:10043000002E57DD0098652801D0452852D1A0052F
:1004400050D5032000028443B9696D1C761E1298B2
:1004500088470090002E0CDD2B2804D02D2808D1D1
:10046000FF2001300443B9696D1C12988847761E3D
:100470000090E00501D52D2100E02B2102980170AC
:100480000298401C0290019025E0012040020443A4
:100490000EA902980131761E88420ED20098029968
:1004A00030380006000E087003D10299019881428D
:1004B0000AD90298401C029006E0E00501D52448C4
:1004C00001E0234840420990B9696D1C12988847A1
:1004D000009013980560002E04DD009805F010FCD4
:1004E0000028D2D1F969129888470F99FF20087027
:1004F000029903AA087000200A900B900CA90AA880
:10050000099BFFF76DFEA00502D40120C0431AE746
:100510002420044209D0E00713D138680B9A0A99C5
:10052000031D3B60006806C00BE00B990A9800F0C1
:10053000D5FA0146E00704D13868021D3A60006828
:1005400001602846FFE60000000014400000F03F74
:10055000F1D8FFFFF8B502464A40D40F42004B00E5
:1005600052085B089A4202D20246084611464A00E7
:1005700023D0C30D4A00DDB2120EAD1A202D35DA9C
:1005800049020126490AF6058A19002C00D0524278
:1005900020214F1B1146B9402A411018C20D9A4222
:1005A00021D0002C17D0012D08DCDA05801AD20FDB
:1005B0008019D207DBB200F0A3FBF8BDDA05801A80
:1005C000012340001B06C01880185A428018CA0F29
:1005D0001043490007E04908C2071143DA05801AB1
:1005E00080194008801800F083FBF8BD61000122EB
:1005F000511A001BF7E70122D2075140AAE7012256
:10060000D2075040A6E7024670B54A40D30FDB0739
:1006100040002DD04A002AD0010E140E0002120212
:100620000919400A520A8418E50104465443000A95
:10063000120A2E045043A4194219200CC543AA18CB
:10064000120C0125AD03521C521912047F392404E7
:1006500000D0521C104301D44000491EC2B20C0607
:10066000C0092018401C4008802A02D003E0002066
:1006700070BD40084000002900DA0020184370BD1A
:1006800070B502464A40D50F40004A00ED074008C9
:100690005208002814D0002A12D0C40DD30D4102F4
:1006A0000120C0055202490A520AE41A0918121818
:1006B0007D34914201D3641C00E04900002C01DA32
:1006C000002070BD0023914201D3891A03434008E2
:1006D00049000028F7D100290AD0914202D1012116
:1006E000C90705E0914201D2012101E00121C9437E
:1006F000E005C018401900F0FBFA70BDF0B50746E0
:100700000846584087B0C00F049048000E46590074
:1007100040084908BC1A884105D2384631461E4671
:1007200017460B4602465800400810434CD0300D87
:10073000039040055900400D490D0590401A029064
:10074000402872DA18030121000B090508430190C3
:1007500004980092002805D0019952420020884157
:1007600000920190029840210A1A0199009800F025
:1007700008FA05460C466B4607CB00F023FAC01971
:100780007141039A0E0D0023D71756401A467A403E
:10079000164344D0049A002A2DD0029A012A039AC3
:1007A00015DC1205C01A914101263605001C714165
:1007B000D20F059ED2070093019202962A46234645
:1007C00000F0E4FA07B0F0BD38463146FAE7160506
:1007D000224A0F46B218C01AB74101210905001C70
:1007E0004F4100187F41114618187941E20F10431C
:1007F0006D19644113E0E2076D0815436408C207F0
:100800001443039A01261205C01A91413605001CB3
:100810007141CE07400830434908C01851412A466B
:10082000234600F0A6FACDE7FFE704980122400036
:10083000C117121A00238B4104983146C417381A85
:10084000A141EEE730B40124E407634030BC55E732
:1008500030B40124E407614030BC4FE70000E0FF02
:10086000F0B51FB488B00B99099800244840099945
:10087000C00F490049080991C0070B990090490031
:1008800049080B9109990898A64608431CD00B9972
:100890000A98084318D0099801244000420D4800E6
:1008A000410D099824050003000B204309900B9883
:1008B0000003000B20430B9050181C4940180022E5
:1008C00001901446104605E0002001460DB0F0BD31
:1008D000032801DA034600E003239C46C11A0AAE4E
:1008E0000AE05F0008ADED5B4F00F75B7D4300273A
:1008F000AA187C41491C5B1E6145F2DD410004AB36
:100900005A522104120C0A43240C401C0828DFDB35
:10091000019802900099704601910090059B049AFD
:100920000799069800F032FAD0E700000DFCFFFFAF
:100930000122D207002800DB101A002900DB511A1F
:10094000814201D801207047002070470122D20760
:10095000002800DB101A002900DB511A814201D364
:1009600001207047002070470122D207002800DBD9
:10097000101A002900DB511A814201D90120704769
:10098000002070470122D207002800DB101A00293E
:1009900000DB511A814201D10120704700207047CD
:1009A00010B5002904DB0C460121C9074042A141D2
:1009B000002B04DB1C460123DB075242A341801AB3
:1009C000994101D3012010BD002010BD10B50029B0
:1009D00004DB0C460121C9074042A141002B04DB86
:1009E0001C460123DB075242A341101A8B4101D35D
:1009F000012010BD002010BDC217C10F504010B51E
:100A00004018CA079623002100F07AF910BD10B5EE
:100A100000229623114600F073F910BD0EB505496A
:100A20000291002100910A460B46019100F0AEF9B7
:100A300003B000BD33040000C20F41004002012397
:100A4000400ADB05D207090EC0187F2901DA002011
:100A50007047962903DC9623591AC84001E096395D
:100A60008840002AF4D040427047000070B5CD0F96
:100A70004A0009030123090B1B0519430B4BED0722
:100A80000024520D9A4201DA002070BD074B343326
:100A90009A4203DC9A1A00F084F802E004495118E3
:100AA00088402C43F1D0404270BD0000FF0300009D
:100AB000CDFBFFFFC20FD207400040080BD0C10D95
:100AC0000723DB01C91840020905400A1143C20887
:100AD000400711437047002001467047CB0FDB07EA
:100AE000490010B5490802460A4307D00A0D0724F9
:100AF0000903E401090B121B002A01DC002010BDD0
:100B0000C900440F0C43C100E018D205801800F062
:100B1000EFF810BD70B50446002903D00020202254
:100B2000012310E0002801D00020C043C046C04689
:100B30000DE02546D5408D4205D30D469540641BFA
:100B40001D46954040191546521E002DF1DC2146E8
:100B500070BD30B5434351435C18010C130C0D4676
:100B60005D432C1980B292B20546554351430A0C9D
:100B700009044D1962415843010C000440195141C8
:100B800030BD10B5202A04DB0146203A91400020F8
:100B900010BD914020239C1A0346E3401943904026
:100BA00010BD10B5202A04DB0846203AD0400021B1
:100BB00010BD0B46D340D0402024A21A91400843D8
:100BC000194610BD10B5202A06DBCB170846203A7F
:100BD0001041C1170B4306E00B461341D0402024BF
:100BE000A21A91400843194610BD4268002A08D055
:100BF00001680B78491C002B03D0521E06C0184612
:100C000070470121C160881E70474268002A0BD0DE
:100C1000C3680168002B07D183688B4204D0491E4A
:100C2000521C06C0002070470020C04370470000DF
:100C30000FB400B589B00A460DA9009100230C99A4
:100C4000002ACB60234B0693234B079301D0042348
:100C500000E00023214A0292214A089201930246B1
:100C60006B460020FFF74BFB09B008BC04B01847E7
:100C7000F0B585B007460020C04301901E46002015
:100C800015460C460091029104903B466A46314657
:100C900004A8FFF7CDFF049902466018002D05D087
:100CA000002901D0034600E023462B6000290ED026
:100CB000002A02DD0099814209D0001B01900094B6
:100CC0003B466A463146029404A8FFF7B1FF05B0DF
:100CD000F0BD0000EB0B00080B0C0008FFFFFF7FCE
:100CE000D50F000810B500230360FFF7C1FF10BD4A
:100CF000002904DA401C490001D140084000704737
:100D000070B40024050C05D11024000402D1002980
:100D100021D01124050E01D100020834050F01D1A4
:100D20000001241D850F01D18000A41C002801DBD7
:100D30004000641C002908D020252E1B0D46F540DC
:100D4000A14000D001212943084301061B1B000AD2
:100D5000DB1D02D5002070BC7047DB051818801819
:100D60000029F8DA401C4900F5D170BC4008400069
:100D7000704710B5002B08DA0024401C614192181E
:100D80005B411A4301D14008400010BDF0B51FB4CB
:100D900082B005460C0003D0084604F079FE02E05C
:100DA00004F076FE20300246009021462846FFF7E8
:100DB000E8FE049B059A04460F4618431143084376
:100DC00014D0184610431BD0009840210A1A184628
:100DD0000599FFF7E6FE05460E46009A0599049828
:100DE000FFF7CFFE084305D0012004E02046394636
:100DF00007B0F0BD0020C11705430E432C43374315
:100E000000990E986305401A7905E40A00220C4304
:100E1000FD0A0A3002D500200146E9E70105101954
:100E200069410C9C0D9D00196941FFF7A2FFDFE7A6
:100E3000F0B50C465C4085B0E40FE40703944C0029
:100E40000026640859009446490802460296224347
:100E500021D062460A431ED06200570D4A000E039D
:100E60002303550D012402462C492405781B1B0B36
:100E7000360B401823432643614600901C46501A07
:100E8000B44103D30098401C009002E092180098EF
:100E90005B41002803DA0020014605B0F0BD0020C8
:100EA000012109050746864611E064461D46141BCC
:100EB000B54106D36546521BB341744607430C4304
:100EC000A646CD0740084908284392185B410546CD
:100ED0000D43EAD11046184313D0604619465040DE
:100EE0007140084306D06046101AB34106D2012271
:100EF000002306E000220123DB0702E00122D243A7
:100F00005310009874460105381C6141029C039DF2
:100F100000196941FFF72DFFBFE70000FD03000046
:100F20000EB5054A02920022009213460192FFF785
:100F30002DFF03B000BD0000330400004A00090388
:100F40000123090B1B0519430A4B10B5520D9A4298
:100F500002DA0020014610BD064B34339A4203DC0E
:100F60009A1AFFF71EFE10BD034BD218FFF709FEB9
:100F700010BD0000FF030000CDFBFFFF10B50029EE
:100F800004DB0124E40740428C412146002B04DBB2
:100F90001C460123DB075242A341994200D19042F3
:100FA00010BD00001CB50948009009480190054695
:100FB0000126009C05E0E36807CC33430C3C9847CE
:100FC0001034AC42F7D3FFF77FF8000070660008DA
:100FD0009066000810B50F21C0B2490200F002F877
:100FE00010BD00007F2801D9002207E0054B420810
:100FF0009A5CC00700D112091207120F012090401D
:10100000084070475E65000880B550480122002105
:101010000B4603F0F7FD80BD80B54C48012200214E
:101020000B4603F0EFFD80BDB0B5484C0222002511
:10103000204629462B4603F0E5FD0322204629469B
:101040002B4603F0DFFDB0BDB0B5404C02220025B9
:10105000204629462B4603F0D5FD0422204629468A
:101060002B4603F0CFFDB0BD70477047704710B5F9
:10107000044600F02FFBE17900290ED0A168401A48
:1010800032280AD3A188206800F016FBA179884293
:1010900001D1E06880470020E07110BD10B5044622
:1010A0008188006800F008FBA179002903D001289D
:1010B00001D1012010BD01434842484110BD00004C
:1010C000B0B5214C2046FFF7E9FF002805D12046A6
:1010D0001030FFF7E3FF002805D01C480122002153
:1010E0000B4603F08FFD254620352846FFF7D6FF37
:1010F000002805D120463030FFF7D0FF002805D06A
:101100001248022200210B4603F07CFD30342046B9
:10111000FFF7C4FF002805D02846FFF7BFFF0028CF
:101120000BD0B0BD0948032200210B4603F06AFD35
:101130002846FFF7B3FF0028F3D10448042200211A
:101140000B4603F05FFDB0BD18000020C405002071
:1011500080B5024800F071F880BDC046140300203D
:1011600080B5012000F0D8F9022000F0D5F980BD4B
:1011700080B5042000F0D0F9082000F0CDF980BD42
:1011800010B5802000F0C8F90124A00200F0C4F9D5
:10119000E00200F0C1F9200300F0BEF9600300F0A6
:1011A000BBF9E00300F0B8F910BDEFF3108072B6A0
:1011B000FEE710B5014624314A78022A14D10268AC
:1011C00013680E24A343136013680124A343136020
:1011D000026C406C1C2303402046984050604C70C9
:1011E000002000220A7010BD0422C26301200022E8
:1011F0000A7010BDB0B5014624314A78022A18D1D0
:10120000026813680E24A343136013680125AB43DF
:101210001360026C436C1C241C402B46A34053609B
:1012200000240C704D70816B002900D08847204647
:10123000B0BD0421C1630120B0BDF0B585B0016C23
:1012400003910C68066831680425019129404A42DF
:101250004A410490416C1C230B402F469F40394665
:10126000029421404C424C4114432FD0009601205F
:101270000227019E314639404D424D419F40029C1C
:1012800027420246014600D02946049805462435E7
:1012900000292AD008210E4077427741DC402107FF
:1012A00000D53A46002A1ED1009C22680E218A43AE
:1012B0002260012211469940039B5960C2630021BC
:1012C00029706A70416B00290CD10CE030688006EF
:1012D00002D43068A8433060039847600498016BDB
:1012E000002900D0884705B0F0BD009B1968890629
:1012F00005D41A680A218A431A6001216970002105
:10130000297003994F60C16A0029EBD1EBE7000017
:10131000F0B585B0002841D00446054624350220AA
:1013200068702048206426681F4830181421FFF791
:10133000F1FB80000090606431681C4B0B40A26898
:10134000E168276960690190A0690290E0690390F3
:10135000206A0490194339430198014302980143DC
:10136000039801430498014311433160012188032C
:1013700082420DD01C20009E06400F20B0400C4A37
:101380001368834313606068B040136803431360BD
:101390000020E0632870697005B0F0BD012005B041
:1013A000F0BDC04600000240F8FFFDBF0F80FFFF08
:1013B000A8000240F0B582B004462420255C02203B
:1013C000012D2BD0019226462436012232707778E7
:1013D000012F21D1022070700020E0632668376859
:1013E00097433760256C0095676C1C253D40174678
:1013F000AF40009D6F607360A368102B019F00D009
:101400000F46B760102B00D00199F1603168236B53
:10141000002B05D00E2308E00021317002B0F0BD92
:1014200004239943316033680A21194331603168DC
:101430001143316002B0F0BDB0B50446344DA88808
:10144000A04204D100F046F9E97900290BD0A88A1E
:10145000A0420ED100F03EF9E97D002909D1012119
:10146000E975A86105E00121E971A860A88AA04298
:10147000F0D0A88CA04205D100F02CF927216A5C9D
:10148000002A0CD0A88EA0420FD100F023F93721FA
:101490006A5C002A09D101226A54A86305E001228E
:1014A0006A54A862A88EA042EFD04420285AA042D5
:1014B00005D100F00FF947216A5C002A0DD05420B5
:1014C000285AA04210D100F005F957216A5C002A81
:1014D0000AD101226A54A86506E001226A54A86470
:1014E0005420285AA042EED06420285AA04208D1A5
:1014F00000F0F0F867216A5C002A02D101226A54E8
:10150000A86604490322204601F0DEFEB0BDC046B5
:10151000180000209400002080B504490A680242A7
:1015200002D00860FFF788FF80BDC0461404014068
:10153000F0B58AB0029009910A68002A00D1B2E0A1
:101540005A48029B834201D0062000E005200B216F
:1015500009075918890A9B0559180091042900D3D5
:10156000009000273C463E460CE011435048016085
:10157000761C099802681046F0403F1DA41C002804
:1015800000D190E001210846B0400240F0D003961F
:1015900001920591069703252946A140CA4309995E
:1015A00026464C6823462B405F1E012F0892049468
:1015B000079610D80F4602998D681540FF68B7400E
:1015C0002F438F60E506ED0F039EB5404F688743BC
:1015D0002F434F6006E0032B039E03D12B46029F4F
:1015E000049C1EE0029FF8680899084009998D68DC
:1015F00007998D400543FD60022B049C11D11C20EE
:10160000069908400F218140F3089B00FC18256AC9
:101610008D43099B19698140294321625C6803233A
:101620002340079DAB40386808990840184338604C
:10163000A0032C46800F069F059B99D04C49086853
:10164000184308600C2038400F21814003233546A1
:101650009D43184AAB588B43009981401943A950C8
:101660001348816809984068C30202D5019A114362
:1016700001E0019A91430E4B9960D968830201D52C
:10168000114300E091430A4BD9605968830301D5A7
:10169000114300E09143064B59601968C00300D51F
:1016A00063E7914362E70AB0F0BDC046001C0050FA
:1016B000000401400800014000690840411E8841C3
:1016C0007047002A02D0182281507047282281508A
:1016D00070470000054800687047C0461D48007804
:1016E00002490A68101808607047C0464C0700207D
:1016F00080B50848016840220A430260032000F0D8
:101700000BF8002801D0012080BD00F027F8002050
:1017100080BDC0460020024070B504467D20C00058
:101720000C4E3178FFF7F6F901460B480068FFF7D9
:10173000F1F900F091FD0125032C08D8002806D10D
:101740000025E84321462A4600F020F87460284628
:1017500070BDC0460C000020140000200448016841
:10176000012211430160110742680A434260704739
:1017700034100240002805D41F2108400121814077
:10178000014801607047C04600E100E0002805D430
:101790000322034693430A4A9A1803E00C220240AC
:1017A000064BD2188007C00E8901C9B28140FF23C1
:1017B00083401068984308431060704714ED00E0C0
:1017C00000E400E0F0B589B007680125EA0211469F
:1017D00020317E4B0F4276D0079208902907143BA8
:1017E00018680840069002D11868084318600293F0
:1017F00003912F02764C2068C00511D4206838432D
:101800002060FFF767FF06462068384208D1FFF7DF
:1018100061FF801B6428F7D90325284609B0F0BD75
:101820000326340569484C38059001682140089B1F
:10183000586802460494224001963604914209D128
:1018400002463240B2420DD19A68049B1A4091423E
:1018500004D107E001463140B14203D1059909683E
:101860008903DAD4594B596831401DD03040814248
:1018700003D008980078800609D408988068304022
:10188000814211D008980068079908420CD0586826
:10189000E9045A680A435A605A688A435A60014602
:1018A000B143596038427FD10898076807990F42C1
:1018B0004ED1B90661D40699002904D1029C216851
:1018C000039A91432160F9070BD1B90711D4790725
:1018D00017D439071ED4790625D4002539069CD59E
:1018E0002CE0196803229143C2680A431A60B907C1
:1018F000EDD519680C22914302690A431A607907F1
:10190000E7D5032189021A688A43416911431960A6
:101910003907E0D5032109031A688A438169114315
:1019200019607906D9D5012189061A688A43016AA6
:10193000114319600025390600D46EE703218A049B
:1019400019689143C06908431860284609B0F0BD82
:10195000826811463140B1420AD104980240032303
:101960001B05059D2C689C43184B089814432C605C
:101970005A680A435A60B9069DD5426811463140FB
:10198000B1420AD10498024003231B05059D2C682F
:101990009C430E4B089814432C605A680A435A60C3
:1019A000069900298AD08EE7FFF794FE0546914CF0
:1019B000064B5868800500D576E7FFF78BFE401B85
:1019C000A042F5D9019D284609B0F0BD4C10024057
:1019D0000070004070470000F0B583B0029000280E
:1019E00046D00E4682480068012101910840B0426D
:1019F00016D27F4908680125A843304308607D4C12
:101A0000FFF768FE07467A4800682840B04207D0D2
:101A1000FFF760FEC01BA042F5D9032003B0F0BD64
:101A2000029800688107854D06D52968F022914308
:101A3000029A92680A432A60C0071CD16C48006869
:101A400001273840B04225D969490868B843086081
:101A5000684CFFF73FFE054665480068C00719D08F
:101A6000FFF738FE401BA042F6D9032003B0F0BDBB
:101A7000012003B0F0BD0298426829460C39012AC2
:101A800032D0032A35D0022A39D109688903019856
:101A900033D538E0029800684107684C07D5072124
:101AA000090222688A430299C9681143216000072C
:101AB00008D50720C0022168814302980069C00050
:101AC0000843206021680807820F77487A4412791A
:101AD0005200974401617F6838042146083909683B
:101AE0000904490F884075E009684907019804D541
:101AF00009E009688901019805D403B0F0BD0968BF
:101B000089050198F9D52968032001908143114383
:101B10002960FFF7DFFD074602984068354C03282F
:101B200011D002281DD0012829D128680C2101409C
:101B3000042900D182E7FFF7CDFDC01BA042F4D9F4
:101B4000019803B0F0BD28680C2101400C2900D198
:101B500074E7FFF7BFFDC01BA042F4D9019803B0A2
:101B6000F0BD28680C210140082900D166E7FFF785
:101B7000B1FDC01BA042F4D9019803B0F0BD2868A4
:101B80000007800F00D159E7FFF7A4FDC01BA0425A
:101B9000F5D9019803B0F0BD20460C380068C006A6
:101BA00012D5434816E08A02120F404B9A5C090294
:101BB000890F491C2368DB0309D420460C380068D0
:101BC000C00603D43B4802E03A4803E0384850439B
:101BD000FEF7A0FF21680906090F074A515CC840BB
:101BE0001549086005480068FFF796FD03B0F0BD91
:101BF00000200240881300009E65000810000020AD
:101C00000120C00497490A6802430A607047C04631
:101C100009480068094909684905490F084A515CA3
:101C2000C840704704480068044909688904490F9E
:101C3000034A515CC8407047140000200C10024059
:101C4000AE65000810B5874AD1680807830F1648AB
:101C50007B441B795B009F440108070D01200004B1
:101C600051680904490F884010BD1068C00613D59B
:101C70000F4810BD8B021B0F0C4CE35C0902890F4F
:101C8000491CD468E40303D41068C00606D409488C
:101C90005843FEF73FFF10BD064810BD04485843A7
:101CA000FEF738FF10BDC04600127A00B665000886
:101CB00000093D000024F400B0B5054C2068C005C3
:101CC00004D501200502FFF785FE6560B0BDC04662
:101CD00014100240F0B589B0002856D0614EF1686A
:101CE0000C220A400692012105910904F76804912B
:101CF0000F4007900078C00710D00698082806D03B
:101D000006980C2800D0CFE0002F00D1CCE030683E
:101D1000800303D50798406800284AD007980078C8
:101D2000800735D407980078C00645D40798007816
:101D300000075FD407990878400700D594E0087839
:101D4000800600D51BE10798846A002C1AD00698FB
:101D50000C2800D067E1012C2BD0F068049A0240D7
:101D6000079BD96A8A4224D10F21890401401A6B4A
:101D700091421ED1032189050840596B884205987C
:101D800000D053E2002009B0F0BD012009B0F0BD41
:101D9000079BD8680699042906D006990C2900D01B
:101DA000ADE0002F00D0AAE03168490739D50028FE
:101DB00037D1059809B0F0BD0698002800D1B4E0ED
:101DC00030680799C969002900D108E101210A0298
:101DD000104330604C02FFF77DFC0546306820421E
:101DE00000D00FE1FFF776FC401B0228F6D9032054
:101DF00009B0F0BD306D07994969002900D1DDE0D7
:101E0000012108433065FFF765FC0546306D80070A
:101E100090D4FFF75FFC401B0228F7D9032009B0DC
:101E2000F0BD1F21090272688A4319690902114332
:101E3000716031680922914301433160F1680807FC
:101E4000820FFB485200C0467A4492885200974461
:101E500003002001DE01260170680004410F049890
:101E60008840D4E10010024001221107B06B084005
:101E7000029002D1B06B0843B06301910392140247
:101E8000F24F3868C00525D4386820433860FFF722
:101E900021FC0546386820421CD1FFF71BFC411B82
:101EA00003206429F6D9C1E10798406805994C04DC
:101EB0000499884209D005210904884200D0C9E06C
:101EC0000598800431680143316030680499084303
:101ED0003060CFE007988068002800D122E105211A
:101EE00009028842039A00D133E1A04200D134E1D3
:101EF000306DA04330659102306D88432FE1316829
:101F0000002800D1DDE00922914301433160FFF751
:101F1000E1FB05463068400700D5F9E0FFF7DAFB42
:101F2000411B03200229F5D980E130688005079B19
:101F300003D5D869002800D13BE70720400371682A
:101F40008143586A01437160FF21090672688A4320
:101F5000196A090689187160400B04998140F0687C
:101F60000006000FB64A105CC140B6480160B64892
:101F70000068FFF7D1FB002800D057E1D6E6B06833
:101F800007998969002900D1ACE001210843B060BC
:101F9000706B084370634803AE490A6802430A60E5
:101FA000FFF798FB0546B068800700D5CBE6FFF742
:101FB00091FB411B03200229F5D937E10121884318
:101FC0003065FFF787FB0546306D800700D4B1E62A
:101FD000FFF780FB411B03200229F5D926E10121EF
:101FE0000A02904330604C02FFF774FB05463068EC
:101FF000204200D19AE6FFF76DFB411B0320022926
:10200000F5D913E10720400371688143079A506AAC
:1020100008437060FF20000671688143106A000663
:102020004018706082E601273806316881433160CC
:10203000FFF750FB0546022C00D0AAE07F0630686F
:10204000384200D1C1E0FFF745FB411B03200229C4
:10205000F5D9EBE03168049A914331603168114061
:10206000089108990599890432688A4332600028EA
:1020700000D19CE0FFF72EFB05463068204200D0DF
:102080004CE6FFF727FB401B6428F6D9032009B074
:10209000F0BD3068C00600D487E06748B7E08A0228
:1020A000120F644B9A5C0902890F491CF368049C67
:1020B000234200D0A8E03068C00600D5A3E05F4806
:1020C000A2E0012081433160FFF704FB0546306840
:1020D000400700D426E6FFF7FDFA411B0320022942
:1020E000F5D9A3E001218843B060480359490A6843
:1020F00082430A60FFF7EEFA0546B068800700D415
:1021000021E6FFF7E7FA411B03200229F5D98DE00C
:102110001F2000027168814307980069000208438C
:102120007060FFE5306DA0433065039A9002316D19
:10213000814331655402464FFFF7CCFA0546306DB6
:1021400020421CD0FFF7C6FA411B0320B942F6D942
:102150006CE09002316D01433165306D2043306594
:1021600054023B4FFFF7B6FA0546306D204206D1C8
:10217000FFF7B0FA411B0320B942F6D956E00298A6
:102180000028079900D0DAE5B06B019A9043B0635C
:10219000D5E57C063068204200D1F3E5FFF79AFAD6
:1021A000411B03200229F5D940E024482FE0FFF726
:1021B00091FA05463068204200D1AFE5FFF78AFA70
:1021C000411B03206429F5D930E0FD200004F168AB
:1021D0008143079B2C330DCB084310431843F06019
:1021E0002748401C316801433160FFF773FA044609
:1021F0003068384200D0C5E5FFF76CFA011B0320B8
:102200000229F5D912E00C485043FEF783FCF1682F
:102210000906090F0A4A515CC8400A4908600A4881
:102220000068FFF779FA002800D17BE509B0F0BD1E
:1022300000127A00B665000800093D000024F40091
:102240009E6500081400002010000020007000406F
:102250008813000020000140401E010E01D0012023
:1022600070470749074A5060074803680B4003213D
:10227000890759180160002090600721116070479C
:10228000FFFFFF0010E000E020ED00E0B0B53822D5
:10229000825C012A01D10220B0BD024638320223FD
:1022A0005370006843687024A3430D681D4384681D
:1022B000456001239D07A84205D0584DA84202D091
:1022C000574DA84204D18025AC4349682143816021
:1022D000002010705370B0BD70B5002821D00446A6
:1022E000054638356878002804D10020287020463B
:1022F00000F03EF80220687021680A680120860715
:10230000B14205D0454B994202D0454B99420AD182
:1023100070239A43A368134322463A32B14207D14D
:102320000CE0012070BD134622463A32B14205D07E
:102330003A4EB14202D03A4EB14205D1032636029E
:10234000B34326691E4300E01E4680239E43636913
:1023500033430B60E368CB6263688B624861107142
:10236000107050709070D0706870002070BDC046C2
:1023700010B500681649884215DC01218A07904291
:102380001BD01449884222D11348416810220A43C5
:1023900042601124002120460A46FFF7F7F9204643
:1023A000FFF7E8F910BDEC4988420BD0E9498842B3
:1023B0000DD109480168202207E0074842680A4316
:1023C000426010BD0448016804220A43026010BD47
:1023D000FF07014000100040341002403921415CE9
:1023E000012918D10146393102220A700068012101
:1023F0008A07904205D0D74A904202D0D64A9042EE
:1024000004D1826807231340062B02D002680A43D6
:1024100002600020704701207047C0460014014050
:1024200000080140F0B53822825C012A01D1022067
:10243000F0BD0246383202235370504E3346773B8C
:102440000468A0681840A0600D6800234F2D1EDCB2
:102450001F2D35DD202D37D0302D35D0402D00D02B
:1024600086E0206A256A0126B5432562A569F02623
:10247000B543CE6836012E43A6610A25A8434968B4
:1024800001432162A06847210143302069E06F2D9C
:1024900026DD01204703BD4240D000038542184697
:1024A0001AD0702D64D1A06830404D688E68C9681C
:1024B0002E43090231430143A160A068772139E02E
:1024C000002D01D0102D53D1A06870218843054301
:1024D00007202843A0601846137001215170F0BDF9
:1024E000502D29D0602D43D11020C043256A0540CE
:1024F00025620F252D03A669AE43CD682D03354314
:10250000266AA561A025AE434968090131432162CD
:10251000A16867250D430540A56024E0A568354006
:102520004E688F68C9683743090239432943A1605F
:102530008003A168014315E0206A256A0126B5439E
:102540002562A569F026B543CE6836012E43A66103
:102550000A25A843496801432162A0685721014325
:1025600020208143A1601846137001215170F0BDF5
:102570000120137001215170F0BDC046FF00FFFF24
:102580007047B0B504464020C543206801698907FB
:1025900017D5C168890714D529463E31016101214B
:1025A00021768069800703D02046FFF7E9FF05E028
:1025B000204600F0D9F8204600F0CDF90020207622
:1025C00020680169490718D5C168490715D529460A
:1025D0003C3101610221217680698005800F03D0A2
:1025E0002046FFF7CDFF05E0204600F0BDF820466D
:1025F00000F0B1F90020207620680169090717D59D
:10260000C168090714D529463831016104212176B2
:10261000C069800703D02046FFF7B2FF05E02046DF
:1026200000F0A2F8204600F096F9002020762068FD
:102630000169C90618D5C168C90615D529463031C2
:10264000016108212176C0698005800F03D02046F2
:10265000FFF796FF05E0204600F086F8204600F0E0
:102660007AF90020207620680169C90709D0C1687D
:10267000C90706D029463F310161204600F0B6F96E
:1026800020680169490606D5C168490603D5056178
:10269000204600F0ACF9B0BD70B586B000240594BA
:1026A00004940394029401940068CE49884228D08F
:1026B000CD49884237D00125A907884248D127480B
:1026C000016829430160016829400091009901686F
:1026D0000226314301600068304000900596049462
:1026E000039402960320019000980520000701A999
:1026F000FEF71EFF0596049403940296E8020190EB
:1027000022E016480168042211430160006810406D
:10271000009005940494039402200290C02001903C
:1027200000980F4811E0022002900C490A68024309
:102730000A60096801400091062005900494039402
:102740000320400301900098064801A9FEF7F0FE1F
:1027500006B070BD00140140000801402C1002407A
:1027600000080050000400507047000070B5382386
:10277000C35C012B01D1022070BD03463833022413
:10278000E241032A25D8C0467A4412795200974480
:102790000124496A0068026A0125AA430262026AAA
:1027A0004568866945607325AE430D68354385618C
:1027B0004D684563A2438C6814430462826908240F
:1027C0001443846182690424A2438261C968183079
:1027D0006DE001200021197070BD0068026A1024AC
:1027E000A2430262026A4468856944607324240239
:1027F000A5430C6824022C4384614C688463202424
:10280000A2438C682401144304620122D402856926
:10281000254385619202846994438461C9680902F1
:10282000183044E0012214020068056AA5430562DD
:10283000046A4568C66945607325AE430D68354333
:10284000C5614D68C563520294438A6812022243EF
:102850000262C26908241443C461C2690424A24309
:10286000C261C96822E0012214030068056AA54319
:102870000562046A4568C669456073252D02AE434A
:102880000D682D023543C5614D6805645503AC43A1
:102890008D682D0325430562D402C5692543C561B2
:1028A0009202C4699443C461C96809021C30026879
:1028B0000A43026000200021197070BD70B5002825
:1028C00021D00446054638356878002804D1002018
:1028D0002870204600F03EF80220687021680A68DF
:1028E00001208607B14205D03E4B994202D03E4BB3
:1028F00099420AD170239A43A368134322463A327D
:10290000B14207D10CE0012070BD134622463A3295
:10291000B14205D0334EB14202D0334EB14205D15F
:1029200003263602B34326691E4300E01E46802379
:102930009E43636933430B60E368CB6263688B62D9
:1029400048611071107050709070D07068700020E5
:1029500070BDC0467047704702463A32002908D021
:1029600008290CD0042910D1531C1B78012B0AD143
:102970000FE01378012B06D10223137013E0931C90
:102980001B78012B05D001207047D31C1B78012B2D
:10299000F9D10223082903D0042903D1537002E09E
:1029A000937000E0D3701F221140012213468B4028
:1029B0000068016A99430162016A19430162910743
:1029C000884205D00749884202D00749884204D18D
:1029D000816807230B40062B02D001681143016078
:1029E0000020704700140140000801407047704704
:1029F00070B5044680202058202810D101200029DD
:102A000017D0002A15D001252803A368834208D1D6
:102A1000C80706D02069002803D1284670BD0220CF
:102A200070BD256600266666204601F0E1F90028A3
:102A300000D070BD206E01282846FAD120681021F0
:102A40000162EFF31080012282F31088226813687C
:102A50000B43136080F31088304670BDF0B581B031
:102A600000681749884201D001B0F0BD154D2846D5
:102A7000FDF792FB01210C0287B2FF2F01D8E11B69
:102A800000E00021104EF019FDF77BFB304629468F
:102A90003A46FDF75DFB28463946FDF772FB0B48C9
:102AA00029462246FFF7A4FF09480068016804226E
:102AB000914301603046214601F0E2FC01B0F0BDD7
:102AC0000044004014020020140100205C04002097
:102AD0001403002070477047F0B589B00368D969C6
:102AE0001D6820220895049215406C426C41012714
:102AF000FA0216462F3607910E40203E711E8E4177
:102B000026439E685DD0029503930597069005467F
:102B1000583501920F32079F1742089807D0E449B1
:102B20000140012334461C40611800D099E02B4637
:102B30003D4610220146029211404F424F410698F5
:102B4000016E012905980446039A41D0E90607461B
:102B500042D4002F43D0012399050E4074427441A2
:102B6000E902064600D52646002E00D187E08021E6
:102B7000089A11404E424E4129060446069800D557
:102B80003446002C00D186E1402632405442544164
:102B9000690600D505940599002900D004E1EFF3FA
:102BA000108183F3108802681368B343136081F3C4
:102BB00010880021C1660499C16700F073FA09B05A
:102BC000F0BD816E002900D1EEE0884709B0F0BD6C
:102BD0003C46E9060746BCD52746002FBBD10298E4
:102BE00010629068400651D41D46588819885A884A
:102BF000002A069B00D1D7E0814200D1D4E0EFF358
:102C00001084012282F31088089509256D011E6841
:102C10003768AF43376084F31088EFF3108482F392
:102C200010881D68AE689643AE6084F31088049CDB
:102C3000089DAC6200249C661C66EFF3108482F34E
:102C400010881A681568029EB543156084F31088D1
:102C500002225A66081A81B21846FFF7FFFE09B031
:102C6000F0BD190201404E424E41F9070598014658
:102C7000039A5DD100295ED0B90762D469E01905D5
:102C800011620698FFF726FF09B0F0BD069E706F2F
:102C9000006841688AB2002A00D185E01D461C8880
:102CA000A24200D380E069800068800635D4EFF34B
:102CB0001081012080F310887F4A203234682B462F
:102CC00025681540256081F31088EFF3108180F3AB
:102CD0001088326894688443946081F31088EFF31D
:102CE000108180F31088326894684025AC431D46FB
:102CF000946081F310880499996200213166EFF3A2
:102D0000108180F3108830680268029B9A43026049
:102D100081F31088706FFEF74CFA022070662888E5
:102D20006988401A81B23046FFF798FE09B0F0BDBD
:102D300031460029A0D11362E96A1943E962B90753
:102D400007D5002C05D002211162E96A04260E4342
:102D5000EE62790707D5002C05D004211162E96ADB
:102D600002260E43EE6202990C4366426641390721
:102D7000044600D53446002C04D108211162EC6AC7
:102D80000C43EC6228469906089D0D406C426C414C
:102D900001990F42059D069E08D1002D054609D0D8
:102DA000E96A002902990ED109B0F0BD2546002D2F
:102DB0000546F5D11162E96A04980143E962E96ABE
:102DC00000290299F0D0049807404C424C41002F52
:102DD000059800D020461F46002805D1B16E002975
:102DE00002D0304688473268E96A28230B40916850
:102DF00040200140C91806D13046FFF76CFE002084
:102E0000E86209B0F0BDEFF3108187F31088092262
:102E1000520133681C6894431C6081F31088EFF3FF
:102E2000108187F31088326893680897BB439360DA
:102E300081F31088316E01290BD1EFF31081089ACC
:102E400082F31088326813681024A343136081F35F
:102E500010880499A96200213166B16631688968D9
:102E600049061FD5EFF31081089A82F31088326863
:102E700093688343936081F31088706F002811D0AA
:102E80000C498163FEF7B6F900288DD0706F816B15
:102E9000884709B0F0BDC16E002900D184E788479A
:102EA00009B0F0BD3046FFF716FE09B0F0BDC046D0
:102EB00020010004793A0008DFFEFFFFB0B50028CA
:102EC00017D00446C06F002805D178200021215476
:102ED000204600F02BF82420E067206801680125D7
:102EE000A9430160204600F083FE002803D0284655
:102EF000B0BD0120B0BD606A002802D0204600F0BD
:102F0000EFFC0920C00221684A6882434A60886851
:102F10002A22904388600868012202430A60204602
:102F200000F048FD05462846B0BD0000F0B587B06A
:102F3000044600682049884201D007B0F0BD012056
:102F400041041E4AD3680B43D360116801431160EA
:102F5000116801400191042706970320059000267F
:102F60000496022003900C2002900198052000078F
:102F700002A9FEF7DDFA124D8020124982C52E60AB
:102F80006E60A860EE602E616E61AE61083D2846FD
:102F9000FEF7BEF9002801D0FEF707F9AC626567BD
:102FA0001C24002120460A46FEF7F0FB2046FEF7CF
:102FB000E1FB07B0F0BDC046004400402C100240C9
:102FC000140300205800024070477047F0B585B0E8
:102FD0000546C06F202811D1012000290CD01646CB
:102FE000002A09D001200703AA68BA4209D1CA07FA
:102FF00007D02A69002A04D105B0F0BD022005B02F
:10300000F0BD019103932C46503400200290606380
:103010002120E867FEF75EFB049066802680A868A2
:10302000B84202D12869002801D0019F02E00027A0
:103030000198029003990CE0029A10881849084000
:1030400029688862921C0292374603996088401E64
:1030500060806088002810D00091802100262846DA
:103060003246049B00F018FF002814D1002FE3D053
:103070003878296888627F1CE7E7009140210022A8
:103080002846049B00F008FF2021E9670028B3D000
:10309000032005B0F0BD2020E867032005B0F0BD97
:1030A000FF010000704780B500280DD007290BD81C
:1030B00001238B40017E002A01D1994300E019438E
:1030C0000176C9B200F001F880BDF0B583B00E46BC
:1030D000054681880068002402942246FEF7F1FA32
:1030E000A989A8682246FEF7ECFA802434400096AD
:1030F000A98A28692246FEF7E4FAA989A868012767
:103100003A460197FEF7DDFAA98A28692246FEF7BA
:10311000D8FAA989A868029AFEF7D3FA4024344065
:10312000A98A28692246FEF7CCFAA989A8683A46F6
:10313000FEF7C7FAA98A28692246FEF7C2FAA989CA
:10314000A868029E3246FEF7BCFA2024009F3C404D
:10315000A98A28692246FEF7B4FAA989A868019AC3
:10316000FEF7AFFAA98A28692246FEF7AAFAA989CA
:10317000A8683246FEF7A5FA10243C40A98A2869BF
:103180002246FEF79EFAA989A868019F3A46FEF7F3
:1031900098FAA98A28692246FEF793FAA989A868AD
:1031A0003246FEF78EFA0824009E3440A98A286928
:1031B0002246FEF786FAA989A8683A46FEF781FA00
:1031C000A98A28692246FEF77CFAA989A868029A8A
:1031D000FEF777FA04243440A98A28692246FEF7CC
:1031E00070FAA989A8683A46FEF76BFAA98A286995
:1031F0002246FEF766FAA989A868029AFEF761FAE4
:1032000002243440A98A28692246FEF75AFAA9897D
:10321000A8683A46FEF755FAA98A28692246FEF7B9
:1032200050FAA989A868029AFEF74BFA34463C4046
:10323000A98A28692246FEF744FAA989A8683A466D
:10324000FEF73FFAA98A28692246FEF73AFAA988CA
:1032500028683A46FEF735FA2E7603B0F0BD000036
:10326000F0B581B00446FEF735FA05462068A1881E
:103270000122FEF726FA3448006800214162416AC3
:10328000092908D8416A092905D8416A092902D8BB
:10329000416A0A29F3D3A188206800263246FEF746
:1032A00010FA274620373878002806D1FEF712FAA0
:1032B000401B6428F7D30348E0613E70E06901B029
:1032C000F0BDC046000080BFF0B581B0012A37DBF9
:1032D00014460D4606461C4F05E029610020A861F2
:1032E0002435641E2CD0A889B042F9D1A868314693
:1032F000FEF7E2F93968496A0128EED06961686928
:103300002969884208D228696969AA690D4B5A431C
:10331000081AC018801802E068692969401AFDF788
:103320007DFB0A4A0A4BFDF79BFA0022094BFDF789
:1033300097FAFDF7D3FBE861202001212954CFE75C
:1033400001B0F0BDFFFF00001C0400206E8B321B9B
:103350006492A13F0000E03FFEE7000010B582B09C
:103360000948016801221143016000681040019082
:1033700001980B24002120460A46FEF707FA204652
:10338000FEF7F8F902B010BD30100240F0B58FB072
:1033900000240E940D946D480168042631430160A9
:1033A00001683140039609910999016880220592CC
:1033B00011430160016811400991099901680125D3
:1033C0002943016001682940099109990168022295
:1033D000089211430160016811400991099901683F
:1033E00008221143016000681040099009980520E7
:1033F000049000070690DF21490107912246FEF75D
:1034000060F95348302101912246FEF75AF951489C
:1034100051492246FEF755F9504831462246FEF7FB
:1034200050F900950C95312007040B97029768031B
:103430000A900AAE464D28463146FEF779F80898BC
:103440000C900B970F200A9028463146FEF770F833
:103450000C940B94412000010A90069F3846314697
:10346000FEF766F80D940C94009D0B9507980A9052
:1034700038463146FEF75CF80D940C940B952F46B8
:1034800001980A9032483146FEF752F80C940B949A
:1034900003200002019041300A902E4D284631460B
:1034A000FEF746F80D940C940B972B480A9028468B
:1034B0003146FEF73DF80C940B9401980A9024488D
:1034C0003146FEF735F808980C90029D0B95F803ED
:1034D0000A9006983146FEF72BF80C940B95079846
:1034E00020300A901A483146FEF722F80D940C94C9
:1034F0000B9703980A9019483146FEF719F8089877
:103500000C900B9505980A9012483146FEF710F87A
:10351000049D284621462246FEF738F92846FEF744
:1035200029F90625284621462246FEF72FF9284686
:10353000FEF720F90725284621462246FEF726F900
:103540002846FEF717F90FB0F0BDC0462C10024018
:1035500000080050000400503E940000000C005091
:1035600010B58AB02848002489498A4A274B03604D
:1035700042608460C16004614461099408940794C6
:10358000059404940394029401940094FEF7A4FE1D
:10359000002801D0FDF709FE0120000306901A481B
:1035A00006A9FEF73FFF002801D0FDF7FEFD1648F3
:1035B000FFF784F9002801D0FDF7F7FD0594049486
:1035C000114804A9FEF762FE002801D0FDF7EDFDC9
:1035D000039402940194602000900B4869462246AF
:1035E000FFF7C4F8002801D0FDF7DFFD0648694663
:1035F0000422FFF7BBF8002801D0FDF7D6FD0248F2
:10360000FFF74AF80AB010BD9C03002000080140F3
:1036100010B58AB0284800245D495E4A274B0360F4
:1036200042608460C1600461446109940894079415
:10363000059404940394029401940094FEF74CFEC4
:10364000002801D0FDF7B1FD0120000306901A48C3
:1036500006A9FEF7E7FE002801D0FDF7A6FD1648F3
:10366000FFF72CF9002801D0FDF79FFD0594049485
:10367000114804A9FEF70AFE002801D0FDF795FDC8
:10368000039402940194602000900B4869462246FE
:10369000FFF76CF8002801D0FDF787FD0648694662
:1036A0000422FFF763F8002801D0FDF77EFD0248F1
:1036B000FEF7F2FF0AB010BDDC0300200014014049
:1036C000B0B58AB0314800243149324A0125AB07F0
:1036D000036042608460C16004614461099408949D
:1036E0000794059404940394029401940094FEF7C3
:1036F000F3FD002801D0FDF758FD2803069023486C
:1037000006A9FEF78FFE002801D0FDF74EFD1F48E9
:10371000FFF7D4F8002801D0FDF747FD0594049485
:103720001A4804A9FEF7B2FD002801D0FDF73DFDBF
:103730000394029401946020009014486946224644
:10374000FFF714F8002801D0FDF72FFD0F48694658
:103750000422FFF70BF8002801D0FDF726FD0B48E7
:1037600069460822FFF702F8002801D0FDF71DFD89
:10377000064869460C22FEF7F9FF002801D0FDF744
:1037800014FD0248FEF788FF0AB0B0BD5C030020BC
:10379000E70300007F02000010B582B04F4800210F
:1037A00041610C4A1F230C4C046043608160C2607D
:1037B00001910091FEF790FD002801D0FDF7F5FC86
:1037C00046486946FEF762FD002801D0FDF7EDFC92
:1037D00002B010BDFFFF00000010004010B50B4804
:1037E00000210C220A4B01624162E124640218C0EC
:1037F000016041608160C260016141610838FFF78A
:103800005DFB002801D0FDF7D0FC10BD5C0400205A
:1038100000440040FEF750FAFEE77047704780B55D
:10382000FDF75CFF80BD000070B59CB000241794CC
:10383000169415941494139412941194109408945B
:103840000794069405940494039402940194032528
:10385000E8021D490A6882430120C302D2180A60A7
:1038600081051B91A9041A91010419910226189649
:10387000052109040F910E900EA8FEF72BFA0028DF
:1038800003D0EFF3108072B6FEE70D940C940B9406
:103890000A950F20099009A80121FEF79DF800283C
:1038A00003D0EFF3108072B6FEE7049400966846EA
:1038B000FDF788FF002803D0EFF3108072B6FEE713
:1038C000FEF79EF91CB070BD00700040704700000C
:1038D00080B50248FEF755FE80BDC0461C0400209E
:1038E000B0B5416ACA070CD18A0714D44A071CD460
:1038F0000A0724D4CA062CD48A0634D44A063CD4F7
:103900004CE00122520403685C689443826A2243BB
:103910005A608A07EAD50122120403685C6894435E
:10392000C26A22435A604A07E2D501229204036820
:103930005C689443026B22435A600A07DAD501227D
:10394000D20303685C689443426B22435A60CA0600
:10395000D2D50122120303689C689443826B2243F0
:103960009A608A06CAD50122520303689C68944370
:10397000C26B22439A604A0610D5012213050268E1
:1039800054689C43056C2C4354609D4206D103232C
:103990005B0554689C43436C23435360090607D579
:1039A0000121C904026853688B43806C184350603E
:1039B000B0BD0000F0B583B0044606467836002757
:1039C000F760FDF787FE03462068016809071FD5E9
:1039D00028480090012002904105002220461D4603
:1039E00000F05AFA002811D0EFF31080029981F309
:1039F000108821680A6880239A430A6080F310883F
:103A00002020E0670320377003B0F0BD20682B460C
:103A10000068400725D5174800900125A905002218
:103A2000204600F039FA00281BD0EFF3108085F310
:103A3000108809214901226813688B43136080F3C1
:103A40001088EFF3108085F3108821688A68AA43F4
:103A50008A6080F310882020B0600320377003B0A4
:103A6000F0BD2020E067B060276667663846377093
:103A700003B0F0BDFFFFFF0180B5806A01465231FF
:103A800000220A8152214252FFF725F880BDF0B58D
:103A900081B0806AC16F8022835802465232046826
:103AA000A5682D0612D5212910D100211180EFF330
:103AB0001081012484F3108804682568C026B5436A
:103AC000256081F310882021C16704680146803198
:103AD000A46864062CD5222B2AD100231381EFF38E
:103AE0001084012282F3108809256D010668376869
:103AF000AF43376084F31088EFF3108482F31088AB
:103B00000568AE689643AE6084F31088046E012C9D
:103B10000AD1EFF3108482F310880268156810262A
:103B2000B543156084F3108820220A60836603661B
:103B30004A68102313434B60FEF7CDFF01B0F0BD80
:103B400070B50146806A02465832096809688906DC
:103B500032D400215180EFF31083012181F31088CA
:103B60000C0205682E68A6432E6083F31088EFF3DD
:103B7000108381F310880468A5688D43A56083F3E2
:103B80001088EFF3108381F310880468A56840263D
:103B9000B543A56083F3108820239362036E012B45
:103BA0000AD1EFF3108381F3108801680C681025A7
:103BB000AC430C6083F3108800214166016E01293B
:103BC00003D11188FEF74AFF70BDFFF7FDF970BD04
:103BD00080B5806A01214166016E012905D1582115
:103BE000415A4908FEF73AFF80BDFFF7EEF980BD64
:103BF000F0B581B00446016808686E4A0240A068CA
:103C000023690343606918431043E2691043086065
:103C1000032630034B688343E06818434860A56976
:103C2000654B994202D0206A284300E028460B25C4
:103C30002D028F68AF4307438F606048814208D0F0
:103C400099420AD05E48814238D15E48C06C5FA577
:103C500007E05C48C06C800802E05A48C06C800AEB
:103C6000594D8007000F2F580125E80399422AD0AB
:103C7000824212D1082F00D996E0C0467F443F7996
:103C80007F00BF44043C46914C9191917300FDF735
:103C9000BFFF002800D069E085E0082F00D983E04D
:103CA0007F443F797F00BF44042F3F7F457F7F7F64
:103CB0007200FDF7ADFF002869D174E010270125DF
:103CC000E8039942D4D1082F6ED8C0467F443F798B
:103CD0007F00BF44046909690F6969693500FDF710
:103CE00097FF00282CD15EE036480068C00626D534
:103CF0003B4825E0FDF7A6FF002821D153E0FDF762
:103D000091FF002832D14EE0FDF78CFF00283ED114
:103D100049E02C480068C00627D5314826E0FDF769
:103D200091FF002822D13EE026480068C0062DD52C
:103D30002B482CE0FDF786FF002828D133E02748E8
:103D400062685643B0422FD3110388422CD8010E2B
:103D500056080002002380195941FCF7C9F922498D
:103D60004118224A91421CD31EE01C484000616861
:103D70004A081018FCF7CEFE0246103A19498A424A
:103D800012D201400007400F08430AE0134861685F
:103D90004A081018FCF7BEFE01461039114A91423C
:103DA00002D22168C86000250020A066E06628468F
:103DB00001B0F0BDF369FFEF00480040004400404F
:103DC0000038014000100240C065000801000000FA
:103DD0000400000002000000080000000024F400BD
:103DE00000093D00F0FF000000FDFFFF00FD0F0097
:103DF000F0B581B01346054658202A522E46583653
:103E00000024F46269652220B062686F002815D032
:103E10000A461F4F1F49C16207631C4941638463FF
:103E200029682431FDF7C6FA002807D01020F06277
:103E30002020B0620124204601B0F0BD286900288E
:103E40000BD0EFF31080012181F3108809022A685A
:103E500013680B43136080F31088EFF31080012187
:103E600081F310882A6893680B43936080F310886D
:103E7000EFF3108081F3108829688A684023134388
:103E80008B6080F31088204601B0F0BD8F3A0008A7
:103E9000D13B0008413B0008F0B587B015460F46FE
:103EA0000668F1693940C91B4A424A410021AA42C9
:103EB00025D106930C9C002C24D00B46611C26D1E6
:103EC000F1693940C91B4A424A41AA4214D1F169F9
:103ED0003940C91B4A424A41AA420DD1F1693940D1
:103EE000C91B4A424A41AA4206D1F1693940C91B5D
:103EF0004A424A41AA42E3D0184607B0F0BD0846FC
:103F000007B0F0BDFDF7E6FB032007B0F0BD02935C
:103F100001467831039101210191C9020491059074
:103F200006E0C9693940CA1B51425141A9424BD1EF
:103F3000FDF7D0FB0699411A0323A142DCD805986E
:103F400001680A685207ECD5CA6912073FD4CA69EA
:103F50002646049C22423446E3D01F460498086259
:103F6000EFF31082012181F3108809235B0105988A
:103F7000046825689D43256082F31088EFF3108262
:103F800081F31088059803689C688C439C600598B1
:103F900082F31088026E012A0BD1EFF3108281F3B5
:103FA000108801680B681024A3430B60059882F306
:103FB00010882021039B99600022026682661A7095
:103FC000D960384607B0F0BD029807B0F0BD0825AB
:103FD0000D62EFF31081019880F3108809225201DD
:103FE000059B1B681C6894431C6081F31088EFF3E9
:103FF000108180F31088059A126893688343936058
:10400000059B81F31088196E01290CD1EFF3108103
:10401000012282F310881A6813681024A3431360E6
:10402000059B81F310882021039A91600021196675
:1040300099661170D56007B0F0BD000080B50248E8
:10404000FEF74AFD80BDC0465C040020F0B582B09A
:1040500000283AD00268002A37D04168836800916E
:104060008B4232D202240099641A01941B1D4D42E6
:10407000D7183C1F2478202C20D8DE1E8660EC1830
:10408000032C1FD0F91E0978202918D89E1E86609F
:104090000199C918042915D0B91E097820290ED80C
:1040A0005E1E8660012C0DD0791E0978202906D865
:1040B00083601B1DE9180429DAD103E01E1F009953
:1040C0008E4202D10099491E816002B0F0BD00000D
:1040D000F0B581B0002824D0044601200602BF4F6D
:1040E00004E0796828468847002C1AD02546E16804
:1040F0002468314205D1A868002802D0FFF7E8FF04
:10410000E968314205D12869002802D079688847DA
:10411000E9688805E5D4286A0028E2D079688847EC
:10412000DFE701B0F0BDC04602460020002A1BD0E8
:10413000002919D40320411A0832104600680028CB
:1041400012D0032910D0006800280DD002290BD00E
:104150000068002808D0012906D00068002803D094
:104160000A1D00291146E9D17047002811D00146E7
:1041700008310020096800290ED0096800290AD0FA
:104180000968002909D0001D09680029F2D1401EE4
:10419000704700207047401C7047801C7047002803
:1041A00005D0017B03200840411E88417047002054
:1041B0007047002804D0017B0839484248417047C5
:1041C00000207047002804D0017B40394842484114
:1041D000704700207047002804D0017B1039484206
:1041E0004841704700207047002804D0007B811EA2
:1041F0004842484170470020704780B5002213466E
:1042000000F002F880BD0000F0B58DB016460546FE
:10421000714A0024146054600C940B940A9409941D
:10422000089407940694002800D1B4E00F460029B2
:1042300000D1B0E0049307970695684806C8006867
:104240000A910B920C902820884700282ED00396C4
:1042500028210590FBF795FF0026052F2BD360A1A1
:10426000032228460292FBF7ACFF0028059834D0C1
:10427000BE4223D2A85D202826D8784281194A1C44
:1042800030D2AA195378202B6CD88B1C2AD0937863
:10429000202B69D8CB1C25D0D378202B66D8091DBC
:1042A00020D01179361D2029E8D90EE020464A4A4F
:1042B000791E76D376E00598BE42DBD306A901F0DD
:1042C0009DF8002816D161E0089E0896059806A979
:1042D00001F094F800280DD158E0029E0896BE42E5
:1042E000ECD2C7E70598791E089106A901F086F877
:1042F00000284BD00498002863D0079E089A06989F
:104300000490002802963AD0B24238D20221881B8B
:104310000190131D77420498C618311F097820298F
:1043200026D8DA1E0892F918032925D0F01E007845
:1043300020281ED89A1E08920198C01804281BD065
:10434000B01E0078202814D85A1E0892012913D0D4
:10435000701E007820280CD808931B1DF81804281C
:10436000D9D109E0761CB0E7B61CAEE7F61CACE785
:104370001A1F0298824202D10298421E08920298A5
:10438000824203D20498805C00281AD00598FFF777
:104390009FFE039E104A002D10D0079F0898791E9B
:1043A00000D22146B84203D30846002E02D103E0D2
:1043B000002E01D0291831601560506000200DB02A
:1043C000F0BD039A002A03D00898069908181060D7
:1043D00005980DB0F0BDC046000100208800002007
:1043E000EFBBBF0080B501F001FB0020014600F0EB
:1043F0008DFB0120014600F089FB80BD10B5144CF7
:104400002046FCF734FE20461030FCF730FE2046F4
:104410002030FCF72CFE20463030FCF728FE2046EA
:104420004030FCF724FE20465030FCF720FE60347C
:104430002046FCF71CFE074C2046FEF711FF2046E5
:104440002430FEF70DFF48342046FEF709FF10BD6B
:10445000180000209400002080B582B0019004482C
:1044600001A90122034BFEF7B1FD019802B080BD06
:104470005C040020FFFF00008280016070470000A4
:10448000F0B589B0FFF7B9FE002800D1EAE102904B
:1044900081680120039005E00870FE4801F0E8FA09
:1044A00004990968002900D1E6E10491086AFAA19B
:1044B000FBF779FE00283CD0049D2C6A2046FCA125
:1044C000FBF771FE002800D18BE02046FAA1FBF734
:1044D0006AFE002800D1EFE02046F9A1FBF763FE59
:1044E000002800D188E12046F7A1FBF75CFE0028F8
:1044F00000D196E12046F8A1FBF755FE0028CFD168
:10450000FDF7E8F8FCF783FA0146F44C2046FCF787
:1045100072F82146FCF7B4F8F14900917F21CA05F1
:1045200000210B4600F082FAFCF786FA0146EDA066
:10453000B4E7049C2046FFF745FE002800D1A6E121
:10454000A66808E00121F74822462B4600F05AFBF6
:10455000FCF7B6FD3668002EAED0B069F169FCF705
:10456000BDFA0546376A3846E0A1FBF71CFE012478
:1045700000282DD03846DEA1FBF715FE002827D0F5
:104580003846DCA1FBF70FFE0224002820D0384675
:10459000D9A1FBF708FE00281AD03846D7A1FBF7AF
:1045A00002FE0324002813D03846D5A1FBF7FBFDFB
:1045B00000280DD03846D3A1FBF7F5FD04240028D0
:1045C00006D03846D0A1FBF7EEFD002800D067E109
:1045D00038785728B6D04D2800D054E10021D24871
:1045E000B2E72846FFF7EEFD002800D115E1AD68DF
:1045F00013E000262846FFF7DCFD002831D0A8692B
:10460000E969FCF76BFA01461C207043E64A101872
:104610000022039B01F0A0F92D68002D00D13FE797
:104620002C6A2046DCA1FBF7BEFD0028E1D0204625
:10463000DAA1FBF7B8FD00280DD02046D8A1FBF782
:10464000B2FD002800D020E102262846FFF7B1FD88
:104650000028D4D105E001262846FFF7AAFD00284E
:10466000CDD12846FFF7B7FD002818D02C69204689
:10467000CE49FBF798FD002816D005A9204601F089
:1046800064FF01460598A04209D01C207043C64A29
:104690001018039A134601F05FF92D68BDE7C4486E
:1046A00001F0FAFE2D68B8E71C207043BE490818D7
:1046B00001F034F92D68B0E72846FFF756FD0828C9
:1046C0004FD100212846FFF72FFD4069401E44428C
:1046D000444101212846FFF727FD4069012800D108
:1046E000A41C02212846FFF71FFD4069012800D1C4
:1046F000241D03212846FFF717FD4069012800D13A
:1047000008347020844304212846FFF70DFD4069DA
:10471000401E414241410801241805212846FFF767
:1047200003FD4069401E41424141480124180621D1
:104730002846FFF7F9FC4069401E4142414188018B
:10474000241807212846FFF7EFFC4069012801D112
:1047500080200443E1B27448FEF7B7FC8C4801F0B6
:1047600087F98C4801F084F96F48027E06A9002081
:104770000872302031235406044600D51C468C7143
:1047800054B2002C04461ADA1C46CC719406044636
:1047900019D44C71D40604461AD51C460C71140762
:1047A000044619D4CC70540704461AD51C468C70A4
:1047B0009407044619D44C70D2071BD16CE6CC7117
:1047C00094060446E5D51C464C71D4060446E4D450
:1047D0000C7114070446E5D51C46CC7054070446FA
:1047E000E4D48C7094070446E5D51C464C70D2077F
:1047F00000D151E618464FE62846FFF7DAFC0028BC
:1048000000D14DE60498406902281CD001281DD033
:10481000002825D15648C0691AE0654801F03CFEE1
:104820003EE62846FFF7BBFC00280AD02846FFF7E3
:10483000DBFC0121444A1170411E88414349087044
:104840002EE643A0EAE74A48406E01E04848006C83
:10485000FCF730F9024647480B4601F009F91FE61C
:1048600045A0DBE7544801F017FE00242046FFF77F
:104870002FFC204609B0F0BD0298FFF729FC039CED
:10488000204609B0F0BD29A00BE0464809E04948A0
:1048900007E0C046E36500086D6F746F72000000AA
:1048A0001AA001F0F9FD0024204609B0F0BDC04671
:1048B000736572766F000000373448433539350030
:1048C00048432D53523034006465666563745F72EB
:1048D0006573756C740000006164630080CB244BC9
:1048E0000000A54225640D0A000000004D310000C3
:1048F000573100004D320000573200004D330000A8
:10490000573300004D34000057340000696E766163
:104910006C6964206D6F746F72206E756D62657264
:104920000D000000E4040020C4050020696E7661DB
:104930006C6964206D6F746F7220736869656C6454
:1049400020747970650D0000090100200A01002023
:104950006465666563745F726573756C74206973F2
:10496000206E6F74206120626F6F6C65616E000055
:1049700094000020E8650008496E76616C69642047
:1049800073656E736F72206E756D626572000000E4
:104990004A6600085B66000853310000533200008D
:1049A0005333000034660008F80600206B660008E8
:1049B0000A6600081F660008FC650008FCF798FE00
:1049C000FEF732FFFEF7E2FCFEF7C8FCFEF706FF3B
:1049D000FEF776FEFEF71CFEFEF7C2FDFEF7DCFEDC
:1049E000012002020A480B49FEF702F80A48006853
:1049F000016804229143016008A001F04DFDFFF71A
:104A0000F1FC0948FDF7EAFCFFF7F8FCFCE7C046BB
:104A10005C04002014020020140300205465737409
:104A20002073746172740D001C040020F0B581B015
:104A30001C4616460D46FBF7DEFD07460698214646
:104A4000FBF7D9FD01463846FBF7DDFD074630464A
:104A50002946FBF7D0FD01463846FBF711FE2146FB
:104A6000FBF778FD01B0F0BD70B5012825D0002816
:104A70004BD1624E30462C30052109078022FFF7CA
:104A8000FBFC304664305B4C08222146FFF7F4FC07
:104A900030469C3001218A022146FFF7EDFC30466A
:104AA000D43010222146FFF7E7FC3046F83031467B
:104AB000C03132468832503622E04D4E30461030FA
:104AC00005210C0702222146FFF7D6FC304648306C
:104AD000494D80222946FFF7CFFC304680304022E6
:104AE0002946FFF7C9FC3046B83001222146FFF7BE
:104AF000C3FC3046DC303146A43132466C323436A9
:104B00000023137033700B70037070BDF0B583B069
:104B10000446012829D0002C5ED105200707FB4D53
:104B20004022284602913946FFF7A6FC2846083065
:104B300030492022FFF7A0FC2846103001214A020C
:104B40003946FFF799FC2946FC312D480246A8CA90
:104B5000A8C1E8CAE8C12321C900EC4A51181C3099
:104B60002CC82CC16CC86CC135E0E64E214D022228
:104B7000304602912946FFF77FFC30460830042278
:104B80002946FFF779FC304638301B491022FFF7E1
:104B900073FC304640300127FA032946FFF76CFCCE
:104BA000304670300521090701913D032A46FFF781
:104BB00063FC3046783020220F49FFF75DFC304619
:104BC000A8300C492A46FFF757FCB036FA023046A7
:104BD0000199FFF751FC02992046002903D000F00B
:104BE000D7F803B0F0BDFFF73FFF03B0F0BDC046FC
:104BF000E40400200004005000080050C405002018
:104C0000F8060020F0B587B0002800D1BAE00E46C3
:104C10000546501EC1B2032900D9B3E0012E284633
:104C200004D0002E00D0ADE028461C3004910121B4
:104C3000C9071F468F433821514340180146383970
:104C400006910390001F0478002105931846FBF796
:104C500099FE00281CD17F20C10538460291FBF740
:104C600083FE002814D1002C35D0069C608CFBF705
:104C7000CEFE0190208CFBF7CAFE034601980090FF
:104C800000213846029AFFF7D1FE0746049C02E055
:104C9000002C049C28D03846FBF7CEFE039B203B1B
:104CA00081B20122184600F0FFFD059F012E28D099
:104CB000002E67D1E000344E344CC640C440002181
:104CC0003846FBF735FEE1B2002830D101222846F4
:104CD000FEF7E9F93DE0029A0092002138460B46C2
:104CE000FFF7A4FE0746049C3846FBF7A5FE069A8C
:104CF000918A1369C2B21846FCF7E3FC059F012EA6
:104D0000D6D100213846FBF713FE024603990E4622
:104D10002C3E0D46303D0698006834390988002A3B
:104D20001ED10122FCF7CDFC3188286827E0002441
:104D300028462246FEF7B7F938462146FBF706FE1D
:104D4000002806D1F1B201222846FEF7ACF907B0DF
:104D5000F0BDF1B200222846FEF7A5F907B0F0BD7C
:104D600000242246FCF7ADFC38462146FBF7EEFD59
:104D7000024631882868002A01D1012200E0002281
:104D8000FCF79FFC07B0F0BD030407060201050015
:104D9000F0B58DB0012855D0002800D0A9E000243E
:104DA0000394029454480190009406AD564904229D
:104DB0000592534B284600F0D3FC544F384634300C
:104DC0000ECD0EC04ECD4EC000944B4801900294C3
:104DD000039406AE49493046059A494B00F0C0FCA1
:104DE00038466C300ECE0EC02ECE2EC000944248F7
:104DF00001900294039406AE082230463F49404B8E
:104E000000F0AEFC3846A4300ECE0EC02ECE2EC022
:104E10000094394801900294039406AD28463A491B
:104E20002246374B00F09CFC3846DC300ECD0EC0DD
:104E30001ECD1EC03846F8303946C0313A46883259
:104E4000503751E00024039402942B4801900094C1
:104E500006AD2A4904220592294B284600F080FC21
:104E6000284F384618300ECD0EC04ECD4EC000949F
:104E7000214801900294039406AE23493046059AD6
:104E80001F4B00F06DFC384650300ECE0EC02ECEBB
:104E90002EC00094184801900294039406AE304648
:104EA00019492246164B00F05BFC384688300ECE7E
:104EB0000EC02ECE2EC000940F4801900294039491
:104EC00006AD28460D4922460D4B00F049FC3846F8
:104ED000C0300ECD0EC01ECD1EC03846DC30394667
:104EE000A4313A466C323437012313703B700B7097
:104EF00003700DB0F0BDC046E70300005C03002066
:104F00000000E703E4040020DC030020C4050020C7
:104F1000F0B582B05621CB431A46273201780C46B1
:104F2000303C0A2C16460BD30C46413C062C02D2D0
:104F30001E46203604E00C46613C052C1E4644D833
:104F400045782C46303C0A2C14460BD32C46413C69
:104F5000062C02D21C46203404E02C46613C052C71
:104F60001C4632D8019487783C46303C0A2C1446C3
:104F70000BD33C46413C062C02D21C46203404E0B4
:104F80003C46613C052C1C461FD80096C67830462E
:104F900030380A280BD330464138062802D2203355
:104FA0001A4604E03046613805281A460DD80098A4
:104FB000401801994919090100024018E11908181F
:104FC00000019119081802B0F0BD002002B0F0BD38
:104FD000F0B58BB08B680C68E25CE5186B1C222A7C
:104FE00030D11A1B4F68BA422CD209910790012682
:104FF00000220A93194606E0222B0ED0761CA9192E
:105000000B1BBB421CD2AB5D5C2BF5D1761CAB19E4
:105010001B1BBB4214D2521CF0E750190891081A0E
:10502000401C099909698847002809D0022E06907A
:1050300002460A9B089900DAC3E1AD19069A0DE011
:105040000A9B099908681A1A00208A600BB0F0BD03
:105050001070521C5B1CAB4200D3B2E118785C2884
:10506000F6D1C81A01280A9300DABAE1174659782E
:105070000A46223A532A00D9B3E1920001A39A5872
:105080000A9B9746D5510008E3530008E3530008F4
:10509000E3530008E3530008E3530008E353000818
:1050A000E3530008E3530008E3530008E353000808
:1050B000E3530008E3530008D5510008E353000808
:1050C000E3530008E3530008E3530008E3530008E8
:1050D000E3530008E3530008E3530008E3530008D8
:1050E000E3530008E3530008E3530008E3530008C8
:1050F000E3530008E3530008E3530008E3530008B8
:10510000E3530008E3530008E3530008E3530008A7
:10511000E3530008E3530008E3530008E353000897
:10512000E3530008E3530008E3530008E353000887
:10513000E3530008E3530008E3530008E353000877
:10514000E3530008E3530008E3530008E353000867
:10515000E3530008E3530008E3530008E353000857
:10516000E3530008E3530008E3530008D551000857
:10517000E3530008E3530008E3530008E353000837
:10518000E3530008DB510008E3530008E353000831
:10519000E3530008DF510008E3530008E35300081D
:1051A000E3530008E3530008E3530008E353000807
:1051B000E3530008E3510008E3530008E3530008F9
:1051C000E3530008E7510008E3530008EB510008DF
:1051D000015200083A4639700AE0082006E00C2027
:1051E00004E00A2002E00D2000E009203A46387071
:1051F0007A1C022008991B18AB4200D22EE7E0E08F
:10520000062800D2EDE05620C243114627319E7891
:10521000304630380A2808460BD330464138062835
:1052200002D21046203004E030466138052810468E
:1052300036D80490D878059030380A2808460ED31E
:105240000392059A10464138062803D2039A104665
:10525000203004E0613A052A039A104620D80190D4
:1052600002961E79304630380A280C460BD3304659
:105270004138062802D21446203404E03046613812
:10528000052814460CD803955B791D46303D0A2D40
:1052900010D319464139062907D22032114609E0B8
:1052A0000121062000263A4688E019466139052981
:1052B00011464AD8029A049DAA18059D01984519DD
:1052C0002D011202AA18921910190001C0184618CF
:1052D0003046474908401B21C90288420ED0372179
:1052E000890288420A9B039D7BD0802E29D3062009
:1052F000F10A31D1C0210491022138E00A9A901DAF
:105300000899091A06296CDB00785C2869D1D079E4
:10531000752866D110460830FFF7FAFD3549411867
:10532000334A91425DD334490840B105090B08184E
:10533000012109044618F0200490042005900C2057
:1053400016E0012106203A4638E001210620002619
:105350000A9B3A46039D31E0310C03D1E0210491D0
:10536000032104E010293CD8F02104910421059187
:105370003F243546254080353146059B5E1EF6B2FA
:105380003A46BD558D09022B02D12E460A9B11E0EB
:10539000B618721E2540803515700D0B059A032A2C
:1053A00001D12E4604E0B21E2540803515708E0CCA
:1053B0000A9B3A46039D0599049F3E431670521876
:1053C00018E70020107010200A460799C860069858
:1053D000086109990868101A421C01208A600BB004
:1053E000F0BD099C61690698884721460A9B29E619
:1053F00000FCFFFF0020FFFFFF030000F0B595B0A9
:105400000025002934D00F460E68002E30D00095BC
:1054100002907C68BD68281D0390A04207D87019CF
:10542000C74904220192FAF7CCFE002823D0019745
:105430006F1DA74206D87019C2490522FAF7C1FEAE
:10544000002821D0039FA74206D87019BE49042224
:10545000FAF7B7FE00284ED0A542019F00D3BEE068
:10546000715D222918D102983946FFF7B1FD054632
:10547000284615B0F0BD0398B86002980199C16044
:105480000125284615B0F0BD0198876001250298D6
:10549000C560284615B0F0BD70192D2935D00A46D3
:1054A000303A092A31D97B2975D05B2900D096E0A2
:1054B000F968CA087C2A00D991E0491CF960007893
:1054C0005B2800D08BE0681CB8603846FEF7BEFD54
:1054D0007968B868884200D395E03968095C5D292D
:1054E00000D096E0F968491EF96000242021029A54
:1054F0009460D1606DE0012502994D610220C86081
:1055000001988760284615B0F0BD00211491621BF8
:1055100000D20A468D4B08E00126AE401E420FD055
:1055200004AD6C54491C3F290FD08A420BD0445C17
:105530002546303D0A2DF3D325462B3D1A2DEBD9B8
:10554000652CEDD002E0114600E03F2104AF0025BC
:105550007D5414A9384600F0E9FF149CA74287D077
:10556000029A9061D1617A4A7A4B07460391FBF720
:105570002DFA794E002836D10022784B384603990F
:10558000FBF70EFA0028019D2FD138460399FBF74F
:105590006DFA06462AE0F968CA087C2A029C1ED8E1
:1055A000491CF96000787B2819D1681CB86038461E
:1055B000FEF74CFD7968B868884224D23968095CE6
:1055C0007D295ED1F968491EF96000254021A5605A
:1055D000E160401CB8600125284615B0F0BD009D73
:1055E000284615B0F0BD019D00E0761C0820029908
:1055F000C8604E6104A8201AA9684018A860012557
:10560000284615B0F0BD401EB860009D284615B074
:10561000F0BD401EB8603A4600273D46116928207B
:105620008847002800D182E006462821FAF7A9FD24
:10563000002F344602D075602E603C46019DA8685C
:10564000401CA8602846FEF701FD30462946FFF7BA
:10565000D5FE002869D02846FEF7F8FC6968A868DE
:10566000884262D22968095C2C292A462746354699
:10567000D4D05D2959D16660019FF968491EF9604F
:1056800034E7401EB8603A4600273C46116928209E
:10569000884700284BD006462821FAF772FD002FD4
:1056A000354602D0746026603D46019CA068401CCF
:1056B000A0602046FEF7CAFC30462146FFF788FC72
:1056C000002830D02046FEF7C1FC3069306200204F
:1056D00030616168A068884225D22168095C3A2956
:1056E00021D1401CA0602046FEF7B0FC3046214688
:1056F000FFF784FE002816D02046FEF7A7FC61685D
:10570000A06888420FD22168095C2C2922462F46C6
:105710003446BBD07D2906D16E60019FF968491ED1
:10572000F960029C52E72F4603E0274601E0002F74
:1057300002D03846FEF7CCFC0025284615B0F0BD57
:10574000DE650008D3650008D96500080D00000477
:105750000000C0FFFFFFDF41FFFFFF7F0000E0C14F
:10576000F0B581B01E4615460C4607460846114660
:10577000FDF7F2F80998B8610898786107983861E0
:105780000698F86070C701B0F0BD0000F0B587B0B2
:10579000002800D185E00F460446C6890692002AFB
:1057A0001BD030B2FBF728F906463946FBF7DCF888
:1057B0003D4607461020205EFBF71EF90146002FEC
:1057C000374600D12F4638460D46FBF7B1F8002882
:1057D000059500D12F46354608E01020205EFBF7E6
:1057E0000BF9059030B2FBF707F9054620890190C7
:1057F000FBF70DF926460446049070890290FBF7EA
:1058000006F9039038462946FAF7F5FE074603984D
:1058100021463446FAF7EFFE01463846FAF7F3FE22
:10582000064605982946FAF7E6FE01463046FAF79D
:1058300027FF0499FAF78EFEFBF7FEF8A081069980
:10584000002910D0217D0029029A019B01D0D11896
:10585000081A618A401880B2984212D9904213D235
:10586000142800D8142006CC0223DA41032A05D8D4
:105870007A44127952009744010B0E1109683431B1
:105880000EE018469042EBD310461428EAD9EAE716
:105890000968383104E009683C3101E009684031A9
:1058A000086007B0F0BD000010B58181002A10D05B
:1058B00003894289047D002C01D0591A8918448A31
:1058C000091989B2994215D9914216D2142900D8E2
:1058D0001421026840680223D841032806D8C04634
:1058E0007844007940008744010C1014106834306B
:1058F000016010BD19469142E8D311461429E7D939
:10590000E7E710683830016010BD10683C30016076
:1059100010BD10684030016010BD00000021818181
:10592000026840680223D841032805D878440079EA
:10593000400087440105090D10683430016070474C
:10594000106838300160704710683C300160704763
:105950001068403001607047B0B5002807D01D4680
:105960000446002A04D020462A46FFF70FFFB0BDA8
:105970000846FBF761F8A081002D10D022896189CB
:10598000237D002B01D0101A4018638AC01880B202
:10599000904214D9884215D2142800D8142006CC7D
:1059A0000223DA41032A05D87A4412795200974437
:1059B000010D12170968343180B20860B0BD10467D
:1059C0008842E9D308461428E8D9E8E7096838315D
:1059D00080B20860B0BD09683C3180B20860B0BDDB
:1059E0000968403180B20860B0BD0000F0B581B0F8
:1059F000194D002428462146FCF7AEFF174F5A20C8
:105A00001749184A3D607C60BA60F96038617C6172
:105A1000BC61042628463146FCF79EFF0121009117
:105A2000B42511480C4AFA613E623A46243231C22A
:105A300039637C630D480C263146FCF78DFF0B481B
:105A4000B863FE6307483946403131C10098F864B5
:105A50003C6501B0F0BDC0469C030020F806002064
:105A60000000A6FF1A007B00200075005C030020E8
:105A70000FB410B503A9044B044A029800F048F98A
:105A800010BC08BC04B018475944000800000020AE
:105A90002021020C01D010211046020A01D010462C
:105AA0000839020901D01046091F820801D01046AA
:105AB000891E420801D0881E7047081A70470000EE
:105AC00030B5002805D0164C021F2068002301467F
:105AD00005E0084630BD904203D8034640680028E0
