:020000040800F2
:1000000048080020D9000008BD1F0008251B000873
:1000100000000000000000000000000000000000E0
:10002000000000000000000000000000C11F0008E8
:100030000000000000000000BF1F0008C31F0008F0
:100040000901000809010008090100080901000868
:1000500009010008D5020008DF020008E9020008D3
:1000600009010008090100080901000879020008D7
:100070000901000809010008090100080901000838
:10008000090100080000000000000000090100084C
:10009000000000000901000809010008090100082A
:1000A000000000000901000809010008090100081A
:1000B00029280008000000000901000809010008C3
:1000C0000448854600F0C6F800480047D52A0008D5
:1000D000C046C046480800200C4880F308880C48F9
:1000E0000168090E0B4A914205D10B480B4901608A
:1000F0000B480C4901600C4880470C480047FEE75C
:10010000FEE7FEE7FEE7FEE7FEE700004808002006
:10011000040000001F000000181002400100000051
:1001200000000140000000004B200008C100000852
:1001300030B50B46014600202022012409E00D467F
:10014000D5409D4205D31D469540491B2546954007
:1001500040191546521E002DF1DC30BDF0B51FB41C
:100160000646002082B005464024019100901BE025
:10017000019922460F46304600F020F8049A059B6C
:10018000801A994110D310461946224600F052F8C1
:10019000361A8F410197224601200021009F00F06E
:1001A00049F838184D4100902046641E0028DFDCD5
:1001B000019B00982946324607B0F0BD10B5202AB1
:1001C00004DB0846203AD040002110BD0B46D34046
:1001D000D0402024A21A91400843194610BD03467E
:1001E0000B439B0703D009E008C9121F08C0042A6B
:1001F000FAD203E00B780370401C491C521EF9D25E
:100200007047D2B201E00270401C491EFBD2704719
:100210000022F6E710B513460A4604461946FFF7D2
:10022000F0FF204610BD421C0178401C0029FBD184
:10023000801A704710B5202A04DB0146203A91400D
:10024000002010BD914020239C1A0346E34019432F
:10025000904010BD064C0125064E05E0E36807CC32
:100260002B430C3C98471034B442F7D3FFF72CFFD4
:100270006C2D00088C2D000810B5024800F08CF899
:1002800010BD00000004002010B5044600680549B8
:1002900040181421FFF74CFF800020640248E063FF
:1002A00010BD0000F8FFFDBF0000024030B5056C36
:1002B0000124AC40C56B6C60046863604368102B1C
:1002C000036803D099600068C26030BD9A6000681E
:1002D000C16030BD10B5012000F09CF910BD10B513
:1002E000082000F097F910BD10B5FF20013000F094
:1002F00091F90120400200F08DF90120800200F008
:1003000089F90120C00200F085F910BD72B6FEE740
:1003100030B5014620314B780022022B04D0042353
:1003200083630A70012030BD03681C680E25AC434E
:100330001C6003681C68640864001C600123056C71
:100340001C46C06BAC4044604B700A70002030BD4E
:1003500070B50024014620314A78022A03D00421D6
:100360008163012416E0026813680E25AB43136015
:10037000026813685B085B0013600122056C13467A
:10038000AB40C56B6B604A7000220A70416B00295C
:1003900000D08847204670BDF0B4C16B0D6801687D
:1003A0000C680422066C1346B3402B420DD0630741
:1003B0000BD50B689B0602D40B6893430B60016C52
:1003C0008A40C16B4A60C16A19E00227B740024601
:1003D0002F4001232032002F15D0A70713D50C681A
:1003E000A40604D40C680A25AC430C605370036C5B
:1003F00002219940C36B596000211170816A002964
:1004000016D0F0BC08470827B7402F4210D0240769
:100410000ED50C680E25AC430C60046C1946A14047
:10042000C46B61608363537000211170016BE6E758
:10043000F0BC704770B5040021D002212046203066
:1004400005464170226811680E48A3680140606843
:1004500026691843E3683343184363691843A36963
:100460001843E3691843084310602046FFF70CFF68
:100470000021A163012068702970084670BD012029
:1004800070BD00000FC0FFFFF8B504468C46203059
:1004900001780025012909D001260670417800273E
:1004A000012905D0077002252846F8BD0220F8BDB5
:1004B00002214170A7632068016849084900016072
:1004C00061462046FFF7F2FEE06A002820680168D6
:1004D00002D00E22114306E00A2211430160206877
:1004E0000168042291430160206801683143016082
:1004F000DAE70000F8B5FF2601363A4D3A4C0828F5
:1005000009D071004A008B00012855D0B0424BD170
:10051000022121704DE000F061F9344F3968401A32
:1005200064284FD300F05AF9386000F057F9304989
:10053000304E0968401AFF212D31884218D300F04F
:100540004DF9386000F04AF929492B4F0860102115
:10055000384600F037F9002806D01021384600F060
:1005600031F9012802D003E0012000E000203070C2
:1005700021781C204843337840195B0002695B1ED8
:100580008668D318B34207D3002A05D0C668B342A1
:1005900002D81A4FBA4201D1066100E00361026934
:1005A00017A002F049F90DE0884202D10321217021
:1005B00004E0904202D10420207003E0984201D16F
:1005C0000520F9E7124E21783078814208D01C20AE
:1005D0004843401902690AA002F02EF920783070D1
:1005E000F8BD0000200000200A00002000000020CC
:1005F000040000200900002000040048FFFF000064
:10060000736572766F5B25645D3D2025640D0A007D
:100610000800002010B504494A69024202D048612E
:10062000FFF768FF10BD000000040140F8B500238B
:1006300003240125B5E02E469E40B44632407CD0CE
:100640000E79B607B60F012E01D0022E17D186689B
:100650002746B6465E00B74000967646BE43B6468D
:10066000CF68009EB7407646374387604668674646
:10067000BE430F79FF06FF0F9F40374347600E7957
:10068000F643B6070ED0C6682746B4465E00B646A7
:10069000B7406646BE43B4468F687646B740664666
:1006A0003743C7600E79B607B60F022E14D1DE08A5
:1006B000B60036180096366A5F07B446FE0E0F275E
:1006C000B646B7406646BE43B4460F697646B74065
:1006D00066463743009E376206682746B4465E008A
:1006E000B646B7406646BE430F79B446BF07BF0F54
:1006F0007646B7406646374307604E68B603B60F86
:100700004ED02B4FBE692E43BE61BE699F08F607CF
:10071000F60F284EBF00BE190096B6680F27B446E4
:100720009E07360FB646B7406646BE430927FF060A
:10073000B446B84202D100270BE031E01E4FB84268
:1007400001D1012705E01D4FB84201D1022700E089
:1007500005277646B74066463743009EB760184E79
:1007600036684F689643FF0300D51643144F3E602A
:100770007E684F689643BF0300D51643104F7E60D6
:10078000BE684F689643FF0200D516430C4FBE600B
:10079000FE684F689643BF0200D51643084AD660EC
:1007A0005B1C0A681646DE4000D044E7F8BD000036
:1007B000001002400000014000040048000800480A
:1007C000000401400069084000D001207047002A61
:1007D00001D08161704781627047000001488068E4
:1007E000704700000C00002070B50246403253787C
:1007F000202B1CD11378012B19D001231370242432
:100800005470046825689D432560046825681E03AC
:10081000B5432560046825680D43256000680168BC
:1008200019430160202050700020107070BD02201C
:1008300070BD70B5024640325378202B1BD113781F
:10084000012B18D0012414702423537003681D68F1
:10085000A5431D6005682B680F263602B3430902C5
:10086000194329600068016821430160202050700D
:100870000020107070BD022070BD000070B5040033
:1008800006D02546403568780026002802D005E0CD
:10089000012070BD2E70204600F04AF824206870B8
:1008A000206801684908490001600F216068090655
:1008B00088432168086121688A680120C003824357
:1008C0008A60E1680129A16808D0212292021143BF
:1008D00022689160E168022902D005E00143F7E750
:1008E00001212268C902516021684A680F4B1A43EE
:1008F0004A602168CA688243CA6061692069084306
:10090000A169090208432168C860216AE0690843B7
:100910002168086020680168012211430160666453
:10092000202068702663AE70002070BD0080000239
:10093000F0B587B0044614216846FFF769FC1949F1
:10094000206888422BD1184C616901208005014341
:100950006161616901400591616940110143616113
:100960006169122501400220002603276A46E1C280
:10097000012003C269460D48FFF758FEA0146946DE
:10098000E1C1052004906946A806FFF74FFEE16922
:10099000012040050143E161E1690140059107B093
:1009A000F0BD000000540040001002400014004858
:1009B0000248816802788918816070470C00002025
:1009C00010B506480168102211430160002000F0B4
:1009D00007F800F027F8002010BD000000200240BA
:1009E00070B504460D4D7D202978C000FFF7A0FBAF
:1009F00001460B480068FFF79BFB00F0A3FB0028B3
:100A000009D1042C07D200222146401E00F02AF80A
:100A100000206C6070BD012070BD00000C00002043
:100A20001800002008B5084881690122114381613E
:100A3000816911400091C26901040A43C261C06921
:100A40000840009008BD000000100240002805DBAF
:100A5000C106C90E012088400149086070470000A6
:100A600000E100E010B501F00FFF10BDF8B504463D
:100A700000683E4DC00352D5E8690026C00007D487
:100A8000E96928040143E961E9690140012600910F
:100A900037480168C90510D4016882151143016007
:100AA000FFF79CFE074604E0FFF798FEC01B642892
:100AB00024D82F480068C005F6D5286A03273F02CE
:100AC000384020D06168394081421CD0286A2A6AA7
:100AD000B843012109040A432A622A6A8A432A6226
:100AE0002862C0070FD0FFF779FE009008E0FFF7FB
:100AF00075FE0099411A1F48814201D90320F8BDB3
:100B0000286A8007F3D5286A6168B84308432862D9
:100B1000002E04D0E969012000078143E9612078B3
:100B2000C00705D0286BA1688008800008432863AF
:100B30002078800605D5286B10218843E16808439A
:100B400028632068800305D5286B8021884361696C
:100B5000084328632088400505D5286B4021884339
:100B60002169084328630020F8BD000000100240FE
:100B70000070004088130000F8B50F4606005FD0F3
:100B80003D4D2868C007C00FB84209D22868400808
:100B90004000384328602868C007C00FB8424FD1D2
:100BA0003068364C81070CD5400704D560680721B2
:100BB0000902084360606068F0218843B168084317
:100BC00060603078C0072CD07068012810D00228EF
:100BD00011D0032812D021688907002930DA616812
:100BE0008908890001436160FFF7F8FD009011E07A
:100BF00021688903F1E721688901EEE7616BC90388
:100C0000EBE7FFF7EBFD0099411A1D48814201D93E
:100C10000320F8BD60680C21084071688900884293
:100C2000EFD12868C007C00FB8420BD92868400828
:100C30004000384328602868C007C00FB84201D080
:100C40000120F8BD3078400706D560680721090209
:100C50008843F1680843606000F028F86168094A39
:100C60000906090F515CC840074908600020FFF7DA
:100C7000B7FE0020F8BD0000002002400010024036
:100C800088130000542D000818000020044805496E
:100C900000684968044A4905490F515CC8407047DB
:100CA0001800002000100240642D000830B519A380
:100CB0000FCB89B06C460FC41AA30FCB0FC41D4ACB
:100CC00051680C200B4603401B48042B05D01B4DDC
:100CD000082B04D00C2B00D1284609B030BD8B0264
:100CE0001B0F6C46E45CD26A04AB1207120FC903F7
:100CF0009A5C890F022901D0032901D0002301E069
:100D0000002328460021FFF729FA214601F0A4FD1F
:100D1000E3E7000002030405060708090A0B0C0DAF
:100D20000E0F10100102030405060708090A0B0C38
:100D30000D0E0F100010024000127A00006CDC0251
:100D4000FEB5040070D02078F94EFA4DC00748D0A7
:100D500068680007800F01281FD068680007800FAF
:100D6000022804D16868C003800F022815D061688A
:100D7000012919D001208004002901D0052917D0AC
:100D80002968B14329602968814329606068002887
:100D90001BD0FFF723FD074613E02868800320D50A
:100DA00060680028CED01CE0286830432860EDE75A
:100DB000296801432960F7E7FFF710FDC01B64288D
:100DC00070D828688003F7D50BE0FFF707FD0746CA
:100DD00004E0FFF703FDC01B6428F1D828688003F6
:100DE000F7D4207880073FD568680007800F14D0BB
:100DF00068680007800F022804D16868C003800F6C
:100E000001280AD0E068002828681ED00121084384
:100E10002860FFF7E3FC07460CE0286880070CD544
:100E2000E068012800D108E080E1FFF7D7FCC01B93
:100E30000228C5D828688007F7D52868F821884394
:100E40002169C900084328600EE04008400028607E
:100E5000FFF7C4FC074604E0FFF7C0FCC01B0228F4
:100E6000AED828688007F7D42078000723D5E0693A
:100E70000028686A0FD0012108436862FFF7AEFCC2
:100E8000074604E0FFF7AAFCC01B022898D8686A4E
:100E90008007F7D50FE0400840006862FFF79EFC2E
:100EA000074605E0C3E0FFF799FCC01B022887D87E
:100EB000686A8007F7D4207804274007002861DAA1
:100EC00000200190E869C00008D4E969B806014330
:100ED000E961E969014001200091019096480168AB
:100EE000C90511D40168821511430160FFF776FC32
:100EF000009005E0FFF772FC0099401A642898D82A
:100F00008D480068C005F5D5A06801280AD00028E2
:100F100001D0052811D0286A400840002862286ABC
:100F2000B84302E0286A012108432862A06800282B
:100F300012D0FFF753FC00900AE0286A3843286279
:100F4000F0E7FFF74BFC0099411A7C4881426ED8CC
:100F5000286A8007F5D50DE0FFF740FC009006E019
:100F6000FFF73CFC0099411A744881425FD8286A17
:100F70008007F5D40198002804D0E9690120000712
:100F80008143E9612078C00635D5606901280CD01D
:100F9000401D686B24D038436863686B400840008C
:100FA0006863FFF71BFC074622E0686B3843686301
:100FB000686B012108436863FFF710FC074604E0F3
:100FC000FFF70CFCC01B022831D8686B8007F7D5EF
:100FD000686BF8218843A169C900084368630AE087
:100FE000B8436863F4E7FFF7F9FBC01B02281ED87B
:100FF000686B8007F7D42078800637D568680007CB
:10100000800F032814D068680007800F022804D1DD
:101010006868C003800F03280AD0206A0028686B24
:1010200016D030436863FFF7D9FB06460CE062E058
:10103000686BC0031AD5206A012877D116E0FFF744
:10104000CDFB801B022856D8686BC003F7D50DE096
:10105000B0436863FFF7C2FB064604E0FFF7BEFB40
:10106000801B022847D8686BC003F7D4606A002849
:1010700066D069680907890F022942D00126360621
:101080000228286805D0B0432860FFF7A7FB044674
:1010900033E0B0432860FFF7A1FB074604E0FFF709
:1010A0009DFBC01B022826D828688001F7D4E86A77
:1010B000216B000900010843E862A16AE06A084365
:1010C00069687B22D20391430843686028683043F3
:1010D0002860FFF783FB044604E0FFF77FFB001B5B
:1010E000022808D828688001F7D529E0FFF776FBA9
:1010F000001B022801D90320FEBD28688001F5D419
:101100001EE00128F8D06868E96A0322D203A36AC6
:1011100002409A420AD10907226B090F914205D178
:101120000F2189040840E16A884209D00120FEBDF0
:101130000000010000100240007000408813000011
:101140000020F4E7094910B5401E884201D901206A
:1011500010BD074C60610321081F01F095FB0020C2
:10116000A06107202061002010BD0000FFFFFF00EC
:1011700000E000E030B5034620331A7F012A26D074
:1011800001221A770325CA682D02AA438D6800241C
:101190002A430125AD02AA434D6800682A43012570
:1011A000ED02AA430D682A4301252D03AA430D69C8
:1011B0002A4301256D03AA434D69C9692A430125C4
:1011C000AD03AA430A4342641C77002030BD0220CD
:1011D00030BD0000F0B502462032137F012B1ED037
:1011E000012515770223537706687468B368702762
:1011F000BC430F682743776000680A4CA04205D0C3
:10120000AC07A04202D0084CA04204D18024496817
:10121000A34319438160557700201077F0BD022069
:10122000F0BD0000002C01400004004070B5040037
:1012300005D025462035687F002802D006E0012031
:1012400070BD00202877204600F014F8022068774F
:10125000211D206800F0FAFE01204034A071A8771B
:10126000E87720706070A070E0702071607168771E
:10127000002070BD08B50F4A01680F48914205D1A2
:10128000C26981150A43C261C06906E00B4A9142F6
:1012900006D182690121490408E00840009008BD98
:1012A000074A9142FBD18269012189040A43826184
:1012B0008069F2E700200040001002400044014035
:1012C00000480140F0B587B0044614216846FEF797
:1012D0009FFF01239B0726680920002433495A13E6
:1012E0000225C0069E420CD14B6913434B614969EC
:1012F0000294114005912A210195049503940091CF
:1013000034E02B4F3B13BE4220D14E6916434E6151
:101310004E69164005964A691A434A614969012691
:1013200019400591C02100910294049601950394FF
:101330006946FFF77BF90320029404960195039414
:1013400000902FE0FFF772F907B0F0BD194FBE42D1
:101350000ED14B6913434B614969029411400591C9
:101360001021009104210195039404916946E9E755
:101370001148864207D148691843486148691840B6
:101380000590402009E00D488642DDD148691843A8
:1013900048614869184005908020029401950495A1
:1013A0000394009069460648CCE700000010024014
:1013B000000400400020004000440140004801407B
:1013C00000040048F8B5064604462036307F002762
:1013D0000D4601280ED001203077002A0CD0042AB7
:1013E0001BD0082A2FD00C2A3ED0012700203077AE
:1013F0003846F8BD0220F8BD206800F077FE20686E
:1014000081690822114381612068826904218A432D
:101410008261206881692A6912E0206800F0A2FEDA
:10142000206882690121C9020A43826120688169BA
:101430000122920291438161206881692A69120226
:1014400011438161D2E7206800F0C6FE2068C169BF
:1014500008221143C1612068C26904218A43C26124
:101460002068C1692A6912E0206800F0F1FE206856
:10147000C1690122D2021143C1612068C269012100
:1014800089028A43C2612068C1692A691202114334
:10149000C161ABE770B5040005D025462035687FF3
:1014A000002802D006E0012070BD002028772046E9
:1014B00000F014F802206877211D206800F0C6FDB6
:1014C00001204034A071A877E87720706070A07088
:1014D000E070207160716877002070BD08B501224E
:1014E000016892070A48914206D1C169012211435D
:1014F000C161C069104008E0064A914206D1C26944
:1015000002210A43C261C0690840009008BD000082
:10151000001002400004004010B5044602222030B2
:1015200000290AD004290DD02046403008290ED0C9
:101530004378012B10D0012010BD837F012BFAD1FD
:1015400082770AE0C37F012BF5D1C27705E00378EB
:10155000012BF0D1027000E042700122206800F0FF
:10156000B7FD114A2068904205D01049884202D048
:101570000F49884204D1416C0123DB0319434164C4
:1015800020680121904205D08A07904202D0094A82
:10159000904204D182685207520F062A02D0026894
:1015A0000A430260002010BD002C014000440140AD
:1015B000004801400004004010B50446C06F2028D8
:1015C00031D100290BD0002A09D00123A0681B03C8
:1015D000984206D12069002803D1C80701D0012014
:1015E00010BD23466033187D01281CD001201875DA
:1015F0002066204601F056F8010003D1206E012834
:1016000002D00121084610BD206810230362EFF3C9
:101610001080012282F31088226814681C43146031
:1016200080F31088EEE7022010BD000010B50068BE
:101630001349884223D11348FEF7F5FD84B21148BF
:1016400080218030FEF7E4FD0E49224608468030B6
:10165000FEF7C5FD21460B48FEF7DAFD0949802259
:10166000C81DF930FFF7A8FF074800680168042289
:1016700091430160034905A0803101F0DDF810BD00
:10168000004400407C0200200004002025730D0A65
:101690000000000070477047F8B502680446D06942
:1016A00011689668A24B03401D462023002D75D07B
:1016B000F707A04DFF0FBC460D402F436DD02546C8
:1016C000C7078035002F06D0CF0504D50127176244
:1016D0002A683A432A60820708D5F20706D02768AD
:1016E00002223A622A6804273A432A60420708D550
:1016F000F20706D02668042232622A6802263243A4
:101700002A6002070AD50A461A406646324305D0C7
:101710002668082232622E6816432E60020508D51C
:101720004A0106D501222668D20232622A681A438B
:101730002A602A68002A39D0800606D5880604D592
:10174000616E002901D02046884728682168896891
:10175000490602D4282108422DD0204600F0C8FEB8
:1017600021688868400622D5EFF31080012282F3B9
:1017700010888B68402293438B6080F31088206F21
:10178000002814D06C494163206FFEF7E1FD00286A
:101790000CD0206F416B08E000E012E0850610D508
:1017A0008D060ED5616EA8E020468847F8BD20461C
:1017B000FFF771FFF8BD2046FFF76DFF002028609E
:1017C000F8BD256E012D7DD1C5067BD5CD0679D519
:1017D000102616622268906825464006403500288B
:1017E00045DA216F086840680004000CE8D02F8BB0
:1017F0008742E5D968838869202833D0EFF31080C9
:10180000012181F3108811683701B943116080F319
:101810001088EFF31080012181F3108821688A6815
:10182000520852008A6080F31088EFF31080012183
:1018300081F3108821688A684027BA438A6080F360
:101840001088E36700202066EFF31080012181F308
:10185000108821680A68B2430A6080F31088206FFC
:10186000FEF756FD288B698B401A81B231E0288B38
:10187000698B401A81B2688B0028A1D000299FD0C3
:10188000EFF31080012585F310881568FF272137B5
:10189000BD43156080F31088EFF31080012282F3BE
:1018A0001088226895686D086D00956080F3108837
:1018B000E367002020666066EFF31080012282F368
:1018C000108800E009E022681368B343136080F3D6
:1018D00010882046FFF7AAFEF8BDC50208D575029C
:1018E00006D50120000510622046FFF7D3FEF8BDA3
:1018F000050606D50D0604D5A16E002900D053E7D4
:10190000F8BD4006FCD54806FAD52046EFF3108115
:10191000012484F3108815684024A543156081F3E1
:10192000108883670021816600F0FBF8F8BD000095
:101930000F08000020010004E123000810B5040096
:1019400003D0A06F002802D007E0012010BD0021C5
:1019500074200155204600F027F82420A067206855
:101960000168490849000160204600F001FE012895
:10197000ECD0606A002802D0204600F099FC206874
:1019800041680922D20291434160206881682A227D
:101990009143816020680168012211430160204663
:1019A00000F0ECFC10BD000070B586B006461421B6
:1019B0006846FEF72DFC20493068884239D11F491E
:1019C000CA69012040040243CA61CA690240059203
:1019D0004A6902434A614969002501400591184856
:1019E0000090022001900320039001200490092020
:1019F00002956946C006FEF719FE1248124C21C432
:101A00002560A560E56025618020656160600E4805
:101A1000083CFEF70FFD002801D0FEF777FC346785
:101A2000002211461C206662FFF71CF81C20FFF7FD
:101A30000DF806B070BD00000044004000100240E8
:101A400004800000580002400004002070477047E6
:101A5000FFB50446806F83B017460D4620285ED13F
:101A6000002D0AD0002F08D0A168C001814207D103
:101A70002069002804D1E80702D0012007B0F0BD9A
:101A8000204660300090007D012848D00098012158
:101A900001750020802108512120A067FEF79EFEDD
:101AA000264640360190378277820120A1680003E4
:101AB000814202D12069002805D02F4600250099D7
:101AC0000020087511E00027F9E700228021204658
:101AD00000F040FE002815D1002F15D0216838787D
:101AE00008857F1C708A401E7082708A019B0028C6
:101AF00006980090E9D100224021204600F02AFEFD
:101B0000002808D00320B9E728882168C005C00D47
:101B10000885AD1CE6E72020A0670020AEE7022084
:101B2000ACE77047FEE7000008B5084841690122AC
:101B300011434161406910400022009011460B2082
:101B4000FEF790FF0B20FEF781FF08BD001002405A
:101B500030B587B014216846FEF75AFB2F4842691A
:101B6000012189050A43426142690A40059242699E
:101B700049110A43426142690A400592426949009B
:101B80000A4342614069264D084005900022202109
:101B90002846FEF71CFE2348009011200004019007
:101BA0000024092069460294C006FEF73FFD082084
:101BB0000090212000040190694602942846FEF717
:101BC00035FD102000900194694602942846FEF7E6
:101BD0002DFD20200090012001900294694603947D
:101BE0002846FEF723FD002211460520FEF73AFFA6
:101BF0000520FEF72BFF002211460620FEF732FFDC
:101C00000620FEF723FF002211460720FEF72AFFD9
:101C10000720FEF71BFF07B030BD00000010024098
:101C200000040048010F000010B51348114901607D
:101C3000124941600021816001614161816101229D
:101C4000C161C2600162FEF719FE002801D0FEF7F3
:101C50005DFB00210848FEF7C7FD002801D0FEF714
:101C600055FB00210448FEF7E4FD002801D0FEF7F3
:101C70004DFB10BD00540040C80000200E0900209C
:101C800010B588B01C216846FEF7C2FA16481549FF
:101C900001600024154984604160144904612831C1
:101CA0008461C160FFF7C2FA002801D0FEF72EFB65
:101CB0000D48FFF7EFFB002801D0FEF727FB60205F
:101CC0000090019402940022694604940648FFF7AC
:101CD00079FB002801D0FEF719FB0348FFF7F2FA61
:101CE00008B010BD00200040A4010020BF03000088
:101CF00010B590B01C2108A8FEF78AFA202168468A
:101D0000FEF786FA214820490160002420498460BA
:101D100041601F490461446128318461C160FFF75B
:101D200085FA002801D0FEF7F1FA1848FFF7B2FB58
:101D3000002801D0FEF7EAFA60200D94099408907B
:101D40000A940B940C94002208A90E940F48FFF7F4
:101D500039FB002801D0FEF7D9FA01200094400396
:101D600002940590019403940494694607940748EB
:101D7000FFF700FA002801D0FEF7C8FA0348FFF782
:101D8000A1FA10B010BD000000440140EC01002099
:101D9000BF03000010B590B01C2108A8FEF738FA68
:101DA00020216846FEF734FA2148204901600024CA
:101DB0002049846041601F49046144612831846185
:101DC000C160FFF733FA002801D0FEF79FFA1848E8
:101DD000FFF760FB002801D0FEF798FA60200D9411
:101DE000099408900A940B940C94002208A90E946C
:101DF0000F48FFF7E7FA002801D0FEF787FA012025
:101E0000009440030294059001940394049469465D
:101E100007940748FFF7AEF9002801D0FEF776FADD
:101E20000348FFF74FFA10B010BD00000048014012
:101E300034020020BF03000010B58AB000240794CC
:101E40001C2168460894FEF7E3F901211F48890721
:101E500001601F49846041601D490461283184612B
:101E6000C160FFF717FB002801D0FEF74FFA079477
:101E700007A916480894FFF7ADF9002801D0FEF72E
:101E800045FA60200090019402940022694604946F
:101E90000E48FFF797FA002801D0FEF737FA042220
:101EA00069460A48FFF78EFA002801D0FEF72EFA9D
:101EB0000C2269460548FFF785FA002801D0FEF795
:101EC00025FA0248FFF7FEF90AB010BD1401002000
:101ED000BF03000010B58AB0002407941C21684697
:101EE0000894FEF795F92548234901602449846048
:101EF00041602349046128318461C160FFF7CAFA57
:101F0000002801D0FEF702FA079407A91B4808949D
:101F1000FFF760F9002801D0FEF7F8F96020009083
:101F2000019402940022694604941448FFF74AFA87
:101F3000002801D0FEF7EAF9042269460F48FFF7AE
:101F400041FA002801D0FEF7E1F9082269460B4862
:101F5000FFF738FA002801D0FEF7D8F90C226946BD
:101F60000648FFF72FFA002801D0FEF7CFF9034803
:101F7000FFF7A8F90AB010BD000400405C01002082
:101F8000BF03000010B50C480A490160E121490275
:101F9000416000218160C16001618161C1610C22E9
:101FA000016242614162FFF7C9FC002801D0FEF7DF
:101FB000ADF910BD004400407C030020FEE77047EF
:101FC000704710B5FEF7F4FC10BD30B597B0342162
:101FD0006846FEF71DF900240D940E940F94182105
:101FE00011A81094FEF714F922200090012003900C
:101FF000089002251020099504900320C0030A9040
:102000000720C0040B900F200C906846FEF798FE46
:10201000002801D072B6FEE707200D900F94012131
:102020000E9510940DA8FEF7A7FD002801D072B6FA
:10203000FEE720201190149411A8FEF717FD002848
:1020400001D072B6FEE717B030BD7047F0B5026838
:102050001A4B0124A4071A4D984203D0A04201D084
:10206000A84203D17026B2434E683243154E164F34
:1020700098420AD0A04208D0A84206D0134CA042F1
:1020800003D0B04201D0B84204D103242402A243B9
:10209000CC6822438024A2434C69224302608A68B0
:1020A000C2620A688262984203D0B04201D0B8424C
:1020B00001D10969016301214161F0BD002C01409A
:1020C000000400400044014000480140002000405E
:1020D00010B5CB06DB0E0121046A99408C430462E3
:1020E000016A9A401143016210BD0000F0B5026A16
:1020F000520852000262056A436882697024A24352
:1021000092080C6892001443022295438A68134E89
:102110002A43114DA84204D0B04202D0104FB84219
:1021200006D10827BA43CF681743042297433A469B
:10213000A84204D0B04202D0094DA84206D10325DE
:102140002D02AB434D691D438B692B434360846172
:10215000496841630262F0BD002C01400044014027
:102160000048014070B5026A10239A430262046A73
:102170004368826973252D02AA430D682D02154319
:10218000202294438A6812012243104CA04208D1B5
:102190001446CA688026B443120122434024A24355
:1021A00005E00B4CA04202D00A4CA04208D1032407
:1021B000A402A3434C69A4001C438B699B002343E6
:1021C0004360856149688163026270BD002C0140F3
:1021D000004401400048014070B5026AFF2301330A
:1021E0009A430262046A4368C2697025AA4392084E
:1021F0000D68920015430122520294438A6812022C
:102200002243104CA04207D1C414A243CC6824023C
:1022100022430615B24305E00B4CA04202D00B4C02
:10222000A04208D103242403A3434C6924011C4386
:102230008B691B0123434360C5614968C163026226
:1022400070BD0000002C01400044014000480140E6
:1022500030B5026A01231B039A430262056A426891
:10226000C36973242402A3430C6824021C43012382
:102270005B039D438B681B032B430A4DA84205D08B
:10228000094DA84202D0094DA84205D10125AD0350
:10229000AA434D69AD012A434260C46149680164A3
:1022A000036230BD002C0140004401400048014061
:1022B00010B5818CC90707D001684A6801235B0407
:1022C0009A43836A1A434A60818C890707D501685B
:1022D0004A6801231B049A43C36A1A434A60818CEB
:1022E000490707D501684A6801239B049A43036B99
:1022F0001A434A60818C090707D501684A6801239F
:10230000DB039A43436B1A434A60818CC90607D5A5
:102310000268916801231B039943836B1943916001
:10232000818C890607D501688A6801235B039A437B
:10233000C36B1A438A60818C490612D503685A68B8
:1023400001210905046C8A4322435A60026C8A42C7
:1023500007D10268516803235B059943436C194315
:102360005160818C090607D501684A680123DB04A6
:10237000806C9A4302434A6010BD0000F8B50446E1
:10238000002680300660FEF729FA054620680068BE
:10239000124F000709D501212B460022490520468E
:1023A000009700F0D7F900280DD120680068400799
:1023B0000BD501212B46002289052046009700F00D
:1023C000C9F9002801D00320F8BD2020A067E067EC
:1023D0002666603426750020F8BD0000FFFFFF016F
:1023E00010B5406A0022014640314A834A82FFF715
:1023F00052F910BD70B5446AA06FE56F2168896815
:1024000000260906002906DA212804D152200653A5
:10241000204600F09CF820688068400606D5222DF2
:1024200004D15A200653204600F062F8204680303E
:1024300001681022114301602046FFF72CF970BD9E
:1024400010B501468969406A202938D000225A21F6
:102450000A52EFF31081012282F310880268136898
:10246000FF240134A343136081F31088EFF310813C
:10247000012282F31088026893685B085B00936016
:1024800081F31088EFF31081012282F31088026833
:1024900093684024A343936081F310882021C1678F
:1024A000016E01290BD1EFF31081012282F3108814
:1024B000026813681024A343136081F31088016E2F
:1024C000012902D0FFF7C2FA10BD5821095AFFF7BF
:1024D000ADF810BD10B5406A016E012902D0FFF7BA
:1024E000B6FA10BD5821095A4908FFF79FF810BDE8
:1024F00010B5EFF31081012282F31088026813688F
:10250000FF242134A343136081F31088EFF310817B
:10251000012282F31088026893685B085B00936075
:1025200081F31088016E01290BD1EFF31081012294
:1025300082F31088026813681024A343136081F3A8
:1025400010882021C16700210166416610BD10B5C9
:10255000EFF31081012282F3108802681368C0240F
:10256000A343136081F310882021816710BD000010
:1025700070B5044680682169E269084361690025F5
:102580001143226808431168404B19400143116010
:1025900021684868032212039043E26810434860B0
:1025A000A169206A084321688A680B231B029A43A9
:1025B00002438A6036492068884210D13548006B52
:1025C0008007800F0ED0012805D0022805D00328EF
:1025D0000AD1022109E0042107E0082105E02E4983
:1025E000884201D1002100E010210120E369C003ED
:1025F0002A4A2B4E834223D1002906D0022907D034
:10260000042907D0082937D108E0FEF73FFB03E093
:10261000104603E0FEF74AFB002831D06168400015
:102620004A088018FDF784FD80B201461039B14296
:1026300022D81B49491C01400007400F08431DE0F8
:10264000002906D0022907D0042907D0082913D170
:1026500008E0FEF71BFB03E0104603E0FEF726FB55
:1026600000280DD061684A081018FDF761FD80B29E
:1026700001461039B14201D9012501E02168C86045
:1026800000206066A066284670BD0000F369FFEF79
:1026900000380140001002400044004000127A005F
:1026A000EFFF0000F8B5044641654030002627469C
:1026B000028380373E602220E0672546206F603528
:1026C00000281BD020498162216F2048C862216FF9
:1026D0001F480863206F13464663606D2168844677
:1026E00062462431206FFDF7CFFE002806D010206F
:1026F00038602E752020E0670120F8BD2E75EFF3BD
:102700001080012181F3108821680A68FF230133BA
:102710001A430A6080F31088EFF31080012181F3DF
:102720001088226893680B43936080F31088EFF35E
:10273000108081F3108821688A6840231A438A60D8
:1027400080F310880020F8BD41240008D52400083B
:10275000F5230008FFB581B00546174604466035ED
:102760000A9E55E0701C53D0FEF738F80499401AC1
:10277000B04230D8002E2ED020680168490747D5D6
:10278000C069C043000543D401202168C00208622B
:10279000EFF31080012181F3108821680B68FF227C
:1027A000A13293430B6080F31088EFF31080012176
:1027B00081F3108821688A68520852008A6080F389
:1027C00010882020A067E0678034206000202875F2
:1027D000032005B0F0BDEFF31080012181F31088D4
:1027E00021680B68FF22A13293430B6080F31088AD
:1027F000EFF31080012181F3108821688A68520864
:1028000052008A6080F310882020A067E067DDE72F
:102810002068C1690298884304D00020B842A1D042
:102820000020D6E70120F9E710B50248FEF734FF93
:1028300010BD00007C0300200FB410B503A9044BA9
:10284000044A029800F052F810BC08BC04B01847C3
:10285000B92A00081C000020F8B5040C8BB22646EB
:1028600082B25E430D0C1046370C58433604801973
:102870000021794116466E43370C360480197941A0
:1028800026466E438919F8BD8307FF22DB0E9A4066
:102890008907090E9940002808DB830809489B0036
:1028A0001B18186890430843186070470007000F12
:1028B0000838830804489B001B18D86990430843D4
:1028C000D861704700E400E000ED00E002E008C8D5
:1028D000121F08C1002AFAD170477047002001E09A
:1028E00001C1121F002AFBD170470000FFB58DB057
:1028F0000F460546002606E025280AD0109A0F99B3
:1029000090476D1C761C28780028F5D1304611B010
:10291000F0BD00240121674A009400E004436D1CCF
:102920002B780846203B98401042F7D128782E2873
:1029300015D10420044368786D1C2A280AD101CFE0
:102940006D1C00900BE000990A2251433039401869
:102950006D1C00902878014630390929F3D9287870
:10296000692843D006DC0028D0D063280BD0642827
:1029700004D13BE073280FD075284CD0109A0F99E2
:102980009047761C94E038786946087200204872B7
:1029900002A80190012003E0386801900020C043A4
:1029A0003F1D61070CD5002400E0641C00998C4297
:1029B0000FDA8442F9DB0199095D0029F5D108E0BD
:1029C000002400E0641C8442FCDB0199095D0029BD
:1029D000F8D1361907E0019801990078491C019156
:1029E000109A0F999047641EF5D261E00A20019079
:1029F00001CF002802DA40422D2102E0210504D552
:102A00002B216A461172012103E0E10701D0202148
:102A1000F7E70C9104E00A20019001CF00210C910E
:102A20000BA90B9108E00199FDF782FB0A460B996F
:102A30003032491E0B910A700028F4D10B9803A97B
:102A4000081A20300190600701D5009801E00120AC
:102A500000900199884203DD01460198081A00E0C0
:102A600000200024009006E002A8109A005D0F9953
:102A70009047641C761C0C988442F5DB04E0109AA5
:102A800030200F999047761C0099481E009000292D
:102A9000F5DC08E00B980B990078491C0B91109A13
:102AA0000F999047761C0199481E01900029F1DC8E
:102AB0006D1C28E70928010013B5044B0122694663
:102AC0000348FEF7C5FF00981CBD0000FFFF000093
:102AD0007C030020B6B0FDF773FFFFF776FAFFF72F
:102AE00037F8FFF721F8FFF7A7F9FFF7F3F9FFF73A
:102AF000C7F8FFF7FDF8FFF74DF9FFF743FAFFF7C7
:102B000093F880224B494C48FEF756FD4B4800682D
:102B100001680422914301601C22494904A8FDF781
:102B20005EFB07A80FC8009001A80EC00EC82EA813
:102B300000F094F81C222EA94248FDF750FB4049B2
:102B40001C221C310BA8FDF74AFB0EA80FC80090F1
:102B500001A80EC00BA80EC82EA800F07FF83948B7
:102B60001C222EA91C30FDF73AFB35491C223831B6
:102B700012A8FDF734FB15A80FC8009001A80EC0DD
:102B800012A80EC82EA800F069F82E481C222EA903
:102B90003830FDF724FB2A491C22543119A8FDF7CF
:102BA0001EFB1CA80FC8009001A80EC019A80EC8D3
:102BB0002EA800F053F823481C222EA95430FDF70C
:102BC0000EFB1F491C22703120A8FDF708FB23A82B
:102BD0000FC8009001A80EC020A80EC82EA800F0B3
:102BE0003DF818481C222EA97030FDF7F8FA144958
:102BF0001C228C3127A8FDF7F2FA2AA80FC80090F2
:102C000001A80EC027A80EC82EA800F027F80D486E
:102C10001C222EA98C30FDF7E2FA0BA0FFF70CFE68
:102C2000084C0D4D1C21287848430019016900F01B
:102C300025F8F7E77C0200207C0300200004002038
:102C4000AC2C000820000020536572766F2074655C
:102C500073740D0A000000000A0000200FB410B5C4
:102C6000044604990398FEF757FC1C2203A920464A
:102C7000FDF7B5FA10BC08BC04B0184700B50A4609
:102C800003C800F002F8026000BD0068002905D00A
:102C9000042905D0082905D00C2905D03430704707
:102CA000383070473C307047403070471401002086
:102CB00004000000190000007D000000000000007A
:102CC000A6FF5A0000000000140100200C000000C4
:102CD000190000007D00000000000000A6FF5A005F
:102CE00000000000A4010020000000001900000006
:102CF0007D00000000000000A6FF5A000000000058
:102D00001401002000000000190000007D000000F8
:102D100000000000A6FF5A00000000005C01002037
:102D200000000000190000007D000000000000000D
:102D3000A6FF5A00000000005C0100200400000013
:102D4000190000007D00000000000000A6FF5A00EE
:102D50000000000000000000000000000102030469
:102D60000607080900000000010203048C2D00087A
:102D70000000002020000000CC280008AC2D000836
:102D80002000002028080000DC28000800000000C7
:102D900000000000FF00000001000000040000002F
:0C2DA0000000000000127A00000000009B
:04000005080000C12E
:00000001FF
