:020000040800F2
:10000000A80C0020ED01000845490008AD44000897
:1000100000000000000000000000000000000000E0
:100020000000000000000000000000004949000836
:100030000000000000000000474900084B4900088C
:100040001D0200081D0200081D0200081D02000814
:100050001D020008412C00084B2C0008552C0008FC
:100060001D0200081D0200081D020008E52B000803
:100070001D0200081D0200081D0200081D020008E4
:100080001D02000800000000000000001D02000822
:10009000000000001D0200081D0200081D020008EB
:1000A000000000001D0200081D0200081D020008DB
:1000B000AD510008000000001D0200081D020008EC
:1000C00000F002F800F066F80CA030C808382418D8
:1000D0002D18A246671EAB4654465D46AC4201D180
:1000E00000F058F87E460F3E0FCCB646012633424C
:1000F00000D0FB1AA246AB4633431847705F00009E
:10010000905F0000103A02D378C878C1FAD852073D
:1001100001D330C830C101D504680C6070470000BD
:100120000023002400250026103A01D378C1FBD813
:10013000520700D330C100D50B60704710B5662957
:1001400002D105F0C3FE10BD642902D100F0CEF942
:1001500010BD732902D100F008FF10BD002010BDB2
:100160001FB50098019900F04AFC00F0C5FF04009B
:100170000020002105F02EFE401C606000200021C0
:1001800005F012FEE06001F01DFC1FBD10B501F08E
:1001900085FC10BD01F0EEFC1146FFF7E1FF05F014
:1001A00001FD02F065F803B4FFF7F0FF03BC02F0B5
:1001B0009BF8000070B505460C46164602E00FCCD1
:1001C0000FC5103E102EFAD2082E02D303CC03C561
:1001D000083E042E07D301CC01C5361F03E0217869
:1001E0002970641C6D1C761EF9D270BD0F4880F317
:1001F00008880F480168090E0E4A914205D10E4841
:100200000E4901600E480F4901600F4880470F48B2
:100210000047FEE7FEE7FEE7FEE7FEE7FEE7000039
:100220000B480C490C4A0D4B70470000A80C0020ED
:10023000040000001F000000181002400100000030
:100240000000014000000000CF490008C100000884
:10025000A8060020A80C0020A8080020A80800205C
:1002600070B5064600F0AAFB056830460B30C4089E
:10027000E400B44201D8002070BD68682A46002816
:1002800018D00168A14211D30B46214608318B4298
:1002900008D3436801194B6003681B1B0B60516056
:1002A000046001E041685160001D70BD0246406875
:1002B0000028E6D12146284600F08CFB0028DCD13E
:1002C00070BD70B50446051F00F078FB0068002C77
:1002D0001AD0446801E020466468002C01D0AC428A
:1002E000F9D301680A18AA4204D12A680546891878
:1002F000016000E0456028684119A14205D16168AC
:10030000696021684018286070BD6C6070BDFEB5E2
:10031000054610460C46184373D0AE468C46002066
:10032000AD1A01469C4167D36646002701243D462D
:10033000B61A9D4102D313463A46212465467646B5
:100340002F04360C3E432D0CB61A9D4104D3150CD8
:100350001B042B4312041034654676462F06360ADA
:100360003E432D0AB61A9D4104D3150E1B022B43A2
:1003700012020834654676462F0736093E432D099A
:10038000B61A9D4104D3150F1B012B431201241DE6
:1003900065467646AF07B6083E43AD08B61A9D419E
:1003A00004D3950F9B002B439200A41C6546764610
:1003B000EF0776083E436D08B61A9D411AD392188E
:1003C0005B41641C16E00018764665464941B71A41
:1003D0009D410191009009D36046B11A98418E4623
:1003E0008446009801990025401C6941DD075208A8
:1003F0002A435B08641EE6D57246634603B0F0BD2F
:10040000FFE700200146C046C0462A462346F5E7DE
:100410000FB4054910B503AA029800F0ABFD10BC5B
:1004200008BC04B018470000A0050020F8B50E462F
:100430000446002020622046E1688847002829D031
:10044000252802D06268A16820E0E16820460027E4
:10045000884705001ED028464138192802D80127B0
:10046000FF0220353246204627602946FFF766FE08
:10047000002808D0012804D0F61DF608F60008363A
:10048000D9E7361DD7E762682846A1689047206AF9
:10049000401CCFE7206AF8BD70B50C460546012A1E
:1004A00005D02878800600D5EA69002302E0012300
:1004B00005E05B1C934202D2E05C0028F9D1A869F8
:1004C000E618C01AA861286AC01828622846C046E3
:1004D000C04604E06A682078A968641C9047B4426A
:1004E000F8D32846C046C04670BD0000F7B50025C9
:1004F00075291068009914A611D0C046C04600287E
:1005000002DA404211A608E0009909688A0701D57D
:100510000FA602E0490704D50EA6012501E0C0465A
:10052000C046009F0024243704E000F0C5FD3031B0
:100530003955641C0028F8D12B46324621460098D4
:1005400000F09CFAFEBD0000000000002D0000003D
:100550002B0000002000000070B5064600F032FAC3
:100560000468054630460A22002100F06DFD2C602B
:1005700070BD000030B5441C03E00178401C002928
:100580000DD08107F9D10B4BDD0104C8D11A91437D
:100590002940FAD0001B0A0603D0C01E30BD001B44
:1005A00030BD0A0401D0801E30BD0902FCD0401EBF
:1005B00030BD0000010101010346F0B50B439B076C
:1005C0002DD1244DEF01042A29D308C810C95E1B80
:1005D0009E43121F3E4017D0D8B2E1B2401A3106F6
:1005E000014310D198B2A1B2401A310401430AD19B
:1005F00018022102000A090A401A3102014302D1FD
:10060000180E210E401AF0BDA342DCD018BA21BA50
:10061000884201D90120F0BD0020C043F0BD002A6E
:1006200001D10020F0BD03780C78401C491C002B40
:100630000DD0A3420BD1521E09D003780C78401C78
:10064000491C002B03D0A34201D1521EEBD1181B31
:10065000F0BD00000101010101E004C0091F0429EF
:10066000FBD28B0701D50280801CC90700D0027025
:10067000704700290BD0C30702D00270401C491EEE
:10068000022904D3830702D50280801C891EE3E778
:100690000022EEE70022DFE7F8B507460B463946B1
:1006A0001943890713D1164CE601042A0FD302CB54
:1006B0000D1B8D43354202D102C0121FF5E7CBB2AC
:1006C0000370401C521E002B13D0090AF7E7002AC2
:1006D00014D01978521E5B1C0170401C002908D0F0
:1006E000002A0BD01978521E5B1C0170401C002997
:1006F000EDD1002A02D01146FFF7CAFF3846F8BDF7
:1007000001010101024670B50A4392072AD11E4D2C
:10071000EE0104C808C9541B9443344017D0D0B22A
:10072000D9B2401A2106014310D190B299B2401AB1
:10073000210401430AD110021902000A090A401AD1
:100740002102014302D1100E190E401A70BD9A42C7
:10075000DFD010BA19BA884201D9012070BD00203B
:10076000C04370BD02780B78401C491C002A09D098
:100770009A4207D102780B78401C491C002A01D00C
:100780009A42EFD0D01A70BD010101010022030985
:100790008B422CD3030A8B4211D300239C464EE09C
:1007A00003460B433CD4002243088B4231D3030958
:1007B0008B421CD3030A8B4201D394463FE0C3090A
:1007C0008B4201D3CB01C01A524183098B4201D322
:1007D0008B01C01A524143098B4201D34B01C01A0D
:1007E000524103098B4201D30B01C01A5241C30885
:1007F0008B4201D3CB00C01A524183088B4201D3F4
:100800008B00C01A524143088B4201D34B00C01ADF
:100810005241411A00D201465241104670475DE0F4
:10082000CA0F00D04942031000D340425340002277
:100830009C4603098B422DD3030A8B4212D3FC2220
:10084000890112BA030A8B420CD3890192118B429F
:1008500008D3890192118B4204D389013AD09211B5
:1008600000E08909C3098B4201D3CB01C01A524170
:1008700083098B4201D38B01C01A524143098B4239
:1008800001D34B01C01A524103098B4201D30B0122
:10089000C01A5241C3088B4201D3CB00C01A524147
:1008A00083088B4201D38B00C01A5241D9D243082E
:1008B0008B4201D34B00C01A5241411A00D201466B
:1008C000634652415B10104601D34042002B00D5D5
:1008D0004942704763465B1000D3404201B5002097
:1008E000C046C04602BD7047704770470246C80FF9
:1008F000C00781434B0030B54B405B009B0D20D0BF
:100900001923DB06C91801231B05994220DB0324A8
:10091000A40704251346AB400BD3002B04D1EB06F0
:1009200013409B00E34204D40124640700231219FE
:100930005941FF231B0599420BD2C9000143500FB7
:1009400009E0CB0204D501430803024305D0054862
:1009500030BDFF21C905084330BD08460721090500
:10096000884330BD0000C07F0121C9050123411823
:1009700042001B06D3185B0E0AD0C1100722D20614
:10098000891840075242D14201D552008918704758
:10099000090208D50146002A03D0C10FC90700206B
:1009A000704710467047420202D00020024970474B
:1009B000072109050143F4E70000F87F004870476C
:1009C00050060020004870474806002070477047D6
:1009D0007047704738B504460A4600206946C0464D
:1009E000C046002805D002462046009900F088FB4A
:1009F000012038BD10B5012001F082F810BDF8B516
:100A0000C046C046054600200C461020C04606469B
:100A1000A819A0420DD9324669460020C046C046FA
:100A2000070001D101F06CF80098A04200D0054603
:100A3000C419FFF7C3FFF61D07460560F008C000A4
:100A40004619284600F008F8B44204D03146386808
:100A5000A21B00F055FBF8BD0021016041608060E1
:100A600070471020704710B5FFF7ACFF006810BD4D
:100A700010B50446FFF7A6FF046010BDFFB504469D
:100A80000D4681B0243000902168880604D51022DC
:100A9000E0699143216000E00120A84201DD471B8D
:100AA00000E000270498A1697A191018081AA061BB
:100AB0002078C00602D42046C046C046002608E082
:100AC00003986268A168805D9047206A401C761C8C
:100AD000206204988642F3DB2078C0060AD52046BF
:100AE000C046C04606E06268A16830209047206A90
:100AF000401C206238467F1E0028F4DC07E0009886
:100B00006268A168405D9047206A401C20622846C8
:100B10006D1E0028F3DC2046C046C0462078000643
:100B200002D5022005B0F0BD0120FBE77047FFB5FC
:100B30000C461E468FB003CA089009914F007D0DE8
:100B400000D16D1E002108460020C0460321099AED
:100B500089050840002A03DA82008018400808400E
:100B6000800D01280A9002DD0020C0430A900898F9
:100B700007430DD0F048F149281848430714189846
:100B800000281DD07542291E1DDD0A9842421BE037
:100B90001898012802D00020302104E00020F24300
:100BA00005E02154401CB042FBDB30460022189B7C
:100BB000002121540F998B600A60486013B0F0BD8A
:100BC000BD1B6D1CDFE70A9A002900DA69420BA8F9
:100BD00000F0C8FB0BAB07CB03AB07C30899099820
:100BE00000F02CFC6B4607C30146D5480918002DC0
:100BF00000910BDDD24903980A9A4942401800231C
:100C000003A90390684600F089FE08E003990A9A58
:100C10000023081803A90390684600F029FE6B46DC
:100C200007C30004000C03D00020C043410800E0CB
:100C30001046189A002A03D00022009215461EE0A2
:100C4000751E05D400F076FA303262556D1EF9D566
:100C500001220843079602D000227F1C04E020787E
:100C6000302801D100227F1E002A069787D01EE07F
:100C7000112D07DA00F05EFA303262556D1C024623
:100C80000A43F5D1084303D00098002819D00EE09C
:100C90000021681E05E0235C625C63542254401E00
:100CA000491C8142F7DBA81B401E07950690079A56
:100CB00018990020A0540F98079B069A81600CC0D9
:100CC0007CE711260020189059E7D21DF0B50D469B
:100CD0000446D10893B0C90003C90C900D9104F0EB
:100CE00085FA02460D98C00F01D02D2007E020683C
:100CF000810701D52B2002E04007C00F4001032AE5
:100D00000F9001D0072A05DB03462946204600F054
:100D10006FFA0EE12078800601D5E76900E006272A
:100D20002846652D04D0662814D0672D69D12DE0A2
:100D30000020112F009001DB112300E07B1C0CAA86
:100D400003A910A8FFF7F3FE1199002610987D1C47
:100D50000E9142E001203B460CAAC0070B900120F7
:100D6000009003A910A8FFF7E2FE119D12981099B8
:100D7000002600280E9501D1781C0D18781B02D48E
:100D800046427D1C761EE81B00903AE0012F00DAF7
:100D900001270020112F009001DD112300E03B46C8
:100DA0000CAA03A910A8FFF7C2FE11993D4610989E
:100DB00000260E91217809070BD40E99A94200DA7A
:100DC0000D4603A9012D04DD4A19203AD27F302AAD
:100DD00006D0B84201DA011D04DA012100910FE0CA
:100DE0006D1EEFE7002802DC86192D1A03E0411C76
:100DF000A94200DD0D46801B401C00900120C00769
:100E00000B902078000705D40098A84202DB002050
:100E1000C043009069460020C8720B98012102AFC0
:100E20000337C907884225D0022010902B2011904B
:100E30000B9800280BDA40420B902D20119006E011
:100E40000B9800F039F930317F1E0B9039701099F2
:100E5000481E00291090F3DC0B980028F0D111985F
:100E60007F1E38702088000501D5452000E06520F0
:100E70007F1E387001A8C01BC01D0B900F98002862
:100E800000D0012041190098C01709180B980818C4
:100E9000A169081A401EA0612078C00602D420462D
:100EA000C046C0460F98002805D06268A1689047E8
:100EB000206A401C20622078C00625D52046C04606
:100EC000C04621E0002E07DB0E98B04204DD03A8E7
:100ED0006268805DA16802E06268A1683020904786
:100EE000206A761C401C20620098401E002800905A
:100EF0000AD100F001F9C06862680168405CA1682D
:100F00009047206A401C206228466D1E0028D9DCCC
:100F100007E062683878A1687F1C9047206A401C0F
:100F200020620B99481E00290B90F2DC2046C04637
:100F3000C046032042E6000001FCFFFF104D000008
:100F4000E1DFFFFF10B54369002B02D0C046C04669
:100F500001E0FFF7A1FA012010BD1278014624310B
:100F60000A7000224A700122ECE711680022D24385
:100F7000E8E70000084B70B50D467B4400F025F90A
:100F80000446284600F01AFD002802D00020C04385
:100F900070BD204670BD00002B4400000FB400233C
:100FA00000B589B00CA900910B99CB60224B7B4412
:100FB000224A7A440792042206930192204A02921E
:100FC000204A7A446B4608920246002004F086FFCD
:100FD00009B008BC04B0184770B5064615460C4663
:100FE000324686B00020C04301900020049004A83F
:100FF000009102916946FFF7D1FF0246049821183B
:10100000002D05D0002801D0084600E020462860C9
:10101000049800280DD0002A02DD0098884208D0EC
:101020003246081B6946019004A800940294FFF719
:10103000B5FF06B070BD0000C7020000E30200006B
:10104000FFFFFF7FE9010000F7B50F460026009C77
:101050002578641C002D05D000F046F80068405D3E
:10106000C007F5D12B2D02D02D2D18D0641E394686
:10107000029A204600F022F9002F04D03968A142DC
:1010800001D1009939607105022400290BDA404230
:10109000002803DDFFF796FC0460A007FEBD0120D9
:1010A00080020643E3E70028F8DAFFF78BFC0460D0
:1010B0000048FEBDFFFFFF7F01468008081A0209B5
:1010C0001018020A1018020C1018C008820012181A
:1010D0005200891A01E0401C0A390A29FBD27047E4
:1010E000004870474806002010B500F005F8001DC4
:1010F00010BD00BFE14C00000048704768060020AA
:1011000010B50346406801E003464068002801D05E
:101110008842F9D31868C3188B4206D0CB1CD80874
:10112000C000001D411A521A0146081D0A60FFF74F
:10113000C8F810BD0B4670B5024689078008084301
:1011400019469D08141AA9412509080705430809ED
:101150002C194841250A01060D43010A2C19414169
:10116000200C0D0428430D0C00194D41002140199D
:101170004D41C00869070843E908840F8D002543E5
:10118000840024184D4124196D41121BAB4107E026
:101190000925ED432C11521963410024401C614183
:1011A0001C460A250026551BB441F1D270BD10B56E
:1011B0000446FFF799FF0068005DC007C00F10BD2F
:1011C00001694A1C02610878704700B58FB002912E
:1011D000002105910549019379440391114604903A
:1011E0006846FFF723F90FB000BD0000E5FFFFFFE1
:1011F000F8B51F46044601230068DB0203260146BA
:101200001840072A05DB002801D017A506E017A51E
:1012100004E0002801D016A500E016A510208143A7
:101220002160A069C01E002FA06101D0401EA061F6
:101230002046C046C046002F09D038466268A168E3
:101240009047206A401C2062C01C206206E0206A91
:10125000FAE762682878A1686D1C9047761EF8D27C
:101260002046C046C046F8BD4E414E006E616E003D
:10127000494E4600696E66004268002A08D001683F
:101280000B78491C002B03D0521E06C0184670472D
:101290000121C160881E70474268002A0BD0C368D4
:1012A0000168002B07D183688B4204D0491E521C71
:1012B00006C0002070470020C0437047F7B51546B0
:1012C00082B00027029C2078641C0197302802D04D
:1012D000002D15D015E020780127641C782804D053
:1012E000582802D0002D09D00BE0002D01D0102D80
:1012F00007D1207800271025641C02E0082500E0B3
:101300000A250026009610E0009901276943081875
:1013100029467143020C80B200908E183804864230
:1013200001D3012001902078641C294600F041FC83
:101330000028E9DA0398002805D0002F01D0641EA8
:1013400000E0029C04600198002806D0FFF73AFBF9
:1013500002210160C81E05B0F0BD009930040843A9
:10136000F9E70000F7B516468AB0334878446C4672
:1013700003467C33C06F5A689B680DC42E4878447E
:10138000763003AC0DC80DC43720C00108183721D2
:101390001B30FFF705FA05460C46803D1B3C02D585
:1013A0006442012000E000200027099010E0E007DF
:1013B0000CD00C2020497843794432464C394118EE
:1013C0006846012300F054FA6B4607C364107F1C83
:1013D000002CECD1184F7F442E3F16E0E80712D0C6
:1013E0002001C0190EC80691089307920068F042C8
:1013F00001D1981908903246012306A903A800F0EC
:1014000037FA03AB07C36D10641C002DE6D10998B1
:10141000002806D032466946012303A800F07EFA70
:1014200005E001233246694603A800F021FA0A9B31
:1014300007C30DB0F0BD00005C4C00000346400047
:101440000A4610B5400D0BD00121C9070F24A40294
:1014500000191C0364082143540D2143D20207E004
:1014600000210120F2E7D40F490021435200401E21
:101470000029F8DADB0FDB07184310BDFFB50D4676
:10148000144685B04868516803F098FE00910190B9
:10149000A868A16803F092FE02910390A8686168B1
:1014A00003F08CFE029A12188242029201D20120AD
:1014B00000E00020019A0B18D2180028019202D0F7
:1014C0008A4202D903E08A4201D2012000E00020D2
:1014D0000099081800906868A16803F06FFE029AEE
:1014E00012188242029201D2012000E00020019AEB
:1014F0000B18D2180028019202D08A4202D903E0C8
:101500008A4201D2012000E00020009908180090D2
:101510002868216840004900400849084018FA49F5
:10152000471814E001994000C90F08430090019842
:1015300002994000C90F08430190029803994000A6
:10154000C90F08430290039840007F1E0390009843
:101550000028E7DA0898002801D0EC4E00E00026C9
:10156000B74201DA012000E00020002804902AD0D0
:10157000F71BF806C00E15D0029B2021091A039A0A
:101580008B401A430392029A019BC2408B401A433C
:101590000292019A009BC2408B4000991A4301922B
:1015A000C14000917B110DD06F460320C11A03D5B5
:1015B00000218200B95003E08A008100BA587A50B5
:1015C000401EF3D5374603980299002800D0012029
:1015D000014308980291002808460CD0002800D04A
:1015E00001200199019A490508430121D20AC90243
:1015F000D202019200E001210E9B0122D207012BB1
:1016000002D0002B03D013E0002807D120E0904245
:1016100004D890420CD1019B0B4209D0019B591870
:10162000019105D10099491C009101D17F1C0092C4
:1016300000280DD0102108460020C046049800283C
:1016400006D00F98002803D0082108460020C04685
:1016500028682168019B009A4840C10F0598C90776
:1016600039430EC009B0F0BDFFB587B0099A08989C
:1016700008995368926840688968964600220393E7
:1016800017469446089A12685300099A5B08126834
:10169000520052089A1A9E4BD4180A9A002A01D076
:1016A000352200E0402206920022012315460492D2
:1016B000DB07059324E0002D05D175460346039E04
:1016C0004D1BB34109D375466646039B491B049DD8
:1016D0009841059B7519AC465F4163463B4308D072
:1016E000059B049EDD0776082E435B080496059350
:1016F00001E0521E641EC50FED0749184041521CFF
:10170000069B9A42D7DB002D04D17546039A6B1ACB
:10171000824101D203200CE0039A0B466B40424009
:10172000134303D0014303D0012002E0022000E074
:101730000020614601910021009702910A99002939
:1017400005D0614640020143704B019102E08007E1
:10175000002302909C4201DA012000E000200700F3
:101760003AD01A1BD006C00E15D0029D2021019C34
:10177000091AC5408C402543029C8C4000D00124AE
:101780002543019C0295009DC4408D4000992C4347
:101790000194C140009154111DD06D4602210022D8
:1017A00002290CD10320001B07E0002804DB86007F
:1017B000AE59002E00D00122401C0328F5DB081B87
:1017C00002D588002A5004E08000285810438A007F
:1017D000A850491EE3D51C460A98002802980CD050
:1017E000002800D001200199019A490508430121F0
:1017F000D20AC902D202019200E00121109B01220B
:10180000D207012B02D0002B03D013E0002807D110
:101810001FE0904204D890420CD1019B0B4209D0AA
:10182000019B5918019105D10099491C009101D1E2
:10183000641C009200280CD0102108460020C046ED
:10184000002F06D01198002803D008210846002058
:10185000C04608980999019A009B006809684840A9
:10186000C10F0798C907214382600AC00BB0F0BDC1
:1018700000B585B0019300920A460146002302A8F4
:10188000FFF7FCFD02A807C805B000BDFFB50A467A
:101890001F4685B00799019301230091014602A8D4
:1018A000FFF7ECFD02990398049ECA0F4900D20786
:1018B00000920F22490892028C1A0021002800DBB6
:1018C0000C46450013486D08844214D3079A002A39
:1018D00004DA441E0026104DF64302E004460D468D
:1018E0000E46102108460020C046002F03D00421D8
:1018F00008460020C0462005E90A0843009908432D
:101900006905F20A1143ADE602C0FFFF013C000089
:10191000FF3F0000FF070000FFFFFF7F00B585B01D
:10192000019300920A460146002302A8FFF79CFE9D
:1019300002A807C8A8E7FFB50A461F4685B0079961
:10194000019301230091014602A8FFF78DFE029941
:101950000398049ECA0F4900D20700920F2249083B
:1019600092028C1A0021002800DB0C464500114829
:101970006D08844214D3079A002A04DA441E002614
:101980000D4DF64302E004460D460E461021084672
:101990000020C046002F03D0042108460020C04686
:1019A0002005E90A0843009908436905F20A114332
:1019B00058E60000FF070000FFFFFF7FC06880219E
:1019C0000840704710B543485421FEF763FE424873
:1019D0005421FEF75FFE41485421FEF75BFE40486C
:1019E0003C493D4B404A01603E4803603B48106023
:1019F0005A1C0A65411C1965012101653C48354A9C
:101A00003AA1784400F09AFB002804D13848784481
:101A10000C3800F03BFC38482F4A36A1784400F0DF
:101A20008DFB002804D1344878440C3800F02EFC9B
:101A300032482A4A2FA1784400F080FB002804D1C4
:101A40002E4878440C3800F021FC40232148DC006B
:101A50000021224600F04CFB002804D024487844A2
:101A60005C3800F013FC1C4822464023002100F0A3
:101A70003FFB002804D0204878445C3800F006FC86
:101A8000164822461023002100F032FB002804D023
:101A90001A4878445C3800F0F9FB10BD0F4870B567
:101AA000006D44080B48640000F0BCFB0A4800F0DD
:101AB000B9FB0A4800F0B6FB09E0206D4508204656
:101AC0006D0000F0AFFB2046FEF7FBFB2C46002C20
:101AD000F3D170BD4C050020A0050020F4050020C6
:101AE0001C000020200000202400002072000000C4
:101AF0005A46000077000000444600002E460000D1
:101B000010B500F0C9FB00F0BBFB10BD0EB5019194
:101B10000090FEF72FFD029069460120ABBE0EBD7E
:101B200008B5694600900220ABBE08BD1FB56B46E4
:101B300007C369460520ABBE04B010BD1FB56C4697
:101B40000FC469460620ABBEF6E708B569460090AB
:101B50000920ABBE08BD1CB500900A200191694662
:101B6000ABBE1CBD704708B5694600900C20ABBEEB
:101B700008BD70477546FFF7B3FAAE4605006946E3
:101B80005346C008C000854618B020B5FEF748FB94
:101B900060BC00274908B6460026C0C5C0C5C0C500
:101BA000C0C5C0C5C0C5C0C5C0C5403D49008D4603
:101BB00070473A2800D23038202302469A43412AFF
:101BC00001D310463738884201D30020C043704704
:101BD000FFB58BB00878FF2806D0491C2D2805D00A
:101BE00000230020009009E000200EE00123F8E728
:101BF000009A0A2462438018491C00900878FF2844
:101C0000F6D1002B02D000984042009000250395A9
:101C10002C460D9800782D2801D02B2815D10D9930
:101C2000491C2D280D9102D0002003900DE00120C9
:101C3000FBE7401C214600270A223B460D90284620
:101C400000F058FB35183C464C410D980678FF2EA5
:101C5000EFD1002108460020C0460399002902D098
:101C60008100401840080002860F012E01DD002689
:101C7000F6430E9900984718284620430BD0FF20C2
:101C8000F530C7421ADA0398C1070B98002E41605D
:101C90000ADD012009E00398C1070B9841600B9908
:101CA000002008600FB0F0BD00200B990860FEF71F
:101CB00089FE02210160182108461AE0FF20F53054
:101CC000874219DD002E02DAFC48784401E0FC4826
:101CD000784406C80B9806C00B9803994068C9075A
:101CE00008430B994860FEF76DFE02210160142144
:101CF00008460020C046D5E7002108460020C0461F
:101D000039000A9001D5724200E03246002900DA1B
:101D1000794207A8FFF726FB07AB07CB04AB07C345
:101D2000E848009000200146214304D12C46054696
:101D3000E44920390091210C0904014306D1290C02
:101D400024040C4300992D0410390091210E09063A
:101D5000014306D1290E24020C4300992D020839B3
:101D60000091210F0907014306D1290F24010C43DB
:101D700000992D01091F0091A10F8907014306D188
:101D8000A90FA4000C430099AD00891E0091E10F3A
:101D9000C907084304D100986D196441401E0090A2
:101DA000002F0295019406DD32466846012304A9FE
:101DB000FFF76CFD05E001233246684604A9FFF7F2
:101DC000BAFD044603980D46002802D00120C00742
:101DD0004440002108460020C0460A99BA4E4840B7
:101DE0000007800F07D160004008284303D060003F
:101DF000400DB04214D1FEF7E5FD02210160600004
:101E0000400DB0420CD1B148784406C80B9806C0CA
:101E10000B98E10FC907406808430B99486041E7F8
:101E20000B9844600B9805603CE7FFB51F4695B0E2
:101E3000002000250C909E685C68ED431390FFF72E
:101E40005BF9C0680168405C1490B96916986D1C14
:101E500088470A90396A88470028F6D10A98401CBA
:101E60000AD00D20C0018443002E12DD0A982B28D1
:101E700009D02D280DD103E00020C04319B0F0BDDA
:101E8000012080020443B96916986D1C8847761EAC
:101E90000A90600504A901D52D2000E02B206A4698
:101EA000491C107410A8002E0D910B903BDD0A9870
:101EB000692805D0492803D06E2801D04E281DD1AD
:101EC0003B46039002200296179A1699C04300954C
:101ED000019404F013F8C11CD0D10FE0B969169831
:101EE0006D1C88470A900120761E40020443179813
:101EF00005601398401C002E139014DD0A983028BA
:101F0000ECD0782801D058280DD1139801280AD197
:101F10003B460296179A1699001F0095019403F00C
:101F2000E5FFC11CAAD114990A98884246D18020A5
:101F3000044308E00C981799401E0C9001204002C1
:101F40000443681C0860B9696D1C1698761E8847A2
:101F500030280A90EED031E01499884205D120064D
:101F600003D480200443761E1EE00A9803F000FA92
:101F7000002826D0012008A9400204430D9803310F
:101F8000761E88420BD20A980D99303808700D9849
:101F9000401C0D90200607D50C98401E03E020063B
:101FA00002D40C98401C0C90A00502D51799681C0F
:101FB0000860B96916986D1C88470A90002ECBDC22
:101FC00059E0002E57DD0A98652801D0452852D1E6
:101FD000A00550D50320B969000284436D1C1698F2
:101FE000761E8847002E0A900CDD2B2804D02D2861
:101FF00008D1FF2001300443B96916986D1C884749
:10200000761E0A90E00501D52D2100E02B210B98CA
:1020100001700B98401C0B90009025E0012012A944
:10202000400204430B980131761E88420ED20A9872
:102030000B9930380006000E087003D100990B98F8
:1020400088420AD90B98401C0B9006E0E00501D5A8
:102050001F4801E01E4840420C90B96916986D1C5B
:1020600088470A9017980560002E04DD0A9803F04F
:102070007FF90028D2D1F969169888470D99FF2079
:1020800004AA08700B99087000200E900F900C9B0A
:1020900010A90EA8FFF79CFDA00502D40120C043A3
:1020A000ECE62420044215D0E0071FD138680F9ACF
:1020B0000E99031D3B60006806C017E0C643000090
:1020C000B84300003E400000FF07000080420000CF
:1020D000F1D8FFFF0EA9684603F0D4F8E00705D158
:1020E0003868009A011D3960006802602846C5E61C
:1020F00070B5C468A50713D0650211D4D51FF93D8A
:102100000AD0FF3D6D1E07D0FF3DFF3D022D07D1D8
:1021100001462431012305E0074E5D1EB54201D37F
:10212000012070BD0161C36141600F2109028C4330
:102130001443C460002070BDFFFFFF00F7B51646D2
:102140000C46104600F06EF82078611C61280AD019
:10215000722802D0772839D102E00125002404E05A
:102160000225042401E02D4D082402220323012727
:102170000878491C2B2806D0622807D02039C87F50
:10218000742807D008E01D431443F1E704200543F9
:102190003C43EDE71020044300982146FFF7B6FCCE
:1021A000411C13D00021316171600121F5604902A9
:1021B000F1617061200704D530460222002100F051
:1021C000B1F8306D384330653046FEBD0020FEBDAD
:1021D000F8B50D460646124C206DC10704D04108E3
:1021E00004D044086400F7E7224610E05420FEF7CC
:1021F00037F8070010D07908206D490001221143FB
:102200000843542120653846FEF744FA3A462946E9
:102210003046FFF793FFF8BD0020F8BD02800000B4
:102220004C050020FEB50446466900690F4F019039
:10223000E56800200090A80707D0204600F01CF9B0
:102240003046FFF76DFC002801DA3846FEBD280550
:1022500002D50198FEF735F84C212046FEF71AFA10
:10226000206D4008400020650098FEBDFFFFFFFF85
:1022700010B50446C046C0462046FDF794FF10BD89
:1022800010B5002801D000F02FF810BD10B500F0F7
:1022900055F9FFF7F5FF10BD10B5012805D0002155
:1022A00003A000F031F9012010BD09A1F8E70000FA
:1022B00053494752544D454D3A204F7574206F662F
:1022C0002068656170206D656D6F72790000000097
:1022D0003A2048656170206D656D6F727920636F7B
:1022E000727275707465640001491820ABBEFEE718
:1022F000260002004343514330B55C18010C130C17
:102300000D4692B25D4380B251432C1905465543A8
:102310000A0C09044D1962415843010C000440198C
:10232000514130BDF8B5044616460D464769007B5D
:10233000800730D03846FFF708FC00282BD1324602
:102340001026002A25D0012A02D0022A23D104E037
:10235000204600F04BFB45191BE03846FFF703FC15
:10236000E16831430028E16004DA204600F054F8C7
:102370000120F8BDC9030BD56268E16A914200D81B
:102380001146A26989182269891A814200DD08462E
:102390002D18002D01DA0220F8BDE16A6068E268BC
:1023A000814206D29103E06203D5012149048A43A8
:1023B0003243A669AE4211DCE16A814201D90B4683
:1023C00000E003469F192369FF1AAF4206DD8142F0
:1023D00001D90F4600E007469F4206D12020024364
:1023E0000020A060A56220600DE0AD1BE669AE1B79
:1023F0008142A66000D90846C01A281A20605819E0
:10240000606020208243034802400020E2604034A4
:102410002072F8BDBFCFD7FFC1688022114392035D
:102420009143C1600021816001607047F7B5144697
:102430000E463348D5685769054209D03846A16928
:10244000FFF789FB002811DB2D48C0430540E560FC
:102450002B46324638460099FFF768FB4200A169D7
:102460005208B21A89180028A16104D02046FFF74B
:10247000D3FF0020C043FEBD70B504460569C06AA5
:102480006168884200D80846E1680522D204914379
:10249000E160C90314D5A84209D02246411B284651
:1024A000FFF7C4FF002802D00020C04370BDE562E2
:1024B00000206560A060E068012109048843E060B5
:1024C000002070BD10B50446C06820218843E0603C
:1024D000A16AA06988420ED02046FFF7CDFFE068D0
:1024E00003210903884310210843E060A06AA0612A
:1024F0002069E06260600349E0680840E06010BD68
:1025000010000200BFBFFFFF70B505460C460A2051
:1025100000E06D1C00F02CF8002D06D02878002873
:10252000F7D102E0641C00F023F8002C02D02078E0
:102530000028F7D10A2000F01BF870BD10B5014645
:1025400002A0FFF7E1FF012010BD000053494752F0
:10255000545245443A2052656469726563743A2066
:1025600063616E2774206F70656E3A200000000072
:1025700008B5694608700320ABBE08BDFFB51F460D
:1025800089B0139812994005C00FC007059000202C
:10259000079005460446461E049002903C20491CC4
:1025A00012910690B9690A98884703901498401EC2
:1025B00014901498002841DD03982E2816D010217D
:1025C000FFF7F7FA002834DB012104910799014352
:1025D0001AD0069900290CDB069AC11700F027FAD9
:1025E000054306980C43001F069006E00120029068
:1025F0000EE0002801D00120054301200790029839
:10260000002805D1361D03E00298002800D0361FAF
:102610001298401C1290B9690A9888470390149840
:10262000401E149004980028C3D00B99129808609B
:10263000BFE70398702808D0502806D0F9690A9897
:1026400088470498002815D051E00020039001200D
:102650000290049800280AD01298401C1290B96980
:102660000A9888471499491E0029149106DCF969D3
:102670000A9888470120C0430DB0F0BD2B2804D034
:102680002D280DD10020C04302901298401C1290BA
:10269000B9690A9888471499491E00291491E6DD02
:1026A000411CE4D00A21FFF784FA0028DFDB0399FC
:1026B0000A225143081803901298401C1290B969DD
:1026C0000A9888470A21FFF774FA14990B9A491E51
:1026D0001491129911601499002901DD0028E6DA9D
:1026E000F9690A988847029903984843861913980C
:1026F0002421084004902846204304D0A10F8907D4
:10270000090002D006E005989BE0A90FA4000C4345
:10271000AD00B61EE10FC907080002D16D19644172
:10272000761E0498002803D00B2002905D4803E039
:10273000282002907D20C0438642039007DA811B47
:10274000029808184128029001DD41200290029A67
:1027500001200021521E00F06AF9024628400B4673
:102760002140084301D0012000E000200790002014
:10277000521EC04343412A4023401A4301D0012046
:1027800000E0002007990690014352D0002108463E
:102790000020C0460321059A89050840002A05D07B
:1027A00082008018C20F10184010084080150128C0
:1027B00002DD0020C04301E0012815D0401C38D0C4
:1027C0000798002835D0069800280DD1029A0120DC
:1027D000002100F02CF928402140084301D00120BD
:1027E00000E00020002824D0029A0120002100F0FF
:1027F0001EF9034640198C4661412A1A8C410FD3B9
:102800000298402807DD0498039E002801D0343E3A
:1028100002E0173E00E0761C01240025E40708E0F2
:102820005B1E62460024E4436241DD43D44305401D
:102830000C4003980121081AB04206DA1A4905989B
:1028400008430190002000900EE060006205010B3B
:10285000E80A1043059A009068460A4313490A4360
:102860003146019202F07AFD049800280AD01398AC
:10287000C00714D13868019A0099031D3B600068B5
:1028800006C00CE002A8694602F0FCFC1398C007E1
:1028900005D13868029A011D3960006802601298FB
:1028A000EAE6000002FCFFFF0000F07F0000F03FBE
:1028B000FFB51D4687B01198484A109C129E4005EE
:1028C0001399C00F761EC0070243019200220092A6
:1028D000FF22D2051043202291434929059003D0BD
:1028E00017464E2928D04FE03DA002AA0BC8012769
:1028F0000BC2A9690898641C8847761E014607D454
:1029000002A8C05D002803D02022914381420AD052
:10291000E96908988847032F36D0082F34D0012062
:10292000C0430BB0F0BD7F1C032F01D0082FE0D1B6
:102930000999601C0860DCE7A9690898641C88474D
:10294000761E2DD4B84341282AD1A9690898641C61
:102950008847761E24D4B8434E2821D1A969089807
:10296000641C884701990122D20411430191059901
:10297000D200114305910999761E0C6001D42828D4
:1029800006D0E969089888471198C00712D023E05B
:10299000A9690898641C8847761E01D4002803DAC8
:1029A000E96908988847BAE72928F1D10998641C91
:1029B0000460E9E711982421084207D02868019AA9
:1029C0000099031D2B60006806C005E02868059982
:1029D000021D2A60006801602046A2E70000F07F27
:1029E000494E46494E4954590000000010B5014671
:1029F000C268900703D0900607D5886A0AE0FDF701
:102A0000E1FF01210160881E10BD8B694868C01874
:102A10000B69C01A40310B7A002B02D0497A401A58
:102A200010BD1103FCD50028FADD401E10BD10B505
:102A3000202A04DB0146203A9140002010BD91403D
:102A400020239C1A0346E3401943904010BD000028
:102A5000F8B5224C4E00069DA6420AD8A64201D1E6
:102A6000002806D15E00A64203D8A6420AD1002A59
:102A700008D00D24240425422CD02946002000F043
:102A80005FF8F8BD0C461C430CD4994202D0EFF31A
:102A90000080F8BD904202D0EFF30080F8BDEFF364
:102AA0000080F8BD09242407E5008B4206D0EFF32F
:102AB0000080A043591A06D2284304E0101A05D317
:102AC000EFF30080A04380F30088F8BDEFF30080AF
:102AD000A043F1E7009500F04BF8F8BD0000E0FFDF
:102AE00070B505464800440D124B0020002C0AD05A
:102AF000634008D09A4206DA6642B24203DD12050C
:102B00004019514170BD002C08D0002B09D0C90FCD
:102B1000C907002AF6DB084A114370BDC90FC9076F
:102B200070BD28460A03104302D00020034970BD3F
:102B3000284670BDFF0700000000F07F0000F87F0E
:102B4000C80212D54803400F002804D0C803C04370
:102B5000012188407047EFF3008000010009032144
:102B60000907084380F30088704700207047000081
:102B700010B500200249029A00F004F810BD0000D0
:102B80000000F87F10B50C461107090F092904D081
:102B90000A290AD008290CD104E011460820FFF7C1
:102BA000CFFF06E0510606D501E0510601D5012010
:102BB000C007214610BDD10607D501010909CC087F
:102BC0004907000E0006044309E0410F20024907AF
:102BD000000A0143200E00061D22D1410143084690
:102BE000E7E7000010B5024800F08CF810BD0000C7
:102BF0000805002010B50446006805494018142156
:102C0000FDF7C4FD800020640248E06310BD0000B1
:102C1000F8FFFDBF0000024030B5056C0124AC4058
:102C2000C56B6C60046863604368102B036803D055
:102C300099600068C26030BD9A600068C16030BDB4
:102C400010B5012000F09CF910BD10B5082000F06F
:102C500097F910BD10B5FF20013000F091F9012067
:102C6000400200F08DF90120800200F089F9012076
:102C7000C00200F085F910BD72B6FEE730B501461E
:102C800020314B780022022B04D0042383630A7086
:102C9000012030BD03681C680E25AC431C6003682E
:102CA0001C68640864001C600123056C1C46C06B32
:102CB000AC4044604B700A70002030BD70B50024F9
:102CC000014620314A78022A03D00421816301247D
:102CD00016E0026813680E25AB43136002681368A0
:102CE0005B085B0013600122056C1346AB40C56BAB
:102CF0006B604A7000220A70416B002900D088473F
:102D0000204670BDF0B4C16B0D6801680C680422E8
:102D1000066C1346B3402B420DD063070BD50B68EE
:102D20009B0602D40B6893430B60016C8A40C16B15
:102D30004A60C16A19E00227B74002462F400123CA
:102D40002032002F15D0A70713D50C68A40604D491
:102D50000C680A25AC430C605370036C0221994047
:102D6000C36B596000211170816A002916D0F0BC34
:102D700008470827B7402F4210D024070ED50C680B
:102D80000E25AC430C60046C1946A140C46B616015
:102D90008363537000211170016BE6E7F0BC70474C
:102DA00070B5040021D00221204620300546417034
:102DB000226811680E48A3680140606826691843BC
:102DC000E3683343184363691843A3691843E3690D
:102DD0001843084310602046FFF70CFF0021A16351
:102DE000012068702970084670BD012070BD000088
:102DF0000FC0FFFFF8B504468C462030017800254F
:102E0000012909D00126067041780027012905D043
:102E1000077002252846F8BD0220F8BD0221417046
:102E2000A76320680168490849000160614620469F
:102E3000FFF7F2FEE06A00282068016802D00E2247
:102E4000114306E00A221143016020680168042250
:102E5000914301602068016831430160DAE70000B6
:102E6000F8B5FF2601363A4D3A4C082809D07100D2
:102E70004A008B00012855D0B0424BD1022121706D
:102E80004DE000F061F9344F3968401A64284FD39F
:102E900000F05AF9386000F057F93049304E0968AF
:102EA000401AFF212D31884218D300F04DF93860C7
:102EB00000F04AF929492B4F08601021384600F0EC
:102EC00037F9002806D01021384600F031F90128E2
:102ED00002D003E0012000E00020307021781C20A7
:102EE0004843337840195B0002695B1E8668D3183B
:102EF000B34207D3002A05D0C668B34202D81A4F9E
:102F0000BA4201D1066100E00361026917A0FDF732
:102F10007FFA0DE0884202D10321217004E0904243
:102F200002D10420207003E0984201D10520F9E786
:102F3000124E21783078814208D01C204843401935
:102F400002690AA0FDF764FA20783070F8BD00002D
:102F5000280000200A0000200000002004000020BB
:102F60000900002000040048FFFF0000736572762E
:102F70006F5B25645D3D2025640D0A00080000207C
:102F800010B504494A69024202D04861FFF768FF60
:102F900010BD000000040140F8B500230324012502
:102FA000B5E02E469E40B44632407CD00E79B6073E
:102FB000B60F012E01D0022E17D186682746B646DD
:102FC0005E00B74000967646BE43B646CF68009E88
:102FD000B74076463743876046686746BE430F79F9
:102FE000FF06FF0F9F40374347600E79F643B60751
:102FF0000ED0C6682746B4465E00B646B740664661
:10300000BE43B4468F687646B74066463743C760CE
:103010000E79B607B60F022E14D1DE08B6003618A8
:103020000096366A5F07B446FE0E0F27B646B740D5
:103030006646BE43B4460F697646B7406646374398
:10304000009E376206682746B4465E00B646B74023
:103050006646BE430F79B446BF07BF0F7646B740FA
:103060006646374307604E68B603B60F4ED02B4F07
:10307000BE692E43BE61BE699F08F607F60F284E53
:10308000BF00BE190096B6680F27B4469E07360FDC
:10309000B646B7406646BE430927FF06B446B84267
:1030A00002D100270BE031E01E4FB84201D10127C9
:1030B00005E01D4FB84201D1022700E00527764602
:1030C000B74066463743009EB760184E36684F6873
:1030D0009643FF0300D51643144F3E607E684F6849
:1030E0009643BF0300D51643104F7E60BE684F68FD
:1030F0009643FF0200D516430C4FBE60FE684F6832
:103100009643BF0200D51643084AD6605B1C0A6886
:103110001646DE4000D044E7F8BD00000010024033
:10312000000001400004004800080048000401407D
:103130000069084000D001207047002A01D0816159
:103140007047816270470000014880687047000046
:103150000C00002070B5024640325378202B1CD161
:103160001378012B19D001231370242454700468A0
:1031700025689D432560046825681E03B5432560C6
:10318000046825680D4325600068016819430160E3
:10319000202050700020107070BD022070BD70B5EE
:1031A000024640325378202B1BD11378012B18D0C4
:1031B000012414702423537003681D68A5431D6007
:1031C00005682B680F263602B343090219432960AC
:1031D00000680168214301602020507000201070B9
:1031E00070BD022070BD000070B5040006D02546F9
:1031F000403568780026002802D005E0012070BD27
:103200002E70204600F04AF824206870206801687B
:103210004908490001600F21606809068843216858
:10322000086121688A680120C00382438A60E168DE
:103230000129A16808D021229202114322689160DD
:10324000E168022902D005E00143F7E70121226885
:10325000C902516021684A680F4B1A434A602168CD
:10326000CA688243CA60616920690843A16909028A
:1032700008432168C860216AE06908432168086042
:103280002068016801221143016066642020687093
:103290002663AE70002070BD00800002F0B587B0DC
:1032A000044614216846FDF7F5F91949206888425B
:1032B0002BD1184C6169012080050143616161696E
:1032C0000140059161694011014361616169122505
:1032D00001400220002603276A46E1C2012003C202
:1032E00069460D48FFF758FEA0146946E1C1052064
:1032F00004906946A806FFF74FFEE16901204005EA
:103300000143E161E1690140059107B0F0BD0000B2
:103310000054004000100240001400480248816838
:1033200002788918816070470C00002010B50648AB
:103330000168102211430160002000F007F800F03E
:1033400027F8002010BD00000020024070B50446A0
:103350000D4D7D202978C000FDF718FA01460B4875
:103360000068FDF713FA00F0A3FB002809D1042C34
:1033700007D200222146401E00F02AF800206C608F
:1033800070BD012070BD00000C000020180000205E
:1033900008B50848816901221143816181691140A2
:1033A0000091C26901040A43C261C06908400090EB
:1033B00008BD000000100240002805DBC106C90E50
:1033C00001208840014908607047000000E100E0EA
:1033D00010B501F021FF10BDF8B5044600683E4D60
:1033E000C00352D5E8690026C00007D4E969280463
:1033F0000143E961E969014001260091374801680C
:10340000C90510D40168821511430160FFF79CFEC5
:10341000074604E0FFF798FEC01B642824D82F4815
:103420000068C005F6D5286A03273F02384020D03F
:103430006168394081421CD0286A2A6AB843012158
:1034400009040A432A622A6A8A432A622862C00758
:103450000FD0FFF779FE009008E0FFF775FE0099A6
:10346000411A1F48814201D90320F8BD286A80070C
:10347000F3D5286A6168B84308432862002E04D057
:10348000E969012000078143E9612078C00705D080
:10349000286BA16880088000084328632078800694
:1034A00005D5286B10218843E1680843286320680C
:1034B000800305D5286B8021884361690843286310
:1034C0002088400505D5286B4021884321690843A1
:1034D00028630020F8BD000000100240007000408A
:1034E00088130000F8B50F4606005FD03D4D2868F0
:1034F000C007C00FB84209D22868400840003843CE
:1035000028602868C007C00FB8424FD13068364CD9
:1035100081070CD5400704D56068072109020843DC
:1035200060606068F0218843B1680843606030786B
:10353000C0072CD07068012810D0022811D00328B1
:1035400012D021688907002930DA6168890889006A
:1035500001436160FFF7F8FD009011E021688903E5
:10356000F1E721688901EEE7616BC903EBE7FFF73B
:10357000EBFD0099411A1D48814201D90320F8BD95
:1035800060680C210840716889008842EFD1286882
:10359000C007C00FB8420BD9286840084000384324
:1035A00028602868C007C00FB84201D00120F8BDCC
:1035B0003078400706D56068072109028843F16822
:1035C0000843606000F028F86168094A0906090F9D
:1035D000515CC840074908600020FFF7B7FE002093
:1035E000F8BD0000002002400010024088130000D7
:1035F000B45F0008180000200448054900684968C5
:10360000044A4905490F515CC84070471800002022
:1036100000100240C45F000830B519A30FCB89B079
:103620006C460FC41AA30FCB0FC41D4A51680C205F
:103630000B4603401B48042B05D01B4D082B04D020
:103640000C2B00D1284609B030BD8B021B0F6C46F5
:10365000E45CD26A04AB1207120FC9039A5C890FAB
:10366000022901D0032901D0002301E000232846CC
:103670000021FCF74CFE214601F0A0FDE3E700002D
:1036800002030405060708090A0B0C0D0E0F1010A3
:103690000102030405060708090A0B0C0D0E0F10A2
:1036A0000010024000127A00006CDC02FEB504003B
:1036B00070D02078F94EFA4DC00748D068680007EE
:1036C000800F01281FD068680007800F022804D1EE
:1036D0006868C003800F022815D06168012919D0DD
:1036E00001208004002901D0052917D02968B143A1
:1036F0002960296881432960606800281BD0FFF792
:1037000023FD074613E02868800320D56068002861
:10371000CED01CE0286830432860EDE729680143DB
:103720002960F7E7FFF710FDC01B642870D82868F0
:103730008003F7D50BE0FFF707FD074604E0FFF72E
:1037400003FDC01B6428F1D828688003F7D42078D3
:1037500080073FD568680007800F14D068680007AD
:10376000800F022804D16868C003800F01280AD0A6
:10377000E068002828681ED0012108432860FFF770
:10378000E3FC07460CE0286880070CD5E0680128B8
:1037900000D108E080E1FFF7D7FCC01B0228C5D8A4
:1037A00028688007F7D52868F82188432169C9006F
:1037B000084328600EE0400840002860FFF7C4FC82
:1037C000074604E0FFF7C0FCC01B0228AED82868FB
:1037D0008007F7D42078000723D5E0690028686ABD
:1037E0000FD0012108436862FFF7AEFC074604E0F2
:1037F000FFF7AAFCC01B022898D8686A8007F7D593
:103800000FE0400840006862FFF79EFC074605E0B5
:10381000C3E0FFF799FCC01B022887D8686A8007BD
:10382000F7D4207804274007002861DA00200190AF
:10383000E869C00008D4E969B8060143E961E969AB
:10384000014001200091019096480168C90511D4FA
:103850000168821511430160FFF776FC009005E0D6
:10386000FFF772FC0099401A642898D88D480068C8
:10387000C005F5D5A06801280AD0002801D0052888
:1038800011D0286A400840002862286AB84302E044
:10389000286A012108432862A068002812D0FFF797
:1038A00053FC00900AE0286A38432862F0E7FFF7EB
:1038B0004BFC0099411A7C4881426ED8286A8007E7
:1038C000F5D50DE0FFF740FC009006E0FFF73CFC6B
:1038D0000099411A744881425FD8286A8007F5D45C
:1038E0000198002804D0E969012000078143E961BB
:1038F0002078C00635D5606901280CD0401D686B62
:1039000024D038436863686B400840006863FFF761
:103910001BFC074622E0686B38436863686B012133
:1039200008436863FFF710FC074604E0FFF70CFC50
:10393000C01B022831D8686B8007F7D5686BF82167
:103940008843A169C900084368630AE0B843686313
:10395000F4E7FFF7F9FBC01B02281ED8686B80074D
:10396000F7D42078800637D568680007800F0328D1
:1039700014D068680007800F022804D16868C0036B
:10398000800F03280AD0206A0028686B16D03043C5
:103990006863FFF7D9FB06460CE062E0686BC00382
:1039A0001AD5206A012877D116E0FFF7CDFB801BDE
:1039B000022856D8686BC003F7D50DE0B0436863A2
:1039C000FFF7C2FB064604E0FFF7BEFB801B0228A0
:1039D00047D8686BC003F7D4606A002866D069686E
:1039E0000907890F022942D00126360602282868D5
:1039F00005D0B0432860FFF7A7FB044633E0B0438F
:103A00002860FFF7A1FB074604E0FFF79DFBC01B02
:103A1000022826D828688001F7D4E86A216B0009BB
:103A200000010843E862A16AE06A084369687B22F2
:103A3000D203914308436860286830432860FFF749
:103A400083FB044604E0FFF77FFB001B022808D835
:103A500028688001F7D529E0FFF776FB001B0228D4
:103A600001D90320FEBD28688001F5D41EE001289D
:103A7000F8D06868E96A0322D203A36A02409A4236
:103A80000AD10907226B090F914205D10F21890440
:103A90000840E16A884209D00120FEBD0000010013
:103AA0000010024000700040881300000020F4E77E
:103AB000094910B5401E884201D9012010BD074CAC
:103AC00060610321081F01F0A7FB0020A06107200F
:103AD0002061002010BD0000FFFFFF0000E000E0BB
:103AE00030B5034620331A7F012A26D001221A77E7
:103AF0000325CA682D02AA438D6800242A430125A4
:103B0000AD02AA434D6800682A430125ED02AA438D
:103B10000D682A4301252D03AA430D692A43012577
:103B20006D03AA434D69C9692A430125AD03AA4320
:103B30000A4342641C77002030BD022030BD0000E3
:103B4000F0B502462032137F012B1ED001251577D8
:103B50000223537706687468B3687027BC430F6804
:103B60002743776000680A4CA04205D0AC07A0420A
:103B700002D0084CA04204D180244968A3431943D1
:103B80008160557700201077F0BD0220F0BD000065
:103B9000002C01400004004070B5040005D025460B
:103BA0002035687F002802D006E0012070BD00208B
:103BB0002877204600F014F802206877211D20683D
:103BC00000F006FF01204034A071A877E87720704C
:103BD0006070A070E070207160716877002070BD27
:103BE00008B50F4A01680F48914205D1C269811595
:103BF0000A43C261C06906E00B4A914206D182695C
:103C00000121490408E00840009008BD074A91429C
:103C1000FBD18269012189040A4382618069F2E74C
:103C200000200040001002400044014000480140D4
:103C3000F0B587B0044614216846FCF72BFD01233C
:103C40009B0726680920002433495A130225C00621
:103C50009E420CD14B6913434B6149690294114058
:103C600005912A21019504950394009134E02B4F8E
:103C70003B13BE4220D14E6916434E614E69164039
:103C800005964A691A434A61496901261940059116
:103C9000C021009102940496019503946946FFF7B0
:103CA0007BF90320029404960195039400902FE081
:103CB000FFF772F907B0F0BD194FBE420ED14B6944
:103CC00013434B6149690294114005911021009101
:103CD00004210195039404916946E9E7114886425D
:103CE00007D1486918434861486918400590402049
:103CF00009E00D488642DDD14869184348614869AA
:103D0000184005908020029401950495039400903A
:103D100069460648CCE7000000100240000400405D
:103D200000200040004401400048014000040048D9
:103D3000F8B5064604462036307F00270D46012898
:103D40000ED001203077002A0CD0042A1BD0082A7C
:103D50002FD00C2A3ED00127002030773846F8BDFE
:103D60000220F8BD206800F083FE206881690822E7
:103D7000114381612068826904218A43826120683D
:103D800081692A6912E0206800F0AEFE206882692D
:103D90000121C9020A4382612068816901229202DD
:103DA00091438161206881692A691202114381610E
:103DB000D2E7206800F0D2FE2068C16908221143D2
:103DC000C1612068C26904218A43C2612068C16957
:103DD0002A6912E0206800F0FDFE2068C169012216
:103DE000D2021143C1612068C269012189028A435C
:103DF000C2612068C1692A6912021143C161ABE73F
:103E000070B5040005D025462035687F002802D013
:103E100006E0012070BD00202877204600F014F84D
:103E200002206877211D206800F0D2FD0120403477
:103E3000A071A877E87720706070A070E0702071A2
:103E400060716877002070BD08B501220168920793
:103E50000A48914206D1C16901221143C161C0697A
:103E6000104008E0064A914206D1C26902210A4385
:103E7000C261C0690840009008BD00000010024007
:103E80000004004010B504460222203000290AD068
:103E900004290DD02046403008290ED04378012B4C
:103EA00010D0012010BD837F012BFAD182770AE068
:103EB000C37F012BF5D1C27705E00378012BF0D148
:103EC000027000E042700122206800F0C3FD114A38
:103ED0002068904205D01049884202D00F4988429C
:103EE00004D1416C0123DB031943416420680121A3
:103EF000904205D08A07904202D0094A904204D1EC
:103F000082685207520F062A02D002680A430260F2
:103F1000002010BD002C0140004401400048014039
:103F20000004004010B50446C06F202831D100299C
:103F30000BD0002A09D00123A0681B03984206D1A8
:103F40002069002803D1C80701D0012010BD2346F5
:103F50006033187D01281CD001201875206620468A
:103F600001F062F8010003D1206E012802D0012186
:103F7000084610BD206810230362EFF31080012271
:103F800082F31088226814681C43146080F3108840
:103F9000EEE7022010BD000070B5006819498842A4
:103FA0002FD11948FCF7E6FAFF2584B201352946DE
:103FB0001648FCF76FFB144922464819FCF7FAF83B
:103FC00021461148FCF766FB2A460F491048FFF7C7
:103FD000A9FF0F4884300068016804229143016002
:103FE0000A490CA0FCF714FA06220221074801F046
:103FF000B6FE014607A0FCF70BFA6421034801F066
:10400000A1FB70BD00440040840200208403002016
:104010008404002025730D0A0000000070477047DB
:10402000F8B502680446D06911689668A24B03404F
:104030001D462023002D75D0F707A04DFF0FBC466D
:104040000D402F436DD02546C7078035002F06D081
:10405000CF0504D5012717622A683A432A608207F0
:1040600008D5F20706D0276802223A622A68042798
:104070003A432A60420708D5F20706D02668042290
:1040800032622A68022632432A6002070AD50A46AB
:104090001A406646324305D02668082232622E68EE
:1040A00016432E60020508D54A0106D5012226686E
:1040B000D20232622A681A432A602A68002A39D05A
:1040C000800606D5880604D5616E002901D02046F9
:1040D0008847286821688968490602D4282108424F
:1040E0002DD0204600F0C6FE21688868400622D503
:1040F000EFF31080012282F310888B6840229343F3
:104100008B6080F31088206F002814D06C494163C5
:10411000206FFEF7D3FD00280CD0206F416B08E024
:1041200000E012E0850610D58D060ED5616EA8E080
:1041300020468847F8BD2046FFF771FFF8BD2046AE
:10414000FFF76DFF00202860F8BD256E012D7DD1A1
:10415000C5067BD5CD0679D51026166222689068F3
:10416000254640064035002845DA216F086840683A
:104170000004000CE8D02F8B8742E5D9688388695A
:10418000202833D0EFF31080012181F310881168CB
:104190003701B943116080F31088EFF310800121DB
:1041A00081F3108821688A68520852008A6080F37F
:1041B0001088EFF31080012181F3108821688A684C
:1041C0004027BA438A6080F31088E36700202066A6
:1041D000EFF31080012181F3108821680A68B2434F
:1041E0000A6080F31088206FFEF748FD288B698BEA
:1041F000401A81B231E0288B698B401A81B2688BFA
:104200000028A1D000299FD0EFF31080012585F36D
:1042100010881568FF272137BD43156080F310888B
:10422000EFF31080012282F31088226895686D08F0
:104230006D00956080F31088E3670020206660665B
:10424000EFF31080012282F3108800E009E0226879
:104250001368B343136080F310882046FFF79CFE79
:10426000F8BDC50208D5750206D50120000510620B
:104270002046FFF7D3FEF8BD050606D50D0604D58A
:10428000A16E002900D053E7F8BD4006FCD54806D2
:10429000FAD52046EFF31081012484F310881568C5
:1042A0004024A543156081F310888367002181664F
:1042B00000F0FBF8F8BD00000F080000200100042A
:1042C000654D000810B5040003D0A06F002802D08F
:1042D00007E0012010BD002174200155204600F0A8
:1042E00027F82420A0672068016849084900016078
:1042F000204600F0FFFD0128ECD0606A002802D0C3
:10430000204600F097FC206841680922D2029143C0
:104310004160206881682A22914381602068016899
:10432000012211430160204600F0EAFC10BD0000AC
:1043300070B586B0064614216846FCF7ABF92049F3
:104340003068884239D11F49CA69012040040243BC
:10435000CA61CA69024005924A6902434A614969D1
:10436000002501400591184800900220019003208B
:10437000039001200490092002956946C006FEF7CB
:104380000BFE1248124C21C42560A560E560256132
:104390008020656160600E48083CFEF701FD002842
:1043A00001D0FEF769FC3467002211461C206662CA
:1043B000FFF70EF81C20FEF7FFFF06B070BD0000EF
:1043C00000440040001002400480000058000240F9
:1043D0000805002070477047FFB50446806F83B022
:1043E00017460D4620285ED1002D0AD0002F08D098
:1043F000A168C001814207D12069002804D1E807E3
:1044000002D0012007B0F0BD204660300090007D52
:10441000012848D000980121017500208021085111
:104420002120A067FEF790FE264640360190378295
:1044300077820120A1680003814202D1206900280F
:1044400005D02F46002500990020087511E00027AF
:10445000F9E700228021204600F03EFE002815D119
:10446000002F15D02168387808857F1C708A401E7F
:104470007082708A019B002806980090E9D1002282
:104480004021204600F028FE002808D00320B9E78C
:1044900028882168C005C00D0885AD1CE6E72020EE
:1044A000A0670020AEE70220ACE77047FEE70000FF
:1044B00008B5084841690122114341614069104033
:1044C0000022009011460B20FEF782FF0B20FEF722
:1044D00073FF08BD0010024030B587B01421684654
:1044E000FCF7D8F82F484269012189050A43426147
:1044F00042690A400592426949110A434261426990
:104500000A400592426949000A4342614069264DCA
:1045100008400590002220212846FEF70EFE234881
:1045200000901120000401900024092069460294A3
:10453000C006FEF731FD0820009021200004019004
:10454000694602942846FEF727FD1020009001944A
:10455000694602942846FEF71FFD202000900120A6
:1045600001900294694603942846FEF715FD002247
:1045700011460520FEF72CFF0520FEF71DFF002247
:1045800011460620FEF724FF0620FEF715FF002245
:1045900011460720FEF71CFF0720FEF70DFF07B0AE
:1045A00030BD00000010024000040048010F000070
:1045B00010B5134811490160124941600021816022
:1045C0000161416181610122C161C2600162FEF746
:1045D0000BFE002801D0FEF74FFB00210848FEF734
:1045E000B9FD002801D0FEF747FB00210448FEF783
:1045F000D6FD002801D0FEF73FFB10BD005400405F
:10460000D00000200E09002010B588B01C2168469B
:10461000FCF740F8164815490160002415498460EC
:1046200041601449046128318461C160FFF7B4FA24
:10463000002801D0FEF720FB0D48FFF7E1FB002822
:1046400001D0FEF719FB6020009001940294002233
:10465000694604940648FFF76BFB002801D0FEF77B
:104660000BFB0348FFF7E4FA08B010BD0020004040
:10467000AC010020BF03000010B590B01C2108A8B9
:10468000FCF708F820216846FCF704F82148204987
:10469000016000242049846041601F490461446135
:1046A00028318461C160FFF777FA002801D0FEF756
:1046B000E3FA1848FFF7A4FB002801D0FEF7DCFA64
:1046C00060200D94099408900A940B940C94002295
:1046D00008A90E940F48FFF72BFB002801D0FEF726
:1046E000CBFA0120009440030294059001940394B6
:1046F0000494694607940748FFF7F2F9002801D0AF
:10470000FEF7BAFA0348FFF793FA10B010BD0000A5
:1047100000440140F4010020BF03000010B590B038
:104720001C2108A8FBF7B6FF20216846FBF7B2FF63
:1047300021482049016000242049846041601F49CC
:104740000461446128318461C160FFF725FA0028C3
:1047500001D0FEF791FA1848FFF752FB002801D06C
:10476000FEF78AFA60200D94099408900A940B943D
:104770000C94002208A90E940F48FFF7D9FA0028DC
:1047800001D0FEF779FA01200094400302940590CD
:10479000019403940494694607940748FFF7A0F92D
:1047A000002801D0FEF768FA0348FFF741FA10B07D
:1047B00010BD0000004801403C020020BF03000083
:1047C00010B58AB0002407941C2168460894FBF7B2
:1047D00061FF01211F48890701601F498460416012
:1047E0001D49046128318461C160FFF709FB00287D
:1047F00001D0FEF741FA079407A916480894FFF77D
:104800009FF9002801D0FEF737FA6020009001944C
:1048100002940022694604940E48FFF789FA0028A2
:1048200001D0FEF729FA042269460A48FFF780FA08
:10483000002801D0FEF720FA0C2269460548FFF750
:1048400077FA002801D0FEF717FA0248FFF7F0F9CF
:104850000AB010BD1C010020BF03000010B58AB0D3
:10486000002407941C2168460894FBF713FF254891
:10487000234901602449846041602349046128314F
:104880008461C160FFF7BCFA002801D0FEF7F4F99B
:10489000079407A91B480894FFF752F9002801D094
:1048A000FEF7EAF960200090019402940022694624
:1048B00004941448FFF73CFA002801D0FEF7DCF915
:1048C000042269460F48FFF733FA002801D0FEF7AB
:1048D000D3F9082269460B48FFF72AFA002801D0CD
:1048E000FEF7CAF90C2269460648FFF721FA0028AC
:1048F00001D0FEF7C1F90348FFF79AF90AB010BDDD
:104900000004004064010020BF03000010B50C4803
:104910000A490160E1214902416000218160C160D2
:1049200001618161C1610C22016242614162FFF754
:10493000C9FC002801D0FEF79FF910BD00440040DB
:1049400084040020FEE77047704710B5FEF7E6FCD0
:1049500010BD30B597B034216846FBF79BFE0024AC
:104960000D940E940F94182111A81094FBF792FE49
:1049700003200090052001900120039002251020C3
:104980000995049000030A9000010B900C9468466E
:10499000FEF78CFE002801D072B6FEE707200D90CE
:1049A0000F9401210E9510940DA8FEF79BFD002891
:1049B00001D072B6FEE720201190149411A8FEF7E2
:1049C0000BFD002801D072B6FEE717B030BD70476E
:1049D000F0B502681A4B0124A4071A4D984203D07F
:1049E000A04201D0A84203D17026B2434E683243A0
:1049F000154E164F98420AD0A04208D0A84206D0C1
:104A0000134CA04203D0B04201D0B84204D10324D9
:104A10002402A243CC6822438024A2434C6922434F
:104A200002608A68C2620A688262984203D0B04219
:104A300001D0B84201D10969016301214161F0BD92
:104A4000002C0140000400400044014000480140A7
:104A50000020004010B5CB06DB0E0121046A99400E
:104A60008C430462016A9A401143016210BD000048
:104A7000F0B5026A520852000262056A4368826910
:104A80007024A24392080C689200144302229543BA
:104A90008A68134E2A43114DA84204D0B04202D076
:104AA000104FB84206D10827BA43CF6817430422F3
:104AB00097433A46A84204D0B04202D0094DA842DA
:104AC00006D103252D02AB434D691D438B692B4352
:104AD00043608461496841630262F0BD002C01407B
:104AE000004401400048014070B5026A10239A4317
:104AF0000262046A4368826973252D02AA430D6825
:104B00002D021543202294438A6812012243104C3F
:104B1000A04208D11446CA688026B4431201224339
:104B20004024A24305E00B4CA04202D00A4CA04214
:104B300008D10324A402A3434C69A4001C438B693D
:104B40009B0023434360856149688163026270BDB5
:104B5000002C0140004401400048014070B5026A49
:104B6000FF2301339A430262046A4368C2697025D5
:104B7000AA4392080D689200154301225202944301
:104B80008A6812022243104CA04207D1C414A243E7
:104B9000CC68240222430615B24305E00B4CA04228
:104BA00002D00B4CA04208D103242403A3434C6938
:104BB00024011C438B691B0123434360C561496881
:104BC000C163026270BD0000002C0140004401403E
:104BD0000048014030B5026A01231B039A43026278
:104BE000056A4268C36973242402A3430C68240243
:104BF0001C4301235B039D438B681B032B430A4D1E
:104C0000A84205D0094DA84202D0094DA84205D1BD
:104C10000125AD03AA434D69AD012A434260C46139
:104C200049680164036230BD002C0140004401402A
:104C30000048014010B5818CC90707D001684A6857
:104C400001235B049A43836A1A434A60818C890773
:104C500007D501684A6801231B049A43C36A1A43B3
:104C60004A60818C490707D501684A6801239B0483
:104C70009A43036B1A434A60818C090707D5016880
:104C80004A680123DB039A43436B1A434A60818CD1
:104C9000C90607D50268916801231B039943836BFA
:104CA00019439160818C890607D501688A680123C0
:104CB0005B039A43C36B1A438A60818C490612D501
:104CC00003685A6801210905046C8A4322435A602B
:104CD000026C8A4207D10268516803235B0599433D
:104CE000436C19435160818C090607D501684A68F5
:104CF0000123DB04806C9A4302434A6010BD00002C
:104D0000F8B50446002680300660FEF71DFA054619
:104D100020680068124F000709D501212B460022A8
:104D200049052046009700F0D7F900280DD12068EA
:104D3000006840070BD501212B460022890520463B
:104D4000009700F0C9F9002801D00320F8BD202009
:104D5000A067E0672666603426750020F8BD000075
:104D6000FFFFFF0110B5406A0022014640314A832F
:104D70004A82FFF754F910BD70B5446AA06FE56F21
:104D80002168896800260906002906DA212804D14D
:104D900052200653204600F09CF8206880684006A8
:104DA00006D5222D04D15A200653204600F062F881
:104DB0002046803001681022114301602046FFF731
:104DC0002EF970BD10B501468969406A202938D096
:104DD00000225A210A52EFF31081012282F3108837
:104DE00002681368FF240134A343136081F3108821
:104DF000EFF31081012282F31088026893685B0848
:104E00005B00936081F31088EFF31081012282F33D
:104E10001088026893684024A343936081F310884C
:104E20002021C167016E01290BD1EFF3108101220E
:104E300082F31088026813681024A343136081F37F
:104E40001088016E012902D0FFF7C4FA10BD582165
:104E5000095AFFF7A1F810BD10B5406A016E01298B
:104E600002D0FFF7B8FA10BD5821095A4908FFF7D8
:104E700093F810BD10B5EFF31081012282F3108872
:104E800002681368FF242134A343136081F3108860
:104E9000EFF31081012282F31088026893685B08A7
:104EA0005B00936081F31088016E01290BD1EFF351
:104EB0001081012282F31088026813681024A34332
:104EC000136081F310882021C167002101664166CB
:104ED00010BD10B5EFF31081012282F31088026833
:104EE0001368C024A343136081F3108820218167D5
:104EF00010BD000070B5044680682169E26908436E
:104F0000616900251143226808431168404B19402C
:104F10000143116021684868032212039043E2684C
:104F200010434860A169206A084321688A680B23FE
:104F30001B029A4302438A6036492068884210D196
:104F40003548006B8007800F0ED0012805D002285D
:104F500005D003280AD1022109E0042107E0082135
:104F600005E02E49884201D1002100E010210120F6
:104F7000E369C0032A4A2B4E834223D1002906D07D
:104F8000022907D0042907D0082937D108E0FEF705
:104F900033FB03E0104603E0FEF73EFB002831D070
:104FA000616840004A088018FBF7F0FB80B20146B8
:104FB0001039B14222D81B49491C01400007400F5B
:104FC00008431DE0002906D0022907D0042907D094
:104FD000082913D108E0FEF70FFB03E0104603E0B9
:104FE000FEF71AFB00280DD061684A081018FBF77D
:104FF000CDFB80B201461039B14201D9012501E053
:105000002168C86000206066A066284670BD000068
:10501000F369FFEF003801400010024000440040F7
:1050200000127A00EFFF0000F8B5044641654030F9
:1050300000262746028380373E602220E06725460F
:10504000206F603500281BD020498162216F2048E5
:10505000C862216F1F480863206F13464663606D66
:105060002168844662462431206FFDF7C3FE002884
:1050700006D0102038602E752020E0670120F8BD92
:105080002E75EFF31080012181F3108821680A68E2
:10509000FF2301331A430A6080F31088EFF3108076
:1050A000012181F31088226893680B43936080F399
:1050B0001088EFF3108081F3108821688A684023FC
:1050C0001A438A6080F310880020F8BDC54D00089F
:1050D000594E0008794D0008FFB581B005461746C6
:1050E000044660350A9E55E0701C53D0FEF72CF83C
:1050F0000499401AB04230D8002E2ED020680168A2
:10510000490747D5C069C043000543D40120216841
:10511000C0020862EFF31080012181F3108821683A
:105120000B68FF22A13293430B6080F31088EFF3EA
:105130001080012181F3108821688A68520852008A
:105140008A6080F310882020A067E06780342060A8
:1051500000202875032005B0F0BDEFF31080012179
:1051600081F3108821680B68FF22A13293430B6002
:1051700080F31088EFF31080012181F310882168FB
:105180008A68520852008A6080F310882020A06745
:10519000E067DDE72068C1690298884304D00020F9
:1051A000B842A1D00020D6E70120F9E710B50248A7
:1051B000FEF736FF10BD000084040020F8B5040C93
:1051C0008BB2264682B25E430D0C1046370C584314
:1051D000360480190021794116466E43370C360497
:1051E0008019794126466E438919F8BD4900CA02E3
:1051F0000243100000D004204A0D01D001221043C8
:10520000044A490D914201D102210843012800D1ED
:1052100005207047FF0700008307FF22DB0E9A403E
:105220008907090E9940002808DB830809489B007C
:105230001B18186890430843186070470007000F58
:105240000838830804489B001B18D869904308431A
:10525000D861704700E400E000ED00E010B50721E0
:10526000024A00200907FDF73BFC10BD01030000C6
:10527000034A10B500201107FDF732FC10BD0000F5
:1052800001FDFFFF10B504460868496800F002F808
:10529000206010BDF8B504460D466A4600F092F84D
:1052A00000987E30009000281CDC00221346204627
:1052B000294600F0A5FD15D0264E002130460020DD
:1052C000C046074620462946FBF710FB04463740F8
:1052D000394630460020C04660002FD10220FBF73F
:1052E000C7FB2BE00098FF282EDB0021084600209A
:1052F000C046032189050840064600221346204681
:10530000294600F0AFFD01D8012500E0002502206C
:10531000FBF7AEFBFF24E405002E09D0002D02D0E0
:105320000120800501E00120C005B04200D00A4CF8
:10533000042108460020C046002D01D02046F8BDBB
:105340000120C0076040F8BD20462946FBF7CEFA91
:10535000F8BD000008080000FFFF7F7F10B504467D
:105360000A460068616800F0E4FB6160206010BDDF
:1053700030380A2801D2012070470020704730B52C
:1053800083B00446FBF76FFB054600200090024601
:10539000019021466846FBF71FFE2846FBF768FB95
:1053A0000199009803B030BD13B5044B0122694642
:1053B0000348FFF711F800981CBD0000FFFF000034
:1053C0008404002070B51446002222604B000F4A6E
:1053D0005B08934219DA02461A4316D001221205DD
:1053E000934201DB226807E03622FDF779FB4B0090
:1053F0005B083522D2432260054D1B0D5B19D21884
:105400002260044A1140044A891870BD0000F07FF0
:1054100002FCFFFFFFFF0F800000E03F10B5436874
:105420000446934201D3002010BD180140185B1CB4
:105430000021C9436360816041600021C16010BDEB
:105440000170836000214260C160704700210160EB
:105450004160491E81607047FFB5044683B04068D3
:105460001D461646019091E02C2F73D00CDC0D2FB9
:1054700004D004DC092F01D00A2F11D183E0202FA2
:1054800069D0222F0CD167E05D2F35D004DC3A2F94
:1054900029D05B2F04D10CE07B2F0AD07D2F2BD09D
:1054A0000C9800902B4632462046049900F0A8F84C
:1054B0005AE00198401C0190002D64D029462046F6
:1054C0000C9AFFF7ABFF002810D0A1684A1C04D04B
:1054D00009014919CA68521CCA607B2F0AD00221EF
:1054E0000170216841606068401E78E00020C04380
:1054F00007B0F0BD0121F3E7002D44D07D2F02D08D
:105500000223606809E00123FBE7010149194F68A4
:105510007F1C02D08F687F1C04D0401EF5D5411C33
:1055200009D00BE00F789F4205D10023DB43521CCA
:10553000A3608A60F3E70120C043D9E7002822DB9B
:10554000010149194A68521C02D08968491C46D099
:10555000401EF3E726E016E00C9800902B463246FA
:105560002046049900F08AF80028C1DB0198401C0D
:105570000190A068411C06D0002D04D00001401904
:10558000C168491CC1602068401C20602268B2428A
:1055900004D20498875C002F00D065E7002D2AD044
:1055A000606826E0002DEED0A068411CEBD0000121
:1055B000285C0228E7D00128E5D060680CE00101F2
:1055C0006A5C022A01D0012A06D149194A68521C94
:1055D00002D08968491C02D0401EF0D5D3E7A060F4
:1055E000D1E7010149194A68521C02D08968491C57
:1055F00003D0401EF5D501987AE70220C04377E733
:10560000F8B5056804461646069F28461AE02C2A77
:105610001DD008DC092A1AD00A2A18D00D2A16D063
:10562000202A06D113E03A2A11D05D2A0FD07D2A14
:105630000DD0203A5F2A03D30120C0432560F8BD76
:10564000401C2060B04202D20A5C002ADFD1002B4D
:105650000BD03A4619462046FFF7E0FE002809D055
:105660002A4608212368FFF7EBFE2068401E2060D1
:105670000020F8BD0020C0432560F8BDF8B50568DE
:1056800004469C46681C2060904257D20B5C002B5D
:1056900054D0222B02D05C2B15D048E06046002865
:1056A0000CD001462046069AFFF7B8FE002806D027
:1056B0006A1C04212368FFF7C3FE0020F8BD002008
:1056C000C0432560F8BD401C904230D220600B5C86
:1056D000662B2CD008DC222B29D02F2B27D05C2B3B
:1056E00025D0622B26D122E06E2B20D0722B1ED02B
:1056F000742B1CD0752B1DD1401C002720600EE0A0
:105700000346303B0A2B05D3113B062B02D36138ED
:1057100006280FD2761C7F1C2660042F05DA266827
:10572000964202D2885D0028EAD1701E206020686F
:10573000401CA8E70120C0432560F8BD0220C043FB
:105740002560F8BDF3B50C0187B00D462046FAF789
:1057500087FD029004A8FFF779FE0798FAF70AFF81
:105760000246009404A8029B0799FFF775FE0746BE
:105770008CA00799FAF74CFE0798FAF7FBFE014652
:105780008DA0FAF745FE23462A46102191A0FAF78C
:105790003FFE0025B1E02801029903904418626899
:1057A000A0682B46811A401E01910090194694A0D2
:1057B000FAF72EFEA2686168521E079800F0CFFA31
:1057C00001469EA0FAF724FEA2686168521E07985F
:1057D00000F0C5FA01469BA0FAF71AFE0622022144
:1057E000079800F0BCFA0646014696A0FAF710FEAC
:1057F000002E02D03046FAF764FD214693A20798A6
:1058000000F07EF9002828D0214692A2079800F0E7
:1058100077F9002845D0214690A2079800F070F94A
:10582000002851D08FA22146079800F069F900287E
:105830005FD021468EA2079800F062F900287DD043
:1058400021468CA2079800F05BF9002877D00299D6
:105850000398085C082873D04EE0207C04284BD1C4
:10586000A2696169521E079800F079FA044684A083
:10587000FAF7CEFD84A12046FAF744FF00280BD0AA
:1058800083A12046FAF73EFF002805D082A12046DA
:10589000FAF738FF002802D1214681A07FE06D1C75
:1058A0002AE0207C082827D1A2696169521E079846
:1058B00000F055FAFFF763FDFBF718F8FBF754F813
:1058C00002460B4677A011E0207C082814D1A2697B
:1058D0006169521E079800F042FAFFF750FDFBF78E
:1058E00005F8FBF741F802460B4671A0FAF790FD68
:1058F000D5E7207C012805D06D1CBD4200DA4AE7BF
:1059000009B0F0BD6DA0FAF783FD00262DE0700010
:1059100040190101029808180190203001780429EB
:1059200022D182684168521E079800F018FAFAF7EF
:1059300013FE80B200900198826B02E01FE020E02D
:1059400023E0416B521E079800F009FAFAF704FEB3
:1059500082B25DA00099FAF75BFDE169701C81429B
:1059600002DD5BA0FAF754FD761CE069B042CEDCA4
:1059700058A0FAF74DFDE069400045198FE756A0A1
:1059800000E057A0FAF744FD89E7A2686168521E5B
:10599000079800F0E4F9FAF7DFFD01B254A0FAF736
:1059A00037FD7CE70A4A534F4E5F535452494E47E6
:1059B0003D2025730A0000007374726C656E284ADE
:1059C000534F4E5F535452494E47293D2025640A98
:1059D000000000000A73697A656F66286A736D6E4D
:1059E000746F6B5F74292A746F6B656E5F73697A6D
:1059F000653D2025642A2564203D2025640A0A008F
:105A00000A746F6B656E5B25645D2E7374617274CE
:105A10003D2025642C20746F6B656E5B25645D2EC4
:105A2000656E642D313D2025642C20656E642D73D8
:105A3000746172743D2025640A00000025730D0A0C
:105A40000A00000025730D0A000000006D6F6465F8
:105A5000000000006D6F7665000000007475726EC6
:105A60000000000072635F736572766F00000000D3
:105A70006164630072635F726571756573740000C1
:105A80006D6F64653A2000006E657374000000005D
:105A90006772616200000000636F6C6C6563740084
:105AA00025730A006D6F76653A2025660A000000AE
:105AB0007475726E3A2025660A00000072635F7387
:105AC0006572766F3A207B0025643A2564000000F9
:105AD0002C2000007D0A00006164632E2E0A000065
