:020000040800F2
:1000000040070020290200083102000833020008DE
:10001000350200083702000839020008000000001D
:100020000000000000000000000000003B0200088B
:100030003D020008000000003F020008250C0008F7
:10004000430200084302000843020008430200087C
:10005000430200084302000843020008430200086C
:10006000430200084302000843020008430200085C
:10007000430200084302000843020008430200084C
:10008000110400084302000843020008430200086C
:10009000430200084302000843020008430200082C
:1000A000430200084302000843020008430200081C
:1000B000430200084302000843020008430200080C
:1000C00043020008430200084302000843020008FC
:1000D00043020008430200084302000843020008EC
:1000E00043020008430200084302000843020008DC
:1000F00043020008430200084302000843020008CC
:1001000043020008430200084302000843020008BB
:1001100043020008430200084302000843020008AB
:10012000430200084302000843020008430200089B
:10013000430200084302000843020008430200088B
:10014000430200084302000843020008430200087B
:10015000430200084302000843020008430200086B
:10016000430200084302000843020008430200085B
:100170004302000843020008430200080000000098
:10018000430200084302000800F002F800F03CF8C7
:100190000AA090E8000C82448344AAF10107DA45E2
:1001A00001D100F031F8AFF2090EBAE80F0013F0F8
:1001B000010F18BFFB1A43F001031847D40D0000CC
:1001C000F40D0000103A24BF78C878C1FAD852075D
:1001D00024BF30C830C144BF04680C6070470000C1
:1001E0000023002400250026103A28BF78C1FBD840
:1001F000520728BF30C148BF0B6070471FB500F0E1
:10020000B5FE1FBD10B510BD00F0C8F81146FFF7D0
:10021000F5FF00F08FFE00F0E6F803B4FFF7F2FF01
:1002200003BC00F0EDF8000009488047094800478A
:10023000FEE7FEE7FEE7FEE7FEE7FEE7FEE7FEE796
:10024000FEE7FEE704480549054A064B70470000F3
:10025000310C0008890100084001002040070020FF
:10026000400300204003002053EA020C00F06980A4
:100270002DE9F04B4FF00006002B1FBFB3FA83F5BA
:1002800003FA05F424FA05F65E4012BF1643B2FAEB
:1002900082F502FA05F4C5F120051EBF22FA05FC1D
:1002A00044EA0C04203556EA044C4FEA144418BFC3
:1002B000641C4FF000084FF00009904271EB030CF2
:1002C00039D3002919BFB1FA81F701FA07F6B0FA5C
:1002D00080F700FA07F6C7F120071EBF20FA07FCD7
:1002E00046EA0C062037B6FBF4FCA7EB0507103FE7
:1002F00007F01F0BCBF120062CFA06F60CFA0BFBCD
:1003000044BFB3460026202FA4BF5E464FF0000B2B
:100310005BEA060C08BF4FF0010B19EB0B0948EB29
:100320000608ABFB027C06FB02CC0BFB03CCC01B1C
:1003300071EB0C01C1E70B46024641464846BDE859
:10034000F08B13B5084318BF4FF0FF300146AFF3F1
:100350000080BDE81C40704710B5431C02E010F857
:10036000011B71B18107FAD14FF0013202C88C1A1A
:100370008C4314EAC211F9D0C01A0A0603D0C01E79
:1003800010BDC01A10BD0A0401D0801E10BD0902A4
:10039000FCD0401E10BD704770477047754600F096
:1003A0002BF8AE4605006946534620F00700854607
:1003B00018B020B5FFF746FFBDE820404FF000061B
:1003C0004FF000074FF000084FF0000BAC46ACE8D0
:1003D000C009ACE8C009ACE8C009ACE8C00921F02C
:1003E00007018D46704710B50446AFF300802046E4
:1003F000BDE81040FFF711BF0048704738000020EB
:1004000001491820ABBEFEE726000200704700003D
:1004100080B540F29800C2F2000000F083F880BD81
:10042000D0F800C06FF00F024AF6AB2352FA8CF2FC
:10043000CAF6AA230146A2FB0330000905A31B5CF0
:1004400040F2FF302CEA00005F2A88BF0430C1E987
:100450001603704700061016000610168269816A9E
:10046000B2F5005F06D06AB9022912D0012914D072
:10047000D1B90EE0032917D8DFE801F0020B020F13
:100480000120704703293CBF012070471CBF00209A
:100490007047C06AC0F300607047C06AA0F1C070C6
:1004A000B0FA80F0400970470020704710B582B064
:1004B000002043F630010190C4F202010A6840F2C4
:1004C000980442F400120A600968C2F2000401F4C0
:1004D00000110191019946F288014FF480634FF4B5
:1004E000807CC4F202014FF00062C4E90200C4E95A
:1004F0000430C4E9060CC4E908002046C4E900122F
:1005000000F0D6F840F2F800C2F200004463A063A5
:1005100010200021002200F06FFA102000F068FA8D
:1005200002B010BDF0B581B004460020009040F24A
:100530000000C2F200000268D4E9166048F2B51368
:1005400037680821C1F64E3381403942A2FB0325AA
:100550000CD0226813685B0708D5136823F00403E6
:100560001360B160616D41F001016165012181405D
:10057000394208D022685269120604D5B160616D13
:1005800041F00201616504218140394208D02268AE
:100590001268920704D5B160616D41F00401616594
:1005A00010218140394215D020680268120711D508
:1005B000B16002680168520306D4C90506D4016817
:1005C00021F00801016001E0080342D4216C09B167
:1005D00020468847E16D202000FA01F23A4244D0DB
:1005E00020680368DB0640D5B26094F835300268B5
:1005F000052B1ED122F016020260426922F0800211
:100600004261226C0AB9A26C1AB1026822F0080297
:1006100002603F208840B060002084F83400012050
:1006200084F83500216D002940D02046884701B06C
:10063000F0BD0168520310D4C90512D4016821F03D
:1006400010010160002084F83400012084F8350096
:1006500007E0A16C0029BBD1BCE7080301D4616CA1
:1006600000E0E16B09B120468847606DF0B1606D34
:10067000C00717D0052084F835002068A90A026851
:1006800022F00102026000BF009A01328A42009209
:1006900002D80268D207F7D1002084F83400012084
:1006A00084F83500E16C09B12046884701B0F0BDFF
:1006B0002DE9F041044600F045F9C4B1054600209B
:1006C00084F83400022084F835002068016821F0A5
:1006D0000101016026683068C0070BD000F032F9D4
:1006E000401B0528F6D903212022032042E00120E7
:1006F000BDE8F081306848F23F01CFF21001251DBE
:1007000000EA010C2ECDD4E9050E41EA0C0111439B
:1007100019432943D4E90778084340EA0E01606A87
:100720003943042841EA080103D1D4E90B231143DA
:10073000194331607169042821F0070141EA00057D
:100740000CD1D4E90A1045EA010538B12046FFF77B
:1007500085FE18B10121402201200BE02046756181
:10076000FFF75EFEE16D3F2202FA01F18160002297
:1007700001210020626584F83510BDE8F081000099
:10078000B0B5044600F0DEF8054640F22C00C2F297
:1007900000000078611C18BF044400BF00F0D2F8CC
:1007A000401BA042FAD3B0BD2DE9F04F83B000F159
:1007B0003E4202F1FF7243F6004E4FEAB22241F68A
:1007C0000047C4F2010E0192C4F2020708224FF062
:1007D000010B00254FF000084FF00009B84208BF98
:1007E000072200920AE000BF09F1010908F104089C
:1007F000B9F1100F05F1020500F0A0800F680BFAA7
:1008000009F417EA040CEFD0D1F804A0BAF1120FE2
:1008100015D80BFA0AF717F0061F10D087680322C5
:10082000CE68AA4027EA0202AE40324382604268A4
:10083000A243CAF3001404FA09F422434260C268D6
:1008400003238C6803FA05FB22EA0B02AC40224327
:100850004AF01004122CC2600FD16FF0030202EABA
:100860005902024408F01C060F23146A03FA06F723
:100870000B69BC43B3402343136203684C686FEABF
:100880000B021A4004F00303AB401A43E3004FF09D
:10089000010B0260A8D5002243F644030292C4F281
:1008A00002031A684FF6084A42F480421A601A6836
:1008B000CFF6FF7A02F480420292029A29F00302F4
:1008C000724452F80A3008F00C040F26A640019F2B
:1008D000B343009E072F38BF3E4606FA04F4234375
:1008E00042F80A30DEF800204B6842EA0C04DE03CE
:1008F00058BF22EA0C04CEF80040DEF804209E0324
:1009000042EA0C0458BF22EA0C04CEF80440DEF898
:100910000820DE0242EA0C0458BF22EA0C04CEF89A
:10092000084043F60C44C4F2010422689B0242EAE8
:100930000C0358BF22EA0C03236055E703B0BDE85F
:10094000F08F000040F23810C2F2000000687047DB
:1009500040F22C0040F23811C2F20000C2F2000155
:1009600000780A68104408607047000080B543F6BC
:100970000040C4F20200016841F4007101600168A6
:1009800041F480610160032000F046F80F2000F080
:1009900005F800F02BF8002080BD0000B0B540F253
:1009A0002C02C2F2000240F200011278C2F20001F1
:1009B0004FF47A730968B3FBF2F20446B1FBF2F12B
:1009C000084600F065F80F2C4FF001050CD858B917
:1009D0004FF0FF3021460022002500F00DF840F2D4
:1009E0003000C2F2000004602846B0BD704700002D
:1009F00080B500F065FA80BD70B514460D46064618
:100A000000F06EFA2946224600F0DEF80146304634
:100A100000F06EFA70BD000080B500F07BFA80BD7A
:100A200040F20000C2F200000068704780B5FFF796
:100A3000F7FF43F60801C4F20201096840F6867226
:100A4000C1F38221C0F60002515CC84080BD0000A5
:100A500080B5FFF7E5FF43F60801C4F2020109681B
:100A600040F68672C1F34231C0F60002515CC840C4
:100A700080BD00004EF21001CEF200010A68042889
:100A800022F0040208BF04320A6070477047000079
:100A900080B500F0AFF880BD80B5FFF7F7FF80BDEF
:100AA000002804BF0120704710B5044690F83900B3
:100AB00028B9002084F83800204600F021F82420CE
:100AC00084F839002068C16821F40051C1602046D3
:100AD00000F00EF92068016921F49041016141693B
:100AE00021F02A014161C16841F40051C160002038
:100AF0002021E06384F8391084F83A1010BD00001A
:100B0000704700002DE9F041044690F83900202894
:100B10000DD10E4600294FF0010052D01746002A91
:100B200008BFBDE8F08194F83800012802D1022006
:100B3000BDE8F081012084F838004FF00008212042
:100B40001D46C4F83C8084F83900FFF7FBFEA784FB
:100B5000E78484F83880E18C804661B920464021E2
:100B600042462B4600F07AF938B30320BDE8F08105
:100B7000E08C0028F2D0E08C80210138E084A76866
:100B8000204642462B4600F069F9B7F5805F0DD14B
:100B90000028EAD13088216922686FF35F2000299C
:100BA000506014BF01360236E2E700BF0028DCD1F6
:100BB00016F8010B21684860DAE7202084F8390034
:100BC0000020BDE8F081000000F0070080F007037E
:100BD000042B28BF04234FF0FF3C03380CFA03F327
:100BE00038BF0020994381400CFA00F022EA00004F
:100BF00008437047B0B501380024B4EB106F1CBF38
:100C00000120B0BD4EF21005CEF2000568604FF035
:100C1000FF300F2100F06CF90720AC6028602046FF
:100C2000B0BD000080B5FFF793FEFFF735FF80BD34
:100C30004EF68850CEF20000016841F47001016068
:100C40004FF0006140F8801C7047000070B586B01E
:100C5000002443F630000194C4F20200016844F21B
:100C6000004641F0010101600168C4F2000601F094
:100C7000010101910199019401690C2541F40031B0
:100C80000161006901A900F400300190019802207F
:100C9000029001200390032004900720059006F5A0
:100CA000DE300195FFF780FD40F2F800C2F200004F
:100CB0004FF4E1314561C0E90061C0E90244C4611B
:100CC000FFF7EEFEFFF7ACFE44F6D351C1F262012E
:100CD000A0FB01018809FFF7DBFE0420FFF7CAFE35
:100CE0004FF0FF3000210022FFF786FE06B070BDF6
:100CF000B0B50546006805F108030ECB0469194339
:100D000024F44054224302616A69EB691143C268CA
:100D100049F20C641943A2431143C1604169AA69B5
:100D200021F440711143416141F20041B3F5004F9C
:100D300040F48060C4F2010124D1884246D1FFF71B
:100D400087FE6B681921A0FB01015A00DB0FFFF73A
:100D50008BFA48F21F51C5F2EB11A0FB01235A098F
:100D60006FF0630302FB0300322303EBC000A0FB20
:100D700001014FF4F87000EA111000EB0210C1F30A
:100D8000421167E0884244D1FFF762FE6B68192187
:100D9000A0FB01019A009B0FFFF766FA48F21F5172
:100DA000C5F2EB11A0FB01235A096FF0630302FBAC
:100DB0000300322303EB0010A0FB0101F02000EA46
:100DC000511000EB0210C1F3431143E0FFF72EFE78
:100DD0006B681921A0FB01015A00DB0FFFF744FAF1
:100DE00048F21F51C5F2EB11A0FB01235A096FF025
:100DF000630302FB0300322303EBC000A0FB0101ED
:100E00004FF4F87000EA111000EB0210C1F3421128
:100E100020E0FFF70BFE6B681921A0FB01019A008F
:100E20009B0FFFF721FA48F21F51C5F2EB11A0FB0F
:100E300001235A096FF0630302FB0300322303EB23
:100E40000010A0FB0101F02000EA511000EB02109D
:100E5000C1F343112A6808439060B0BD2DE9F04109
:100E60000446006800680840884202D10020BDE8BE
:100E7000F0811D460E4690465F1C04E02068006825
:100E80003040B042F2D0002FF8D02DB1FFF75AFD1C
:100E9000A0EB0800A842F1D92068C16821F4D07104
:100EA000C160416921F001014161202084F83900CD
:100EB00084F83A00002084F838000320BDE8F0816F
:100EC000002848BF704700F01F01012202FA01F11B
:100ED0004EF200124009CEF2000242F82010704794
:100EE0004EF60C50CEF200000068C0F302207047AE
:100EF0004EF6145300F00F02CEF2000309011A441B
:100F000000F16043B0F1FF3FC8BF03F564421170C8
:100F1000704700004EF60C51CEF200010A684FF601
:100F2000FF031A4060F30A2242F0806040F0FD7037
:100F300008607047FFF71AFDFFF788FEFFF7B6FA63
:100F400040F2040440F2F805C2F20004C2F20005C7
:100F50002046FFF701FA82B2284621460A23FFF70E
:100F6000D1FD4FF4FA70FFF70BFCF1E7F1EE100A38
:100F70004FF6FF71C0F2C03120EA010040F040702E
:100F8000E1EE100A704700000000010203040000B7
:100F9000B00F00080000002038000000C401000865
:100FA000E80F00083800002008070000E0010008F2
:100FB0000024F40048656C6C6F2066726F6D2053DE
:100FC000544D3332463430375A47543620457870C2
:100FD0006C6F7265720D0A000000000001000000D5
:080FE0001000000000000000F9
:040000050800018965
:00000001FF
