:020000040800F2
:100000009022002069010008150200080D02000876
:100010001102000807020008C502000800000000E5
:100020000000000000000000000000004302000883
:100030000B02000800000000410200084502000811
:100040008301000883010008830100088301000880
:100050008301000883010008830100088301000870
:100060008301000883010008830100088301000860
:100070008301000883010008830100088301000850
:100080008301000883010008830100088301000840
:100090008301000883010008830100088301000830
:1000A0008301000883010008830100088301000820
:1000B0008301000883010008830100088301000810
:1000C0008301000883010008830100088301000800
:1000D00083010008830100088301000883010008F0
:1000E00083010008830100088301000883010008E0
:1000F000830100088301000883010008000000005C
:10010000830100080000000083010008830100084B
:1001100083010008830100088301000883010008AF
:10012000830100088301000883010008830100089F
:10013000830100088301000883010008830100088F
:10014000830100088301000883010008830100087F
:10015000DFF810D000F01AF800480047C107000887
:10016000AFF30080902200200648804706480047F1
:10017000FEE7FEE7FEE7FEE7FEE7FEE7FEE7FEE757
:10018000FEE7FEE74D02000851010008064C074D4E
:1001900006E0E06840F0010394E807009847103457
:1001A000AC42F6D3FFF7D8FF400E0008600E0008FF
:1001B00070B58C1810F8015B15F0070301D110F829
:1001C000013B2A1106D110F8012B03E010F8016B56
:1001D00001F8016B5B1EF9D12B0705D40023521ED9
:1001E0000DD401F8013BFAE710F8013BCB1A921C41
:1001F00003E013F8015B01F8015B521EF9D5A1423F
:10020000D8D3002070BD00BFFEE7704700BFFEE7F7
:1002100000BFFEE77047000010B5002807DA0A07A4
:10022000140E054A00F00F031B1FD45403E00A0705
:10023000130E024A135410BD18ED00E000E400E074
:100240007047704710B500F059F810BD10B5184848
:10025000006840F0010016490860084640681549EA
:10026000084013494860084600681349084010498F
:1002700008600846006820F480200860084640684E
:100280000E4908400A4948600020C86208460068D4
:100290000B490840064908604FF47F00886000F071
:1002A00077FC00214FF0006000F00CFB10BD000057
:1002B000001002400C00FFE0FFFFF6FEFFFF00DF32
:1002C000FFFFF6EA00BFFEE702E008C8121F08C100
:1002D000002AFAD170477047002001E001C1121FC7
:1002E000002AFBD1704700000349086000BF0249A3
:1002F00009680029FBD17047040100200448006808
:1003000020B103480068401E0149086070470000A2
:100310000401002070B505460C462146284600F031
:100320001FF908B900BFFEE704EB8400810005F166
:100330000800405840F0010104EB8400820005F100
:100340000800815070BD70B505460C462146284610
:1003500000F006F908B900BFFEE704EB8400810055
:1003600005F10800405820F0200104EB84008200D1
:1003700005F10800815070BD70B504460D46294650
:10038000204600F0EDF808B900BFFEE705EB850058
:10039000810004F10800405820F0010105EB8500C0
:1003A000820004F108008150002105EB85008200E5
:1003B00004F10800815005EB8500820004F10C0077
:1003C000815005EB8500820004F11000815005EB9F
:1003D0008500820004F1140081506068AA000F219A
:1003E00091400843606070BD30B503461C688D00C5
:1003F00002FA05F52C400CB1012000E0002030BDD0
:100400002DE9F04104460D4616462946204600F0E7
:10041000A7F808B900BFFEE705EB8500820004F1EC
:1004200010003168815005EB8500820004F1140052
:10043000B1688150308A81B205EB8500820004F1F9
:100440000C00815005EB8500810004F1080047583D
:1004500027F47C57F16870680843716908430743C3
:1004600005EB8500810004F108004750307E01282B
:100470000ED105EB8500810004F10800405840F0E2
:10048000400105EB8500820004F1080081500DE079
:1004900005EB8500810004F10800405820F0400180
:1004A00005EB8500820004F108008150707E012870
:1004B0000ED105EB8500810004F10800405840F0A2
:1004C000800105EB8500820004F1080081500DE0F9
:1004D00005EB8500810004F10800405820F0800100
:1004E00005EB8500820004F108008150B07E70B9F0
:1004F00005EB8500810004F10800405820F0100150
:1005000005EB8500820004F1080081500DE005EB49
:100510008500810004F10800405840F0100105EB0F
:100520008500820004F108008150BDE8F08170B5BB
:1005300005460C462146284600F012F808B900BFCF
:10054000FEE704EB8400810005F10800405820F428
:10055000804104EB8400820005F10800815070BDE9
:1005600002460120034B9A4202D1042900DD0020FB
:10057000704700000004024070B50546002427487B
:10058000854200D103E02648854200D10124254957
:1005900031F8140000F058FA234931F8140000F043
:1005A00053FA224951F82430214951F824000322FA
:1005B000182100F079F81F4951F824301C4951F8EE
:1005C00024000322042100F06FF8284600F054FBB9
:1005D0004FF4E131284600F007FB0021284600F0E7
:1005E00026FC0021284600F012FC0021284600F0DD
:1005F000FEFB0021284600F0F2FB0021284600F017
:10060000E6FB0421284600F0FAFB0821284600F00A
:1006100006FC284600F0D6FB70BD00000038014003
:1006200000440040480100202C010020300100203F
:10063000400100203801002010B504460B4931F874
:10064000140000F001FA0A4951F82430094951F820
:1006500024000322102100F027F8054850F8240058
:10066000044951F82410486110BD00004C010020DD
:100670001C0100200C010020034951F82010034AFE
:1006800052F82020516170471C0100200C0100200D
:10069000034951F82010034A52F820201161704795
:1006A0001C0100200C010020F0B504461646002570
:1006B000002201F00F0501F0100707B135430020BB
:1006C0001EE0012787401F40C7B122684FEA800C17
:1006D0000F2707FA0CF7BA43870005FA07F73A43E2
:1006E000282904D1012787401F40676105E0482978
:1006F00003D1012787401F4027612260471CB8B201
:100700000828DED3082022E0012787401F40E7B1F8
:100710006268A0F108074FEA870C0F2707FA0CF769
:10072000BA43A0F10807BF0005FA07F73A432829A2
:1007300004D1012787401F40676105E0482903D1A4
:10074000012787401F4027616260471CB8B210280C
:10075000DAD3F0BD70B50446002520E04FF4C87030
:10076000FFF7C2FD0020FFF793FF0120FFF790FF86
:100770000220FFF78DFF0320FFF78AFF4FF4C870B8
:10078000FFF7B2FD0020FFF777FF0120FFF774FFAE
:100790000220FFF771FF0320FFF76EFF6D1CA542DB
:1007A000DCDB70BD10B50020FFF746FF0120FFF72E
:1007B00043FF0220FFF740FF0320FFF73DFF10BD7E
:1007C000FFF7F0FF00F0E8F90120FFF7C3FF2F4823
:1007D000FFF7D2FE00F098FA03212D48FFF79AFDAB
:1007E00004212B48FFF796FD8021284800F0E2FA0B
:1007F0004021264800F0D6FA00BF022203212448F7
:10080000FFF7F2FD0028F8D000BF022204212048A3
:10081000FFF7EAFD0028F8D04FF480721D491E480A
:1008200000F03EF81D4908702EE01C4800780128B1
:1008300027D10020FFF72CFFC820FFF755FD01202E
:10084000FFF726FFC820FFF74FFD0220FFF720FF2C
:10085000C820FFF749FD0320FFF71AFFC820FFF764
:1008600043FD0020FFF708FF0120FFF705FF0220EE
:10087000FFF702FF0320FFF7FFFEC820FFF734FD5C
:1008800002E00120FFF766FFCFE7000000380140DB
:10089000000002408C010020000000200001002028
:1008A00030B5034607E013F8014B11F8015BAC4289
:1008B00001D0002030BD101EA2F10104A2B2F2D17D
:1008C0000120F7E7024A0A400243024B1A607047D0
:1008D00080FFFF1F08ED00E02DE9F14F8DB00020F3
:1008E0000B9051A090E8004CC068CDE905BECDF852
:1008F00010A007900FF2341ADAE9000ACDE9020AD3
:100900000FF2281ADAE9000ACDE9000A4A484068DD
:10091000C0F381000C900C9820B1012804D002286B
:100920004DD103E045494CE045494AE04248406822
:1009300000F48039B9F5803F26D1414B3E48C06A6A
:1009400000F480300A900A98B0F5803F12D13A48FE
:10095000C06AC0F30310401C08903748C06AC0F357
:100960000320871C112F00D114270898B3FBF0F047
:1009700000FB07F33048C06A00F00F00401C0990EC
:100980000998B3FBF0F300E02E4B2B484068C0F30E
:1009900083422948406800F0005008B142F010023C
:1009A0000F2A01D2921C00E0521C03FB02F10F2A15
:1009B00004D103EB4300400000EB530101E01F4969
:1009C00000BF00BF1C484068C0F3031504A8465D83
:1009D00021FA06F418484068C0F3022502A8465DD3
:1009E00024FA06FC14484068C0F3C2251DF80560CF
:1009F00024FA06F80D9830B1012806D0022806D056
:100A000003280AD106E00B9108E00B9406E0CDF82C
:100A10002CC003E0CDF82C8000E000BF00BF0B9895
:100A20000EB0BDE8F08F00000000000000000000E4
:100A300001020304060708090010024000127A00B0
:100A400040787D0100093D00064A02EB90110968DB
:100A500000F01F0301229A401143024B03EB901256
:100A60001160704700100240064A02EB90110968BD
:100A700000F01F0301229A409143024B03EB9012B6
:100A80001160704700100240064A02EB901109689D
:100A900000F01F0301229A401143024B03EB901216
:100AA000116070470010024000200021334A126894
:100AB00042F48032314B1A6000BF401C2F4A12684A
:100AC00002F4003119B94FF6FF729042F5D12B4A6A
:100AD000126802F400320AB900BFFEE7274A5268E2
:100AE000264B5A601A4652685A601A46526842F4B7
:100AF00080625A601A465268214B1A401F4B5A6056
:100B00001A4652681F4B1A431C4B5A601A46D26A47
:100B10001D4B1A40194BDA621A46D26A1B4B1A4314
:100B2000164BDA621A46126842F080621A6000BF01
:100B3000124A126802F00062002AF9D00F4A1268C5
:100B400042F080720D4B1A6000BF0C4A126802F02E
:100B50000072002AF9D0094A526822F00302074BBA
:100B60005A601A46526842F002025A6000BF034AB5
:100B7000526802F00802002AF9D0704700100240C3
:100B8000FFFFC3DF0000292000F0FEFF490601003F
:100B900010B5FFF789FF10BD10B5124800684FF47B
:100BA0007A71B0FBF1F4601EB0F1807F01D30120B7
:100BB0000FE0601E4FF0E02148610F214FF0FF3041
:100BC000FFF72AFB00204FF0E02188610720086131
:100BD000002008B100BFFEE70021481EFFF71CFB04
:100BE00010BD0000080100202DE9F04704460D4625
:100BF0000027B846B94600261D49601A8C421CD011
:100C000006DC1C48204470B1B0F5806F1FD10FE0A6
:100C1000B0F5806F16D0B0F56C4F18D10320FFF7F8
:100C20005BFE074614E00220FFF756FE07460FE082
:100C30000220FFF751FE07460AE00220FFF74CFEB4
:100C4000074605E00220FFF747FE074600E000BF29
:100C500000BF07EB5500B0FBF5F64FF6F07006EA63
:100C6000000806F00F0948EA0900A060BDE8F08717
:100C7000004C004000BCFFBF10B504462049601A7C
:100C80008C4228D006DC1F48204490B1B0F5806F1C
:100C900033D117E0B0F5806F26D0B0F56C4F2CD172
:100CA00040F20E30FFF7F0FE40F20E30FFF7DCFEB0
:100CB00024E040F21140FFF7E7FE40F21140FFF759
:100CC000D3FE1BE040F21240FFF7DEFE40F212407E
:100CD000FFF7CAFE12E040F21340FFF7D5FE40F2E4
:100CE0001340FFF7C1FE09E040F21440FFF7CCFECD
:100CF00040F21440FFF7B8FE00E000BF00BF10BD97
:100D0000004C004000BCFFBF00B587B04FF4A060AE
:100D1000FFF79AFE03211F48FFF72EFB01208DF8F5
:100D20001A001D48029001208DF819000020039040
:100D30004FF4807004901948009000208DF818003E
:100D400001904FF4405005906A4603211148FFF787
:100D500057FB03210F48FFF7F6FA03210D48FFF771
:100D6000E6FB04210B48FFF707FB00208DF81A0073
:100D70000B4802906A4604210648FFF741FB042114
:100D80000448FFF7E0FA04210248FFF7D0FB07B060
:100D900000BD0000000002400000002004380140B7
:100DA0008C0100200A460021416921F040011143D5
:100DB000416170470A460021416921F080011143D9
:100DC00041617047C16841F40051C16070470A46F3
:100DD0000021416921F400711143416170470A46C5
:100DE0000021416921F48071114341617047C2685B
:100DF00022F4C062C260C2680A43C26070470A46F9
:100E00000021C16821F004011143C16070470269EB
:100E100022F44052026102690A43026170470A46A5
:100E20000021C16821F008011143C1607047C26808
:100E300022F48052C260C2680A43C2607047000058
:100E4000600E0008000000208C010000B0010008C6
:100E5000B40F00088C01002004210000D802000813
:100E60001100FF000102030405060708090A0B0C24
:100E70000D0E0F101112131415161718191A1B1C2A
:100E80001D1E1F202122232425262728292A2B2C1A
:100E90002D2E2F303132333435363738393A3B3C0A
:100EA0003D3E3F404142434445464748494A4B4CFA
:100EB0004D4E4F505152535455565758595A5B5CEA
:100EC0005D5E5F606162636465666768696A6B6CDA
:100ED0006D6E6F707172737475767778797A7B7CCA
:100EE0007D7E7F808182838485868788898A8B8CBA
:100EF0008D8E8F909192939495969798999A9B9CAA
:100F00009D9E9FA0A1A2A3A4A5A6A7A8A9AAABAC99
:100F1000ADAEAFB0B1B2B3B4B5B6B7B8B9BABBBC89
:100F2000BDBEBFC0C1C2C3C4C5C6C7C8C9CACBCC79
:100F3000CDCECFD0D1D2D3D4D5D6D7D8D9DADBDC69
:100F4000DDDEDFE0E1E2E3E4E5E6E7E8E9EAEBEC59
:100F5000EDEEEFF0F1F2F3F4F5F6F7F8F9FAFBFC49
:100F6000FDFE92FF14F36F063C100140044A180482
:100F700032013204290832022D0E06110709291404
:100F8000290542081A082C19041E0206020604024A
:100F90002901391429484A0C441132201A404419B5
:100FA000204B030650691411130201360D0E06285A
:040FB0002800000015
:04000005080001519D
:00000001FF
