:020000040800F2
:10000000C0090020D900000865200008351F00083D
:1000100000000000000000000000000000000000E0
:10002000000000000000000000000000692000083F
:100030000000000000000000672000086B2000089E
:100040000901000809010008090100080901000868
:100050000901000809010008090100080901000858
:10006000090100080901000809010008850E0008BF
:100070000901000809010008090100080901000838
:10008000090100080000000000000000090100084C
:10009000000000000901000809010008090100082A
:1000A000000000000901000809010008090100081A
:1000B000C926000800000000090100080901000825
:1000C0000448854600F0C2FB00480047513800084C
:1000D000C046C046C00900200C4880F308880C4880
:1000E0000168090E0B4A914205D10B480B4901608A
:1000F0000B480C4901600C4880470C480047FEE75C
:10010000FEE7FEE7FEE7FEE7FEE70000C00900208D
:10011000040000001F000000181002400100000051
:100120000000014000000000CB200008C1000008D2
:1001300030B50B46014600202022012409E00D467F
:10014000D5409D4205D31D469540491B2546954007
:1001500040191546521E002DF1DC30BDF0B51FB41C
:100160000646002082B005464024019100901BE025
:10017000019922460F46304600F020F8049A059B6C
:10018000801A994110D310461946224600F0B9F85A
:10019000361A8F410197224601200021009F00F06E
:1001A000B0F838184D4100902046641E0028DFDC6E
:1001B000019B00982946324607B0F0BD10B5202AB1
:1001C00004DB0846203AD040002110BD0B46D34046
:1001D000D0402024A21A91400843194610BD03467E
:1001E0000B439B0703D009E008C9121F08C0042A6B
:1001F000FAD203E00B780370401C491C521EF9D25E
:100200007047D2B201E00270401C491EFBD2704719
:100210000022F6E710B513460A4604461946FFF7D2
:10022000F0FF204610BD10B5044605E00B780370C2
:10023000401C002B00D0491C521EF7D2204610BD96
:10024000421C0178401C0029FBD1801A704710B570
:10025000002200E0521C835C8C5CA34201D1002B85
:10026000F8D1D8B2E1B2401A10BD30B50546002031
:10027000034600E05B1C934205D2EC5CC85C201A8C
:1002800001D1002CF6D130BD70B5064602F086FAD9
:10029000046805460A220021304600F095F82C60DB
:1002A00070BDC20FD207400040080BD0C10D07231C
:1002B000DB01C91840020905400A1143C208400782
:1002C00011437047002001467047CB0FDB07490000
:1002D00010B5490802460A4307D00A0D072409034E
:1002E000E401090B121B002A01DC002010BDC9002B
:1002F000440F0C43C100E018D205801800F09CF8B0
:1003000010BD10B5202A04DB0146203A91400020A0
:1003100010BD914020239C1A0346E34019439040AE
:1003200010BD00000FB400B589B00CA900910B9965
:100330000023CB60204B214A0693079204220192AE
:100340001F4A02921F4A089202466B46002000F0A4
:1003500040FB09B008BC04B0184770B586B006462B
:100360000020C0430190002015460C4600910291E8
:1003700004903246694604A8FFF7D4FF0246049869
:100380002118002D05D0002801D0084600E02046A5
:100390002860049800280DD0002A02DD00988842C9
:1003A00008D0081B0190009432466946029404A8C4
:1003B000FFF7B8FF06B070BD290C0008490C000813
:1003C000FFFFFF7FA1080008F7B5009C0F4600263D
:1003D0002578641C002D05D000F05EFA0068405DB1
:1003E000C007F5D12B2D02D02D2D18D0641E394613
:1003F0002046029A00F03AFC002F04D03968A1424E
:1004000001D1009939607105022400290BDA4042BC
:10041000002803DD02F0C2F90460A007FEBD012040
:1004200080020643E3E70028F8DA02F0B7F9046037
:100430000048FEBDFFFFFF7F002904DA401C490091
:1004400001D140084000704770B40024050C05D16C
:100450001024000402D1002921D01124050E01D15D
:1004600000020834050F01D10001241D850F01D1C0
:100470008000A41C002801DB4000641C002908D077
:1004800020252E1B0D46F540A14000D00121294317
:10049000084301061B1B000ADB1D02D5002070BCAF
:1004A0007047DB05181880180029F8DA401C49004D
:1004B000F5D170BC4008400070470000F0B5074619
:1004C0000846584087B0C00F049048000E465900B7
:1004D00040084908BC1A884105D2384631461E46B4
:1004E00017460B4602465800400810434DD0300DC9
:1004F000039040055900400D490D0590401A0290A7
:10050000402873DA18030121000B09050843019004
:1005100004980092002806D01146019A4942002012
:10052000904100910190029840210A1A0199009887
:10053000FFF7E7FE05460C466B4607CB00F098F93F
:10054000C0197141039A0E0D0023D71756401A4661
:100550007A40164344D0049A002A2DD0029A012AE8
:10056000039A15DC1205C01A914101263605001CBC
:100570007141D20F059ED2070093019202962A463E
:10058000234600F0D3FB07B0F0BD38463146FAE70A
:100590001605234A0F46B218C01AB74101210905B2
:1005A000001C4F4100187F41114618187941E20F95
:1005B00010436D19644113E0E2076D0815436408A8
:1005C000C2071443039A01261205C01A9141360549
:1005D000001C7141CE07400830434908C018514102
:1005E0002A46234600F095FBCDE7FFE70498012259
:1005F0004000C117121A00238B4104983146C417DA
:10060000381AA141EEE730B40124E407634030BC5E
:1006100054E730B40124E407614030BC4EE70000E9
:100620000000E0FFF0B51FB488B00B9909980024D2
:1006300048400999C00F490049080991C0070B9922
:100640000090490049080B9109990898A64608436B
:100650001CD00B990A98084318D00998012440002F
:10066000420D4800410D099824050003000B20436A
:1006700009900B980003000B20430B9050181C4965
:100680004018002201901446104605E00020014663
:100690000DB0F0BD032801DA034600E003239C46B9
:1006A000C11A0AAE0AE05F0008ADED5B4F00F75BD0
:1006B0007D430027AA187C41491C5B1E6145F2DD81
:1006C000410004AB5A522104120C0A43240C401C72
:1006D0000828DFDB01980290009970460191009094
:1006E000059B049A0799069800F020FBD0E70000CC
:1006F0000DFCFFFFF0B50C465C4085B0E40FE4074D
:1007000003944C00002664085900944649080246A8
:100710000296224321D062460A431ED06200570D42
:100720004A000E032303550D012402462C492405DB
:10073000781B1B0B360B4018234326436146009061
:100740001C46501AB44103D30098401C009002E0AC
:10075000921800985B41002803DA0020014605B09A
:10076000F0BD0020012109050746864611E06446D8
:100770001D46141BB54106D36546521BB341744652
:1007800007430C43A646CD07400849082843921862
:100790005B4105460D43EAD11046184313D060462D
:1007A000194650407140084306D06046101AB341C4
:1007B00006D20122002306E000220123DB0702E02B
:1007C0000122D2435310009874460105381C614140
:1007D000029C039D0019694100F09BFABFE70000ED
:1007E000FD0300004A0009030123090B1B051943FF
:1007F0000A4B10B5520D9A4202DA0020014610BD94
:10080000064B34339A4203DC9A1AFFF7D7FC10BD2B
:10081000034BD218FFF775FD10BD0000FF03000069
:10082000CDFBFFFF10B5002904DB0124E4074042A3
:100830008C412146002B04DB1C460123DB0752427E
:10084000A341994200D1904210BD0000064C012501
:10085000064E05E0E36807CC2B430C3C9847103468
:10086000B442F7D3FFF730FCE4390008043A00083B
:1008700010B5202A06DBCB170846203A1041C117D5
:100880000B4306E00B461341D0402024A21A9140AE
:100890000843194610BD000000487047E0390008C1
:1008A00010B50446FFF7F8FF0068005DC007C00FF1
:1008B00010BD0000FFB5087889B01546FF2805D0A7
:1008C000491C2D2804D00022002407E000240BE05E
:1008D0000122F9E70A235C430419491C0878FF2820
:1008E000F8D1002A00D06442002004902A78014602
:1008F0002D2A01D02B2A0FD16D1C2D2A02D00022C7
:10090000049209E00122FBE700260A2233466D1C0F
:1009100000F05EFA381871412F78FF2FF4D10C9A4D
:10092000A218069202460A4304D0FF23069A913386
:10093000DA4205DA002109980A4606C00DB0F0BD7A
:100940000024B74AB54D2646079200F08DFA029072
:1009500006980391002801DA474200E0074639056E
:100960000020AF4A001C51410191009012E0F807AD
:1009700007D022462B4630460799FFF753FE06461E
:10098000079122462B4610461946FFF74BFE0446B8
:100990000D467F10002FEAD10698019B0028009A8F
:1009A0000399029806DAFFF7A5FE3246079BFFF788
:1009B000A1FE05E0FFF736FE3246079BFFF732FE49
:1009C000049A002A02D00122D2075140099A03C298
:1009D000B4E7FFB591B0002009900025ED432E202B
:1009E0009E685C681F460190B9696D1C1298884723
:1009F0000090396A88470028F6D10098401C0AD038
:100A00000D20C0018443002E12DD00982B2809D050
:100A10002D280DD103E00020C04315B0F0BD01200A
:100A200080020443B9696D1C12988847761E0090B5
:100A300003A9600501D52D2000E02B206A46107324
:100A4000491C0CA80F9102900AE0B9696D1C12981C
:100A5000884700900120400204431398761E0560E9
:100A6000002E02DD00983028EFD0019900988842CE
:100A700046D18020044308E00998401E09900120D7
:100A8000400204431399681C0860B9696D1C761E06
:100A90001298884700903028EED031E001998842C2
:100AA00005D1200603D480200443761E1EE0009862
:100AB00001F04EFF002826D001204002044307A980
:100AC0000F980331761E88420BD200980F99303868
:100AD00008700F98401C0F90200607D50998401EFB
:100AE00003E0200602D40998401C0990A00502D515
:100AF0001399681C0860B9696D1C129888470090AA
:100B0000002ECBDC59E0002E57DD0098652801D07F
:100B1000452852D1A00550D5032000028443B9696D
:100B20006D1C761E129888470090002E0CDD2B2835
:100B300004D02D2808D1FF2001300443B9696D1C71
:100B400012988847761E0090E00501D52D2100E01F
:100B50002B21029801700298401C0290019025E020
:100B60000120400204430EA902980131761E8842FA
:100B70000ED20098029930380006000E087003D19A
:100B80000299019881420AD90298401C029006E01D
:100B9000E00501D5234801E0224840420990B969A7
:100BA0006D1C12988847009013980560002E04DD94
:100BB000009801F0CDFE0028D2D1F969129888473B
:100BC0000F99FF200870029903AA087000200A906C
:100BD0000B900CA90AA8099BFFF76CFEA00502D494
:100BE0000120C04319E72420044209D0E00713D1B3
:100BF00038680B9A0A99031D3B60006806C00BE039
:100C00000B990A98FFF761FB0146E00704D13868A9
:100C1000021D3A60006801602846FEE600001440AC
:100C20000000F03FF1D8FFFF4268002A08D00168B9
:100C30000B78491C002B03D0521E06C01846704783
:100C40000121C160881E70474268002A0BD0C3682A
:100C50000168002B07D183688B4204D0491E521CC7
:100C600006C0002070470020C0437047F7B582B02F
:100C7000029C00272078641C15460197302802D07A
:100C8000002D15D015E020780127641C782804D0A9
:100C9000582802D0002D09D00BE0002D01D0102DD6
:100CA00007D1002710252078641C02E0082500E009
:100CB0000A250026009610E00099012769430818CC
:100CC000020C294680B2714300908E183804864287
:100CD00001D3012001902078641C294600F0B5F86A
:100CE0000028E9DA0398002805D0002F01D0641EFF
:100CF00000E0029C04600198002806D001F04EFD3F
:100D000002210160C81E05B0F0BD009930040843FF
:100D1000F9E710B5002B08DA0024401C6141921855
:100D20005B411A4301D14008400010BDF0B51FB42B
:100D300082B005460C0003D0084601F0DDFC02E05D
:100D400001F0DAFC20300246009021462846FFF7E9
:100D5000D8FA049B059A04460F46184311430843EA
:100D600014D0184610431BD0009840210A1A184688
:100D70000599FFF723FA05460E46009A059904984F
:100D8000FFF7BFFA084305D0012004E020463946AA
:100D900007B0F0BD0020C11705430E432C43374375
:100DA00000990E986305401A7905E40A00220C4365
:100DB000FD0A0A3002D500200146E9E701051019B5
:100DC00069410C9C0D9D00196941FFF7A2FFDFE707
:100DD000F0B51FB486B000200090019002900698F4
:100DE000069980B204900798090C0204001411437C
:100DF00007900027089D099806913E463C460390BF
:100E00000398A9B20204000C039004982D0C15431A
:100E1000484300212246FFF774FAC7197141103484
:100E20000E46402CECDB3846029AFFF76AFA009A2D
:100E3000019B801800905941029801911030029056
:100E40004028CCDB00980BB0F0BD3A2800D23038F7
:100E5000202302469A43412A01D31046373888425C
:100E600001D30020C04370470EB5054A029200220C
:100E7000009213460192FFF759FF03B000BD000036
:100E80003304000010B5024800F070F810BD0000F7
:100E90007C03002010B50446006805494018142161
:100EA000FFF746F9800020640248E06310BD0000AF
:100EB000F8FFFDBF0000024030B5056C0124AC40D6
:100EC000C56B6C60046863604368102B036803D0D3
:100ED00099600068C26030BD9A600068C16030BD32
:100EE00072B6FEE730B5014620314B780022022B66
:100EF00004D0042383630A70012030BD03681C689A
:100F00000E25AC431C6003681C68640864001C6008
:100F10000123056C1C46C06BAC4044604B700A70EA
:100F2000002030BD70B50024014620314A78022AE5
:100F300003D004218163012416E0026813680E25A2
:100F4000AB431360026813685B085B001360012207
:100F5000056C1346AB40C56B6B604A7000220A708B
:100F6000416B002900D08847204670BDF0B4C16BAA
:100F70000D6801680C680422066C1346B3402B42CE
:100F80000DD063070BD50B689B0602D40B68934307
:100F90000B60016C8A40C16B4A60C16A19E002278C
:100FA000B74002462F4001232032002F15D0A7075B
:100FB00013D50C68A40604D40C680A25AC430C6055
:100FC0005370036C02219940C36B5960002111706A
:100FD000816A002916D0F0BC08470827B7402F4285
:100FE00010D024070ED50C680E25AC430C60046CA1
:100FF0001946A140C46B6160836353700021117076
:10100000016BE6E7F0BC704770B5040021D0022107
:101010002046203005464170226811680E48A368BA
:101020000140606826691843E368334318436369E5
:101030001843A3691843E369184308431060204626
:10104000FFF728FF0021A16301206870297008467E
:1010500070BD012070BD00000FC0FFFFF8B5044651
:101060008C46203001780025012909D00126067020
:1010700041780027012905D0077002252846F8BDD0
:101080000220F8BD02214170A76320680168490869
:101090004900016061462046FFF70EFFE06A002824
:1010A0002068016802D00E22114306E00A22114393
:1010B0000160206801680422914301602068016892
:1010C00031430160DAE70000F8B50023032401256D
:1010D000B5E02E469E40B44632407CD00E79B6072D
:1010E000B60F012E01D0022E17D186682746B646CC
:1010F0005E00B74000967646BE43B646CF68009E77
:10110000B74076463743876046686746BE430F79E7
:10111000FF06FF0F9F40374347600E79F643B6073F
:101120000ED0C6682746B4465E00B646B74066464F
:10113000BE43B4468F687646B74066463743C760BD
:101140000E79B607B60F022E14D1DE08B600361897
:101150000096366A5F07B446FE0E0F27B646B740C4
:101160006646BE43B4460F697646B7406646374387
:10117000009E376206682746B4465E00B646B74012
:101180006646BE430F79B446BF07BF0F7646B740E9
:101190006646374307604E68B603B60F4ED02B4FF6
:1011A000BE692E43BE61BE699F08F607F60F284E42
:1011B000BF00BE190096B6680F27B4469E07360FCB
:1011C000B646B7406646BE430927FF06B446B84256
:1011D00002D100270BE031E01E4FB84201D10127B8
:1011E00005E01D4FB84201D1022700E005277646F1
:1011F000B74066463743009EB760184E36684F6862
:101200009643FF0300D51643144F3E607E684F6837
:101210009643BF0300D51643104F7E60BE684F68EB
:101220009643FF0200D516430C4FBE60FE684F6820
:101230009643BF0200D51643084AD6605B1C0A6875
:101240001646DE4000D044E7F8BD00000010024022
:10125000000001400004004800080048000401406C
:101260000148806870470000000000200248816843
:1012700002788918816070470000002010B5064888
:101280000168102211430160002000F007F800F00F
:1012900027F8002010BD00000020024070B5044671
:1012A0000D4D7D202978C000FEF742FF01460B4816
:1012B0000068FEF73DFF00F01DFB002809D1042C5B
:1012C00007D200222146401E00F02AF800206C6060
:1012D00070BD012070BD0000000000200C00002047
:1012E00008B5084881690122114381618169114073
:1012F0000091C26901040A43C261C06908400090BC
:1013000008BD000000100240002805DBC106C90E20
:1013100001208840014908607047000000E100E0BA
:1013200010B501F019FA10BDF8B50F4606005FD0F0
:101330003D4D2868C007C00FB84209D22868400850
:101340004000384328602868C007C00FB8424FD11A
:101350003068364C81070CD5400704D560680721FA
:101360000902084360606068F0218843B16808435F
:1013700060603078C0072CD07068012810D0022837
:1013800011D0032812D021688907002930DA61685A
:101390008908890001436160FFF762FF009011E056
:1013A00021688903F1E721688901EEE7616BC903D0
:1013B000EBE7FFF755FF0099411A1D48814201D91B
:1013C0000320F8BD60680C210840716889008842DC
:1013D000EFD12868C007C00FB8420BD92868400871
:1013E0004000384328602868C007C00FB84201D0C9
:1013F0000120F8BD3078400706D560680721090252
:101400008843F1680843606000F028F86168094A81
:101410000906090F515CC840074908600020FFF722
:101420003DFF0020F8BD00000020024000100240F7
:1014300088130000463900080C00002004480549C4
:1014400000684968044A4905490F515CC840704723
:101450000C000020001002405639000830B519A3D6
:101460000FCB89B06C460FC41AA30FCB0FC41D4A13
:1014700051680C200B4603401B48042B05D01B4D24
:10148000082B04D00C2B00D1284609B030BD8B02AC
:101490001B0F6C46E45CD26A04AB1207120FC9033F
:1014A0009A5C890F022901D0032901D0002301E0B1
:1014B000002328460021FEF751FE214601F033F9B2
:1014C000E3E7000002030405060708090A0B0C0DF8
:1014D0000E0F10100102030405060708090A0B0C81
:1014E0000D0E0F100010024000127A00006CDC029A
:1014F000FEB5040070D02078F94EFA4DC00748D0F0
:1015000068680007800F01281FD068680007800FF7
:10151000022804D16868C003800F022815D06168D2
:10152000012919D001208004002901D0052917D0F4
:101530002968B143296029688143296060680028CF
:101540001BD0FFF78DFE074613E02868800320D5E7
:1015500060680028CED01CE0286830432860EDE7A2
:10156000296801432960F7E7FFF77AFEC01B64286A
:1015700070D828688003F7D50BE0FFF771FE0746A7
:1015800004E0FFF76DFEC01B6428F1D828688003D3
:10159000F7D4207880073FD568680007800F14D003
:1015A00068680007800F022804D16868C003800FB4
:1015B00001280AD0E068002828681ED001210843CD
:1015C0002860FFF74DFE07460CE0286880070CD521
:1015D000E068012800D108E080E1FFF741FEC01B70
:1015E0000228C5D828688007F7D52868F8218843DD
:1015F0002169C900084328600EE0400840002860C7
:10160000FFF72EFE074604E0FFF72AFEC01B022864
:10161000AED828688007F7D42078000723D5E06982
:101620000028686A0FD0012108436862FFF718FE9E
:10163000074604E0FFF714FEC01B022898D8686A2A
:101640008007F7D50FE0400840006862FFF708FE0A
:10165000074605E0C3E0FFF703FEC01B022887D85A
:10166000686A8007F7D4207804274007002861DAE9
:1016700000200190E869C00008D4E969B806014378
:10168000E961E969014001200091019096480168F3
:10169000C90511D40168821511430160FFF7E0FD0F
:1016A000009005E0FFF7DCFD0099401A642898D807
:1016B0008D480068C005F5D5A06801280AD000282B
:1016C00001D0052811D0286A400840002862286A05
:1016D000B84302E0286A012108432862A068002874
:1016E00012D0FFF7BDFD00900AE0286A3843286257
:1016F000F0E7FFF7B5FD0099411A7C4881426ED8AA
:10170000286A8007F5D50DE0FFF7AAFD009006E0F6
:10171000FFF7A6FD0099411A744881425FD8286AF4
:101720008007F5D40198002804D0E969012000075A
:101730008143E9612078C00635D5606901280CD065
:10174000401D686B24D038436863686B40084000D4
:101750006863FFF785FD074622E0686B38436863DE
:10176000686B012108436863FFF77AFD074604E0D0
:10177000FFF776FDC01B022831D8686B8007F7D5CC
:10178000686BF8218843A169C900084368630AE0CF
:10179000B8436863F4E7FFF763FDC01B02281ED857
:1017A000686B8007F7D42078800637D56868000713
:1017B000800F032814D068680007800F022804D126
:1017C0006868C003800F03280AD0206A0028686B6D
:1017D00016D030436863FFF743FD06460CE062E035
:1017E000686BC0031AD5206A012877D116E0FFF78D
:1017F00037FD801B022856D8686BC003F7D50DE073
:10180000B0436863FFF72CFD064604E0FFF728FDB0
:10181000801B022847D8686BC003F7D4606A002891
:1018200066D069680907890F022942D00126360669
:101830000228286805D0B0432860FFF711FD044650
:1018400033E0B0432860FFF70BFD074604E0FFF7E5
:1018500007FDC01B022826D828688001F7D4E86A53
:10186000216B000900010843E862A16AE06A0843AD
:1018700069687B22D203914308436860286830433B
:101880002860FFF7EDFC044604E0FFF7E9FC001BCD
:10189000022808D828688001F7D529E0FFF7E0FC86
:1018A000001B022801D90320FEBD28688001F5D461
:1018B0001EE00128F8D06868E96A0322D203A36A0F
:1018C00002409A420AD10907226B090F914205D1C1
:1018D0000F2189040840E16A884209D00120FEBD39
:1018E000000001000010024000700040881300005A
:1018F0000020F4E7094910B5401E884201D90120B3
:1019000010BD074C60610321081F00F025FF002077
:10191000A06107202061002010BD0000FFFFFF0034
:1019200000E000E070B5040005D025462035687F52
:10193000002802D006E0012070BD00202877204654
:1019400000F014F802206877211D206800F0BEFB2B
:1019500001204034A071A877E87720706070A070F3
:10196000E070207160716877002070BD08B50F4A83
:1019700001680F48914205D1C26981150A43C261CD
:10198000C06906E00B4A914206D1826901214904EF
:1019900008E00840009008BD074A9142FBD18269E7
:1019A000012189040A4382618069F2E70020004036
:1019B00000100240004401400048014010B50446B8
:1019C000C06F202831D100290BD0002A09D0012373
:1019D000A0681B03984206D12069002803D1C807DC
:1019E00001D0012010BD23466033187D01281CD092
:1019F000012018752066204600F0A4FD010003D1E7
:101A0000206E012802D00121084610BD2068102355
:101A10000362EFF31080012282F3108822681468B9
:101A20001C43146080F31088EEE7022010BD000014
:101A300070B500681549884226D11548FEF700FCAC
:101A4000FF2584B2013529461248FEF7E1FB104913
:101A500022464819FEF7C3FB21460D48FEF7D8FB86
:101A60002A460B490C48FFF7A9FF0B488430006851
:101A70000168042291430160064908A000F02CFE91
:101A80006421044801F0ECFC70BD000000440040FB
:101A9000F8000020F8010020F802002025730D0A4C
:101AA0000000000070477047F8B502680446D0692E
:101AB00011689668A24B03401D462023002D75D067
:101AC000F707A04DFF0FBC460D402F436DD02546B4
:101AD000C7078035002F06D0CF0504D50127176230
:101AE0002A683A432A60820708D5F20706D0276899
:101AF00002223A622A6804273A432A60420708D53C
:101B0000F20706D02668042232622A68022632438F
:101B10002A6002070AD50A461A406646324305D0B3
:101B20002668082232622E6816432E60020508D508
:101B30004A0106D501222668D20232622A681A4377
:101B40002A602A68002A39D0800606D5880604D57E
:101B5000616E002901D0204688472868216889687D
:101B6000490602D4282108422DD0204600F010FC5E
:101B700021688868400622D5EFF31080012282F3A5
:101B800010888B68402293438B6080F31088206F0D
:101B9000002814D06C494163206FFFF7C3F9002877
:101BA0000CD0206F416B08E000E012E0850610D5F4
:101BB0008D060ED5616EA8E020468847F8BD204608
:101BC000FFF771FFF8BD2046FFF76DFF002028608A
:101BD000F8BD256E012D7DD1C5067BD5CD0679D505
:101BE0001026166222689068254640064035002877
:101BF00045DA216F086840680004000CE8D02F8B9C
:101C00008742E5D968838869202833D0EFF31080B4
:101C1000012181F3108811683701B943116080F305
:101C20001088EFF31080012181F3108821688A6801
:101C3000520852008A6080F31088EFF3108001216F
:101C400081F3108821688A684027BA438A6080F34C
:101C50001088E36700202066EFF31080012181F3F4
:101C6000108821680A68B2430A6080F31088206FE8
:101C7000FFF738F9288B698B401A81B231E0288B45
:101C8000698B401A81B2688B0028A1D000299FD0AF
:101C9000EFF31080012585F310881568FF272137A1
:101CA000BD43156080F31088EFF31080012282F3AA
:101CB0001088226895686D086D00956080F3108823
:101CC000E367002020666066EFF31080012282F354
:101CD000108800E009E022681368B343136080F3C2
:101CE00010882046FFF7A4FEF8BDC50208D575028E
:101CF00006D50120000510622046FFF7D3FEF8BD8F
:101D0000050606D50D0604D5A16E002900D053E7BF
:101D1000F8BD4006FCD54806FAD52046EFF3108101
:101D2000012484F3108815684024A543156081F3CD
:101D3000108883670021816600F0FBF8F8BD000081
:101D40000F080000200100048122000810B50400E3
:101D500003D0A06F002802D007E0012010BD0021B1
:101D600074200155204600F027F82420A067206841
:101D70000168490849000160204600F049FB01283C
:101D8000ECD0606A002802D0204600F0E1F920681B
:101D900041680922D20291434160206881682A2269
:101DA000914381602068016801221143016020464F
:101DB00000F034FA10BD000070B586B0064614215C
:101DC0006846FEF725FA20493068884239D11F4914
:101DD000CA69012040040243CA61CA6902400592EF
:101DE0004A6902434A614969002501400591184842
:101DF000009002200190032003900120049009200C
:101E000002956946C006FFF75FF91248124C21C4DB
:101E10002560A560E56025618020656160600E48F1
:101E2000083CFFF7F1F8002801D0FFF759F83467B4
:101E3000002211461C206662FFF772FA1C20FFF791
:101E400063FA06B070BD000000440040001002407C
:101E500004800000580002407C0300207047704757
:101E6000FFB50446806F83B017460D4620285ED12B
:101E7000002D0AD0002F08D0A168C001814207D1EF
:101E80002069002804D1E80702D0012007B0F0BD86
:101E9000204660300090007D012848D00098012144
:101EA00001750020802108512120A067FFF7D8F993
:101EB000264640360190378277820120A1680003D0
:101EC000814202D12069002805D02F4600250099C3
:101ED0000020087511E00027F9E700228021204644
:101EE00000F088FB002815D1002F15D02168387824
:101EF00008857F1C708A401E7082708A019B0028B2
:101F000006980090E9D100224021204600F072FBA3
:101F1000002808D00320B9E728882168C005C00D33
:101F20000885AD1CE6E72020A0670020AEE7022070
:101F3000ACE77047FEE7000008B508484169012298
:101F400011434161406910400022009011460B206E
:101F5000FFF7E6F90B20FFF7D7F908BD00100240A4
:101F600008B508484269012189050A43426142696E
:101F70000A400092426949110A434261406908409F
:101F8000009008BD0010024010B50A4808490160E1
:101F9000094941600021084A816028320161C2601C
:101FA0008161FFF7BFFC002801D0FEF799FF10BD4B
:101FB0000020004020000020BF03000010B50B48A7
:101FC000094901600A4941600021094A81600161B3
:101FD00028324161C2608161FFF7A4FC002801D072
:101FE000FEF77EFF10BD00000044014068000020A5
:101FF000BF03000010B50B48094901600A49416060
:102000000021094A8160016128324161C260816119
:10201000FFF788FC002801D0FEF762FF10BD00002A
:1020200000480140B0000020BF03000010B50C487C
:102030000A490160E1214902416000218160C160DB
:1020400001618161C1610C22016242614162FFF75D
:102050007DFE002801D0FEF743FF10BD0044004084
:10206000F8020020FEE77047704710B5FFF7FEF852
:1020700010BD30B591B034216846FEF7C9F8002490
:102080000F94012000901094052002250190E80390
:102090000A9000010E940B900D9409950C946846DB
:1020A000FFF726FA002801D072B6FEE707200D9050
:1020B0000F9401210E9510940DA8FFF735F9002813
:1020C00001D072B6FEE711B030BD7047F0B50268BE
:1020D0001A4B0124A4071A4D984203D0A04201D004
:1020E000A84203D17026B2434E683243154E164FB4
:1020F00098420AD0A04208D0A84206D0134CA04271
:1021000003D0B04201D0B84204D103242402A24338
:10211000CC6822438024A2434C69224302608A682F
:10212000C2620A688262984203D0B04201D0B842CB
:1021300001D10969016301214161F0BD002C014019
:1021400000040040004401400048014000200040DD
:1021500010B5818CC90707D001684A6801235B0468
:102160009A43836A1A434A60818C890707D50168BC
:102170004A6801231B049A43C36A1A434A60818C4C
:10218000490707D501684A6801239B049A43036BFA
:102190001A434A60818C090707D501684A68012300
:1021A000DB039A43436B1A434A60818CC90607D507
:1021B0000268916801231B039943836B1943916063
:1021C000818C890607D501688A6801235B039A43DD
:1021D000C36B1A438A60818C490612D503685A681A
:1021E00001210905046C8A4322435A60026C8A4229
:1021F00007D10268516803235B059943436C194377
:102200005160818C090607D501684A680123DB0407
:10221000806C9A4302434A6010BD0000F8B5044642
:10222000002680300660FFF71BF80546206800682E
:10223000124F000709D501212B46002249052046EF
:10224000009700F0D7F900280DD1206800684007FA
:102250000BD501212B46002289052046009700F06E
:10226000C9F9002801D00320F8BD2020A067E0674D
:102270002666603426750020F8BD0000FFFFFF01D0
:1022800010B5406A0022014640314A834A82FFF776
:102290000AFC10BD70B5446AA06FE56F21688968BB
:1022A00000260906002906DA212804D15220065307
:1022B000204600F09CF820688068400606D5222D54
:1022C00004D15A200653204600F062F820468030A0
:1022D00001681022114301602046FFF7E4FB70BD46
:1022E00010B501468969406A202938D000225A2158
:1022F0000A52EFF31081012282F3108802681368FA
:10230000FF240134A343136081F31088EFF310819D
:10231000012282F31088026893685B085B00936077
:1023200081F31088EFF31081012282F31088026894
:1023300093684024A343936081F310882021C167F0
:10234000016E01290BD1EFF31081012282F3108875
:10235000026813681024A343136081F31088016E90
:10236000012902D0FFF77AFD10BD5821095AFFF765
:102370005FFB10BD10B5406A016E012902D0FFF766
:102380006EFD10BD5821095A4908FFF751FB10BDD9
:1023900010B5EFF31081012282F3108802681368F0
:1023A000FF242134A343136081F31088EFF31081DD
:1023B000012282F31088026893685B085B009360D7
:1023C00081F31088016E01290BD1EFF310810122F6
:1023D00082F31088026813681024A343136081F30A
:1023E00010882021C16700210166416610BD10B52B
:1023F000EFF31081012282F3108802681368C02471
:10240000A343136081F310882021816710BD000071
:1024100070B5044680682169E26908436169002556
:102420001143226808431168404B19400143116071
:1024300021684868032212039043E2681043486011
:10244000A169206A084321688A680B231B029A430A
:1024500002438A6036492068884210D13548006BB3
:102460008007800F0ED0012805D0022805D0032850
:102470000AD1022109E0042107E0082105E02E49E4
:10248000884201D1002100E010210120E369C0034E
:102490002A4A2B4E834223D1002906D0022907D095
:1024A000042907D0082937D108E0FEF7C7FF03E069
:1024B000104603E0FEF7D2FF002831D061684000EB
:1024C0004A088018FDF734FE80B201461039B14247
:1024D00022D81B49491C01400007400F08431DE05A
:1024E000002906D0022907D0042907D0082913D1D2
:1024F00008E0FEF7A3FF03E0104603E0FEF7AEFF9F
:1025000000280DD061684A081018FDF711FE80B24E
:1025100001461039B14201D9012501E02168C860A6
:1025200000206066A066284670BD0000F369FFEFDA
:1025300000380140001002400044004000127A00C0
:10254000EFFF0000F8B504464165403000262746FD
:10255000028380373E602220E0672546206F603589
:1025600000281BD020498162216F2048C862216F5A
:102570001F480863206F13464663606D21688446D8
:1025800062462431206FFEF769FD002806D0102036
:1025900038602E752020E0670120F8BD2E75EFF31E
:1025A0001080012181F3108821680A68FF2301331C
:1025B0001A430A6080F31088EFF31080012181F341
:1025C0001088226893680B43936080F31088EFF3C0
:1025D000108081F3108821688A6840231A438A603A
:1025E00080F310880020F8BDE12200087523000860
:1025F00095220008FFB581B00546174604466035B0
:102600000A9E55E0701C53D0FEF72AFE0499401A2A
:10261000B04230D8002E2ED020680168490747D537
:10262000C069C043000543D401202168C00208628C
:10263000EFF31080012181F3108821680B68FF22DD
:10264000A13293430B6080F31088EFF310800121D7
:1026500081F3108821688A68520852008A6080F3EA
:1026600010882020A067E067803420600020287553
:10267000032005B0F0BDEFF31080012181F3108835
:1026800021680B68FF22A13293430B6080F310880E
:10269000EFF31080012181F3108821688A685208C5
:1026A00052008A6080F310882020A067E067DDE791
:1026B0002068C1690298884304D00020B842A1D0A4
:1026C0000020D6E70120F9E710B50248FFF7ECF942
:1026D00010BD0000F80200200FB410B503A9044B90
:1026E000044A029800F03CF910BC08BC04B018473A
:1026F000C9300008100000202021020C01D0102158
:102700001046020A01D010460839020901D01046CD
:10271000091F820801D01046891E420801D0881E78
:102720007047081A7047F8B5040C8BB2264682B27F
:102730005E430D0C1046370C5843360480190021B7
:10274000794116466E43370C360480197941264686
:102750006E438919F8BD00008307FF22DB0E9A4003
:102760008907090E9940002808DB830809489B0067
:102770001B18186890430843186070470007000F43
:102780000838830804489B001B18D8699043084305
:10279000D861704700E400E000ED00E000487047B9
:1027A0001C00002001480068704700001C00002049
:1027B00002E008C8121F08C1002AFAD1704770470A
:1027C000002001E001C1121F002AFBD17047000068
:1027D00001490860704700001C000020F0B51FB4DC
:1027E00086B00998089A030D0021024314D051487D
:1027F000514A1818504305141198012810981AD0FE
:10280000281A401C00264D4F4D4900960191049016
:10281000002812DA444211E01198012449A301284A
:1028200001D11098C1430698119A84600360C26078
:1028300041600BB0F0BD4042E4E7044621050020B2
:102840003F4A001C51410391029012E0E00707D07B
:1028500032463B4601990098FDF7E4FE0191009055
:1028600032463B4610461946FDF7DCFE06460F464B
:102870006410002CEAD10498039B0028029A09995D
:10288000089806DAFDF7CEFE019B009AFDF7CAFE16
:1028900005E0FDF72FFF019B009AFDF72BFF044693
:1028A0000E460022284BFDF7BDFF03D80020C04391
:1028B000014607E00022254B20463146FDF7FEFD8C
:1028C000FDF790FF102409E0002C0ADB0A22002308
:1028D000FDF744FC079B30321A55641E02460A433A
:1028E000F2D11122641C079B121B1C19119B012B96
:1028F00003D0012308430ED10AE0084304D011207D
:1029000010900020119077E71098151A6D1E0BE0BB
:102910001098824202DD00236D1C03E0824201DA3E
:1029200000236D1E002BEED0069811998260C160C5
:1029300030C07EE701FCFFFF104D00000000144096
:102940000000F03F300000000000F0430000E03FD6
:1029500030380A2801D2012070470020704700005B
:10296000FFB597B0064600251BE2252876D1002446
:102970002746F749049400E00443761C327801208E
:10298000203A90400842F7D130782A280ED002220F
:10299000307801463039092916D804990A23594359
:1029A000303940181443761C0490F1E7189802C897
:1029B00004911890002904DA01204003044348429E
:1029C000049002200443761C30782E2814D1042071
:1029D00004437078761C2A2809D11898761C80C880
:1029E000189009E00A214F43303FC719761C307810
:1029F000014630390929F5D930786C2810D006DC29
:102A00004C281AD068280ED06A2817D104E0742800
:102A100013D07A2812D110E00120400504430CE0C5
:102A20000121090501E0032109050C437178814268
:102A300003D1012000052418761C761C3078662806
:102A40000BD013DC58287DD009DC00287BD045282A
:102A5000F6D04628F4D047281AD1A9E118E0632817
:102A600035D0642870D0652812D1A1E170286CD0CF
:102A700008DC6728F1D069287DD06E280DD06F283A
:102A800006D1BCE073282ED0752873D0782859D091
:102A90001A9A199990476D1C82E16002400F022832
:102AA00009D003280DD00428189801680DD00D60B6
:102AB000001D189074E11898EA1701680D604A60CB
:102AC000F6E7189801680D80F2E70D70F0E71898A6
:102AD0006A4601781172001D18900020507202A8F9
:102AE0000090012005E0189802C81890002000917D
:102AF000C04361070ED5002101E00199491C0191F5
:102B0000B94213DA8142F8DB019A0099895C002905
:102B1000F3D10BE0002101E00199491C01918142B0
:102B2000FADB019A0099895C0029F5D10199049892
:102B30001A9B471A21463846199A00F099FA40190B
:102B4000019903E051E030E115E050E0451807E05D
:102B5000009800990078491C00911A9A1999904799
:102B60000198401E0190401CF2D1214638461A9B24
:102B7000199A12E137E00A200021009001916002C9
:102B8000410F022907D0189A01CA1892C217944619
:102B9000032908D00AE01898C01DC108C90005C95A
:102BA0001891944607E000B2C2179446042902D156
:102BB00040B2C1178C4600226146944506DA0A46A7
:102BC0000021404291418C462D2102E0210504D58F
:102BD0002B216A461173012103E0E10701D0202176
:102BE000F7E7029156E00A200AE0102008E01020E2
:102BF00000900021042004430191082703E00820ED
:102C00000021019100906002410F022907D0189A1B
:102C100001CA189200229446032908D008E01898A7
:102C2000C01DC108C90005C91891944603E080B2CF
:102C3000042900D1C0B20021029121072AD53178A0
:102C40000D91702906D0009A1021019B4A401A4329
:102C500005D00EE040216A461173012108E061466B
:102C6000014306D030216A4611730D995173022138
:102C70000291009A0821019B4A401A430AD16146F9
:102C8000014301D1610705D530216A461173012145
:102C90007F1E02913178582904D02EA10E910DA9E2
:102CA0000D910DE030A1F9E76146019B009AFDF717
:102CB00055FA0E9B8C469B5C0D9A521E0D9213701A
:102CC00061460143F0D10D9805A9081A2030019002
:102CD000600703D501200004844300E00127019828
:102CE000874201DD381A00E0002001990090411868
:102CF000029809180498401A0490E00306D421466B
:102D00001A9B199A049800F0B3F94519002706E0B8
:102D100003A81A9AC05D199990476D1C7F1C0298F0
:102D20008742F5DBE0030CD521461A9B199A0498DB
:102D300000F09EF9451904E01A9A3020199990473D
:102D40006D1C0099481E00900029F5DC1FE0000072
:102D50000928010030313233343536373839616271
:102D60006364656600000000303132333435363735
:102D70003839414243444546000000000D980D9902
:102D80000078491C0D911A9A199990476D1C019968
:102D9000481E01900029F1DC4DE100F059F9451978
:102DA000761C3078002800D0DFE528461BB0F0BD47
:102DB000600700D406271898C01DC108C9004868DC
:102DC0000A680831C30FDB071891190001D09CA1D4
:102DD00008E0210501D59BA104E0E10701D09AA1FB
:102DE00000E09AA14300109130785B0865280CD070
:102DF00006DC452809D046281DD0472841D141E0AE
:102E0000662818D067283CD13CE00021112F01DB57
:102E1000112000E0781C0191009008A911A8FFF78B
:102E2000DDFC139905910021119A15927F1C1298CF
:102E30000197009150E00120C0070390012001900C
:102E400008A9009711A8FFF7C9FC139A14990592D5
:102E50000022119B009212981593059A0192002965
:102E600001D0104602E0791C40180190381A01D5B3
:102E7000019804E04042401E0090781C0190C01B65
:102E8000029043E0012F00DA01270021112F01DD1C
:102E9000112000E038460191009008A911A8FFF721
:102EA0009DFC13990591119A002112981592009199
:102EB000019721070CD40599B94201DB019900E083
:102EC0000191012904DD159A491E515C302906D073
:102ED000B84201DA011D05DA0121029115E00199DC
:102EE000491EEDE7002805DC009941180091019981
:102EF000091A03E0019A411C914200DD01910099F9
:102F0000401A401C02900120C0070390200706D4FD
:102F100002990198814202DB0020C0430290002008
:102F20006946C87707AF012103980337C90788426C
:102F300024D0022011902B201290039800280CDA44
:102F4000404203902D20129007E00A210398FDF7DC
:102F5000EFF830317F1E039039701199481E11909F
:102F60000029F2DC03980028EFD1791E129808702E
:102F70003078202108404530BF1E387006A8C01B9D
:102F8000C01D039010980078002800D001200199FE
:102F900041180298C0170918039809180498401A94
:102FA000401E0490E00306D421461A9B199A049807
:102FB00000F05EF8451910980078002803D01A9A9E
:102FC000199990476D1CE00324D521461A9B199A44
:102FD000049800F04DF845191CE00098002807DB24
:102FE00000990598884203DD1598405C199901E025
:102FF000199930201A9A904700986D1C401C009037
:103000000298401E0290002804D11A9A2E20199985
:1030100090476D1C0199481E01900029DDDC05E0F8
:1030200038781A9A7F1C199990476D1C0399481E8D
:1030300003900029F4DC21461A9B199A0498ACE607
:103040002D0000002B000000200000000000000008
:10305000F8B5044600251E461746880404D405E04A
:1030600039462020B0476D1C641EF9D52846F8BDAE
:10307000FFB50446002581B01E46C80301D53027A0
:1030800000E02027880404D505E038460399B047BE
:103090006D1C641EF9D5284605B0F0BD30B583B06F
:1030A0000446FFF77FFB0546002000900246019092
:1030B00021466846FDF751F92846FFF789FB01993B
:1030C000009803B030BD000013B5044B01226946DF
:1030D0000348FEF7C5FE00981CBD0000FFFF00007E
:1030E000F802002010B5002823D0124B0022001F48
:1030F000196803E0814203D80A4649680029F9D1DA
:10310000002A0AD01368841A9C4204D10068181857
:103110001060104602E0506000E01860002907D0FF
:1031200002680B1A934203D10B68D21802604968F7
:10313000416010BD1400002010B54368044693425E
:1031400001D3002010BD180140185B1C0021C943A9
:103150006360816041600021C16010BD01708360C7
:1031600000214260C1607047002101604160491E3A
:1031700081607047FFB5044683B040681D4616461F
:10318000019091E02C2F73D00CDC0D2F04D004DCC7
:10319000092F01D00A2F11D183E0202F69D0222FCF
:1031A0000CD167E05D2F35D004DC3A2F29D05B2F9E
:1031B00004D10CE07B2F0AD07D2F2BD00C980090EF
:1031C0002B4632462046049900F0A8F85AE00198B0
:1031D000401C0190002D64D0294620460C9AFFF730
:1031E000ABFF002810D0A1684A1C04D0090149197E
:1031F000CA68521CCA607B2F0AD002210170216864
:1032000041606068401E78E00020C04307B0F0BD18
:103210000121F3E7002D44D07D2F02D00223606806
:1032200009E00123FBE7010149194F687F1C02D027
:103230008F687F1C04D0401EF5D5411C09D00BE0DF
:103240000F789F4205D10023DB43521CA3608A60A4
:10325000F3E70120C043D9E7002822DB0101491927
:103260004A68521C02D08968491C46D0401EF3E7C8
:1032700026E016E00C9800902B4632462046049932
:1032800000F08AF80028C1DB0198401C0190A0687A
:10329000411C06D0002D04D000014019C168491C12
:1032A000C1602068401C20602268B24204D20498A9
:1032B000875C002F00D065E7002D2AD0606826E0EB
:1032C000002DEED0A068411CEBD00001285C022844
:1032D000E7D00128E5D060680CE001016A5C022AB1
:1032E00001D0012A06D149194A68521C02D08968C6
:1032F000491C02D0401EF0D5D3E7A060D1E7010100
:1033000049194A68521C02D08968491C03D0401EE2
:10331000F5D501987AE70220C04377E7F8B505684C
:1033200004461646069F28461AE02C2A1DD008DCC3
:10333000092A1AD00A2A18D00D2A16D0202A06D116
:1033400013E03A2A11D05D2A0FD07D2A0DD0203A01
:103350005F2A03D30120C0432560F8BD401C2060D4
:10336000B04202D20A5C002ADFD1002B0BD03A46D1
:1033700019462046FFF7E0FE002809D02A4608211A
:103380002368FFF7EBFE2068401E20600020F8BD98
:103390000020C0432560F8BDF8B5056804469C468A
:1033A000681C2060904257D20B5C002B54D0222B1B
:1033B00002D05C2B15D048E0604600280CD00146B6
:1033C0002046069AFFF7B8FE002806D06A1C0421A2
:1033D0002368FFF7C3FE0020F8BD0020C04325602E
:1033E000F8BD401C904230D220600B5C662B2CD084
:1033F00008DC222B29D02F2B27D05C2B25D0622B49
:1034000026D122E06E2B20D0722B1ED0742B1CD024
:10341000752B1DD1401C002720600EE00346303B79
:103420000A2B05D3113B062B02D3613806280FD295
:10343000761C7F1C2660042F05DA2668964202D28D
:10344000885D0028EAD1701E20602068401CA8E733
:103450000120C0432560F8BD0220C0432560F8BDAF
:10346000F3B50C0187B00D46204600F023FA029018
:1034700004A8FFF779FE0798FCF7E2FE02460094E5
:1034800004A8029B0799FFF775FE07468CA00799D1
:10349000FFF722F90798FCF7D3FE01468DA0FFF74E
:1034A0001BF923462A46102191A0FFF715F90025A4
:1034B000B1E028010299039044186268A0682B4685
:1034C000811A401E01910090194694A0FFF704F95B
:1034D000A2686168521E079800F022FA01469EA079
:1034E000FFF7FAF8A2686168521E079800F018FA10
:1034F00001469BA0FFF7F0F806220221079800F092
:103500000FFA0646014696A0FFF7E6F8002E02D015
:103510003046FFF7E7FD214693A2079800F07EF9B9
:10352000002828D0214692A2079800F077F90028B9
:1035300045D0214690A2079800F070F9002851D09C
:103540008FA22146079800F069F900285FD0214634
:103550008EA2079800F062F900287DD021468CA247
:10356000079800F05BF9002877D002990398085C6F
:10357000082873D04EE0207C04284BD1A2696169F1
:10358000521E079800F0CCF9044684A0FFF7A4F877
:1035900084A12046FCF75BFE00280BD083A12046C7
:1035A000FCF755FE002805D082A12046FCF74FFE0F
:1035B000002802D1214681A07FE06D1C2AE0207CFA
:1035C000082827D1A2696169521E079800F0A8F95E
:1035D000FFF764FDFCF779FEFCF763FE02460B463D
:1035E00077A011E0207C082814D1A2696169521EDD
:1035F000079800F095F9FFF751FDFCF766FEFCF720
:1036000050FE02460B4671A0FFF766F8D5E7207C16
:10361000012805D06D1CBD4200DA4AE709B0F0BDB3
:103620006DA0FFF759F800262DE070004019010148
:1036300002980818019020300178042922D182686C
:103640004168521E079800F06BF9FCF71DFE80B22E
:1036500000900198826B02E01FE020E023E0416BC4
:10366000521E079800F05CF9FCF70EFE82B25DA0D6
:103670000099FFF731F8E169701C814202DD5BA01F
:10368000FFF72AF8761CE069B042CEDC58A0FFF7BD
:1036900023F8E069400045198FE756A000E057A0E5
:1036A000FFF71AF889E7A2686168521E079800F0D0
:1036B00037F9FCF7E9FD01B254A0FFF70DF87CE7FC
:1036C0000A4A534F4E5F535452494E473D2025738B
:1036D0000A0000007374726C656E284A534F4E5F87
:1036E000535452494E47293D2025640A00000000EA
:1036F0000A73697A656F66286A736D6E746F6B5FA3
:1037000074292A746F6B656E5F73697A653D202535
:10371000642A2564203D2025640A0A000A746F6B20
:10372000656E5B25645D2E73746172743D20256443
:103730002C20746F6B656E5B25645D2E656E642D49
:10374000313D2025642C20656E642D737461727484
:103750003D2025640A00000025730D0A0A000000C0
:1037600025730D0A000000006D6F64650000000005
:103770006D6F7665000000007475726E00000000C9
:1037800072635F736572766F0000000061646300AE
:1037900072635F7265717565737400006D6F646547
:1037A0003A2000006E657374000000006772616269
:1037B00000000000636F6C6C6563740025730A0081
:1037C0006D6F76653A2025660A0000007475726E8A
:1037D0003A2025660A00000072635F736572766F97
:1037E0003A207B0025643A25640000002C2000006C
:1037F0007D0A00006164632E2E0A000072635F720E
:103800006571756573742E2E0A00000073746570FF
:103810005F76616C75653D2025640A0070B50546CC
:1038200008780C46164604280ED11046FCF708FD11
:103830000146A2686068121A914205D140193146CA
:10384000FCF713FD002801D00020C04370BD00002C
:10385000FDF714FDFEF70DFCFEF782FBFEF76CFB97
:10386000FEF792FBFEF7AAFBFEF7C4FBFEF7DEFBBA
:10387000FF22013206490748FEF7A0F80648006813
:10388000016804229143016004A0FEF725FFFEE7D2
:10389000F8000020F80200207C030020555341521C
:1038A0005420444D41205072696E746620746573D3
:1038B000740D0A00F0B50B30C108C900144F002682
:1038C000144A0FE003688B420BD38B4205D95C1A74
:1038D0004318456830C3083B00E04368136002C0EA
:1038E00004E0021D10680028ECD13046002803D106
:1038F0003868002801D00020F0BD064A0648106054
:10390000064A121AD208D20044C001203860D7E714
:103910001800002014000020C4030020C00500206F
:10392000F8B50E46941B0746A41C2046FFF7C2FFBD
:103930000546B919621EFCF776FC002128192038CB
:10394000C1772846F8BD0000000000000000010219
:1039500003040607080900000000010203040040F8
:103960004040404040404040414141414140404052
:103970004040404040404040404040404040400582
:1039800002020202020202020202020202020220F9
:1039900020202020202020202002020202020202F9
:1039A0009090909090901010101010101010101017
:1039B000101010101010101010100202020202025B
:1039C0008888888888880808080808080808080877
:1039D000080808080808080808080202020240004F
:1039E0005F390008043A00080000002020000000B1
:1039F000B0270008243A000820000020A009000099
:103A0000C0270008010000000400000000000000C2
:103A100000127A000000000000000000000000001A
:043A200000000000A2
:04000005080000C12E
:00000001FF
