:020000040800F2
:1000000058110020810100081D210008F51F00087B
:1000100000000000000000000000000000000000E0
:10002000000000000000000000000000A7240008FD
:100030000000000000000000A5240008A92400081A
:10004000B1010008B1010008B1010008B1010008C8
:10005000B1010008B1010008B1010008B1010008B8
:10006000B1010008B1010008B1010008B1010008A8
:10007000B1010008B1010008B10100082D250008F8
:10008000B10100080000000000000000B1010008FC
:1000900000000000B1010008B1010008B101000832
:1000A00000000000B1010008B1010008B101000822
:1000B000B101000800000000B10100087D3E000809
:1000C00000F002F800F030F80CA030C8083824180E
:1000D0002D18A246671EAB4654465D46AC4201D180
:1000E00000F022F87E460F3E0FCCB6460126334282
:1000F00000D0FB1AA246AB46334318471C3F000012
:100100003C3F00000023002400250026103A01D3C4
:1001100078C1FBD8520700D330C100D50B607047BF
:100120001FB51FBD10B510BD00F084FA1146FFF7D2
:10013000F7FF03F025FF00F09CFA03B4FFF7F2FF8E
:1001400003BC00F0A3FA000070B505460C46164645
:1001500002E00FCC0FC5103E102EFAD2082E02D3AB
:1001600003CC03C5083E042E07D301CC01C5361FBE
:1001700003E021782970641C6D1C761EF9D270BDD5
:100180000F4880F308880F480168090E0E4A914213
:1001900005D10E480E4901600E480F4901600F4815
:1001A00080470F480047FEE7FEE7FEE7FEE7FEE771
:1001B000FEE700000B480C490C4A0D4B704700004D
:1001C00058110020040000001F0000001810024019
:1001D0000100000000000140000000002B25000885
:1001E000C1000008480D002058110020580D0020C3
:1001F000580D0020FEB5054610460C46184373D036
:10020000AE468C460020AD1A01469C4167D3664637
:10021000002701243D46B61A9D4102D313463A46B3
:100220002124654676462F04360C3E432D0CB61A23
:100230009D4104D3150C1B042B4312041034654656
:1002400076462F06360A3E432D0AB61A9D4104D340
:10025000150E1B022B4312020834654676462F0703
:1002600036093E432D09B61A9D4104D3150F1B01D3
:100270002B431201241D65467646AF07B6083E4360
:10028000AD08B61A9D4104D3950F9B002B439200F5
:10029000A41C65467646EF0776083E436D08B61AFD
:1002A0009D411AD392185B41641C16E000187646F3
:1002B00065464941B71A9D410191009009D36046B6
:1002C000B11A98418E468446009801990025401C39
:1002D0006941DD0752082A435B08641EE6D5724671
:1002E000634603B0F0BDFFE700200146C046C046AC
:1002F0002A462346F5E70000034670B502460B4345
:100300009B070FD10E4CE60100E008C208C91D1B77
:100310009D433542F9D0D9B21170521C00290DD03D
:100320001B0AF8E70B78491C1370521C002B05D0F0
:100330000B78491C1370521C002BF3D170BD0000C8
:100340000101010130B5441C03E00178401C002983
:100350000DD08107F9D10B4BDD0104C8D11A9143AF
:100360002940FAD0001B0A0603D0C01E30BD001B76
:1003700030BD0A0401D0801E30BD0902FCD0401EF1
:1003800030BD000001010101F8B5042A2CD3830718
:1003900012D00B78491C0370401C521E83070BD0EF
:1003A0000B78491C0370401C521E830704D00B7845
:1003B000491C0370401C521E8B079B0F05D0C91AA5
:1003C000DF002023DE1B08C90AE0FFF7BDFEF8BDF1
:1003D0001D4608C9FD401C46B4402C4310C0121FE6
:1003E000042AF5D2F308C91A521EF0D40B78491C1E
:1003F0000370401C521EEAD40B78491C0370401C49
:10040000012AE4D409780170F8BD01E004C0091F95
:100410000429FBD28B0701D50280801CC90700D0BC
:100420000270704700290BD0C30702D00270401C35
:10043000491E022904D3830702D50280801C891E2D
:10044000E3E70022EEE70022DFE70000024670B596
:100450000A4392072AD11E4DEE0104C808C9541B55
:100460009443344017D0D0B2D9B2401A2106014388
:1004700010D190B299B2401A210401430AD110025E
:100480001902000A090A401A2102014302D1100E82
:10049000190E401A70BD9A42DFD010BA19BA8842BC
:1004A00001D9012070BD0020C04370BD02780B78D7
:1004B000401C491C002A09D09A4207D102780B78C7
:1004C000401C491C002A01D09A42EFD0D01A70BDBE
:1004D00001010101002203098B422CD3030A8B4244
:1004E00011D300239C464EE003460B433CD400222C
:1004F00043088B4231D303098B421CD3030A8B423E
:1005000001D394463FE0C3098B4201D3CB01C01A0B
:10051000524183098B4201D38B01C01A52414309D6
:100520008B4201D34B01C01A524103098B4201D3C4
:100530000B01C01A5241C3088B4201D3CB00C01A31
:10054000524183088B4201D38B00C01A52414308A9
:100550008B4201D34B00C01A5241411A00D20146CE
:100560005241104670475DE0CA0F00D04942031067
:1005700000D34042534000229C4603098B422DD3B6
:10058000030A8B4212D3FC22890112BA030A8B425E
:100590000CD3890192118B4208D3890192118B42AD
:1005A00004D389013AD0921100E08909C3098B4232
:1005B00001D3CB01C01A524183098B4201D38B0175
:1005C000C01A524143098B4201D34B01C01A524118
:1005D00003098B4201D30B01C01A5241C3088B425D
:1005E00001D3CB00C01A524183088B4201D38B0048
:1005F000C01A5241D9D243088B4201D34B00C01AD2
:100600005241411A00D20146634652415B101046E6
:1006100001D34042002B00D54942704763465B102E
:1006200000D3404201B50020C046C04602BD70471D
:1006300070477047754600F025F8AE4605006946DC
:100640005346C008C000854618B020B5FFF7B2FD7C
:1006500060BC00274908B6460026C0C5C0C5C0C555
:10066000C0C5C0C5C0C5C0C5C0C5403D49008D4658
:10067000704710B50446C046C0462046FFF75DFDF2
:1006800010BD000000487047E80C00200149182008
:10069000ABBEFEE726000200704770B58C180578E7
:1006A000401C6B075B0F01D10378401C2A1106D157
:1006B0000278401C03E00678401C0E70491C5B1E4B
:1006C000F9D12B0705D40023521E0DD40B70491C01
:1006D000FAE70378401CCB1A921C03E01D780D70DA
:1006E000491C5B1C521EF9D5A142D8D3002070BD15
:1006F000002070470020704710B5002205490648C9
:1007000002F096F903490448803902F087F9002085
:1007100010BD0000540700201002002070B50C46E8
:10072000054601460A4802F079F9094802F04FF9F6
:10073000247840210748FFF784FE224629460548D1
:10074000FFF722FE21462846FFF77BFE002070BD02
:1007500010020020D00100200A4610B50849896B1C
:10076000FF31FF3102314969002901D0012010BD5C
:100770000146044802F05CF9024802F0B8F910BDE5
:10078000900400201002002072B6FEE770B5044607
:1007900000F0DAF80546601C02D0044800782418FE
:1007A00000F0D2F8401BA042FAD370BD0400002034
:1007B000F8B5002303240125B5E02E469E40B4463B
:1007C00032407CD00E79B607B60F012E01D0022E32
:1007D00017D186682746B6465E00B7400096764633
:1007E000BE43B646CF68009EB74076463743876023
:1007F00046686746BE430F79FF06FF0F9F403743A9
:1008000047600E79F643B6070ED0C6682746B44651
:100810005E00B646B7406646BE43B4468F6876462D
:10082000B74066463743C7600E79B607B60F022E4B
:1008300014D1DE08B60036180096366A5F07B44653
:10084000FE0E0F27B646B7406646BE43B4460F6954
:100850007646B74066463743009E376206682746AD
:10086000B4465E00B646B7406646BE430F79B4460E
:10087000BF07BF0F7646B7406646374307604E68EE
:10088000B603B60F4ED02B4FBE692E43BE61BE6974
:100890009F08F607F60F284EBF00BE190096B668EF
:1008A0000F27B4469E07360FB646B7406646BE438E
:1008B0000927FF06B446B84202D100270BE031E019
:1008C0001E4FB84201D1012705E01D4FB84201D1AA
:1008D000022700E005277646B74066463743009E6C
:1008E000B760184E36684F689643FF0300D516432D
:1008F000144F3E607E684F689643BF0300D5164391
:10090000104F7E60BE684F689643FF0200D51643C5
:100910000C4FBE60FE684F689643BF0200D5164379
:10092000084AD6605B1C0A681646DE4000D044E7E1
:10093000F8BD000000100240000001400004004823
:10094000000800480004014001488068704700002A
:10095000040000200248816802788918816070478D
:100960000400002010B50648016810221143016000
:10097000002000F007F800F027F8002010BD00006C
:100980000020024070B504460D4D7D202978C0003E
:10099000FFF7A0FD01460B480068FFF79BFD01F043
:1009A0007DF8002809D1042C07D200222146401EE0
:1009B00000F02AF800206C6070BD012070BD0000BE
:1009C000040000201000002008B5084881690122B9
:1009D00011438161816911400091C26901040A4398
:1009E000C261C0690840009008BD000000100240CC
:1009F000002805DBC106C90E0120884001490860B6
:100A00007047000000E100E010B503F097FA10BD58
:100A100010B50523DB01C3180168012217249A666B
:100A200064010023001903704031888A10438882D2
:100A3000888A022210438882184610BD704710B57C
:100A40000C0606D54907490F2824614308182830A9
:100A500004E0282461430818FF30693099B2002A65
:100A600006D0012202730181190C4181002010BDC2
:100A700000220273C180F9E728224A4310B51218F8
:100A80000523DB01C018D26B006F02F0E9F910BD3D
:100A900028224A43121810B50523FF32DB01013228
:100AA000C018D26F006F02F03EFA10BD70B5CD09CC
:100AB0004907490F0A4628235943091801230024EE
:100AC000002D02D028314B7002E0FF3169314C70AB
:100AD0000A701522520185182A7A012A06D02B7233
:100AE000006802F07FFE2C72002070BD022070BDF5
:100AF00070B50A074368120F9A4201D9012070BDF0
:100B0000CD094907490F0A462823594309180123EB
:100B10000024002D02D028314B7002E0FF316931F2
:100B20004C708C700A701522520185182A7A012A9D
:100B300006D02B72006802F0E9FE2C72002070BD16
:100B4000022070BDF8B503680D781C46AC46EE0077
:100B5000403357048D691B8A002F29DA1B192D4C4D
:100B600034191B5B9C05A40DA54203D32B1B8B6181
:100B700002D00DE000238B61634605689E00AB5BED
:100B8000254F3B4001277F037B40244F3B43AB5322
:100B9000520609D50A78036895005A5B204E324008
:100BA0001E4E403632435A53002C30D00A8929E079
:100BB0001B19184C241D34191B5B9C05A40DA54260
:100BC00003D32B1B8B6102D00DE000238B616346A6
:100BD00005689E00AB5B104F3B4001277F037B40C5
:100BE0000E4F3B43AB53520609D40A780568930075
:100BF000EA5A0B4E3240094E40363243EA52002C3C
:100C000005D04A8949690068234603F042F9204625
:100C1000F8BD0000020400008FBF000080800000CB
:100C20008F8F0000FEB50C460768019705462078B7
:100C30000090C300A06916465106844622464037FC
:100C4000002020323F8A0029019974DA7F18C049B8
:100C50005918795A8905890D8C4514D967467F1A28
:100C6000A76111D073040AD5009B2F689E00BB5B5F
:100C7000BC46B84F3B40B84F3B436746BB53137924
:100C8000012B4BD054E1A0616178002902D00129E9
:100C900011D018E029685022525A51185A18AC49FC
:100CA00051180A88AD4B1A400A800A880123DB03D9
:100CB0001A430A8007E029685022525A51185A18DC
:100CC000A3495118088062782968002A02D0012AB5
:100CD00013D01CE05020405A40182178C900091850
:100CE0009B48001D081801889C4A1140018001881A
:100CF0000122D2031143018009E05022525A5118B7
:100D00002278D20052189249091D51180880217882
:100D10002846FFF7B1FE70047ED409E163695B18D1
:100D20006361E3695B18E3612669236AB34203D315
:100D30003146581A04E03AE0002B107101D01946F0
:100D400020626078002802D0012823D02CE0286897
:100D50005022125A10182278D20012187C4810180B
:100D6000002908D03E290CD84A08CB0700D0521CD5
:100D70009202028018E00288784B1A4002800288B2
:100D800004E04A09CB0600D1521E92020123DB0384
:100D90001A43EEE728685022125A10182278D2001F
:100DA00012186B48101801808BB22289BCE07F18A2
:100DB0006749091D5918795A8905890D8C4514D33D
:100DC00067467F1AA76111D073040AD4009B2F686D
:100DD0009E00BB5BBC465F4F3B405F4F3B4367465B
:100DE000BB531379012B56D0A2E0A0616178002992
:100DF00002D0012913D01AE029685022525A511802
:100E00005A18534951180A88544B1A400A800A88C4
:100E10000123DB031A4300E033E00A8007E029687E
:100E20005022525A51185A1849495118088062786C
:100E30002968002A02D0012A13D01CE05020405A11
:100E400040182178C90009184148001D0818018878
:100E5000424A1140018002880121C9030A430280ED
:100E600009E05022525A51182278D20052183849BB
:100E7000091D5118088021782846FFF7FDFD7004F0
:100E800056D420782A688100505A324B1840324B91
:100E9000184350524CE063695B186361E3695B1867
:100EA000E3612669236AB34203D33146581A2062AC
:100EB00004E0002B01D01946206210716278286886
:100EC000002A02D0012A23D02CE05022125A1018F6
:100ED0002278D20012181E48001D1018002908D0D0
:100EE0003E290CD84A08CB0700D0521C920202803F
:100EF00018E00288194B1A400280028804E04A096F
:100F0000CB0600D1521E92020123DB031A43EEE707
:100F10005022125A10182278D20012180C48001DC4
:100F20001018018062898BB26169286802F0CDFFD8
:100F3000207829688200885A064B303318401023E5
:100F4000584020235840064B184388520020FEBDCD
:100F5000020400008F8F000080C00000FF830000AB
:100F6000808000004907490F282251430818FF30AC
:100F7000813040687047F8B5CD094907490F0F46E1
:100F800028246143091801260024002D02D02831AD
:100F90004E7002E0FF3169314C700F700A61CB7006
:100FA0004A78002A00D0CF81022B00D10C71152283
:100FB000520185182A7A012A06D02E72006802F0A2
:100FC000E7FA20462C72F8BD0220F8BD70B54D0737
:100FD0000C466D0F282169430918FF3169318B6177
:100FE0004A610022CA614A700D706207006802F00F
:100FF000E7FC002070BD70B54B0742685B0F934261
:1010000001D9012070BDCD0900240122002D05D099
:1010100028215943091828314A7005E028256943D9
:101020000918FF3169314C708A700B7015235B0110
:10103000C5182B7A012B06D02A72006802F0A4FC96
:101040002C72002070BD022070BD70B54D070C469B
:101050006D0F2821694309180B64CA6301224C26CD
:1010600072548B6400234B6428314A700D70620700
:10107000006802F0A5FC002070BD0000F8B5044631
:10108000006802F003FF000402D5204601F048F892
:10109000206802F0FBFE40050CD5206840308188B6
:1010A000524A11408180204600F022F9002120465A
:1010B00000F050F9206802F0E9FE400405D52068F0
:1010C000403081884A4A11408180206802F0DEFE6B
:1010D000800405D5206840308188464A11408180CF
:1010E000206802F0D3FEC10417204001042608271F
:1010F000251800291BDA206840300188B14301809F
:10110000206840300188B94301802878012805D142
:101110000020287001462046FFF790FC204600F092
:10112000FBF8206840308188334A11408180206874
:1011300002F0ACFE000512D520684030018839432A
:1011400001802068403081882C4A114081802068CD
:101150004030018831430180204600F02FF920689B
:1011600002F094FE00060BD5206840308188802272
:1011700091438180287800281CD0204600F01EF979
:10118000206802F083FE800508D520684030818801
:101190001B4A11408180204600F0D4F8206802F0FC
:1011A00075FEC00505D5206840308188154A11407C
:1011B0008180F8BD2068403001883143018020687B
:1011C0004030018839430180012028702068403078
:1011D000808A3C21800808400521C90161184866C1
:1011E00001212046FFF72AFCCAE70000FFFB0000B0
:1011F000FFBF0000FFDF0000FFEF0000FFF700006F
:10120000FFFD0000FFFE0000F0B585B0040007D030
:10121000152040012618707A0025002803D006E02A
:10122000012005B0F0BD3572204600F045F80320DE
:101230007072206802F060FB002001270DE0282179
:10124000414309190A46203257721072C886D57276
:101250008D63CD63401CC0B20D6461688142EED8DD
:10126000002210E02820504300190146FF3161316F
:101270004D720A72CD726039FF3081308D67CD6753
:10128000521CD2B2056060689042EBD8214614220D
:1012900010316846FEF758FF0FCC103C02F022FBDD
:1012A000242005557772E069012802D12046FFF716
:1012B000AFFB0020B5E7000008B500680A49884286
:1012C00010D10A48C2690121C9050A43C261C06937
:1012D00000220840009011461F20FFF795FB1F20B9
:1012E000FFF786FB08BD0000005C004000100240D4
:1012F00070B5044680680125022801D0FFF744FA42
:101300000520C00124182946206F01F0FEFE206F41
:1013100001F0BCFE70BD000010B5044680690028D5
:1013200006D00748016906229143016101F0C0F827
:101330000520C0012018006F01F0CFFE10BD000095
:1013400000ED00E0052110B5C9014018006F01F063
:10135000CEFE10BD10B5152252018418227A012A42
:1013600009D00122227224221154006802F0A6FD45
:101370000020207210BD022010BD052110B5C9014A
:1013800041180A6F2B2109014118104601F0CAFECD
:1013900010BD70B50446152040012518287A012893
:1013A0000AD001202872206802F05EFD206802F059
:1013B00091FA0020287270BD022070BD10B504465D
:1013C0000520C0012018006F01F0F0FEA069002880
:1013D00004D00348016906221143016110BD0000D9
:1013E00000ED00E0F8B5044600683E4DC00352D55C
:1013F000E8690026C00007D4E96928040143E961CF
:10140000E96901400126009137480168C90510D4F7
:101410000168821511430160FFF796FA074604E060
:10142000FFF792FAC01B642824D82F480068C00533
:10143000F6D5286A03273F02384020D0616839403A
:1014400081421CD0286A2A6AB843012109040A4350
:101450002A622A6A8A432A622862C0070FD0FFF7ED
:1014600073FA009008E0FFF76FFA0099411A1F48DD
:10147000814201D90320F8BD286A8007F3D5286A84
:101480006168B84308432862002E04D0E96901204E
:1014900000078143E9612078C00705D0286BA16867
:1014A00080088000084328632078800605D5286BD3
:1014B00010218843E168084328632068800305D52C
:1014C000286B802188436169084328632088400590
:1014D00005D5286B402188432169084328630020F3
:1014E000F8BD0000001002400070004088130000AA
:1014F000F8B50F4606005FD03D4D2868C007C00F05
:10150000B84209D22868400840003843286028685B
:10151000C007C00FB8424FD13068364C81070CD598
:10152000400704D5606807210902084360606068CD
:10153000F0218843B168084360603078C0072CD040
:101540007068012810D0022811D0032812D0216819
:101550008907002930DA61688908890001436160E0
:10156000FFF7F2F9009011E021688903F1E72168A3
:101570008901EEE7616BC903EBE7FFF7E5F9009935
:10158000411A1D48814201D90320F8BD60680C2131
:101590000840716889008842EFD12868C007C00FF1
:1015A000B8420BD9286840084000384328602868B2
:1015B000C007C00FB84201D00120F8BD3078400705
:1015C00006D56068072109028843F1680843606016
:1015D00000F018F86168094A0906090F515CC84013
:1015E000074908600020FFF7CDF90020F8BD000092
:1015F000002002400010024088130000F83F00085D
:101600001000002030B519A30FCB89B06C460FC471
:101610001AA30FCB0FC41D4A51680C200B46034080
:101620001B48042B05D01B4D082B04D00C2B00D1DC
:10163000284609B030BD8B021B0F6C46E45CD26AB1
:1016400004AB1207120FC9039A5C890F022901D05B
:10165000032901D0002301E0002328460021FEF7E2
:10166000C9FD214602F044FCE3E700000203040543
:10167000060708090A0B0C0D0E0F101001020304D7
:1016800005060708090A0B0C0D0E0F10001002408A
:1016900000127A00006CDC02FEB5040070D02078E5
:1016A000F94EFA4DC00748D068680007800F01283E
:1016B0001FD068680007800F022804D16868C00343
:1016C000800F022815D06168012919D001208004FB
:1016D000002901D0052917D02968B143296029685C
:1016E00081432960606800281BD0FFF72DF9074669
:1016F00013E02868800320D560680028CED01CE065
:10170000286830432860EDE7296801432960F7E73E
:10171000FFF71AF9C01B642870D828688003F7D532
:101720000BE0FFF711F9074604E0FFF70DF9C01BC6
:101730006428F1D828688003F7D4207880073FD543
:1017400068680007800F14D068680007800F0228BF
:1017500004D16868C003800F01280AD0E06800281F
:1017600028681ED0012108432860FFF7EDF80746DE
:101770000CE0286880070CD5E068012800D108E05B
:1017800080E1FFF7E1F8C01B0228C5D82868800770
:10179000F7D52868F82188432169C90008432860E3
:1017A0000EE0400840002860FFF7CEF8074604E04E
:1017B000FFF7CAF8C01B0228AED828688007F7D404
:1017C0002078000723D5E0690028686A0FD001213E
:1017D00008436862FFF7B8F8074604E0FFF7B4F87B
:1017E000C01B022898D8686A8007F7D50FE0400828
:1017F00040006862FFF7A8F8074605E0C3E0FFF77E
:10180000A3F8C01B022887D8686A8007F7D420781D
:1018100004274007002861DA00200190E869C00031
:1018200008D4E969B8060143E961E969014001208A
:101830000091019096480168C90511D4016882158C
:1018400011430160FFF780F8009005E0FFF77CF896
:101850000099401A642898D88D480068C005F5D5CD
:10186000A06801280AD0002801D0052811D0286AD4
:10187000400840002862286AB84302E0286A012133
:1018800008432862A068002812D0FFF75DF8009096
:101890000AE0286A38432862F0E7FFF755F8009914
:1018A000411A7C4881426ED8286A8007F5D50DE040
:1018B000FFF74AF8009006E0FFF746F80099411A52
:1018C000744881425FD8286A8007F5D401980028BF
:1018D00004D0E969012000078143E9612078C0064E
:1018E00035D5606901280CD0401D686B24D0384381
:1018F0006863686B400840006863FFF725F8074697
:1019000022E0686B38436863686B012108436863B1
:10191000FFF71AF8074604E0FFF716F8C01B022885
:1019200031D8686B8007F7D5686BF8218843A169C7
:10193000C900084368630AE0B8436863F4E7FFF747
:1019400003F8C01B02281ED8686B8007F7D42078E4
:10195000800637D568680007800F032814D06868B0
:101960000007800F022804D16868C003800F032895
:101970000AD0206A0028686B16D030436863FEF7EF
:10198000E3FF06460CE062E0686BC0031AD5206AEC
:10199000012877D116E0FEF7D7FF801B022856D822
:1019A000686BC003F7D50DE0B0436863FEF7CCFF6A
:1019B000064604E0FEF7C8FF801B022847D8686B84
:1019C000C003F7D4606A002866D069680907890FE8
:1019D000022942D0012636060228286805D0B043E5
:1019E0002860FEF7B1FF044633E0B0432860FEF7FD
:1019F000ABFF074604E0FEF7A7FFC01B022826D86E
:101A000028688001F7D4E86A216B000900010843C7
:101A1000E862A16AE06A084369687B22D2039143C5
:101A200008436860286830432860FEF78DFF04464D
:101A300004E0FEF789FF001B022808D8286880010F
:101A4000F7D529E0FEF780FF001B022801D903200B
:101A5000FEBD28688001F5D41EE00128F8D0686832
:101A6000E96A0322D203A36A02409A420AD1090713
:101A7000226B090F914205D10F2189040840E16AC8
:101A8000884209D00120FEBD000001000010024084
:101A900000700040881300000020F4E7094910B5E9
:101AA000401E884201D9012010BD074C606103210E
:101AB000081F02F043FA0020A061072020610020E7
:101AC00010BD0000FFFFFF0000E000E0704770471E
:101AD000F0B502462032137F012B1ED00125157769
:101AE0000223537706687468B3687027BC430F6895
:101AF0002743776000680A4CA04205D0AC07A0429B
:101B000002D0084CA04204D180244968A343194361
:101B10008160557700201077F0BD0220F0BD0000F5
:101B2000002C01400004004070B5040005D025469B
:101B30002035687F002802D006E0012070BD00201B
:101B40002877204600F014F802206877211D2068CD
:101B500000F0F4FC01204034A071A877E8772070F1
:101B60006070A070E070207160716877002070BDB7
:101B700008B500680121890788420FD10848C1696A
:101B800001221143C161C06910400022009011463A
:101B90000F20FEF739FF0F20FEF72AFF08BD0000D7
:101BA00000100240F8B5054604462035287F00267F
:101BB000012817D0012028770220687722689068D2
:101BC0007727FF23B8431B0298439060086850288A
:101BD00038D00EDC20284FD006DC00284CD010284E
:101BE0001ED149E00220F8BD302845D0402817D149
:101BF0003AE060282ED0702819D001221203801AF2
:101C00000FD090420CD1CB684A688968206800F0F8
:101C1000E4FC20688168012292031143816000E0A6
:101C2000012601206877002028773046F8BDCB6870
:101C30004A688968206800F0D0FC216888683843C9
:101C40008860EEE7CA684968206800F0BBFD502153
:101C5000206806E0CA684968206800F0C4FD602179
:101C6000206800F0C5FCDCE7CA684968206800F01D
:101C7000A9FD40212068F4E7226801461046F0E7FC
:101C8000704770B50446006801690025C94389079B
:101C9000002915DBC168C943890711D4E91E016118
:101CA00001202077206880698007204602D0FFF756
:101CB000E7FF04E000F0BCF8204600F047F9257784
:101CC00020680169C943490717D4C168C943490756
:101CD00013D40421C9430161022020772068806960
:101CE0008005800F204602D0FFF7CAFF04E000F015
:101CF0009FF8204600F02AF9257720680169C9433A
:101D0000090716D4C168C943090712D40821C94379
:101D10000161042020772068C0698007204602D036
:101D2000FFF7AEFF04E000F083F8204600F00EF964
:101D3000257720680169C943C90617D4C168C9431A
:101D4000C90613D41021C9430161082020772068F7
:101D5000C0698005800F204602D0FFF791FF04E0A4
:101D600000F066F8204600F0F1F825772068016958
:101D7000C943C90708D1C168C943C90704D1891E2D
:101D80000161204600F034F920680169C943090661
:101D900009D4C168C943090605D48021C94301613A
:101DA0002046FFF793FE20680169C943490609D41C
:101DB000C168C943490605D44021C9430161204691
:101DC00000F017F920680169C943890609D4C16880
:101DD000C943890605D42021C94301612046FFF784
:101DE00076FE70BD10B586B0044614216846FEF735
:101DF0002AFB012120688907884214D10B484269D7
:101E000049130A434261406908400590012000904F
:101E1000002002210290039001910491092069465B
:101E2000C006FEF7C5FC06B010BD00000010024061
:101E30007047F8B5064604462036307F00270D4629
:101E400001280ED001203077002A0CD0042A1BD0A4
:101E5000082A2FD00C2A3ED00127002030773846A0
:101E6000F8BD0220F8BD206800F0CAFB2068816937
:101E70000822114381612068826904218A438261BA
:101E8000206881692A6912E0206800F0F5FB20686B
:101E900082690121C9020A438261206881690122A5
:101EA000920291438161206881692A69120211437B
:101EB0008161D2E7206800F019FC2068C16908221E
:101EC0001143C1612068C26904218A43C26120684C
:101ED000C1692A6912E0206800F044FC2068C169E9
:101EE0000122D2021143C1612068C2690121890225
:101EF0008A43C2612068C1692A6912021143C16123
:101F0000ABE770B5040005D025462035687F002872
:101F100002D006E0012070BD00202877204600F0A6
:101F200014F802206877211D206800F007FB0120CB
:101F30004034A071A877E87720706070A070E070DE
:101F4000207160716877002070BD70477047000095
:101F500010B504460222203000290AD004290DD0F1
:101F60002046403008290ED04378012B10D00120A4
:101F700010BD837F012BFAD182770AE0C37F012B4A
:101F8000F5D1C27705E00378012BF0D1027000E0B3
:101F900042700122206800F013FB114A2068904231
:101FA00005D01049884202D00F49884204D1416CC3
:101FB0000123DB031943416420680121904205D0CD
:101FC0008A07904202D0094A904204D1826852079F
:101FD000520F062A02D002680A430260002010BD98
:101FE000002C014000440140004801400004004032
:101FF00070477047FEE770B500231D460EE0040FE2
:102000000A2C02D25E00303401E05E0037348C5579
:102010005C00641800015B1C6570DBB29342EED378
:1020200070BD000010B58EB0002407940894099488
:102030000A940B941C2168460C94FEF704FA0121C3
:102040001F4889070160FF214031846041600461BD
:102050001C498461C160FFF767FD002801D072B69A
:10206000FEE701200003079007A91548FFF79AFD36
:10207000002801D072B6FEE71148FFF742FF0028A2
:1020800001D072B6FEE70B940BA90D480C94FFF734
:102090001FFD002801D072B6FEE760200090019479
:1020A00002940022694604940548FFF7C2FE002806
:1020B00001D072B6FEE70248FFF794FE0EB010BDE5
:1020C00088010020E703000010B500220F491048E6
:1020D00000F09BFE002801D0FEF756FB0D490C488E
:1020E00001F08BF8002801D0FEF74EFB0A490848A2
:1020F00000F08AFC002801D0FEF746FB044801F0FE
:10210000D9F8002801D0FEF73FFB10BD14000020D5
:10211000100200205001002064000020FEE70000B3
:10212000FEB5044620300290A7E18A8817073F0FCA
:1021300033D0B9000191465A31047DD50199415AF5
:10214000D24A114080221143019A815228207843BB
:102150000519FF356935287B00286ED0E8780228FC
:102160006CD0287821688200885AC94B1840C94B26
:1021700018438852297820688A00825A52047DD5F3
:102180005022125ACB00C44912185918515A8905C5
:10219000890D009173D02A89D4E0D2062FD401880A
:1021A000BB4A803A11400122D203114301802068CA
:1021B0002546283501464030008A41182878C2005B
:1021C000B5481018085A8005800D6064E16B081846
:1021D000E06300212046FEF74FFC029800790028BA
:1021E000A2D0A86900289FD10298017980200143DC
:1021F0002068403081810299002008713DE1254628
:10220000FF3502886935130520D5098A0918287811
:10221000C200A148001D1018085A2B2183059B0DF0
:10222000EB610901EA886118206801F032FE20683C
:102230000188964A114002E0A0E05FE06EE0802253
:10224000114301802046FFF798F816E11104D5D517
:1022500001888E4A1140802211430180206850215C
:10226000095A8D4E08182978361DC9008919405A17
:1022700083059B0DEB6111D0696901E055E053E0E6
:1022800000290BD0EA88206801F003FEE96968693B
:102290004018686100212046FEF7FAFB206801889B
:1022A0000905ABD45021095A081829698019002959
:1022B00007D03E290BD84A08C90700D0521C91020A
:1022C0000DE00188754A11400180018804E04A0947
:1022D000C90600D1521E91020122D203114301808E
:1022E000216808886E4A10400122120350405200B3
:1022F0005040684A403A10430880BEE020685021B0
:10230000095A0A182978CB006349091D5918515AEE
:102310008905890D009119D0EA8813E032462946D3
:102320002046FEF70FFC009010E05022CB00125A1E
:1023300059491218091D5918515A8905890D0091DA
:1023400004D06A896969009B01F0A3FDE9690098DE
:102350000818E8616969009808186861A869002888
:1023600003D029690098814204D929782046FEF7D4
:102370008FFB03E02946206801F022FB30067CD564
:1023800028204743236801983919185A404A019D6B
:10239000803A10400122D203104358532831C878A4
:1023A000022842D000238B6170061CD54878002893
:1023B00002D001280ED057E0206850231B5A18186D
:1023C0000B78DB001B18344818180588334B1D4068
:1023D00005801CE020685022125A10180A78D2009A
:1023E00012182D481EE04D782068002D02D0012DD6
:1023F00010D039E050231B5A18180B78DB001B183B
:102400002548001D18180388244D2B40038003889D
:10241000134308E05022125A10180A78D2001218FA
:102420001D48001D101803801EE0F00521D420680F
:102430005022125A12180878C30017481818105A58
:102440008A698005800D82420CD9121A8A610BD0EC
:102450004A6912184A61CA691018C861206801F0F7
:10246000AFFA0AE00020886109782046FEF704FBF5
:1024700003E032462046FEF7D5FB20680146403196
:102480008A88120400D550E60020FEBD8F0F0000A0
:102490008F8F0000C080000002040000FF83000056
:1024A0008FBF00007047704710B5FEF753FA10BD9C
:1024B00030B597B034216846FDF7C5FF00240D9470
:1024C0000E940F94182111A81094FDF7BCFF222040
:1024D0000090012003900890022510200995049097
:1024E000C0020A900B940C946846FFF7D5F80028B8
:1024F00001D072B6FEE707200D900F9400210E95D3
:1025000010940DA8FEF7F4FF002801D072B6FEE784
:10251000012040041694119011A8FEF763FF0028D3
:1025200001D072B6FEE717B030BD704710B5024853
:10253000FFF7A7FB10BD000088010020F0B502687E
:102540001A4B0124A4071A4D984203D0A04201D08F
:10255000A84203D17026B2434E683243154E164F3F
:1025600098420AD0A04208D0A84206D0134CA042FC
:1025700003D0B04201D0B84204D103242402A243C4
:10258000CC6822438024A2434C69224302608A68BB
:10259000C2620A688262984203D0B04201D0B84257
:1025A00001D10969016301214161F0BD002C0140A5
:1025B0000004004000440140004801400020004069
:1025C00010B5CB06DB0E0121046A99408C430462EE
:1025D000016A9A401143016210BD30B58468FF253D
:1025E0002D021B021343AC430B432343836030BDD6
:1025F000826870239A430A4307210A438260704726
:10260000F0B5026A520852000262056A43688269A4
:102610007024A24392080C6892001443022295434E
:102620008A68134E2A43114DA84204D0B04202D00A
:10263000104FB84206D10827BA43CF681743042287
:1026400097433A46A84204D0B04202D0094DA8426E
:1026500006D103252D02AB434D691D438B692B43E6
:1026600043608461496841630262F0BD002C01400F
:10267000004401400048014070B5026A10239A43AB
:102680000262046A4368826973252D02AA430D68B9
:102690002D021543202294438A6812012243104CD4
:1026A000A04208D11446CA688026B44312012243CE
:1026B0004024A24305E00B4CA04202D00A4CA042A9
:1026C00008D10324A402A3434C69A4001C438B69D2
:1026D0009B0023434360856149688163026270BD4A
:1026E000002C0140004401400048014070B5026ADE
:1026F000FF2301339A430262046A4368C26970256A
:10270000AA4392080D689200154301225202944395
:102710008A6812022243104CA04207D1C414A2437B
:10272000CC68240222430615B24305E00B4CA042BC
:1027300002D00B4CA04208D103242403A3434C69CC
:1027400024011C438B691B0123434360C561496815
:10275000C163026270BD0000002C014000440140D2
:102760000048014030B5026A01231B039A4302620C
:10277000056A4268C36973242402A3430C682402D7
:102780001C4301235B039D438B681B032B430A4DB2
:10279000A84205D0094DA84202D0094DA84205D152
:1027A0000125AD03AA434D69AD012A434260C461CE
:1027B00049680164036230BD002C014000440140BF
:1027C0000048014030B5036A046A6408640004628A
:1027D0008469F025AC43120122430A24A3430B432E
:1027E0008261036230BD30B5036A1024A3430362E3
:1027F0008469036A0F252D031203AC432243A024EE
:10280000A343090119438261016230BDF8B5064650
:102810000520C0013018846B006C0D46002C1ED0C2
:10282000142169438F19FA69002A08D028216943C5
:102830000818816B1046FDF74DFE002906D0FF34C5
:102840000020FF34023460610020F8BD0020034600
:102850000246F8612946304600F0B1FCF4E7022058
:10286000F8BD70B50522D2018518AC6B00F09CFB59
:10287000E11DFF31FA31C860A86B002808D0486814
:10288000E96BCA688321890061189047002070BDF8
:10289000022070BD70B504460026812100F0D6FAF2
:1028A000002501212046E56200F0D0FAFF206D30BE
:1028B00005518221204600F0C9FA0520C001256497
:1028C0002418A06B002806D0E06B40688047A06BFE
:1028D00000F059FEA563304670BD052110B5C90151
:1028E0004018C36B816B002B0AD0CC1DFF34FA3427
:1028F0002078FF2804D09B6862789847FF202070DA
:10290000002010BD0A210180004870477800002097
:102910004321018000487047C80000204321018006
:102920000048704784000020432101800048704720
:102930000C010020F8B50546007CEF1D0026F93794
:102940000124002833D0402302228121284600F0B0
:1029500086FB4023EC6202220121284600F07FFB27
:102960000823032282212846FC6600F078FB87209A
:1029700080002C6400F008FE0521C90169188863F5
:1029800000281FD00446C86B00688047FF34002031
:10299000FF3402346061A061287C6268002813D093
:1029A00040230121284600F067FB3046F8BD012393
:1029B0005B0202228121284600F051FB01235B02C9
:1029C000EC62C8E70126F0E701235B02E9E7052195
:1029D00010B5C9014118896B002913D0027C002A67
:1029E00009D0FF31FF3102314A684023012100F054
:1029F00043FB002010BDFF31FF31023101235B0298
:102A00004A68F3E7022010BD02460220002904D0E4
:102A10000520C0011018C163002070470522D201B3
:102A20008018806BFF30FF3002304160002070471B
:102A30000523DB01C018806BFF30FF3002300261DC
:102A4000816000207047FEB5074605200C46C00196
:102A5000391800206A468E6B1070908005462078E9
:102A60006022024022D0202A3AD1E288002A16D0E1
:102A7000000607D5C96B60788B6831469847E288B5
:102A8000314626E0F01DFF306178FA300170A179FF
:102A90004170E2883146384600F069F825E0C96B9C
:102AA00060788B680022214698471EE060780028F5
:102AB00004D00A2808D00B2812D10EE0087F032882
:102AC0000ED1022201A904E0087F032808D10122C7
:102AD0006946384600F068F807E0087F032804D00C
:102AE0002146384600F039F802252846FEBD05216A
:102AF00010B5C9014118896B002913D0FF31FF318E
:102B000002314A69002A01D0012010BD01224A6128
:102B10000A6902630A8A93B28A68812100F04FFB36
:102B2000002010BD022010BD052210B5D201821870
:102B3000526B52689047002010BD134610B50A46EC
:102B4000002100F099FA002010BD134610B50A4686
:102B5000002100F034FB002010BD10B50446802198
:102B600000F010FB0021204600F00CFB10BD10B55A
:102B70000524E401032304196361C31DF933DA65F5
:102B80001A6613460A46002100F076FA002010BDAE
:102B9000052110B5CA018218002351611A46194651
:102BA00000F06AFA002010BD10B50524E4010223EC
:102BB00004196361C261134602620A46002100F0F3
:102BC000FEFA002010BD052210B5D20104218218A2
:102BD000002351611A46194600F0F1FA002010BD99
:102BE00010B50A46024903A000F0E0F8004810BD05
:102BF000D404002043444320436F6E66696700009D
:102C000012200880004870473400002010B50A46A2
:102C1000024903A000F0CAF8004810BDD404002007
:102C200043444320496E7465726661636500000029
:102C300004200880004870473000002010B50A4684
:102C4000024903A000F0B2F8004810BDD4040020EF
:102C500053544D6963726F656C656374726F6E690E
:102C60006373000010B50A46024903A000F09EF805
:102C7000004810BDD404002053544D33322056690F
:102C8000727475616C20436F6D506F727400000038
:102C900010B51A2008800948046BC16A406B0818F7
:102CA00009D008220649FFF7A6F905490422103188
:102CB0002046FFF7A0F90248801E10BD80F7FF1FD5
:102CC0004A000020F8B50D460446002069460880F9
:102CD000698805200A0AC0012018130001F020F9B4
:102CE0000844050B184444384144006B237C0268B7
:102CF0006946184617E0217C0226406B002905D062
:102D0000C16A684688470146467039E0816AF8E73B
:102D1000C9B20B0001F004F90604091013161928B2
:102D2000006B426803E0904719E0006B8268002A5C
:102D30001AD0207C6946F6E7006BC268F7E7006BA3
:102D40000269F4E7006B4269F1E7006B8269EEE724
:102D5000217C002908D1406B416B684688470146B9
:102D60000EE0217C002904D029462046FFF7F5FE1D
:102D7000F8BD406B016B68468847072201464270E8
:102D80006846008800280AD0EA88002A0AD08242D1
:102D900000D90246684602802046FFF705FFE88812
:102DA0000028E5D12046FFF70EFFF8BD70B50023DF
:102DB00000281DD00446002502E06D1CEDB2641C05
:102DC0002678002EF9D16C00A41C14801278CA5405
:102DD00003225B1CCA5400245B1C06E0CA545B1C23
:102DE000DAB28C54521CD3B2401C0278002AF5D1BE
:102DF00070BD01460020002904D0012901D002291C
:102E000001D0022070470120704710B5002811D072
:102E10000523DB01C3185C6B002C01D000245C632C
:102E2000002900D0196301211977027000F0C4F85D
:102E3000002010BD022010BD052210B5D20180185F
:102E4000006CFDF755FEFFF7D4FF10BD052210B54D
:102E5000D2018018006CFDF729FEFFF7CAFF10BDF4
:102E6000F8B506460520C00134181346002908D0DD
:102E7000606B4269002A02D0207F03284FD00220D5
:102E8000F8BD354660691435022804D0042839D0CD
:102E9000002837D03AE02F69E868B84207D9C01B4C
:102EA00082B2E86019463046FFF74FFE12E0AD6887
:102EB00039462846FDF70EFB002912D1BD4210D33A
:102EC000A06985420DD2002211463046FFF73DFE33
:102ED0000020A06100231A461946304600F0CCF8C5
:102EE00014E0606BC168002904D0207F032801D161
:102EF000304688478021304600F044F93046FFF7DD
:102F000047FE03E08021304600F03CF915204001E7
:102F100030180178012904D10021017001E0304608
:102F200090470020F8BD70B505460520C0012B185C
:102F30001646002908D0586B8269002A02D0187FF3
:102F400003282DD0022070BD2C46FF34586955341B
:102F5000032802D005281CD024E0E16820698142C2
:102F60000AD90B1AE360834200D303469AB2314672
:102F70002846FFF7E2FD15E0586B0169002904D0EF
:102F8000187F032801D1284688472846FFF71BFEF3
:102F900008E0002001465861284600F0F3F801E0FF
:102FA00028469047002070BD052210B5D201801838
:102FB000006CFDF7D7FF10BD10B51D49052208674D
:102FC000D20184181B491C4821640860082048600D
:102FD00002208860086100208861C8610862084694
:102FE000FEF712F9002801D0FDF7CEFB00221823CE
:102FF0001146206CFDF723FD582300228021206C10
:10300000FDF71DFDC02300228121206CFDF717FD77
:10301000FF23113300220121206CFDF710FDFF2357
:10302000013300228221206CFDF709FD002010BD34
:10303000740C0020F4090020005C0040CA09490615
:10304000490E282359431B01C018006C0818002A98
:1030500001D0203001E0FF306130807A704710B538
:103060001C460523DB01C0181346006C2246FDF701
:1030700082FFFFF7BEFE10BD10B50524E401001964
:10308000006CFDF7A3FFFFF7B4FE10BD70B5002282
:10309000044640231146FFF7E2FFE01D4026F930C9
:1030A0000125466685653346002280212046FFF7CC
:1030B000D6FF0520C00166622018A56105770021B2
:1030C000416161604162816B002904D0406B002145
:1030D000426820469047002070BD0521C901401874
:1030E000017F042901D1417F01770020704705212C
:1030F00010B5C90141180A7F032A04D1496BC96977
:10310000002900D08847002010BD017400207047BE
:10311000052210B5D2018018006CFEF71BF9FFF7ED
:1031200068FE10BD70B505465520C000281804463D
:1031300000F04FF80520C001012128184161C18D20
:103140008161152040012818007AC106C90E0AD0F5
:1031500001290DD0022910D0C109C901284600F06B
:1031600011F8002070BD2146284600F0A8F8F8E7C5
:103170002146284600F0DDF9F3E72146284600F015
:1031800023F9EEE7052210B5D2018018006CFDF797
:1031900032FFFFF72EFE10BD052110B5C901401802
:1031A000006CFEF7F6F8FFF724FE10BD0521C901FB
:1031B0004018017F4177042101770020704710B546
:1031C0000524E4010019006CFDF73FFFFFF711FE35
:1031D00010BD0A7802704A784270CB788A781B0258
:1031E000D21842804B790A791B02D21882808A79E0
:1031F000C97909025118C180704702460020002990
:1032000004D00523DB01D2185163704702207047B8
:10321000052210B5D2018218526B0224002A04D074
:1032200012689047002800D10024204610BD0000FD
:1032300070B50E4689781E4C05462170012904D9C7
:1032400031462846FFF789FC70BD0520C0012818CB
:10325000027F022A0AD0032A0ED031462846FFF701
:103260007CFC21782846FFF75FFC70BD002913D055
:103270000322696002770AE0002911D06868884259
:103280000AD0C1B22846FFF74FFC21786960284672
:10329000FFF7BEFF0228D3D02846FFF794FC70BD8D
:1032A0000222027728466960FFF73EFCF4E700003F
:1032B0007400002010B5FFF76FFF002010BDF8B5B7
:1032C000002200920A7860231A400523DB01C5180A
:1032D000002A07D0202A01D0402A6AD16A6B92685E
:1032E000904768E04C7800220126230000F018FE89
:1032F0000A3F5A6155610906612C2961FFF7E2FC1A
:1033000059E004468888002819D1C888002816D1B9
:103310004888802813D24706287F7F0E03280ED0C6
:10332000AF7739462046FFF7F3FE2046FFF74BFC08
:10333000002F02D0022028773DE02E773BE0204688
:1033400037E0FFF775FF36E0CB88012B31D12B7FBB
:10335000012B04D0022B02D0032B2AD104E082607F
:1033600001220146083115E00122011D12E02A7FE9
:10337000012A03D0022A01D0032A1AD1CA88022ABC
:1033800017D1C660696A002901D00321C1600146D6
:1033900002220C31FFF708FC0DE0498801290AD10F
:1033A0006E620EE02B7F012B07D0022B05D0032B82
:1033B00003D0FFF7D2FB0098F8BD49880129FAD164
:1033C0006A62FFF700FCF6E7F8B50A461378044690
:1033D00060201D4605400520C001002709792018FE
:1033E000002D09D0202D01D0402D77D1406B114602
:1033F0008368204698479AE05B069B0F012B07D015
:103400005378002B3BD0012B2BD0032B66D105E04A
:10341000406B1146836820469847F8BD007F02281C
:1034200002D003287FD10BE000297CD080297AD0FC
:103430002046FFF7A7FE80212046FFF7A3FE76E097
:103440005088002809D1002907D0802905D0D088CC
:10345000002802D12046FFF795FE2046FFF7B3FB78
:1034600065E0007F0228DFD003285CD15088002867
:103470005DD14806F1D02046FFF7DEFCEDE7007F86
:103480000026022802D003284DD116E0002901D0E1
:10349000802948D1C80906D04806400E1421484367
:1034A0000119143106E04806400E14214843011961
:1034B000FF31553102220E6031E0C8090FD00807F4
:1034C000000F142358430019806900282BD04806A8
:1034D000400E142250430519143511E023E008076B
:1034E000000F142358430019FF300130806D00286D
:1034F00019D04806400E142250430519FF355535A2
:10350000002909D0802907D02046FFF797FD002821
:1035100002D00120286000E02E60022229462046C9
:10352000FFF742FB03E011462046FFF716FB384643
:10353000F8BD70B505460C4608786021084003D0F8
:10354000202801D0402818D10520C0012818017F6B
:10355000012903D0022901D003290ED121790129A3
:103560000BD8406B2146826828469047E18801438A
:1035700007D12846FFF727FB03E021462846FFF73F
:10358000ECFA002070BD704700487047D407002057
:10359000F0B5002294460A789400035B894A1340F0
:1035A000CA78002A5ED0012A63D0022A03D0032AF7
:1035B0005BD001229446844A134303530D78AE0036
:1035C000845B824B1C402C43144384537F4D0E7B01
:1035D000044630354034002E4ED0CE78022E0E7880
:1035E00072D0B700C65BBE46794F3E401643774661
:1035F000C653268A0F783618FF00BF190126B60277
:10360000BE190F897F087F003780248A0E7824181E
:10361000F60036196F4C34194E89760876002680EC
:103620004C78002C0C7870D0A600845B640404D520
:10363000845B694F1C403C4384530C78A600845B38
:10364000640605D5845B1C405F4B40331C438453A8
:10365000CB78012B0B787CD09C00035B2B40202582
:103660006B40A3E00122520201E003225202134305
:10367000A1E701229202FAE74E78002E25D0248A93
:103680000E782418F60036190124A4023419CE88C5
:103690007608760026800C78A600845B640605D543
:1036A000845B1C40484B40331C438453CB78012B34
:1036B00005D009788B00C15A2940202447E00978B9
:1036C0008B00C15A294079E044E0258A0E782D18F4
:1036D000F60076193F4D7519CE88760876002E8053
:1036E000248A0D782418ED002C193A4D0127AD1CC1
:1036F00064190D69FF03002D08D03E2D0CD86E080B
:10370000ED0700D0761CB5020CE02AE02588334E88
:1037100035402580258804E06E09ED0600D1761E2F
:10372000B5023D4325800C78A500445B640404D5B4
:10373000445B1C40284B1C43445309788B00C15AFE
:10374000254CF13C21400124240361406400614088
:1037500034E028E0B700C65BBE46214F1E403E4322
:1037600045E7A600845B640404D5845B1A4F1C40C3
:103770003C4384530C78A600845B640605D5845BC7
:103780001C40114B40331C4384530B789C00035B5B
:10379000114EF13E334001263603734076007340EC
:1037A000134303538BE79C00035B2B4013430353EA
:1037B00009788B00C15A084CF13C21401143C15299
:1037C0006046F0BD8F890000808000008F8F000070
:1037D0008F8E00000404000080C00000FF83000002
:1037E00080810000F0B50A780F7B374B4E78374D5B
:1037F000374C9200002F22D0002E865A41D07604FA
:1038000003D5865A26402E4386520A789600825B5C
:10381000520605D5825B2C4F224040373A438253F3
:103820000A789600825B22402A4382530A789400E9
:10383000025B274D30352A401A43025317E0002E11
:103840000ED0855A6D0605D5855A25401E4C40344C
:103850002543855209788A00815A1D4C30340BE08B
:10386000865A760403D5865A26402E438652097816
:103870008A00815A154CF13C2140194381520020A5
:10388000F0BD760403D5865A26402E4386520A7828
:103890009500425B520605D5425B0B4E22404036F6
:1038A000324342530A789500425B2240064C403432
:1038B000224342530A789400025B044DF13D2A40B2
:1038C0001A430253C6E700008080000080C0000059
:1038D0008F8F00004030018B0122D20311430183FE
:1038E000002070470121403001800021018081804B
:1038F00001820846704700004030034902888A432D
:10390000028000207047000080BF000030B50A7BB5
:10391000002A30D14A78194D002A194B0A7814D060
:103920009400025B520605D5025B2A40144D4035D7
:103930002A430253CA78012A1DD009788A00815A85
:103940000E4C30342140202412E09400025B5204DB
:1039500004D5025B2A400B4D2A43025309788A00A2
:10396000815A084CF13C2140012424036140640049
:10397000614019438152002030BD00008F8F00004C
:103980008080000080C0000010B54A780978094B9B
:103990008900002A425A03D0074C2240102403E039
:1039A000064C22400124240362401A434252002064
:1039B00010BD000080800000BF8F00008FBF00009E
:1039C000F0B50D464B780746FE4A097B4037044662
:1039D000012B08D000297DD0E87802287BD001286F
:1039E0007AD00120F0BDAE692869864200D906462A
:1039F000002912D0E97802291FD0286A801B28628A
:103A000028788100615A4906398A66D50919C000AB
:103A10004118ED4808180680EEE0B3B2EA88204667
:103A2000696900F052FA388A29780019C900091822
:103A3000E548001F08180680E4E0296A81422878DA
:103A400070D98100605A1040E04A10436052286AE1
:103A5000801B286228788100615A4906697874D5EC
:103A6000002902D0012920D026E0398AC000091996
:103A70004118D5480818002E08D03E2E0CD87108E1
:103A8000F20700D0491C8902018015E00188D04A64
:103A900011400180018804E07109F20600D1491E3D
:103AA00089020122D2031143EEE73A8AC0001119BC
:103AB0004118C548081806806A89B3B2204669696A
:103AC00000F003FA6869801968612969286A8842E8
:103AD00006D903E0D0E0EFE058E1C5E0801B01E04B
:103AE0000646002028626878002802D0012823D0EA
:103AF00029E0388A29780019C9000918B248001F3E
:103B00000818002E08D03E2E0DD87108F20700D0FC
:103B1000491C8902018016E00188AD4A11400180EC
:103B2000018805E08DE07109F20600D1491E890285
:103B30000122D2031143EDE7388A29780019C90020
:103B4000091894E001E02A8957E0002902D00129F0
:103B500021D028E0398AC000091941189A48001F6D
:103B60000818002E08D03E2E0CD87108F20700D09D
:103B7000491C8902018016E00188954A11400180A4
:103B8000018804E07109F20600D1491E8902012270
:103B9000D2031143EEE7398AC000091941188A4857
:103BA000001F081806802A89B3B22046696900F010
:103BB0008CF96869801968612969286A884201D985
:103BC000801B01E00646002028626878002802D0A9
:103BD000012830D010E0388A29780019C900091866
:103BE00079480818002E17D03E2E1BD87108F2070E
:103BF00000D0491C890201806A89B3B220466969F4
:103C000000F063F928788100605A6E4A3032104023
:103C100010225040202211E101886D4A114001809C
:103C2000018804E07109F20600D1491E89020122CF
:103C3000D2031143DFE7398A08192978C900091826
:103C4000E7E68200A05A634B1840634B1843A0522A
:103C5000388A2A780019D20012185B488BB2001FEC
:103C6000101803802A89C9E70919C000411856486D
:103C7000001F0818068066E7A9692869814201D9F2
:103C8000091A01E008460021A961398A2A78091930
:103C9000D20052184C495118002875D03E2874D9CA
:103CA0004209C00602D002E09002BDE0521E90021E
:103CB0000122D2031043B7E0002B12D1388A2978B1
:103CC0000019C90009184048001F0818296900296F
:103CD0000DD03E2911D84B08C90700D05B1C9902B2
:103CE00001806878002811D0012844D020E00188A4
:103CF000374B19400180018804E04B09C90600D107
:103D00005B1E99020123DB031943E9E7388A29780E
:103D10000019C90009182C480818296900291BD066
:103D20003E291FD84B08C90700D05B1C99020180AF
:103D3000E869002879D028788100605A430401D5C9
:103D4000430602D4254B18426FD1605A1040224AD4
:103D500040321043605268E001881D4B19400180D9
:103D6000018804E04B09C90600D15B1E99020123BA
:103D7000DB031943DBE7398A08192978C9000918D8
:103D800011480818298AD2E742E047E0A969286962
:103D9000814201D9091A01E008460021A961002BDE
:103DA00020D1398A2A780919D20052180649091FE8
:103DB000511800281DD03E2821D84208C30700D042
:103DC000521C0DE08F8F000006040000808100006F
:103DD000FF8300008F8E00008080000040400000C4
:103DE00092020A806978002900D14EE701292BD080
:103DF0001BE00A88184B1A400A800A8804E042092E
:103E0000C30600D1521E92020123DB031A43E8E7E6
:103E10000888114A10400880088849E74208C0070E
:103E200000D141E7521C3FE7088028788100605AA2
:103E30000A4A104001221203504052005040084AE2
:103E4000104360520020F0BD3A8A11192A78D2003E
:103E5000521804495118E7E7FF8300008FBF0000A4
:103E6000808000000604000000214030818002496B
:103E7000018000207047000080BF000010B502489C
:103E8000FDF7FCF810BD0000F409002040308088E8
:103E90007047801810B5012292025C088018002C2F
:103EA00007D002880A70120A4A70801C891C641E9E
:103EB000F7D1DA0701D00088087010BD002902D1BF
:103EC00080214030818100207047801801225B1CD6
:103ED000920210B55B088018002B08D04A780C7845
:103EE000120222430280801C891C5B1EF6D110BD89
:103EF000F8B5040C8BB2264682B25E430D0C104618
:103F0000370C5843360480190021794116466E4318
:103F1000370C36048019794126466E438919F8BD5D
:103F200030B47446641E2578641CAB4200D21D4632
:103F3000635D5B00E31830BC184700008307FF2275
:103F4000DB0E9A408907090E9940002808DB830898
:103F500009489B001B181868904308431860704775
:103F60000007000F0838830804489B001B18D86915
:103F700090430843D861704700E400E000ED00E0A2
:103F800092B0FCF7EFFCFEF793FA18484269012162
:103F900049040A434261406908401090FEF742F824
:103FA000FEF792F800211248FDF7D2FF7D20C000F5
:103FB000FCF7ECFB0F4C2068FCF7C4F981B22068D9
:103FC00010E00B4869464830FCF740FA0028F8D06A
:103FD000074968464831FCF78FF96846FCF7B2F9A3
:103FE00081B26846FCF7B8FBEBE700000010024026
:103FF00088010020000000200000000000000000F8
:10400000010203040607080948656C6C6F2C2057F1
:104010006F726C64210D0A00384000080000002017
:10402000880100009A060008FC4000088801002072
:10403000D00F000004010008130840330801820477
:1040400013127A13012C1B0831041A3D041A65045B
:104050001A910413E12B1B080D081704030904121D
:1040600001140202021640830440571D020102039C
:1040700041031A1A0313F9061B08F5041AF1041375
:104080001D074208130A0632022A407C1C0902431B
:1040900047111CC03209861B01020B1305241610A0
:1040A0000105240110090104240202052406170158
:1040B00007058203081C1009047D320A1D0705014B
:1040C00002432C070581070938442A40072A810743
:1040D000112B0907440A3B04441335291408952879
:1040E0004C08472AE81ADB0C1A0D041A6304C11A9B
:0C40F0001D281A11041A29041A050400E6
:04000005080000C12E
:00000001FF
