:020000040800F2
:1000000070060020290200083102000833020008AF
:10001000350200083702000839020008000000001D
:100020000000000000000000000000003B0200088B
:100030003D020008000000003F02000841020008E5
:10004000430200084302000843020008430200087C
:10005000430200084302000843020008430200086C
:10006000430200084302000843020008430200085C
:10007000430200084302000843020008430200084C
:10008000430200084302000843020008430200083C
:10009000430200084302000843020008430200082C
:1000A000430200084302000843020008430200081C
:1000B000430200084302000843020008430200080C
:1000C00043020008430200084302000843020008FC
:1000D00043020008430200084302000843020008EC
:1000E00043020008430200084302000843020008DC
:1000F00043020008430200084302000843020008CC
:1001000043020008430200084302000843020008BB
:1001100043020008430200084302000843020008AB
:10012000430200084302000843020008430200089B
:10013000430200084302000843020008430200088B
:10014000430200084302000843020008430200087B
:10015000430200084302000843020008430200086B
:10016000430200084302000843020008430200085B
:100170004302000843020008430200080000000098
:10018000430200084302000800F002F800F03CF8C7
:100190000AA090E8000C82448344AAF10107DA45E2
:1001A00001D100F031F8AFF2090EBAE80F0013F0F8
:1001B000010F18BFFB1A43F001031847A00300000A
:1001C000C0030000103A24BF78C878C1FAD852079B
:1001D00024BF30C830C144BF04680C6070470000C1
:1001E0000023002400250026103A28BF78C1FBD840
:1001F000520728BF30C148BF0B6070471FB500F0E1
:100200009FF91FBD10B510BD00F031F81146FFF782
:10021000F5FF00F085F900F04FF803B4FFF7F2FFA7
:1002200003BC00F057F80000094880470948004720
:10023000FEE7FEE7FEE7FEE7FEE7FEE7FEE7FEE796
:10024000FEE7FEE704480549054A064B70470000F3
:10025000C504000889010008700000207006002015
:10026000700200207002002070477047704775468A
:1002700000F02CF8AE4605006946534620F0070012
:10028000854618B020B5FFF7DDFFBDE820404FF0F0
:1002900000064FF000074FF000084FF0000BAC468F
:1002A000ACE8C009ACE8C009ACE8C009ACE8C009DA
:1002B00021F007018D46704710B50446AFF300806A
:1002C0002046BDE81040FFF7A8BF00000048704777
:1002D0000800002001491820ABBEFEE726000200FE
:1002E00070470000B0B5044600F0E6F8054640F25D
:1002F0000000C2F200000078611C18BF044400BF77
:1003000000F0DAF8401BA042FAD3B0BD2DE9F04F5F
:1003100083B000F13E4202F1FF7243F6004E4FEA15
:10032000B22241F60047C4F2010E0192C4F2020764
:1003300008224FF0010B00254FF000084FF0000994
:10034000B84208BF072200920AE000BF09F1010984
:1003500008F10408B9F1100F05F1020500F0A080C2
:100360000F680BFA09F417EA040CEFD0D1F804A0D7
:10037000BAF1120F15D80BFA0AF717F0061F10D0B2
:1003800087680322CE68AA4027EA0202AE403243C1
:1003900082604268A243CAF3001404FA09F42243BB
:1003A0004260C26803238C6803FA05FB22EA0B0251
:1003B000AC4022434AF01004122CC2600FD16FF0FF
:1003C000030202EA5902024408F01C060F23146AD1
:1003D00003FA06F70B69BC43B34023431362036877
:1003E0004C686FEA0B021A4004F00303AB401A4357
:1003F000E3004FF0010B0260A8D5002243F644034E
:100400000292C4F202031A684FF6084A42F480428C
:100410001A601A68CFF6FF7A02F480420292029ABA
:1004200029F00302724452F80A3008F00C040F2637
:10043000A640019FB343009E072F38BF3E4606FAF1
:1004400004F4234342F80A30DEF800204B6842EA05
:100450000C04DE0358BF22EA0C04CEF80040DEF89C
:1004600004209E0342EA0C0458BF22EA0C04CEF892
:100470000440DEF80820DE0242EA0C0458BF22EAFB
:100480000C04CEF8084043F60C44C4F20104226880
:100490009B0242EA0C0358BF22EA0C03236055E793
:1004A00003B0BDE8F08F000042690A408A4208BFED
:1004B000090481617047000040F26800C2F2000048
:1004C000006870474EF68850CEF20000016841F493
:1004D000700101604FF0006140F8801C704700001F
:1004E00080B586B00020019043F63000C4F20200CF
:1004F000016841F020010160006801A900F02000BE
:1005000001900198012002904FF4C060019041F2E7
:100510000040C4F20200FFF7F9FE06B080BD000003
:10052000FFF7DEFF41F20044C4F2020420464FF41C
:10053000C061FFF7B9FF4FF47A70FFF7D3FEF5E71C
:10054000F1EE100A4FF6FF71C0F2C03120EA01004F
:1005500040F04070E1EE100A70470000800500088E
:100560000000002008000000C40100088805000801
:100570000800002068060000E001000800000000FC
:08058000010000000000000072
:040000050800018965
:00000001FF
