:020000040800F2
:100000009022002049010008F5010008ED010008D8
:10001000F1010008E7010008750200080000000077
:10002000000000000000000000000000F9010008CE
:10003000EB01000800000000F7010008FB010008C8
:100040006301000863010008630100086301000800
:1000500063010008630100086301000863010008F0
:1000600063010008630100086301000863010008E0
:1000700063010008630100086301000863010008D0
:1000800063010008630100086301000863010008C0
:1000900063010008630100086301000863010008B0
:1000A00063010008630100086301000863010008A0
:1000B0006301000863010008630100086301000890
:1000C0006301000863010008630100086301000880
:1000D0006301000863010008630100086301000870
:1000E0006301000863010008630100086301000860
:1000F0006301000863010008630100086301000850
:10010000630100086301000863010008630100083F
:10011000630100086301000863010008630100082F
:10012000630100086301000863010008630100081F
:10013000DFF810D000F01AF80048004799070008CF
:10014000AFF3008090220020064880470648004711
:10015000FEE7FEE7FEE7FEE7FEE7FEE7FEE7FEE777
:10016000FEE7FEE70502000831010008064C074DD6
:1001700006E0E06840F0010394E807009847103477
:10018000AC42F6D3FFF7D8FFA80D0008C80D000851
:1001900070B58C1810F8015B15F0070301D110F849
:1001A000013B2A1106D110F8012B03E010F8016B76
:1001B00001F8016B5B1EF9D12B0705D40023521EF9
:1001C0000DD401F8013BFAE710F8013BCB1A921C61
:1001D00003E013F8015B01F8015B521EF9D5A1425F
:1001E000D8D3002070BD00BFFEE7704700BFFEE718
:1001F00000BFFEE770477047704710B500F06AF81F
:1002000010BD000010B51748006840F00100154906
:10021000086008464068144908401249486008468A
:100220000068124908400F4908600846006820F439
:1002300080200860084640680D4908400949486028
:100240000846006809490840064908604FF41F0045
:10025000886000F051FC00214FF0006000F01EFBB0
:1002600010BD0000001002400C00FFE8FFFFF6FE8A
:10027000FFFF00F700BFFEE710B5002804DB0A0708
:10028000130E054A135406E00A07140E034A00F041
:100290000F031B1FD45410BD00E400E018ED00E074
:1002A00002E008C8121F08C1002AFAD1704770473F
:1002B000002001E001C1121F002AFBD1704700009D
:1002C0000349086000BF024909680029FBD1704753
:1002D000040100200448006820B103480068401E63
:1002E00001490860704700000401002070B5054610
:1002F0000C462146284600F01FF908B900BFFEE76A
:1003000004EB8400810005F10800405840F0010131
:1003100004EB8400820005F10800815070BD70B5C7
:1003200005460C462146284600F006F908B900BFEC
:10033000FEE704EB8400810005F10800405820F03E
:10034000200104EB8400820005F10800815070BD9B
:1003500070B504460D462946204600F0EDF808B970
:1003600000BFFEE705EB8500810004F1080040585E
:1003700020F0010105EB8500820004F108008150A6
:10038000002105EB8500820004F10800815005EB97
:100390008500820004F10C00815005EB850082008D
:1003A00004F11000815005EB8500820004F1140077
:1003B00081506068AA000F2191400843606070BDC1
:1003C00030B503461C688D0002FA05F52C400CB1CF
:1003D000012000E0002030BD2DE9F04104460D462B
:1003E00016462946204600F0A7F808B900BFFEE7E8
:1003F00005EB8500820004F110003168815005EBA7
:100400008500820004F11400B1688150308A81B205
:1004100005EB8500820004F10C00815005EB85009E
:10042000810004F10800475827F47C57F168706890
:10043000084371690843074305EB8500810004F117
:1004400008004750307E01280ED105EB8500810061
:1004500004F10800405840F0400105EB850082009F
:1004600004F1080081500DE005EB8500810004F1E6
:100470000800405820F0400105EB8500820004F19F
:1004800008008150707E01280ED105EB85008100A7
:1004900004F10800405840F0800105EB850082001F
:1004A00004F1080081500DE005EB8500810004F1A6
:1004B0000800405820F0800105EB8500820004F11F
:1004C00008008150B07E70B905EB8500810004F111
:1004D0000800405820F0100105EB8500820004F16F
:1004E000080081500DE005EB8500810004F1080053
:1004F000405840F0100105EB8500820004F108002F
:100500008150BDE8F08170B505460C46214628466D
:1005100000F012F808B900BFFEE704EB8400810088
:1005200005F10800405820F4804104EB840082006B
:1005300005F10800815070BD02460120034B9A422C
:1005400002D1042900DD00207047000000040240B1
:1005500070B5054600242748854200D103E02648AF
:10056000854200D10124254931F8140000F032FA07
:10057000234931F8140000F02DFA224951F82430B3
:10058000214951F824000322182100F079F81F496D
:1005900051F824301C4951F824000322042100F0B2
:1005A0006FF8284600F01CFB4FF4E131284600F0BC
:1005B000CFFA0021284600F0EEFB0021284600F08B
:1005C000DAFB0021284600F0C6FB0021284600F097
:1005D000BAFB0021284600F0AEFB0421284600F0BB
:1005E000C2FB0821284600F0CEFB284600F09EFB07
:1005F00070BD000000380140004400404801002068
:100600002C01002030010020400100203801002092
:1006100010B504460B4931F8140000F0DBF90A4923
:1006200051F82430094951F824000322102100F028
:1006300027F8054850F82400044951F8241048616F
:1006400010BD00004C0100201C0100200C01002006
:10065000034951F82010034A52F820205161704795
:100660001C0100200C010020034951F82010034A0E
:1006700052F82020116170471C0100200C0100205D
:10068000F0B5044616460025002201F00F0501F0E2
:10069000100707B1354300201EE0012787401F40A7
:1006A000C7B122684FEA800C0F2707FA0CF7BA434C
:1006B000870005FA07F73A43282904D10127874024
:1006C0001F40676105E0482903D1012787401F408B
:1006D00027612260471CB8B20828DED3082022E038
:1006E000012787401F40E7B16268A0F108074FEA81
:1006F000870C0F2707FA0CF7BA43A0F10807BF00D1
:1007000005FA07F73A43282904D1012787401F40FB
:10071000676105E0482903D1012787401F40276111
:100720006260471CB8B21028DAD3F0BD70B5044639
:10073000002520E04FF4C870FFF7C2FD0020FFF74E
:1007400093FF0120FFF790FF0220FFF78DFF0320AA
:10075000FFF78AFF4FF4C870FFF7B2FD0020FFF7E4
:1007600077FF0120FFF774FF0220FFF771FF0320DE
:10077000FFF76EFF6D1CA542DCDB70BD10B50020DD
:10078000FFF746FF0120FFF743FF0220FFF740FF7E
:100790000320FFF73DFF10BDFFF7F0FF00F0B0F9B9
:1007A0000120FFF7C3FF2F48FFF7D2FE00F060FAE9
:1007B00003212D48FFF79AFD04212B48FFF796FDF2
:1007C0008021284800F0AAFA4021264800F09EFA2D
:1007D00000BF022203212448FFF7F2FD0028F8D0D1
:1007E00000BF022204212048FFF7EAFD0028F8D0CC
:1007F0004FF480721D491E4800F03EF81D490870F4
:100800002EE01C480078012827D10020FFF72CFF9C
:10081000C820FFF755FD0120FFF726FFC820FFF78E
:100820004FFD0220FFF720FFC820FFF749FD0320FE
:10083000FFF71AFFC820FFF743FD0020FFF708FF6E
:100840000120FFF705FF0220FFF702FF0320FFF75B
:10085000FFFEC820FFF734FD02E00120FFF766FF2E
:10086000CFE7000000380140000002408C0100206A
:10087000000000200001002030B5034607E013F817
:10088000014B11F8015BAC4201D0002030BD101EBD
:10089000A2F10104A2B2F2D10120F7E7024A0A4014
:1008A0000243024B1A60704780FFFF1F08ED00E013
:1008B0002DE9F04F8BB00746002009903EA090E84C
:1008C000004CC068CDE905BECDF810A007900FF22E
:1008D000EC0ADAE9000ACDE9020A0FF2E00ADAE9E5
:1008E000000ACDE9000A38484068C0F381000A9048
:1008F0000A9820B1012804D0022829D103E0334905
:1009000028E0324926E03048406800F48038B8F5E5
:10091000803F09D12D4C2C48406800F40039B9F5CE
:10092000003F02D1641000E0294C27484068C0F322
:1009300083422548406800F0006008B142F0100290
:100940000F2A01D2921C00E0521C04FB02F101E0CC
:100950001E4900BF00BF1C484068C0F3031504A82F
:10096000465D21FA06F318484068C0F3022502A844
:10097000465D23FA06FC14484068C0F3C2251DF802
:10098000056023FA06F0089037B1012F06D0022F38
:1009900006D0032F0AD106E0099108E0099306E08A
:1009A000CDF824C003E00898099000E000BF00BF24
:1009B00009980BB0BDE8F08F0000000000000000B7
:1009C00001020304060708090010024000127A0021
:1009D00000093D00064A02EB9011096800F01F0370
:1009E00001229A401143024B03EB901211607047B1
:1009F00000100240064A02EB9011096800F01F0344
:100A000001229A409143024B03EB90121160704710
:100A100000100240064A02EB9011096800F01F0323
:100A200001229A401143024B03EB90121160704770
:100A300000100240002000212C4A126842F480324B
:100A40002A4B1A6000BF401C284A126802F4003189
:100A500019B94FF6FF729042F5D1244A126802F498
:100A600000320AB900BFFEE7204A52681F4B5A60A5
:100A70001A4652685A601A46526842F480625A60B6
:100A80001A46526822F440325A601A46526842F4BA
:100A900040325A601A465268154B1A40134B5A603E
:100AA0001A465268134B1A43104B5A601A46126882
:100AB00042F080721A6000BF0C4A126802F00072A5
:100AC000002AF9D0094A526822F00302074B5A6003
:100AD0001A46526842F002025A6000BF034A526846
:100AE00002F00802002AF9D070470000001002400E
:100AF000FFFFC3F70000280810B5FFF79BFF10BDEC
:100B000010B5124800684FF47A71B0FBF1F4601E22
:100B1000B0F1807F01D301200FE0601E4FF0E02193
:100B200048610F214FF0FF30FFF7A6FB00204FF088
:100B3000E021886107200861002008B100BFFEE7BE
:100B40000021481EFFF798FB10BD0000080100209F
:100B50002DE9F04704460D460027B846B946002661
:100B60001D49601A8C421CD006DC1C48204470B120
:100B7000B0F5806F1FD10FE0B0F5806F16D0B0F5E3
:100B80006C4F18D10320FFF793FE074614E00220B4
:100B9000FFF78EFE07460FE00220FFF789FE0746AB
:100BA0000AE00220FFF784FE074605E00220FFF777
:100BB0007FFE074600E000BF00BF07EB5500B0FB1B
:100BC000F5F64FF6F07006EA000806F00F0948EA5D
:100BD0000900A060BDE8F087004C004000BCFFBFEA
:100BE00010B504462049601A8C4228D006DC1F4804
:100BF000204490B1B0F5806F33D117E0B0F5806F2D
:100C000026D0B0F56C4F2CD140F20E30FFF702FF2A
:100C100040F20E30FFF7EEFE24E040F21140FFF705
:100C2000F9FE40F21140FFF7E5FE1BE040F21240F2
:100C3000FFF7F0FE40F21240FFF7DCFE12E040F258
:100C40001340FFF7E7FE40F21340FFF7D3FE09E041
:100C500040F21440FFF7DEFE40F21440FFF7CAFEF8
:100C600000E000BF00BF10BD004C004000BCFFBF53
:100C700000B587B04FF4A060FFF7ACFE03211F481A
:100C8000FFF766FB01208DF81A001D480290012035
:100C90008DF81900002003904FF4807004901948DB
:100CA000009000208DF8180001904FF440500590FE
:100CB0006A4603211148FFF78FFB03210F48FFF716
:100CC0002EFB03210D48FFF71EFC04210B48FFF704
:100CD0003FFB00208DF81A000B4802906A46042161
:100CE0000648FFF779FB04210448FFF718FB0421AD
:100CF0000248FFF708FC07B000BD000000000240FA
:100D000000000020043801408C0100200A46002128
:100D1000416921F040011143416170470A460021B9
:100D2000416921F08001114341617047C16841F47C
:100D30000051C16070470A460021416921F40071E9
:100D40001143416170470A460021416921F48071D5
:100D5000114341617047C26822F4C062C260C26838
:100D60000A43C26070470A460021C16821F00401AD
:100D70001143C1607047026922F440520261026966
:100D80000A43026170470A460021C16821F0080148
:100D90001143C1607047C26822F48052C260C268C9
:100DA0000A43C26070470000C80D00080000002020
:100DB0008C010000900100081C0F00088C0100202D
:100DC00004210000B00200081100FF00010203042A
:100DD00005060708090A0B0C0D0E0F10111213144B
:100DE00015161718191A1B1C1D1E1F20212223243B
:100DF00025262728292A2B2C2D2E2F30313233342B
:100E000035363738393A3B3C3D3E3F40414243441A
:100E100045464748494A4B4C4D4E4F50515253540A
:100E200055565758595A5B5C5D5E5F6061626364FA
:100E300065666768696A6B6C6D6E6F7071727374EA
:100E400075767778797A7B7C7D7E7F8081828384DA
:100E500085868788898A8B8C8D8E8F9091929394CA
:100E600095969798999A9B9C9D9E9FA0A1A2A3A4BA
:100E7000A5A6A7A8A9AAABACADAEAFB0B1B2B3B4AA
:100E8000B5B6B7B8B9BABBBCBDBEBFC0C1C2C3C49A
:100E9000C5C6C7C8C9CACBCCCDCECFD0D1D2D3D48A
:100EA000D5D6D7D8D9DADBDCDDDEDFE0E1E2E3E47A
:100EB000E5E6E7E8E9EAEBECEDEEEFF0F1F2F3F46A
:100EC000F5F6F7F8F9FAFBFCFDFE92FF14F36F0656
:100ED0003C100140044A180432013204290832024D
:100EE0002D0E061107092914290542081A082C1984
:100EF000041E0206020604022901391429484A0C7C
:100F0000441132201A404419204B03065069141131
:0C0F1000130201360D0E06282800000018
:0400000508000131BD
:00000001FF
