:020000040800F2
:100000005007002065010008851A0008FF19000844
:1000100000000000000000000000000000000000E0
:10002000000000000000000000000000891A000825
:100030000000000000000000871A00088B1A00086A
:1000400077010008770100087701000877010008B0
:1000500077010008770100087701000877010008A0
:1000600077010008770100087701000859030008AC
:100070007701000877010008000000007701000800
:1000800000000000770100080000000000000000F0
:1000900077010008000000007701000877010008E0
:1000A0007701000877010008770100087701000850
:1000B0005121000877010008770100087701000846
:1000C00000F002F800F03EF80CA030C80838241800
:1000D0002D18671EA246AB4654465D46AC4201D180
:1000E00000F030F87E460F3EB6460FCC0126334274
:1000F00000D0FB1A3343A246AB4618473C2300000E
:100100005C230000103A02D378C878C1FAD85207AD
:1001100001D330C830C101D504680C6070470000BD
:100120000023002400250026103A01D378C1FBD813
:10013000520700D330C100D50B6070471FB51FBDFB
:1001400010B510BD00F0D5F81146FFF7F7FF02F02B
:1001500005F800F0EDF803B4FFF7F2FF03BC00F080
:10016000F3F800000748804707480047FEE7FEE72E
:10017000FEE7FEE7FEE7FEE704480549054A064BB1
:1001800070470000931A0008C100000850010020C9
:10019000500700205003002050030020FEB5044605
:1001A00010460D46184373D0A6468C460020A41A6C
:1001B00001469D4167D36646002701243D46B61A95
:1001C0009D4102D313463A462124654676462F04C4
:1001D000360C3E432D0CB61A9D4104D3150C1B045E
:1001E0002B4312041034654676462F06360A3E43EA
:1001F0002D0AB61A9D4104D3150E1B022B43120281
:100200000834654676462F0736093E432D09B61A4F
:100210009D4104D3150F1B012B431201241D65467C
:100220007646AF07B6083E43AD08B61A9D4104D3E3
:10023000950F9B002B439200A41C65467646EF0762
:1002400076083E436D08B61A9D411AD392185B4159
:10025000641C16E00018764665464941B71A9D4170
:100260000191009009D36046B11A98418E468446A8
:10027000009801990025401C6941DD0752082A4376
:100280005B08641EE6D57246634603B0F0BDFFE727
:100290002046284307D00020C0430146C046C04640
:1002A00022462B46F1E700200146F7E701E004C0B3
:1002B000091F0429FBD28B0701D50280801CC907C6
:1002C00000D00270704700290BD0C30702D0027023
:1002D000401C491E022904D3830702D50280801CDA
:1002E000891EE3E70022EEE70022DFE77047704750
:1002F0007047754600F024F8AE460500694653463F
:10030000C008C000854618B020B5FFF735FF60BCB7
:10031000B64600260027C0C5C0C5C0C5C0C5C0C5FB
:10032000C0C5C0C5C0C5403D490849008D4670479D
:1003300010B50446C046C0462046FFF70CFF10BD6E
:10034000004870471000002001491820ABBEFEE7AE
:10035000260002007047000080B5024800F04CF80B
:1003600080BDC04670000020EFF3108072B6FEE73B
:1003700010B5014624314A78022A14D10268136864
:100380000E24A343136013680124A3431360026C7B
:10039000406C1C2303402046984050604C70002065
:1003A00000220A7010BD0422C263012000220A70DC
:1003B00010BDB0B5014624314A78022A18D102682E
:1003C00013680E24A343136013680125AB43136025
:1003D000026C436C1C241C402B46A3405360002439
:1003E0000C704D70816B002900D088472046B0BD4D
:1003F0000421C1630120B0BDF0B585B0016C03914B
:100400000C68066831680425019129404A424A4136
:100410000490416C1C230B402F469F4039460294A8
:1004200021404C424C4114432FD00096012002271A
:10043000019E314639404D424D419F40029C27422A
:100440000246014600D02946049805462435002975
:100450002AD008210E4077427741DC40210700D5A1
:100460003A46002A1ED1009C22680E218A4322604F
:10047000012211469940039B5960C26300212970F3
:100480006A70416B00290CD10CE03068800602D400
:100490003068A8433060039847600498016B0029D6
:1004A00000D0884705B0F0BD009B1968890605D4C7
:1004B0001A680A218A431A60012169700021297093
:1004C00003994F60C16A0029EBD1EBE7F0B585B025
:1004D000002841D004460546243502206870204893
:1004E000206426681F483018142101F091FE800016
:1004F0000090606431681C4B0B40A268E16827697A
:1005000060690190A0690290E0690390206A0490FC
:100510001943394301980143029801430398014369
:1005200004980143114331600121880382420DD0B8
:100530001C20009E06400F20B0400C4A13688343E5
:1005400013606068B0401368034313600020E063E9
:100550002870697005B0F0BD012005B0F0BDC0463F
:1005600000000240F8FFFDBF0F80FFFFA80002401F
:10057000F0B582B004462420255C0220012D2BD04A
:10058000019226462436012232707778012F21D13C
:10059000022070700020E063266837689743376058
:1005A000256C0095676C1C253D401746AF40009DAB
:1005B0006F607360A368102B019F00D00F46B76077
:1005C000102B00D00199F1603168236B002B05D00E
:1005D0000E2308E00021317002B0F0BD04239943DE
:1005E000316033680A211943316031681143316049
:1005F00002B0F0BDF0B58AB0019009910A68002AF6
:1006000000D1B7E05C48019B834201D0062000E0A6
:1006100005200B2109075B180A21CB410093042B0D
:1006200000D300900026354634460BE01143396074
:10063000641C099802681046E040B61C2D1D002875
:1006400000D197E001210846A0400240F0D002947A
:1006500004920591089503252946B140CA4309999A
:1006600034464E6833462B405F1E012F0792069694
:10067000039410D80F4601998D681540FF68A74074
:100680002F438F60F506ED0F029CA5404F6887430E
:100690002F434F6008E0032B029C05D12B46019F9E
:1006A000089D049A039E22E0019FF868079908407C
:1006B00009998D68039EB5400543FD60022B089D96
:1006C000049A14D11C2028400F218140E3089B008C
:1006D000FB1806931D6A8D43099B196981402943C4
:1006E000089D069801625868032306900340B340B2
:1006F0003868079908401843386006988003800FCF
:10070000059B95D046490868184308600C2028408E
:100710000F218140032325469D43194FEB598B43FD
:10072000009981401943E951144FB968099840680C
:10073000C30201D5114300E09143089DB960F968F7
:1007400083020AD51143F960796883030AD491437F
:1007500079603968C0030BD568E79143F96079681F
:100760008303F4D5114379603968C00300D55DE790
:1007700091435CE70AB0F0BD001C0050000401404A
:1007800008000140054800687047C0461D480078D1
:1007900002490A68101808607047C0464C010020E2
:1007A00010B50848016840220A4302600024204630
:1007B00000F00AF8002801D0012010BD00F026F852
:1007C000204610BD0020024070B504467D20C000C8
:1007D0000C4E317801F01CFD01460B48006801F019
:1007E00017FD00F075FD0125032C08D8002806D15F
:1007F0000025E84321462A4600F020F87460284688
:1008000070BDC046000000200800002004480168B8
:10081000012211430160110742680A434260704798
:1008200034100240002805D41F21084001218140D6
:10083000014801607047C04600E100E0002805D48F
:100840000322034693430A4A9A1803E00C2202400B
:10085000064BD2188007C00E8901C9B28140FF2320
:1008600083401068984308431060704714ED00E01F
:1008700000E400E0F0B589B007680125EA021146FE
:1008800020317C4B0F4272D0079208902907143B0D
:1008900018680840069002D118680843186003934E
:1008A00004912F02744C2068C00511D4206838438D
:1008B0002060FFF767FF06462068384208D1FFF73F
:1008C00061FF801B6428F7D90325284609B0F0BDD5
:1008D0000326340567484C38059001682140089B81
:1008E00058680246224001963604914203D19A6824
:1008F0002240914207D001463140B14203D10599CF
:1009000009688903E1D402945A4B596831401ED0DA
:100910003040814203D008980078800609D40898B6
:1009200080683040814212D00898006807990842D8
:100930000DD05868E9045A680A435A605A688A43D5
:100940005A600146B1435960384200D080E00898AF
:10095000076807990F424FD1B906029C62D40699E5
:10096000002904D1039C2168049A91432160F9076E
:100970000BD1B90711D4790717D439071ED47906DA
:1009800025D400253906A0D52CE01968032291430F
:10099000C2680A431A60B907EDD519680C22914361
:1009A00002690A431A607907E7D5032189021A68A8
:1009B0008A434169114319603907E0D503210903CE
:1009C0001A688A438169114319607906D9D50121D2
:1009D00089061A688A43016A11431960002539069D
:1009E00000D472E703218A0419689143C06908435F
:1009F0001860284609B0F0BD826811463140B14206
:100A00000AD10298024003231B05059D2C689C43D4
:100A1000184B089814432C605A680A435A60B90668
:100A2000029C9CD5426811463140B14209D1224016
:100A300003231B05059D2C689C430E4B089814430B
:100A40002C605A680A435A60069900298AD08EE7BA
:100A5000FFF798FE0546904C064B5868800500D578
:100A600075E7FFF78FFE401BA042F5D9019D284690
:100A700009B0F0BD4C10024000700040F0B583B0EA
:100A80000290002846D00E4682480068012101915C
:100A90000840B04216D27F4908680125A843304378
:100AA00008607D4CFFF76EFE07467A4800682840D4
:100AB000B04207D0FFF766FEC01BA042F5D9032065
:100AC00003B0F0BD029800688107814D06D5296802
:100AD000F0229143029A92680A432A60C0071CD10F
:100AE0006C48006801273840B04225D96949086838
:100AF000B8430860684CFFF745FE05466548006846
:100B0000C00719D0FFF73EFE401BA042F6D90320D4
:100B100003B0F0BD012003B0F0BD02984268294641
:100B20000C39012A32D0032A35D0022A39D109687A
:100B30008903019833D538E0029800684107644C76
:100B400007D50721090222688A430299C96811431F
:100B50002160000708D50720C00221688143029860
:100B60000069C0000843206021680807820F7348AD
:100B70007A4412795200974401617F683804214613
:100B8000083909680904490F884075E00968490770
:100B9000019804D509E009688901019805D403B0DA
:100BA000F0BD096889050198F9D5296803200190ED
:100BB000814311432960FFF7E5FD0746029840682D
:100BC000354C032811D002281DD0012829D12868CE
:100BD0000C210140042900D182E7FFF7D3FDC01B9F
:100BE000A042F4D9019803B0F0BD28680C2101405F
:100BF0000C2900D174E7FFF7C5FDC01BA042F4D952
:100C0000019803B0F0BD28680C210140082900D1EB
:100C100066E7FFF7B7FDC01BA042F4D9019803B007
:100C2000F0BD28680007800F00D159E7FFF7AAFD43
:100C3000C01BA042F5D9019803B0F0BD20460C3886
:100C40000068C00612D53F4816E08A02120F3C4BDE
:100C50009A5C0902890F491C2368DB0309D42046EA
:100C60000C380068C00603D4374802E0364803E079
:100C70003448504301F0CCFA21680906090F074AAD
:100C8000515CC8401149086005480068FFF79CFDA9
:100C900003B0F0BD002002408813000006240008C5
:100CA0000400002009480068094909684905490FFE
:100CB000084A515CC8407047044800680449096804
:100CC0008904490F034A515CC8407047080000205E
:100CD0000C1002401624000810B5804AD16808079D
:100CE000830F16487B441B795B009F440108070D66
:100CF0000120000451680904490F884010BD1068A4
:100D0000C00613D50F4810BD8B021B0F0C4CE35CC3
:100D10000902890F491CD468E40303D41068C00693
:100D200006D40948584301F073FA10BD064810BDB7
:100D30000448584301F06CFA10BDC04600127A0016
:100D40001E24000800093D000024F400F0B589B01D
:100D5000002856D0614EF1680C220A40069201210B
:100D600005910904F76804910F4007900078C007C7
:100D700010D00698082806D006980C2800D0CFE09E
:100D8000002F00D1CCE03068800303D5079840687D
:100D900000284AD007980078800735D40798007853
:100DA000C00645D40798007800075FD407990878F3
:100DB000400700D594E00878800600D51BE107982D
:100DC000846A002C1AD006980C2800D067E1012C08
:100DD0002BD0F068049A0240079BD96A8A4224D13A
:100DE0000F21890401401A6B91421ED1032189050C
:100DF0000840596B8842059800D053E2002009B0A2
:100E0000F0BD012009B0F0BD079BD8680699042900
:100E100006D006990C2900D0ADE0002F00D0AAE042
:100E20003168490739D5002837D1059809B0F0BD98
:100E30000698002800D1B4E030680799C9690029F4
:100E400000D108E101210A02104330604C02FFF793
:100E500099FC05463068204200D00FE1FFF792FC74
:100E6000401B0228F6D9032009B0F0BD306D079968
:100E70004969002900D1DDE0012108433065FFF711
:100E800081FC0546306D800790D4FFF77BFC401B4A
:100E90000228F7D9032009B0F0BD1F2109027268AA
:100EA0008A4319690902114371603168092291432B
:100EB00001433160F1680807820FFB485200C046C9
:100EC0007A4492885200974403002001DE012601F3
:100ED00070680004410F04988840D4E1001002407B
:100EE00001221107B06B0840029002D1B06B084399
:100EF000B063019103921402F24F3868C00525D403
:100F0000386820433860FFF73DFC054638682042CA
:100F10001CD1FFF737FC411B03206429F6D9C1E13E
:100F20000798406805994C040499884209D0052126
:100F30000904884200D0C9E0059880043168014363
:100F400031603068049908433060CFE007988068CA
:100F5000002800D122E1052109028842039A00D12C
:100F600033E1A04200D134E1306DA04330659102FD
:100F7000306D88432FE13168002800D1DDE009227F
:100F8000914301433160FFF7FDFB054630684007A0
:100F900000D5F9E0FFF7F6FB411B03200229F5D944
:100FA00080E130688005079B03D5D869002800D10F
:100FB0003BE70720400371688143586A0143716031
:100FC000FF21090672688A43196A09068918716047
:100FD000400B04998140F0680006000FB64A105C8F
:100FE000C140B6480160B6480068FFF7EDFB002835
:100FF00000D057E1D6E6B06807998969002900D189
:10100000ACE001210843B060706B08437063480393
:10101000AE490A6802430A60FFF7B4FB0546B068B0
:10102000800700D5CBE6FFF7ADFB411B032002296B
:10103000F5D937E1012188433065FFF7A3FB054669
:10104000306D800700D4B1E6FFF79CFB411B032005
:101050000229F5D926E101210A02904330604C02B1
:10106000FFF790FB05463068204200D19AE6FFF773
:1010700089FB411B03200229F5D913E10720400316
:1010800071688143079A506A08437060FF20000628
:1010900071688143106A00064018706082E601277B
:1010A0003806316881433160FFF76CFB0546022C3E
:1010B00000D0AAE07F063068384200D1C1E0FFF7D7
:1010C00061FB411B03200229F5D9EBE03168049A4A
:1010D000914331603168114008910899059989045C
:1010E00032688A433260002800D19CE0FFF74AFB57
:1010F00005463068204200D04CE6FFF743FB401B1A
:101100006428F6D9032009B0F0BD3068C00600D4C9
:1011100087E06748B7E08A02120F644B9A5C0902C5
:10112000890F491CF368049C234200D0A8E0306872
:10113000C00600D5A3E05F48A2E0012081433160F2
:10114000FFF720FB05463068400700D426E6FFF78E
:1011500019FB411B03200229F5D9A3E00121884393
:10116000B060480359490A6882430A60FFF70AFBE6
:101170000546B068800700D421E6FFF703FB411B5A
:1011800003200229F5D98DE01F20000271688143F8
:1011900007980069000208437060FFE5306DA043C6
:1011A0003065039A9002316D814331655402464F98
:1011B000FFF7E8FA0546306D20421CD0FFF7E2FA4F
:1011C000411B0320B942F6D96CE09002316D014316
:1011D0003165306D2043306554023B4FFFF7D2FA42
:1011E0000546306D204206D1FFF7CCFA411B0320A3
:1011F000B942F6D956E002980028079900D0DAE5FE
:10120000B06B019A9043B063D5E57C06306820420C
:1012100000D1F3E5FFF7B6FA411B03200229F5D907
:1012200040E024482FE0FFF7ADFA05463068204241
:1012300000D1AFE5FFF7A6FA411B03206429F5D9D9
:1012400030E0FD200004F1688143079B2C330DCB77
:10125000084310431843F0602748401C316801439D
:101260003160FFF78FFA04463068384200D0C5E598
:10127000FFF788FA011B03200229F5D912E00C4878
:10128000504300F0C5FFF1680906090F0A4A515C96
:10129000C8400A4908600A480068FFF795FA002824
:1012A00000D17BE509B0F0BD00127A001E240008D1
:1012B00000093D000024F400062400080800002076
:1012C000040000200070004088130000200001404E
:1012D000401E010E01D0012070470749074A5060A7
:1012E000074803680B400321890759180160002053
:1012F0009060072111607047FFFFFF0010E000E0E1
:1013000020ED00E07047704770470000F0B589B0ED
:101310000368DE691A682021089205910A4051424B
:1013200051410127FD022C462F3407963440203CC2
:10133000661EB4410C439C6860D002A98CC1069023
:101340000246583201950F35079F2F42089807D063
:10135000E7490140012326461E40711800D09BE05A
:101360001023014619404E424E413D463946194030
:101370004F424F410698016E01290498014643D11E
:1013800039460029014642D0002943D02F46012387
:1013900099050C4066426641E9020146039A00D570
:1013A0003146002900D1F5E08021089A11404C42D5
:1013B0004C4139060146069800D52146002900D146
:1013C0008AE14025089929404C424C41790600D5D4
:1013D0000494049900290FD1EFF3108183F310884E
:1013E00002681368AB43136081F310880021C16663
:1013F0000599C16700F002FB09B0F0BD816E0029BC
:10140000FAD0884709B0F0BD00290146BCD1314669
:101410000029BBD1039803628068400600D5C0E074
:101420005488108808925288002A0699E4D0A04275
:10143000E2D00794EFF31084012282F3108809258B
:101440006D010E683768AF43376084F31088EFF39F
:10145000108482F310880D68AE689643AE6084F302
:101460001088059C089DAC6200248C660C66EFF326
:10147000108482F310880A6815689D43156084F310
:10148000108802224A66079A801A82B208461146DC
:10149000FFF738FF09B0F0BD190201404C424C4142
:1014A000F9070498014600D021460029039D03D185
:1014B0002B62D16A1943D16274427441B907014663
:1014C00000D52146002905D102212962D16A0424D0
:1014D0000C43D462744274417907014600D5214619
:1014E000002905D104212962D16A02240C43D46267
:1014F00002990E43744274413907064600D52646C8
:10150000002E04D108212962D46A0C43D4629906C2
:10151000089E0E407442744101990F42069E0CD001
:1015200020463C4600280BD12962D16A0598014328
:10153000D162D16A002907D15EE73C460028F3D08A
:10154000D16A002900D157E7174605982146014086
:101550000298444244410029049800D020460028C3
:101560003C4608D1B16E002905D030461C4688475C
:1015700023463C463568E16A28220A40A968402093
:10158000014089185ED13046FFF7BEFE0020E062C0
:1015900009B0F0BD190511620698FFF7B4FE09B055
:1015A000F0BD1746069E706F006841688AB2002A37
:1015B00000D121E73C88A24200D31DE73A4679805A
:1015C0000068800633D4EFF31081012080F3108887
:1015D000494A2032346825681540256081F3108817
:1015E000EFF3108180F3108832689468844394602C
:1015F00081F31088EFF3108180F3108832689468CB
:101600004025AC43946081F310880599B9620021AC
:101610003166EFF3108180F31088306802689A43D6
:10162000026081F31088706FFEF7A2FE3A46022036
:10163000706610885188401A81B23046FFF762FE0A
:1016400009B0F0BDEFF3108183F310880922520135
:101650001D4633681C6894431C6081F31088EFF3C7
:10166000108185F31088326893680895AB439360C6
:1016700081F31088316E01290BD1EFF31081089AA4
:1016800082F31088326813681024A343136081F337
:1016900010880599B96200213166B16631688968A0
:1016A000490620D5EFF31081089A82F3108832683A
:1016B00093688343936081F31088706F002812D081
:1016C0000C498163FEF775FE002800D194E6706F27
:1016D000816B884709B0F0BDC16E002900D18BE64F
:1016E000884709B0F0BD3046FFF70EFE09B0F0BDE7
:1016F000200100042D1C0008DFFEFFFFB0B500280C
:101700002FD00446C06F002805D178200021215435
:10171000204600F029F82420E067206801680125B0
:10172000A9430160204600F03DFB012817D0606A04
:10173000002802D0204600F0ADF90920C00221683F
:101740004A6882434A6088682A2290438860086811
:10175000012202430A60204600F006FA05462846A8
:10176000B0BD0120B0BD0000F0B587B004460068F0
:10177000C349884201D007B0F0BD01204104B24AFC
:10178000D3680B43D36011680143116011680140B5
:101790000191042706970320059000260496022055
:1017A00003900C20029001980520000702A9FEF783
:1017B00021FF104D2E62202080210F4A84C52E600B
:1017C0006E60A960EE602E616861083D2846FEF7F4
:1017D0007DFE002801D0FEF7C7FDAC6265671C24C2
:1017E000002120460A46FFF729F82046FFF71AF89D
:1017F00007B0F0BD7000002058000240F0B583B083
:10180000044606465836B06A202814D113460A46C4
:10181000012500290CD0002B0AD001273803A1682C
:1018200081420CD1D0070AD02069002807D13D465B
:10183000284603B0F0BD0225284603B0F0BD0025C0
:10184000256620682D49884213D04068000210D5D3
:10185000EFF31080029087F31088B806019020689B
:10186000009001680198014300980160029880F39C
:101870001088F562338062652220B062606F0028B4
:1018800014D02149C1621F4901631D494163856329
:1018900021682431FEF76CFE002807D01020F0628A
:1018A0002020B0623D46284603B0F0BD20690028E4
:1018B0000BD0EFF31080012181F310880902226818
:1018C00013680B43136080F31088EFF3108001213D
:1018D00081F31088226893680B43936080F310882B
:1018E000EFF3108081F3108821688A684023134346
:1018F0008B6080F31088284603B0F0BD004800409C
:10190000431C0008851D0008F51C000880B55B48D5
:1019100002490B220A2300F005F880BD4001002097
:1019200070470000F0B585B00546C06F202811D182
:10193000012000290CD01646002A09D001200703F7
:10194000AA68BA4209D1CA0707D02A69002A04D175
:1019500005B0F0BD022005B0F0BD019103932C4607
:1019600050340020029060632120E867FEF70AFFF0
:10197000049066802680A868B84202D128690028B1
:1019800001D0019F02E000270198029003990CE02A
:10199000029A10881849084029688862921C0292AD
:1019A000374603996088401E60806088002810D008
:1019B00000918021002628463246049B00F0F6FA6A
:1019C000002814D1002FE3D03878296888627F1C62
:1019D000E7E70091402100222846049B00F0E6FA48
:1019E0002021E9670028B3D0032005B0F0BD2020F6
:1019F000E867032005B0F0BDFF0100007047FEE777
:101A000010B582B0094801680122114301600068E5
:101A10001040019001980B24002120460A46FEF751
:101A20000DFF2046FEF7FEFE02B010BD3010024052
:101A300081B005480168012211430160006810402F
:101A40000090009801B070472C10024010B50B4870
:101A500000210C220A4B01624162E124640218C099
:101A6000016041608160C260016141610838FFF737
:101A700045FE002801D0FEF777FC10BDB80000201D
:101A800000440040FEE77047704780B5FEF77EFED9
:101A900080BD7047B0B5416ACA070CD18A0714D41B
:101AA0004A071CD40A0724D4CA062CD48A0634D484
:101AB0004A063CD44CE00122520403685C6894431B
:101AC000826A22435A608A07EAD501221204036817
:101AD0005C689443C26A22435A604A07E2D50122F5
:101AE000920403685C689443026B22435A600A07BD
:101AF000DAD50122D20303685C689443426B224327
:101B00005A60CA06D2D50122120303689C68944326
:101B1000826B22439A608A06CAD501225203036867
:101B20009C689443C26B22439A604A0610D50122F6
:101B30001305026854689C43056C2C4354609D4215
:101B400006D103235B0554689C43436C23435360D5
:101B5000090607D50121C904026853688B43806CCC
:101B600018435060B0BD0000F0B583B0044606468F
:101B700078360027F760FEF705FE03462068016807
:101B800009071FD528480090012002904105002236
:101B900020461D4600F00AFA002811D0EFF310800D
:101BA000029981F3108821680A6880239A430A60A9
:101BB00080F310882020E0670320377003B0F0BD69
:101BC00020682B460068400725D51748009001255E
:101BD000A9050022204600F0E9F900281BD0EFF308
:101BE000108085F3108809214901226813688B430E
:101BF000136080F31088EFF3108085F3108821685C
:101C00008A68AA438A6080F310882020B06003208D
:101C1000377003B0F0BD2020E067B06027666766CC
:101C20003846377003B0F0BDFFFFFF0180B5806A12
:101C30000146523100220A8152214252FFF764FBD1
:101C400080BDF0B581B0806AC16F802283580246A2
:101C500052320468A5682D0612D5212910D1002121
:101C60001180EFF31081012484F310880468256843
:101C7000C026B543256081F310882021C167046820
:101C800001468031A46864062CD5222B2AD100237A
:101C90001381EFF31084012282F3108809256D016E
:101CA00006683768AF43376084F31088EFF3108419
:101CB00082F310880568AE689643AE6084F310889E
:101CC000046E012C0AD1EFF3108482F310880268AD
:101CD00015681026B543156084F3108820220A6029
:101CE000836603664A68102313434B60FFF70CFBBF
:101CF00001B0F0BD70B50146806A024658320968ED
:101D00000968890632D400215180EFF31083012144
:101D100081F310880C0205682E68A6432E6083F3B9
:101D20001088EFF3108381F310880468A5688D4351
:101D3000A56083F31088EFF3108381F310880468A3
:101D4000A5684026B543A56083F3108820239362DD
:101D5000036E012B0AD1EFF3108381F31088016821
:101D60000C681025AC430C6083F310880021416699
:101D7000016E012903D11188FFF7C4FA70BDFFF786
:101D8000C5FD70BD80B5806A01214166016E0129E3
:101D900005D15821415A4908FFF7B4FA80BDFFF731
:101DA000BFFD80BDF0B581B0044601680868704A87
:101DB0000240A06823690343606918431043E26945
:101DC00010430860032630034B688343E0681843E0
:101DD0004860A569674B994202D0206A284300E019
:101DE00028460B252D028F68AF4307438F6062485A
:101DF000814208D099420AD06048814238D1604877
:101E0000C06C61A507E05E48C06C800802E05C48D9
:101E1000C06C800A5B4D8007000F2F580125E80336
:101E200099422AD0824211D1082F00D999E0C046A8
:101E30007F443F797F00BF44043D47944D94949480
:101E40007600FEF72FFF002848D06CE0082F00D95D
:101E500087E0C0467F443F797F00BF440430418221
:101E6000478282827500FEF71DFF00286CD141E099
:101E700010270125E8039942D4D1082F71D8C04614
:101E80007F443F797F00BF44046C096C0F6C6C6C1D
:101E90003800FEF707FF00282FD109E03848006816
:101EA000C00629D53D4828E0FEF716FF002824D1BA
:101EB000002556E0FEF700FF002834D10EE0FEF7C3
:101EC000FBFE002840D115E02D480068C00629D54A
:101ED000324828E0FEF700FF002824D1002540E02A
:101EE00027480068C0062ED52C482DE0FEF7F4FEEA
:101EF000002829D1002534E0274862685643B042C3
:101F00002FD3110388422CD8010E5608000200235B
:101F100080195941FEF742F922494118224A91425B
:101F20001FD21BE01C48400061684A08101800F0EE
:101F30006FF90246103A1A498A4212D2014000074C
:101F4000400F08430AE0144861684A08101800F07E
:101F50005FF901461039124A914202D22168C860E5
:101F600000250020A066E066284601B0F0BDC0460E
:101F7000F369FFEF00480040004400400038014092
:101F800000100240282400080100000004000000A6
:101F900002000000080000000024F40000093D00D9
:101FA000F0FF000000FDFFFF00FD0F00F0B587B05F
:101FB00015460F460668F1693940C91B4A424A4135
:101FC0000021AA4225D106930C9C002C24D00B465C
:101FD000611C26D1F1693940C91B4A424A41AA42D3
:101FE00014D1F1693940C91B4A424A41AA420DD174
:101FF000F1693940C91B4A424A41AA4206D1F169F6
:102000003940C91B4A424A41AA42E3D0184607B0A8
:10201000F0BD084607B0F0BDFEF7B4FB032007B0E3
:10202000F0BD029301467831039101210191C9026B
:102030000491059006E0C9693940CA1B51425141DB
:10204000A9424BD1FEF79EFB0699411A0323A142F8
:10205000DCD8059801680A685207ECD5CA691207EE
:102060003FD4CA692646049C22423446E3D01F4628
:1020700004980862EFF31082012181F3108809238C
:102080005B010598046825689D43256082F31088EC
:10209000EFF3108281F31088059803689C688C43E5
:1020A0009C60059882F31088026E012A0BD1EFF331
:1020B000108281F3108801680B681024A3430B6021
:1020C000059882F310882021039B99600022026604
:1020D00082661A70D960384607B0F0BD029807B022
:1020E000F0BD08250D62EFF31081019880F3108890
:1020F00009225201059B1B681C6894431C6081F3F4
:102100001088EFF3108180F31088059A12689368A5
:1021100083439360059B81F31088196E01290CD1CC
:10212000EFF31081012282F310881A6813681024DB
:10213000A3431360059B81F310882021039A9160CB
:102140000021196699661170D56007B0F0BD0000D6
:1021500080B52D48FFF7DAF880BDC0469CB0FEF789
:102160001FFB0EAD281D3421FEF7BEF80024089495
:102170000794069405940494039402940194032014
:10218000C00220490A68824301201590C00210183D
:1021900008601894052040031790169410200E90A4
:1021A0002846FEF7D3FD002803D0EFF3108072B667
:1021B000FEE70A940F2009900B940C940D9409A843
:1021C0002146FEF75BFC002803D0EFF3108072B6C7
:1021D000FEE70494022000906846FEF74BFB0028BF
:1021E00003D0EFF3108072B6FEE7FFF721FCFFF794
:1021F00007FCFFF72BFC044804490B22FFF7FEFA0B
:10220000FEE7C04600700040B800002040010020FA
:1022100043088B421AD3002203098B4279D3030A65
:102220008B425ED3030B8B4242D3030C8B4227D3EA
:102230000902FF2212BA030C8B4202D312120902C6
:1022400003D0030B8B4233D31AE0D3E0411A804111
:10225000401C704703460B4371D443088B42F5D3AF
:10226000002203098B4254D3030A8B4239D3030B58
:102270008B421DD3030C8B4202D394466EE0090AB5
:10228000C30B8B4201D3CB03C01A5241830B8B4249
:1022900001D38B03C01A5241430B8B4201D34B0332
:1022A000C01A5241030B8B4201D30B03C01A524197
:1022B000C30A8B4201D3CB02C01A5241830A8B421C
:1022C00001D38B02C01A5241430A8B4201D34B0205
:1022D000C01A5241030A8B4201D30B02C01A524169
:1022E000CDD2C3098B4201D3CB01C01A524183091D
:1022F0008B4201D38B01C01A524143098B4201D357
:102300004B01C01A524103098B4201D30B01C01A81
:102310005241C3088B4201D3CB00C01A52418308FB
:102320008B4201D38B00C01A524143088B4201D328
:102330004B00C01A5241411A524110007047CA0F57
:1023400000D04942031000D34042534000229C4633
:1023500003098B422DD3030A8B4212D38901FC223D
:1023600012BA030A8B420CD3890192118B4208D313
:10237000890192118B4204D3890137D0921100E078
:102380008909C3098B4201D3CB01C01A5241830989
:102390008B4201D38B01C01A524143098B4201D3B6
:1023A0004B01C01A524103098B4201D30B01C01AE1
:1023B0005241C3088B4201D3CB00C01A524183085B
:1023C0008B4201D38B00C01A5241D9D243088B42B1
:1023D00001D34B00C01A5241411A00D2014652416A
:1023E000104663465B1000D34042704763465B1063
:1023F00000D3404201B50021004201D0C943084644
:10240000C046C04602BD00000000000000000102FE
:102410000304060708090000000001020304030486
:1024200006080C1018203000000000000400000016
:1024300002000000080000005824000800000020EE
:1024400010000000040100086824000810000020AB
:102450004007000020010008010000000400000007
:08246000000020000000000054
:04000005080000C12E
:00000001FF
